{
  "_format": "hh-sol-artifact-1",
  "contractName": "NFT",
  "sourceName": "contracts/NFT.sol",
  "abi": [
    {
      "inputs": [
        {
          "internalType": "address",
          "name": "marketplaceAddress",
          "type": "address"
        }
      ],
      "stateMutability": "nonpayable",
      "type": "constructor"
    },
    {
      "anonymous": false,
      "inputs": [
        {
          "indexed": true,
          "internalType": "address",
          "name": "owner",
          "type": "address"
        },
        {
          "indexed": true,
          "internalType": "address",
          "name": "approved",
          "type": "address"
        },
        {
          "indexed": true,
          "internalType": "uint256",
          "name": "tokenId",
          "type": "uint256"
        }
      ],
      "name": "Approval",
      "type": "event"
    },
    {
      "anonymous": false,
      "inputs": [
        {
          "indexed": true,
          "internalType": "address",
          "name": "owner",
          "type": "address"
        },
        {
          "indexed": true,
          "internalType": "address",
          "name": "operator",
          "type": "address"
        },
        {
          "indexed": false,
          "internalType": "bool",
          "name": "approved",
          "type": "bool"
        }
      ],
      "name": "ApprovalForAll",
      "type": "event"
    },
    {
      "anonymous": false,
      "inputs": [
        {
          "indexed": true,
          "internalType": "address",
          "name": "from",
          "type": "address"
        },
        {
          "indexed": true,
          "internalType": "address",
          "name": "to",
          "type": "address"
        },
        {
          "indexed": true,
          "internalType": "uint256",
          "name": "tokenId",
          "type": "uint256"
        }
      ],
      "name": "Transfer",
      "type": "event"
    },
    {
      "inputs": [
        {
          "internalType": "address",
          "name": "to",
          "type": "address"
        },
        {
          "internalType": "uint256",
          "name": "tokenId",
          "type": "uint256"
        }
      ],
      "name": "approve",
      "outputs": [],
      "stateMutability": "nonpayable",
      "type": "function"
    },
    {
      "inputs": [
        {
          "internalType": "address",
          "name": "owner",
          "type": "address"
        }
      ],
      "name": "balanceOf",
      "outputs": [
        {
          "internalType": "uint256",
          "name": "",
          "type": "uint256"
        }
      ],
      "stateMutability": "view",
      "type": "function"
    },
    {
      "inputs": [
        {
          "internalType": "uint256",
          "name": "tokenId",
          "type": "uint256"
        }
      ],
      "name": "getApproved",
      "outputs": [
        {
          "internalType": "address",
          "name": "",
          "type": "address"
        }
      ],
      "stateMutability": "view",
      "type": "function"
    },
    {
      "inputs": [
        {
          "internalType": "address",
          "name": "owner",
          "type": "address"
        },
        {
          "internalType": "address",
          "name": "operator",
          "type": "address"
        }
      ],
      "name": "isApprovedForAll",
      "outputs": [
        {
          "internalType": "bool",
          "name": "",
          "type": "bool"
        }
      ],
      "stateMutability": "view",
      "type": "function"
    },
    {
      "inputs": [
        {
          "internalType": "string",
          "name": "_uri",
          "type": "string"
        }
      ],
      "name": "mint",
      "outputs": [],
      "stateMutability": "nonpayable",
      "type": "function"
    },
    {
      "inputs": [],
      "name": "name",
      "outputs": [
        {
          "internalType": "string",
          "name": "",
          "type": "string"
        }
      ],
      "stateMutability": "view",
      "type": "function"
    },
    {
      "inputs": [
        {
          "internalType": "uint256",
          "name": "tokenId",
          "type": "uint256"
        }
      ],
      "name": "ownerOf",
      "outputs": [
        {
          "internalType": "address",
          "name": "",
          "type": "address"
        }
      ],
      "stateMutability": "view",
      "type": "function"
    },
    {
      "inputs": [
        {
          "internalType": "address",
          "name": "from",
          "type": "address"
        },
        {
          "internalType": "address",
          "name": "to",
          "type": "address"
        },
        {
          "internalType": "uint256",
          "name": "tokenId",
          "type": "uint256"
        }
      ],
      "name": "safeTransferFrom",
      "outputs": [],
      "stateMutability": "nonpayable",
      "type": "function"
    },
    {
      "inputs": [
        {
          "internalType": "address",
          "name": "from",
          "type": "address"
        },
        {
          "internalType": "address",
          "name": "to",
          "type": "address"
        },
        {
          "internalType": "uint256",
          "name": "tokenId",
          "type": "uint256"
        },
        {
          "internalType": "bytes",
          "name": "_data",
          "type": "bytes"
        }
      ],
      "name": "safeTransferFrom",
      "outputs": [],
      "stateMutability": "nonpayable",
      "type": "function"
    },
    {
      "inputs": [
        {
          "internalType": "address",
          "name": "operator",
          "type": "address"
        },
        {
          "internalType": "bool",
          "name": "approved",
          "type": "bool"
        }
      ],
      "name": "setApprovalForAll",
      "outputs": [],
      "stateMutability": "nonpayable",
      "type": "function"
    },
    {
      "inputs": [
        {
          "internalType": "bytes4",
          "name": "interfaceId",
          "type": "bytes4"
        }
      ],
      "name": "supportsInterface",
      "outputs": [
        {
          "internalType": "bool",
          "name": "",
          "type": "bool"
        }
      ],
      "stateMutability": "view",
      "type": "function"
    },
    {
      "inputs": [],
      "name": "symbol",
      "outputs": [
        {
          "internalType": "string",
          "name": "",
          "type": "string"
        }
      ],
      "stateMutability": "view",
      "type": "function"
    },
    {
      "inputs": [
        {
          "internalType": "uint256",
          "name": "index",
          "type": "uint256"
        }
      ],
      "name": "tokenByIndex",
      "outputs": [
        {
          "internalType": "uint256",
          "name": "",
          "type": "uint256"
        }
      ],
      "stateMutability": "view",
      "type": "function"
    },
    {
      "inputs": [
        {
          "internalType": "address",
          "name": "owner",
          "type": "address"
        },
        {
          "internalType": "uint256",
          "name": "index",
          "type": "uint256"
        }
      ],
      "name": "tokenOfOwnerByIndex",
      "outputs": [
        {
          "internalType": "uint256",
          "name": "",
          "type": "uint256"
        }
      ],
      "stateMutability": "view",
      "type": "function"
    },
    {
      "inputs": [
        {
          "internalType": "uint256",
          "name": "tokenId",
          "type": "uint256"
        }
      ],
      "name": "tokenURI",
      "outputs": [
        {
          "internalType": "string",
          "name": "",
          "type": "string"
        }
      ],
      "stateMutability": "view",
      "type": "function"
    },
    {
      "inputs": [],
      "name": "totalSupply",
      "outputs": [
        {
          "internalType": "uint256",
          "name": "",
          "type": "uint256"
        }
      ],
      "stateMutability": "view",
      "type": "function"
    },
    {
      "inputs": [
        {
          "internalType": "address",
          "name": "from",
          "type": "address"
        },
        {
          "internalType": "address",
          "name": "to",
          "type": "address"
        },
        {
          "internalType": "uint256",
          "name": "tokenId",
          "type": "uint256"
        }
      ],
      "name": "transferFrom",
      "outputs": [],
      "stateMutability": "nonpayable",
      "type": "function"
    }
  ],
  "bytecode": "0x60806040523480156200001157600080fd5b50604051620030ad380380620030ad8339818101604052810190620000379190620001e6565b6040518060400160405280600381526020017f4e667400000000000000000000000000000000000000000000000000000000008152506040518060400160405280600381526020017f4e465400000000000000000000000000000000000000000000000000000000008152508160009080519060200190620000bb9291906200011f565b508060019080519060200190620000d49291906200011f565b50505080600a60006101000a81548173ffffffffffffffffffffffffffffffffffffffff021916908373ffffffffffffffffffffffffffffffffffffffff16021790555050620002c5565b8280546200012d9062000246565b90600052602060002090601f0160209004810192826200015157600085556200019d565b82601f106200016c57805160ff19168380011785556200019d565b828001600101855582156200019d579182015b828111156200019c5782518255916020019190600101906200017f565b5b509050620001ac9190620001b0565b5090565b5b80821115620001cb576000816000905550600101620001b1565b5090565b600081519050620001e081620002ab565b92915050565b600060208284031215620001f957600080fd5b60006200020984828501620001cf565b91505092915050565b60006200021f8262000226565b9050919050565b600073ffffffffffffffffffffffffffffffffffffffff82169050919050565b600060028204905060018216806200025f57607f821691505b602082108114156200027657620002756200027c565b5b50919050565b7f4e487b7100000000000000000000000000000000000000000000000000000000600052602260045260246000fd5b620002b68162000212565b8114620002c257600080fd5b50565b612dd880620002d56000396000f3fe608060405234801561001057600080fd5b506004361061010b5760003560e01c80634f6ccce7116100a2578063a22cb46511610071578063a22cb465146102de578063b88d4fde146102fa578063c87b56dd14610316578063d85d3d2714610346578063e985e9c5146103625761010b565b80634f6ccce7146102305780636352211e1461026057806370a082311461029057806395d89b41146102c05761010b565b806318160ddd116100de57806318160ddd146101aa57806323b872dd146101c85780632f745c59146101e457806342842e0e146102145761010b565b806301ffc9a71461011057806306fdde0314610140578063081812fc1461015e578063095ea7b31461018e575b600080fd5b61012a60048036038101906101259190611f7e565b610392565b6040516101379190612370565b60405180910390f35b61014861040c565b604051610155919061238b565b60405180910390f35b61017860048036038101906101739190612011565b61049e565b6040516101859190612309565b60405180910390f35b6101a860048036038101906101a39190611f42565b610523565b005b6101b261063b565b6040516101bf91906125ad565b60405180910390f35b6101e260048036038101906101dd9190611e3c565b610648565b005b6101fe60048036038101906101f99190611f42565b6106a8565b60405161020b91906125ad565b60405180910390f35b61022e60048036038101906102299190611e3c565b61074d565b005b61024a60048036038101906102459190612011565b61076d565b60405161025791906125ad565b60405180910390f35b61027a60048036038101906102759190612011565b610804565b6040516102879190612309565b60405180910390f35b6102aa60048036038101906102a59190611dd7565b6108b6565b6040516102b791906125ad565b60405180910390f35b6102c861096e565b6040516102d5919061238b565b60405180910390f35b6102f860048036038101906102f39190611f06565b610a00565b005b610314600480360381019061030f9190611e8b565b610a16565b005b610330600480360381019061032b9190612011565b610a78565b60405161033d919061238b565b60405180910390f35b610360600480360381019061035b9190611fd0565b610b65565b005b61037c60048036038101906103779190611e00565b610bb6565b6040516103899190612370565b60405180910390f35b60007f780e9d63000000000000000000000000000000000000000000000000000000007bffffffffffffffffffffffffffffffffffffffffffffffffffffffff1916827bffffffffffffffffffffffffffffffffffffffffffffffffffffffff19161480610405575061040482610c4a565b5b9050919050565b60606000805461041b906127c7565b80601f0160208091040260200160405190810160405280929190818152602001828054610447906127c7565b80156104945780601f1061046957610100808354040283529160200191610494565b820191906000526020600020905b81548152906001019060200180831161047757829003601f168201915b5050505050905090565b60006104a982610d2c565b6104e8576040517f08c379a00000000000000000000000000000000000000000000000000000000081526004016104df906124ed565b60405180910390fd5b6004600083815260200190815260200160002060009054906101000a900473ffffffffffffffffffffffffffffffffffffffff169050919050565b600061052e82610804565b90508073ffffffffffffffffffffffffffffffffffffffff168373ffffffffffffffffffffffffffffffffffffffff16141561059f576040517f08c379a00000000000000000000000000000000000000000000000000000000081526004016105969061254d565b60405180910390fd5b8073ffffffffffffffffffffffffffffffffffffffff166105be610d98565b73ffffffffffffffffffffffffffffffffffffffff1614806105ed57506105ec816105e7610d98565b610bb6565b5b61062c576040517f08c379a00000000000000000000000000000000000000000000000000000000081526004016106239061246d565b60405180910390fd5b6106368383610da0565b505050565b6000600880549050905090565b610659610653610d98565b82610e59565b610698576040517f08c379a000000000000000000000000000000000000000000000000000000000815260040161068f9061256d565b60405180910390fd5b6106a3838383610f37565b505050565b60006106b3836108b6565b82106106f4576040517f08c379a00000000000000000000000000000000000000000000000000000000081526004016106eb906123ad565b60405180910390fd5b600660008473ffffffffffffffffffffffffffffffffffffffff1673ffffffffffffffffffffffffffffffffffffffff168152602001908152602001600020600083815260200190815260200160002054905092915050565b61076883838360405180602001604052806000815250610a16565b505050565b600061077761063b565b82106107b8576040517f08c379a00000000000000000000000000000000000000000000000000000000081526004016107af9061258d565b60405180910390fd5b600882815481106107f2577f4e487b7100000000000000000000000000000000000000000000000000000000600052603260045260246000fd5b90600052602060002001549050919050565b6000806002600084815260200190815260200160002060009054906101000a900473ffffffffffffffffffffffffffffffffffffffff169050600073ffffffffffffffffffffffffffffffffffffffff168173ffffffffffffffffffffffffffffffffffffffff1614156108ad576040517f08c379a00000000000000000000000000000000000000000000000000000000081526004016108a4906124ad565b60405180910390fd5b80915050919050565b60008073ffffffffffffffffffffffffffffffffffffffff168273ffffffffffffffffffffffffffffffffffffffff161415610927576040517f08c379a000000000000000000000000000000000000000000000000000000000815260040161091e9061248d565b60405180910390fd5b600360008373ffffffffffffffffffffffffffffffffffffffff1673ffffffffffffffffffffffffffffffffffffffff168152602001908152602001600020549050919050565b60606001805461097d906127c7565b80601f01602080910402602001604051908101604052809291908181526020018280546109a9906127c7565b80156109f65780601f106109cb576101008083540402835291602001916109f6565b820191906000526020600020905b8154815290600101906020018083116109d957829003601f168201915b5050505050905090565b610a12610a0b610d98565b8383611193565b5050565b610a27610a21610d98565b83610e59565b610a66576040517f08c379a0000000000000000000000000000000000000000000000000000000008152600401610a5d9061256d565b60405180910390fd5b610a7284848484611300565b50505050565b6060610a8382610d2c565b610ac2576040517f08c379a0000000000000000000000000000000000000000000000000000000008152600401610ab99061252d565b60405180910390fd5b600b60008381526020019081526020016000208054610ae0906127c7565b80601f0160208091040260200160405190810160405280929190818152602001828054610b0c906127c7565b8015610b595780601f10610b2e57610100808354040283529160200191610b59565b820191906000526020600020905b815481529060010190602001808311610b3c57829003601f168201915b50505050509050919050565b6000610b6f61063b565b9050610b7b338261135c565b610b85828261152a565b610bb2600a60009054906101000a900473ffffffffffffffffffffffffffffffffffffffff166001610a00565b5050565b6000600560008473ffffffffffffffffffffffffffffffffffffffff1673ffffffffffffffffffffffffffffffffffffffff16815260200190815260200160002060008373ffffffffffffffffffffffffffffffffffffffff1673ffffffffffffffffffffffffffffffffffffffff16815260200190815260200160002060009054906101000a900460ff16905092915050565b60007f80ac58cd000000000000000000000000000000000000000000000000000000007bffffffffffffffffffffffffffffffffffffffffffffffffffffffff1916827bffffffffffffffffffffffffffffffffffffffffffffffffffffffff19161480610d1557507f5b5e139f000000000000000000000000000000000000000000000000000000007bffffffffffffffffffffffffffffffffffffffffffffffffffffffff1916827bffffffffffffffffffffffffffffffffffffffffffffffffffffffff1916145b80610d255750610d2482611556565b5b9050919050565b60008073ffffffffffffffffffffffffffffffffffffffff166002600084815260200190815260200160002060009054906101000a900473ffffffffffffffffffffffffffffffffffffffff1673ffffffffffffffffffffffffffffffffffffffff1614159050919050565b600033905090565b816004600083815260200190815260200160002060006101000a81548173ffffffffffffffffffffffffffffffffffffffff021916908373ffffffffffffffffffffffffffffffffffffffff160217905550808273ffffffffffffffffffffffffffffffffffffffff16610e1383610804565b73ffffffffffffffffffffffffffffffffffffffff167f8c5be1e5ebec7d5bd14f71427d1e84f3dd0314c0f7b2291e5b200ac8c7c3b92560405160405180910390a45050565b6000610e6482610d2c565b610ea3576040517f08c379a0000000000000000000000000000000000000000000000000000000008152600401610e9a9061244d565b60405180910390fd5b6000610eae83610804565b90508073ffffffffffffffffffffffffffffffffffffffff168473ffffffffffffffffffffffffffffffffffffffff161480610f1d57508373ffffffffffffffffffffffffffffffffffffffff16610f058461049e565b73ffffffffffffffffffffffffffffffffffffffff16145b80610f2e5750610f2d8185610bb6565b5b91505092915050565b8273ffffffffffffffffffffffffffffffffffffffff16610f5782610804565b73ffffffffffffffffffffffffffffffffffffffff1614610fad576040517f08c379a0000000000000000000000000000000000000000000000000000000008152600401610fa49061250d565b60405180910390fd5b600073ffffffffffffffffffffffffffffffffffffffff168273ffffffffffffffffffffffffffffffffffffffff16141561101d576040517f08c379a00000000000000000000000000000000000000000000000000000000081526004016110149061240d565b60405180910390fd5b6110288383836115c0565b611033600082610da0565b6001600360008573ffffffffffffffffffffffffffffffffffffffff1673ffffffffffffffffffffffffffffffffffffffff168152602001908152602001600020600082825461108391906126dd565b925050819055506001600360008473ffffffffffffffffffffffffffffffffffffffff1673ffffffffffffffffffffffffffffffffffffffff16815260200190815260200160002060008282546110da9190612687565b92505081905550816002600083815260200190815260200160002060006101000a81548173ffffffffffffffffffffffffffffffffffffffff021916908373ffffffffffffffffffffffffffffffffffffffff160217905550808273ffffffffffffffffffffffffffffffffffffffff168473ffffffffffffffffffffffffffffffffffffffff167fddf252ad1be2c89b69c2b068fc378daa952ba7f163c4a11628f55a4df523b3ef60405160405180910390a4505050565b8173ffffffffffffffffffffffffffffffffffffffff168373ffffffffffffffffffffffffffffffffffffffff161415611202576040517f08c379a00000000000000000000000000000000000000000000000000000000081526004016111f99061242d565b60405180910390fd5b80600560008573ffffffffffffffffffffffffffffffffffffffff1673ffffffffffffffffffffffffffffffffffffffff16815260200190815260200160002060008473ffffffffffffffffffffffffffffffffffffffff1673ffffffffffffffffffffffffffffffffffffffff16815260200190815260200160002060006101000a81548160ff0219169083151502179055508173ffffffffffffffffffffffffffffffffffffffff168373ffffffffffffffffffffffffffffffffffffffff167f17307eab39ab6107e8899845ad3d59bd9653f200f220920489ca2b5937696c31836040516112f39190612370565b60405180910390a3505050565b61130b848484610f37565b611317848484846116d4565b611356576040517f08c379a000000000000000000000000000000000000000000000000000000000815260040161134d906123cd565b60405180910390fd5b50505050565b600073ffffffffffffffffffffffffffffffffffffffff168273ffffffffffffffffffffffffffffffffffffffff1614156113cc576040517f08c379a00000000000000000000000000000000000000000000000000000000081526004016113c3906124cd565b60405180910390fd5b6113d581610d2c565b15611415576040517f08c379a000000000000000000000000000000000000000000000000000000000815260040161140c906123ed565b60405180910390fd5b611421600083836115c0565b6001600360008473ffffffffffffffffffffffffffffffffffffffff1673ffffffffffffffffffffffffffffffffffffffff16815260200190815260200160002060008282546114719190612687565b92505081905550816002600083815260200190815260200160002060006101000a81548173ffffffffffffffffffffffffffffffffffffffff021916908373ffffffffffffffffffffffffffffffffffffffff160217905550808273ffffffffffffffffffffffffffffffffffffffff16600073ffffffffffffffffffffffffffffffffffffffff167fddf252ad1be2c89b69c2b068fc378daa952ba7f163c4a11628f55a4df523b3ef60405160405180910390a45050565b81600b60008381526020019081526020016000209080519060200190611551929190611bfb565b505050565b60007f01ffc9a7000000000000000000000000000000000000000000000000000000007bffffffffffffffffffffffffffffffffffffffffffffffffffffffff1916827bffffffffffffffffffffffffffffffffffffffffffffffffffffffff1916149050919050565b6115cb83838361186b565b600073ffffffffffffffffffffffffffffffffffffffff168373ffffffffffffffffffffffffffffffffffffffff16141561160e5761160981611870565b61164d565b8173ffffffffffffffffffffffffffffffffffffffff168373ffffffffffffffffffffffffffffffffffffffff161461164c5761164b83826118b9565b5b5b600073ffffffffffffffffffffffffffffffffffffffff168273ffffffffffffffffffffffffffffffffffffffff1614156116905761168b81611a26565b6116cf565b8273ffffffffffffffffffffffffffffffffffffffff168273ffffffffffffffffffffffffffffffffffffffff16146116ce576116cd8282611b69565b5b5b505050565b60006116f58473ffffffffffffffffffffffffffffffffffffffff16611be8565b1561185e578373ffffffffffffffffffffffffffffffffffffffff1663150b7a0261171e610d98565b8786866040518563ffffffff1660e01b81526004016117409493929190612324565b602060405180830381600087803b15801561175a57600080fd5b505af192505050801561178b57506040513d601f19601f820116820180604052508101906117889190611fa7565b60015b61180e573d80600081146117bb576040519150601f19603f3d011682016040523d82523d6000602084013e6117c0565b606091505b50600081511415611806576040517f08c379a00000000000000000000000000000000000000000000000000000000081526004016117fd906123cd565b60405180910390fd5b805181602001fd5b63150b7a0260e01b7bffffffffffffffffffffffffffffffffffffffffffffffffffffffff1916817bffffffffffffffffffffffffffffffffffffffffffffffffffffffff191614915050611863565b600190505b949350505050565b505050565b6008805490506009600083815260200190815260200160002081905550600881908060018154018082558091505060019003906000526020600020016000909190919091505550565b600060016118c6846108b6565b6118d091906126dd565b90506000600760008481526020019081526020016000205490508181146119b5576000600660008673ffffffffffffffffffffffffffffffffffffffff1673ffffffffffffffffffffffffffffffffffffffff168152602001908152602001600020600084815260200190815260200160002054905080600660008773ffffffffffffffffffffffffffffffffffffffff1673ffffffffffffffffffffffffffffffffffffffff168152602001908152602001600020600084815260200190815260200160002081905550816007600083815260200190815260200160002081905550505b6007600084815260200190815260200160002060009055600660008573ffffffffffffffffffffffffffffffffffffffff1673ffffffffffffffffffffffffffffffffffffffff16815260200190815260200160002060008381526020019081526020016000206000905550505050565b60006001600880549050611a3a91906126dd565b9050600060096000848152602001908152602001600020549050600060088381548110611a90577f4e487b7100000000000000000000000000000000000000000000000000000000600052603260045260246000fd5b906000526020600020015490508060088381548110611ad8577f4e487b7100000000000000000000000000000000000000000000000000000000600052603260045260246000fd5b906000526020600020018190555081600960008381526020019081526020016000208190555060096000858152602001908152602001600020600090556008805480611b4d577f4e487b7100000000000000000000000000000000000000000000000000000000600052603160045260246000fd5b6001900381819060005260206000200160009055905550505050565b6000611b74836108b6565b905081600660008573ffffffffffffffffffffffffffffffffffffffff1673ffffffffffffffffffffffffffffffffffffffff168152602001908152602001600020600083815260200190815260200160002081905550806007600084815260200190815260200160002081905550505050565b600080823b905060008111915050919050565b828054611c07906127c7565b90600052602060002090601f016020900481019282611c295760008555611c70565b82601f10611c4257805160ff1916838001178555611c70565b82800160010185558215611c70579182015b82811115611c6f578251825591602001919060010190611c54565b5b509050611c7d9190611c81565b5090565b5b80821115611c9a576000816000905550600101611c82565b5090565b6000611cb1611cac846125ed565b6125c8565b905082815260208101848484011115611cc957600080fd5b611cd4848285612785565b509392505050565b6000611cef611cea8461261e565b6125c8565b905082815260208101848484011115611d0757600080fd5b611d12848285612785565b509392505050565b600081359050611d2981612d46565b92915050565b600081359050611d3e81612d5d565b92915050565b600081359050611d5381612d74565b92915050565b600081519050611d6881612d74565b92915050565b600082601f830112611d7f57600080fd5b8135611d8f848260208601611c9e565b91505092915050565b600082601f830112611da957600080fd5b8135611db9848260208601611cdc565b91505092915050565b600081359050611dd181612d8b565b92915050565b600060208284031215611de957600080fd5b6000611df784828501611d1a565b91505092915050565b60008060408385031215611e1357600080fd5b6000611e2185828601611d1a565b9250506020611e3285828601611d1a565b9150509250929050565b600080600060608486031215611e5157600080fd5b6000611e5f86828701611d1a565b9350506020611e7086828701611d1a565b9250506040611e8186828701611dc2565b9150509250925092565b60008060008060808587031215611ea157600080fd5b6000611eaf87828801611d1a565b9450506020611ec087828801611d1a565b9350506040611ed187828801611dc2565b925050606085013567ffffffffffffffff811115611eee57600080fd5b611efa87828801611d6e565b91505092959194509250565b60008060408385031215611f1957600080fd5b6000611f2785828601611d1a565b9250506020611f3885828601611d2f565b9150509250929050565b60008060408385031215611f5557600080fd5b6000611f6385828601611d1a565b9250506020611f7485828601611dc2565b9150509250929050565b600060208284031215611f9057600080fd5b6000611f9e84828501611d44565b91505092915050565b600060208284031215611fb957600080fd5b6000611fc784828501611d59565b91505092915050565b600060208284031215611fe257600080fd5b600082013567ffffffffffffffff811115611ffc57600080fd5b61200884828501611d98565b91505092915050565b60006020828403121561202357600080fd5b600061203184828501611dc2565b91505092915050565b61204381612711565b82525050565b61205281612723565b82525050565b60006120638261264f565b61206d8185612665565b935061207d818560208601612794565b612086816128b7565b840191505092915050565b600061209c8261265a565b6120a68185612676565b93506120b6818560208601612794565b6120bf816128b7565b840191505092915050565b60006120d7602b83612676565b91506120e2826128c8565b604082019050919050565b60006120fa603283612676565b915061210582612917565b604082019050919050565b600061211d601c83612676565b915061212882612966565b602082019050919050565b6000612140602483612676565b915061214b8261298f565b604082019050919050565b6000612163601983612676565b915061216e826129de565b602082019050919050565b6000612186602c83612676565b915061219182612a07565b604082019050919050565b60006121a9603883612676565b91506121b482612a56565b604082019050919050565b60006121cc602a83612676565b91506121d782612aa5565b604082019050919050565b60006121ef602983612676565b91506121fa82612af4565b604082019050919050565b6000612212602083612676565b915061221d82612b43565b602082019050919050565b6000612235602c83612676565b915061224082612b6c565b604082019050919050565b6000612258602983612676565b915061226382612bbb565b604082019050919050565b600061227b602f83612676565b915061228682612c0a565b604082019050919050565b600061229e602183612676565b91506122a982612c59565b604082019050919050565b60006122c1603183612676565b91506122cc82612ca8565b604082019050919050565b60006122e4602c83612676565b91506122ef82612cf7565b604082019050919050565b6123038161277b565b82525050565b600060208201905061231e600083018461203a565b92915050565b6000608082019050612339600083018761203a565b612346602083018661203a565b61235360408301856122fa565b81810360608301526123658184612058565b905095945050505050565b60006020820190506123856000830184612049565b92915050565b600060208201905081810360008301526123a58184612091565b905092915050565b600060208201905081810360008301526123c6816120ca565b9050919050565b600060208201905081810360008301526123e6816120ed565b9050919050565b6000602082019050818103600083015261240681612110565b9050919050565b6000602082019050818103600083015261242681612133565b9050919050565b6000602082019050818103600083015261244681612156565b9050919050565b6000602082019050818103600083015261246681612179565b9050919050565b600060208201905081810360008301526124868161219c565b9050919050565b600060208201905081810360008301526124a6816121bf565b9050919050565b600060208201905081810360008301526124c6816121e2565b9050919050565b600060208201905081810360008301526124e681612205565b9050919050565b6000602082019050818103600083015261250681612228565b9050919050565b600060208201905081810360008301526125268161224b565b9050919050565b600060208201905081810360008301526125468161226e565b9050919050565b6000602082019050818103600083015261256681612291565b9050919050565b60006020820190508181036000830152612586816122b4565b9050919050565b600060208201905081810360008301526125a6816122d7565b9050919050565b60006020820190506125c260008301846122fa565b92915050565b60006125d26125e3565b90506125de82826127f9565b919050565b6000604051905090565b600067ffffffffffffffff82111561260857612607612888565b5b612611826128b7565b9050602081019050919050565b600067ffffffffffffffff82111561263957612638612888565b5b612642826128b7565b9050602081019050919050565b600081519050919050565b600081519050919050565b600082825260208201905092915050565b600082825260208201905092915050565b60006126928261277b565b915061269d8361277b565b9250827fffffffffffffffffffffffffffffffffffffffffffffffffffffffffffffffff038211156126d2576126d161282a565b5b828201905092915050565b60006126e88261277b565b91506126f38361277b565b9250828210156127065761270561282a565b5b828203905092915050565b600061271c8261275b565b9050919050565b60008115159050919050565b60007fffffffff0000000000000000000000000000000000000000000000000000000082169050919050565b600073ffffffffffffffffffffffffffffffffffffffff82169050919050565b6000819050919050565b82818337600083830152505050565b60005b838110156127b2578082015181840152602081019050612797565b838111156127c1576000848401525b50505050565b600060028204905060018216806127df57607f821691505b602082108114156127f3576127f2612859565b5b50919050565b612802826128b7565b810181811067ffffffffffffffff8211171561282157612820612888565b5b80604052505050565b7f4e487b7100000000000000000000000000000000000000000000000000000000600052601160045260246000fd5b7f4e487b7100000000000000000000000000000000000000000000000000000000600052602260045260246000fd5b7f4e487b7100000000000000000000000000000000000000000000000000000000600052604160045260246000fd5b6000601f19601f8301169050919050565b7f455243373231456e756d657261626c653a206f776e657220696e646578206f7560008201527f74206f6620626f756e6473000000000000000000000000000000000000000000602082015250565b7f4552433732313a207472616e7366657220746f206e6f6e20455243373231526560008201527f63656976657220696d706c656d656e7465720000000000000000000000000000602082015250565b7f4552433732313a20746f6b656e20616c7265616479206d696e74656400000000600082015250565b7f4552433732313a207472616e7366657220746f20746865207a65726f2061646460008201527f7265737300000000000000000000000000000000000000000000000000000000602082015250565b7f4552433732313a20617070726f766520746f2063616c6c657200000000000000600082015250565b7f4552433732313a206f70657261746f7220717565727920666f72206e6f6e657860008201527f697374656e7420746f6b656e0000000000000000000000000000000000000000602082015250565b7f4552433732313a20617070726f76652063616c6c6572206973206e6f74206f7760008201527f6e6572206e6f7220617070726f76656420666f7220616c6c0000000000000000602082015250565b7f4552433732313a2062616c616e636520717565727920666f7220746865207a6560008201527f726f206164647265737300000000000000000000000000000000000000000000602082015250565b7f4552433732313a206f776e657220717565727920666f72206e6f6e657869737460008201527f656e7420746f6b656e0000000000000000000000000000000000000000000000602082015250565b7f4552433732313a206d696e7420746f20746865207a65726f2061646472657373600082015250565b7f4552433732313a20617070726f76656420717565727920666f72206e6f6e657860008201527f697374656e7420746f6b656e0000000000000000000000000000000000000000602082015250565b7f4552433732313a207472616e73666572206f6620746f6b656e2074686174206960008201527f73206e6f74206f776e0000000000000000000000000000000000000000000000602082015250565b7f4552433732314d657461646174613a2055524920717565727920666f72206e6f60008201527f6e6578697374656e7420746f6b656e0000000000000000000000000000000000602082015250565b7f4552433732313a20617070726f76616c20746f2063757272656e74206f776e6560008201527f7200000000000000000000000000000000000000000000000000000000000000602082015250565b7f4552433732313a207472616e736665722063616c6c6572206973206e6f74206f60008201527f776e6572206e6f7220617070726f766564000000000000000000000000000000602082015250565b7f455243373231456e756d657261626c653a20676c6f62616c20696e646578206f60008201527f7574206f6620626f756e64730000000000000000000000000000000000000000602082015250565b612d4f81612711565b8114612d5a57600080fd5b50565b612d6681612723565b8114612d7157600080fd5b50565b612d7d8161272f565b8114612d8857600080fd5b50565b612d948161277b565b8114612d9f57600080fd5b5056fea2646970667358221220d304d26599876e28ff9e2c78aafacdd7d03a011c93f7b94c4901b416423a1a3d64736f6c63430008040033",
  "linkReferences": {},
  "deployedLinkReferences": {}
}