{
  "_format": "hh-sol-artifact-1",
  "contractName": "NFTMarket",
  "sourceName": "contracts/NFTMarket.sol",
  "abi": [
    {
      "inputs": [],
      "stateMutability": "nonpayable",
      "type": "constructor"
    },
    {
      "anonymous": false,
      "inputs": [
        {
          "indexed": true,
          "internalType": "uint256",
          "name": "itemId",
          "type": "uint256"
        },
        {
          "indexed": true,
          "internalType": "address",
          "name": "nftContract",
          "type": "address"
        },
        {
          "indexed": true,
          "internalType": "uint256",
          "name": "tokenId",
          "type": "uint256"
        },
        {
          "indexed": false,
          "internalType": "address",
          "name": "seller",
          "type": "address"
        },
        {
          "indexed": false,
          "internalType": "address",
          "name": "owner",
          "type": "address"
        },
        {
          "indexed": false,
          "internalType": "uint256",
          "name": "price",
          "type": "uint256"
        }
      ],
      "name": "MarketItemCreated",
      "type": "event"
    },
    {
      "anonymous": false,
      "inputs": [
        {
          "indexed": true,
          "internalType": "address",
          "name": "previousOwner",
          "type": "address"
        },
        {
          "indexed": true,
          "internalType": "address",
          "name": "newOwner",
          "type": "address"
        }
      ],
      "name": "OwnershipTransferred",
      "type": "event"
    },
    {
      "anonymous": false,
      "inputs": [
        {
          "components": [
            {
              "internalType": "uint256",
              "name": "itemId",
              "type": "uint256"
            },
            {
              "internalType": "address",
              "name": "nftContract",
              "type": "address"
            },
            {
              "internalType": "uint256",
              "name": "tokenId",
              "type": "uint256"
            },
            {
              "internalType": "address payable",
              "name": "seller",
              "type": "address"
            },
            {
              "internalType": "address payable",
              "name": "owner",
              "type": "address"
            },
            {
              "internalType": "uint256",
              "name": "price",
              "type": "uint256"
            },
            {
              "internalType": "bool",
              "name": "sold",
              "type": "bool"
            }
          ],
          "indexed": false,
          "internalType": "struct NFTMarket.MarketItem",
          "name": "item",
          "type": "tuple"
        }
      ],
      "name": "itemSold",
      "type": "event"
    },
    {
      "inputs": [
        {
          "internalType": "address",
          "name": "nftContract",
          "type": "address"
        },
        {
          "internalType": "uint256",
          "name": "tokenId",
          "type": "uint256"
        },
        {
          "internalType": "uint256",
          "name": "price",
          "type": "uint256"
        }
      ],
      "name": "createMarketItem",
      "outputs": [],
      "stateMutability": "payable",
      "type": "function"
    },
    {
      "inputs": [
        {
          "internalType": "uint256",
          "name": "itemId",
          "type": "uint256"
        }
      ],
      "name": "createMarketSale",
      "outputs": [],
      "stateMutability": "payable",
      "type": "function"
    },
    {
      "inputs": [],
      "name": "fetchItemsCreated",
      "outputs": [
        {
          "components": [
            {
              "internalType": "uint256",
              "name": "itemId",
              "type": "uint256"
            },
            {
              "internalType": "address",
              "name": "nftContract",
              "type": "address"
            },
            {
              "internalType": "uint256",
              "name": "tokenId",
              "type": "uint256"
            },
            {
              "internalType": "address payable",
              "name": "seller",
              "type": "address"
            },
            {
              "internalType": "address payable",
              "name": "owner",
              "type": "address"
            },
            {
              "internalType": "uint256",
              "name": "price",
              "type": "uint256"
            },
            {
              "internalType": "bool",
              "name": "sold",
              "type": "bool"
            }
          ],
          "internalType": "struct NFTMarket.MarketItem[]",
          "name": "",
          "type": "tuple[]"
        }
      ],
      "stateMutability": "view",
      "type": "function"
    },
    {
      "inputs": [],
      "name": "fetchMarketItems",
      "outputs": [
        {
          "components": [
            {
              "internalType": "uint256",
              "name": "itemId",
              "type": "uint256"
            },
            {
              "internalType": "address",
              "name": "nftContract",
              "type": "address"
            },
            {
              "internalType": "uint256",
              "name": "tokenId",
              "type": "uint256"
            },
            {
              "internalType": "address payable",
              "name": "seller",
              "type": "address"
            },
            {
              "internalType": "address payable",
              "name": "owner",
              "type": "address"
            },
            {
              "internalType": "uint256",
              "name": "price",
              "type": "uint256"
            },
            {
              "internalType": "bool",
              "name": "sold",
              "type": "bool"
            }
          ],
          "internalType": "struct NFTMarket.MarketItem[]",
          "name": "",
          "type": "tuple[]"
        }
      ],
      "stateMutability": "view",
      "type": "function"
    },
    {
      "inputs": [],
      "name": "fetchMyNFTS",
      "outputs": [
        {
          "components": [
            {
              "internalType": "uint256",
              "name": "itemId",
              "type": "uint256"
            },
            {
              "internalType": "address",
              "name": "nftContract",
              "type": "address"
            },
            {
              "internalType": "uint256",
              "name": "tokenId",
              "type": "uint256"
            },
            {
              "internalType": "address payable",
              "name": "seller",
              "type": "address"
            },
            {
              "internalType": "address payable",
              "name": "owner",
              "type": "address"
            },
            {
              "internalType": "uint256",
              "name": "price",
              "type": "uint256"
            },
            {
              "internalType": "bool",
              "name": "sold",
              "type": "bool"
            }
          ],
          "internalType": "struct NFTMarket.MarketItem[]",
          "name": "",
          "type": "tuple[]"
        }
      ],
      "stateMutability": "view",
      "type": "function"
    },
    {
      "inputs": [],
      "name": "getListingPrice",
      "outputs": [
        {
          "internalType": "uint256",
          "name": "",
          "type": "uint256"
        }
      ],
      "stateMutability": "view",
      "type": "function"
    },
    {
      "inputs": [],
      "name": "owner",
      "outputs": [
        {
          "internalType": "address",
          "name": "",
          "type": "address"
        }
      ],
      "stateMutability": "view",
      "type": "function"
    },
    {
      "inputs": [],
      "name": "renounceOwnership",
      "outputs": [],
      "stateMutability": "nonpayable",
      "type": "function"
    },
    {
      "inputs": [
        {
          "internalType": "uint256",
          "name": "_price",
          "type": "uint256"
        }
      ],
      "name": "setListingPrice",
      "outputs": [],
      "stateMutability": "nonpayable",
      "type": "function"
    },
    {
      "inputs": [
        {
          "internalType": "address",
          "name": "newOwner",
          "type": "address"
        }
      ],
      "name": "transferOwnership",
      "outputs": [],
      "stateMutability": "nonpayable",
      "type": "function"
    }
  ],
  "bytecode": "0x60806040526703782dace9d9000060045534801561001c57600080fd5b50600160008190555061004161003661004660201b60201c565b61004e60201b60201c565b610114565b600033905090565b6000600160009054906101000a900473ffffffffffffffffffffffffffffffffffffffff16905081600160006101000a81548173ffffffffffffffffffffffffffffffffffffffff021916908373ffffffffffffffffffffffffffffffffffffffff1602179055508173ffffffffffffffffffffffffffffffffffffffff168173ffffffffffffffffffffffffffffffffffffffff167f8be0079c531659141344cd1fd0a4f28419497f9722a3daafe3b4186f6b6457e060405160405180910390a35050565b611eb1806101236000396000f3fe6080604052600436106100915760003560e01c80637dc5dfcf116100595780637dc5dfcf146101485780638da5cb5b14610173578063be9af5361461019e578063f064c32e146101ba578063f2fde38b146101e557610091565b80630f08efe01461009657806312e85585146100c157806358eb2df5146100ec578063715018a6146101085780637c726b691461011f575b600080fd5b3480156100a257600080fd5b506100ab61020e565b6040516100b89190611a68565b60405180910390f35b3480156100cd57600080fd5b506100d66104a9565b6040516100e39190611b4a565b60405180910390f35b6101066004803603810190610101919061176e565b6104b3565b005b34801561011457600080fd5b5061011d61081d565b005b34801561012b57600080fd5b50610146600480360381019061014191906117bd565b6108a5565b005b34801561015457600080fd5b5061015d61092b565b60405161016a9190611a68565b60405180910390f35b34801561017f57600080fd5b50610188610d14565b6040516101959190611a16565b60405180910390f35b6101b860048036038101906101b391906117bd565b610d3e565b005b3480156101c657600080fd5b506101cf6110eb565b6040516101dc9190611a68565b60405180910390f35b3480156101f157600080fd5b5061020c60048036038101906102079190611745565b6114d4565b005b6060600060025490506000600354826102279190611c05565b905060008167ffffffffffffffff81111561026b577f4e487b7100000000000000000000000000000000000000000000000000000000600052604160045260246000fd5b6040519080825280602002602001820160405280156102a457816020015b61029161169a565b8152602001906001900390816102895790505b509050600080600090505b8481101561049e576005600082815260200190815260200160002060060160009054906101000a900460ff1661048b57600560008281526020019081526020016000206040518060e0016040529081600082015481526020016001820160009054906101000a900473ffffffffffffffffffffffffffffffffffffffff1673ffffffffffffffffffffffffffffffffffffffff1673ffffffffffffffffffffffffffffffffffffffff168152602001600282015481526020016003820160009054906101000a900473ffffffffffffffffffffffffffffffffffffffff1673ffffffffffffffffffffffffffffffffffffffff1673ffffffffffffffffffffffffffffffffffffffff1681526020016004820160009054906101000a900473ffffffffffffffffffffffffffffffffffffffff1673ffffffffffffffffffffffffffffffffffffffff1673ffffffffffffffffffffffffffffffffffffffff168152602001600582015481526020016006820160009054906101000a900460ff161515151581525050838381518110610471577f4e487b7100000000000000000000000000000000000000000000000000000000600052603260045260246000fd5b6020026020010181905250818061048790611c93565b9250505b808061049690611c93565b9150506102af565b508194505050505090565b6000600454905090565b600260005414156104f9576040517f08c379a00000000000000000000000000000000000000000000000000000000081526004016104f090611b2a565b60405180910390fd5b600260008190555060008111610544576040517f08c379a000000000000000000000000000000000000000000000000000000000815260040161053b90611aaa565b60405180910390fd5b6004543414610588576040517f08c379a000000000000000000000000000000000000000000000000000000000815260040161057f90611b0a565b60405180910390fd5b600060025490506040518060e001604052808281526020018573ffffffffffffffffffffffffffffffffffffffff1681526020018481526020013373ffffffffffffffffffffffffffffffffffffffff168152602001600073ffffffffffffffffffffffffffffffffffffffff16815260200183815260200160001515815250600560008381526020019081526020016000206000820151816000015560208201518160010160006101000a81548173ffffffffffffffffffffffffffffffffffffffff021916908373ffffffffffffffffffffffffffffffffffffffff1602179055506040820151816002015560608201518160030160006101000a81548173ffffffffffffffffffffffffffffffffffffffff021916908373ffffffffffffffffffffffffffffffffffffffff16021790555060808201518160040160006101000a81548173ffffffffffffffffffffffffffffffffffffffff021916908373ffffffffffffffffffffffffffffffffffffffff16021790555060a0820151816005015560c08201518160060160006101000a81548160ff0219169083151502179055509050508373ffffffffffffffffffffffffffffffffffffffff166323b872dd3330866040518463ffffffff1660e01b815260040161076e93929190611a31565b600060405180830381600087803b15801561078857600080fd5b505af115801561079c573d6000803e3d6000fd5b50505050828473ffffffffffffffffffffffffffffffffffffffff16827f2ad024d53a0dc50c130967f8d4941927ee087ea31394cebb2b9599d3706c9c00336000876040516107ed93929190611a31565b60405180910390a46001600260008282546108089190611baf565b92505081905550506001600081905550505050565b6108256115cc565b73ffffffffffffffffffffffffffffffffffffffff16610843610d14565b73ffffffffffffffffffffffffffffffffffffffff1614610899576040517f08c379a000000000000000000000000000000000000000000000000000000000815260040161089090611aca565b60405180910390fd5b6108a360006115d4565b565b6108ad6115cc565b73ffffffffffffffffffffffffffffffffffffffff166108cb610d14565b73ffffffffffffffffffffffffffffffffffffffff1614610921576040517f08c379a000000000000000000000000000000000000000000000000000000000815260040161091890611aca565b60405180910390fd5b8060048190555050565b6060600060025490506000808267ffffffffffffffff811115610977577f4e487b7100000000000000000000000000000000000000000000000000000000600052604160045260246000fd5b6040519080825280602002602001820160405280156109b057816020015b61099d61169a565b8152602001906001900390816109955790505b50905060005b83811015610be7573373ffffffffffffffffffffffffffffffffffffffff166005600083815260200190815260200160002060040160009054906101000a900473ffffffffffffffffffffffffffffffffffffffff1673ffffffffffffffffffffffffffffffffffffffff161415610bd457600560008281526020019081526020016000206040518060e0016040529081600082015481526020016001820160009054906101000a900473ffffffffffffffffffffffffffffffffffffffff1673ffffffffffffffffffffffffffffffffffffffff1673ffffffffffffffffffffffffffffffffffffffff168152602001600282015481526020016003820160009054906101000a900473ffffffffffffffffffffffffffffffffffffffff1673ffffffffffffffffffffffffffffffffffffffff1673ffffffffffffffffffffffffffffffffffffffff1681526020016004820160009054906101000a900473ffffffffffffffffffffffffffffffffffffffff1673ffffffffffffffffffffffffffffffffffffffff1673ffffffffffffffffffffffffffffffffffffffff168152602001600582015481526020016006820160009054906101000a900460ff161515151581525050828481518110610bba577f4e487b7100000000000000000000000000000000000000000000000000000000600052603260045260246000fd5b60200260200101819052508280610bd090611c93565b9350505b8080610bdf90611c93565b9150506109b6565b5060008267ffffffffffffffff811115610c2a577f4e487b7100000000000000000000000000000000000000000000000000000000600052604160045260246000fd5b604051908082528060200260200182016040528015610c6357816020015b610c5061169a565b815260200190600190039081610c485790505b50905060005b83811015610d0957828181518110610caa577f4e487b7100000000000000000000000000000000000000000000000000000000600052603260045260246000fd5b6020026020010151828281518110610ceb577f4e487b7100000000000000000000000000000000000000000000000000000000600052603260045260246000fd5b60200260200101819052508080610d0190611c93565b915050610c69565b508094505050505090565b6000600160009054906101000a900473ffffffffffffffffffffffffffffffffffffffff16905090565b60026000541415610d84576040517f08c379a0000000000000000000000000000000000000000000000000000000008152600401610d7b90611b2a565b60405180910390fd5b60026000819055506000600560008381526020019081526020016000206040518060e0016040529081600082015481526020016001820160009054906101000a900473ffffffffffffffffffffffffffffffffffffffff1673ffffffffffffffffffffffffffffffffffffffff1673ffffffffffffffffffffffffffffffffffffffff168152602001600282015481526020016003820160009054906101000a900473ffffffffffffffffffffffffffffffffffffffff1673ffffffffffffffffffffffffffffffffffffffff1673ffffffffffffffffffffffffffffffffffffffff1681526020016004820160009054906101000a900473ffffffffffffffffffffffffffffffffffffffff1673ffffffffffffffffffffffffffffffffffffffff1673ffffffffffffffffffffffffffffffffffffffff168152602001600582015481526020016006820160009054906101000a900460ff16151515158152505090508060a001513414610f2f576040517f08c379a0000000000000000000000000000000000000000000000000000000008152600401610f2690611aea565b60405180910390fd5b806020015173ffffffffffffffffffffffffffffffffffffffff166323b872dd303384604001516040518463ffffffff1660e01b8152600401610f7493929190611a31565b600060405180830381600087803b158015610f8e57600080fd5b505af1158015610fa2573d6000803e3d6000fd5b50505050336005600084815260200190815260200160002060040160006101000a81548173ffffffffffffffffffffffffffffffffffffffff021916908373ffffffffffffffffffffffffffffffffffffffff16021790555060016005600084815260200190815260200160002060060160006101000a81548160ff02191690831515021790555060016003600082825461103d9190611baf565b92505081905550806060015173ffffffffffffffffffffffffffffffffffffffff166108fc349081150290604051600060405180830381858888f1935050505015801561108e573d6000803e3d6000fd5b50611097610d14565b73ffffffffffffffffffffffffffffffffffffffff166108fc6004549081150290604051600060405180830381858888f193505050501580156110de573d6000803e3d6000fd5b5050600160008190555050565b6060600060025490506000808267ffffffffffffffff811115611137577f4e487b7100000000000000000000000000000000000000000000000000000000600052604160045260246000fd5b60405190808252806020026020018201604052801561117057816020015b61115d61169a565b8152602001906001900390816111555790505b50905060005b838110156113a7573373ffffffffffffffffffffffffffffffffffffffff166005600083815260200190815260200160002060030160009054906101000a900473ffffffffffffffffffffffffffffffffffffffff1673ffffffffffffffffffffffffffffffffffffffff16141561139457600560008281526020019081526020016000206040518060e0016040529081600082015481526020016001820160009054906101000a900473ffffffffffffffffffffffffffffffffffffffff1673ffffffffffffffffffffffffffffffffffffffff1673ffffffffffffffffffffffffffffffffffffffff168152602001600282015481526020016003820160009054906101000a900473ffffffffffffffffffffffffffffffffffffffff1673ffffffffffffffffffffffffffffffffffffffff1673ffffffffffffffffffffffffffffffffffffffff1681526020016004820160009054906101000a900473ffffffffffffffffffffffffffffffffffffffff1673ffffffffffffffffffffffffffffffffffffffff1673ffffffffffffffffffffffffffffffffffffffff168152602001600582015481526020016006820160009054906101000a900460ff16151515158152505082848151811061137a577f4e487b7100000000000000000000000000000000000000000000000000000000600052603260045260246000fd5b6020026020010181905250828061139090611c93565b9350505b808061139f90611c93565b915050611176565b5060008267ffffffffffffffff8111156113ea577f4e487b7100000000000000000000000000000000000000000000000000000000600052604160045260246000fd5b60405190808252806020026020018201604052801561142357816020015b61141061169a565b8152602001906001900390816114085790505b50905060005b838110156114c95782818151811061146a577f4e487b7100000000000000000000000000000000000000000000000000000000600052603260045260246000fd5b60200260200101518282815181106114ab577f4e487b7100000000000000000000000000000000000000000000000000000000600052603260045260246000fd5b602002602001018190525080806114c190611c93565b915050611429565b508094505050505090565b6114dc6115cc565b73ffffffffffffffffffffffffffffffffffffffff166114fa610d14565b73ffffffffffffffffffffffffffffffffffffffff1614611550576040517f08c379a000000000000000000000000000000000000000000000000000000000815260040161154790611aca565b60405180910390fd5b600073ffffffffffffffffffffffffffffffffffffffff168173ffffffffffffffffffffffffffffffffffffffff1614156115c0576040517f08c379a00000000000000000000000000000000000000000000000000000000081526004016115b790611a8a565b60405180910390fd5b6115c9816115d4565b50565b600033905090565b6000600160009054906101000a900473ffffffffffffffffffffffffffffffffffffffff16905081600160006101000a81548173ffffffffffffffffffffffffffffffffffffffff021916908373ffffffffffffffffffffffffffffffffffffffff1602179055508173ffffffffffffffffffffffffffffffffffffffff168173ffffffffffffffffffffffffffffffffffffffff167f8be0079c531659141344cd1fd0a4f28419497f9722a3daafe3b4186f6b6457e060405160405180910390a35050565b6040518060e0016040528060008152602001600073ffffffffffffffffffffffffffffffffffffffff16815260200160008152602001600073ffffffffffffffffffffffffffffffffffffffff168152602001600073ffffffffffffffffffffffffffffffffffffffff168152602001600081526020016000151581525090565b60008135905061172a81611e4d565b92915050565b60008135905061173f81611e64565b92915050565b60006020828403121561175757600080fd5b60006117658482850161171b565b91505092915050565b60008060006060848603121561178357600080fd5b60006117918682870161171b565b93505060206117a286828701611730565b92505060406117b386828701611730565b9150509250925092565b6000602082840312156117cf57600080fd5b60006117dd84828501611730565b91505092915050565b60006117f2838361196a565b60e08301905092915050565b61180781611c4b565b82525050565b61181681611c39565b82525050565b61182581611c39565b82525050565b600061183682611b75565b6118408185611b8d565b935061184b83611b65565b8060005b8381101561187c57815161186388826117e6565b975061186e83611b80565b92505060018101905061184f565b5085935050505092915050565b61189281611c5d565b82525050565b60006118a5602683611b9e565b91506118b082611d0b565b604082019050919050565b60006118c8601483611b9e565b91506118d382611d5a565b602082019050919050565b60006118eb602083611b9e565b91506118f682611d83565b602082019050919050565b600061190e601d83611b9e565b915061191982611dac565b602082019050919050565b6000611931602483611b9e565b915061193c82611dd5565b604082019050919050565b6000611954601f83611b9e565b915061195f82611e24565b602082019050919050565b60e08201600082015161198060008501826119f8565b506020820151611993602085018261180d565b5060408201516119a660408501826119f8565b5060608201516119b960608501826117fe565b5060808201516119cc60808501826117fe565b5060a08201516119df60a08501826119f8565b5060c08201516119f260c0850182611889565b50505050565b611a0181611c89565b82525050565b611a1081611c89565b82525050565b6000602082019050611a2b600083018461181c565b92915050565b6000606082019050611a46600083018661181c565b611a53602083018561181c565b611a606040830184611a07565b949350505050565b60006020820190508181036000830152611a82818461182b565b905092915050565b60006020820190508181036000830152611aa381611898565b9050919050565b60006020820190508181036000830152611ac3816118bb565b9050919050565b60006020820190508181036000830152611ae3816118de565b9050919050565b60006020820190508181036000830152611b0381611901565b9050919050565b60006020820190508181036000830152611b2381611924565b9050919050565b60006020820190508181036000830152611b4381611947565b9050919050565b6000602082019050611b5f6000830184611a07565b92915050565b6000819050602082019050919050565b600081519050919050565b6000602082019050919050565b600082825260208201905092915050565b600082825260208201905092915050565b6000611bba82611c89565b9150611bc583611c89565b9250827fffffffffffffffffffffffffffffffffffffffffffffffffffffffffffffffff03821115611bfa57611bf9611cdc565b5b828201905092915050565b6000611c1082611c89565b9150611c1b83611c89565b925082821015611c2e57611c2d611cdc565b5b828203905092915050565b6000611c4482611c69565b9050919050565b6000611c5682611c69565b9050919050565b60008115159050919050565b600073ffffffffffffffffffffffffffffffffffffffff82169050919050565b6000819050919050565b6000611c9e82611c89565b91507fffffffffffffffffffffffffffffffffffffffffffffffffffffffffffffffff821415611cd157611cd0611cdc565b5b600182019050919050565b7f4e487b7100000000000000000000000000000000000000000000000000000000600052601160045260246000fd5b7f4f776e61626c653a206e6577206f776e657220697320746865207a65726f206160008201527f6464726573730000000000000000000000000000000000000000000000000000602082015250565b7f50726963652063616e6e6f74206265207a65726f000000000000000000000000600082015250565b7f4f776e61626c653a2063616c6c6572206973206e6f7420746865206f776e6572600082015250565b7f56616c7565206d75737420657175616c2061736b696e67207072696365000000600082015250565b7f5072696365206d75737420626520657175616c20746f206c697374696e67207060008201527f7269636500000000000000000000000000000000000000000000000000000000602082015250565b7f5265656e7472616e637947756172643a207265656e7472616e742063616c6c00600082015250565b611e5681611c39565b8114611e6157600080fd5b50565b611e6d81611c89565b8114611e7857600080fd5b5056fea2646970667358221220c58985b03233cb4fb3e81a360e14501d8363ed0c32a50347f14d353550ee7faa64736f6c63430008040033",
  "linkReferences": {},
  "deployedLinkReferences": {}
}