{
  "_format": "hh-sol-artifact-1",
  "contractName": "LargeTestCollection",
  "sourceName": "contracts/LargeTestCollection.sol",
  "abi": [
    {
      "inputs": [],
      "stateMutability": "nonpayable",
      "type": "constructor"
    },
    {
      "anonymous": false,
      "inputs": [
        {
          "indexed": true,
          "internalType": "address",
          "name": "owner",
          "type": "address"
        },
        {
          "indexed": true,
          "internalType": "address",
          "name": "approved",
          "type": "address"
        },
        {
          "indexed": true,
          "internalType": "uint256",
          "name": "tokenId",
          "type": "uint256"
        }
      ],
      "name": "Approval",
      "type": "event"
    },
    {
      "anonymous": false,
      "inputs": [
        {
          "indexed": true,
          "internalType": "address",
          "name": "owner",
          "type": "address"
        },
        {
          "indexed": true,
          "internalType": "address",
          "name": "operator",
          "type": "address"
        },
        {
          "indexed": false,
          "internalType": "bool",
          "name": "approved",
          "type": "bool"
        }
      ],
      "name": "ApprovalForAll",
      "type": "event"
    },
    {
      "anonymous": false,
      "inputs": [
        {
          "indexed": true,
          "internalType": "address",
          "name": "from",
          "type": "address"
        },
        {
          "indexed": true,
          "internalType": "address",
          "name": "to",
          "type": "address"
        },
        {
          "indexed": true,
          "internalType": "uint256",
          "name": "tokenId",
          "type": "uint256"
        }
      ],
      "name": "Transfer",
      "type": "event"
    },
    {
      "inputs": [],
      "name": "BaseURI",
      "outputs": [
        {
          "internalType": "string",
          "name": "",
          "type": "string"
        }
      ],
      "stateMutability": "view",
      "type": "function"
    },
    {
      "inputs": [
        {
          "internalType": "address",
          "name": "to",
          "type": "address"
        },
        {
          "internalType": "uint256",
          "name": "tokenId",
          "type": "uint256"
        }
      ],
      "name": "approve",
      "outputs": [],
      "stateMutability": "nonpayable",
      "type": "function"
    },
    {
      "inputs": [
        {
          "internalType": "address",
          "name": "owner",
          "type": "address"
        }
      ],
      "name": "balanceOf",
      "outputs": [
        {
          "internalType": "uint256",
          "name": "",
          "type": "uint256"
        }
      ],
      "stateMutability": "view",
      "type": "function"
    },
    {
      "inputs": [
        {
          "internalType": "uint256",
          "name": "tokenId",
          "type": "uint256"
        }
      ],
      "name": "getApproved",
      "outputs": [
        {
          "internalType": "address",
          "name": "",
          "type": "address"
        }
      ],
      "stateMutability": "view",
      "type": "function"
    },
    {
      "inputs": [
        {
          "internalType": "address",
          "name": "owner",
          "type": "address"
        },
        {
          "internalType": "address",
          "name": "operator",
          "type": "address"
        }
      ],
      "name": "isApprovedForAll",
      "outputs": [
        {
          "internalType": "bool",
          "name": "",
          "type": "bool"
        }
      ],
      "stateMutability": "view",
      "type": "function"
    },
    {
      "inputs": [
        {
          "internalType": "uint256",
          "name": "_amount",
          "type": "uint256"
        }
      ],
      "name": "mint",
      "outputs": [],
      "stateMutability": "nonpayable",
      "type": "function"
    },
    {
      "inputs": [],
      "name": "name",
      "outputs": [
        {
          "internalType": "string",
          "name": "",
          "type": "string"
        }
      ],
      "stateMutability": "view",
      "type": "function"
    },
    {
      "inputs": [
        {
          "internalType": "uint256",
          "name": "tokenId",
          "type": "uint256"
        }
      ],
      "name": "ownerOf",
      "outputs": [
        {
          "internalType": "address",
          "name": "",
          "type": "address"
        }
      ],
      "stateMutability": "view",
      "type": "function"
    },
    {
      "inputs": [
        {
          "internalType": "address",
          "name": "from",
          "type": "address"
        },
        {
          "internalType": "address",
          "name": "to",
          "type": "address"
        },
        {
          "internalType": "uint256",
          "name": "tokenId",
          "type": "uint256"
        }
      ],
      "name": "safeTransferFrom",
      "outputs": [],
      "stateMutability": "nonpayable",
      "type": "function"
    },
    {
      "inputs": [
        {
          "internalType": "address",
          "name": "from",
          "type": "address"
        },
        {
          "internalType": "address",
          "name": "to",
          "type": "address"
        },
        {
          "internalType": "uint256",
          "name": "tokenId",
          "type": "uint256"
        },
        {
          "internalType": "bytes",
          "name": "_data",
          "type": "bytes"
        }
      ],
      "name": "safeTransferFrom",
      "outputs": [],
      "stateMutability": "nonpayable",
      "type": "function"
    },
    {
      "inputs": [
        {
          "internalType": "address",
          "name": "operator",
          "type": "address"
        },
        {
          "internalType": "bool",
          "name": "approved",
          "type": "bool"
        }
      ],
      "name": "setApprovalForAll",
      "outputs": [],
      "stateMutability": "nonpayable",
      "type": "function"
    },
    {
      "inputs": [
        {
          "internalType": "string",
          "name": "_uri",
          "type": "string"
        }
      ],
      "name": "setBaseURI",
      "outputs": [],
      "stateMutability": "nonpayable",
      "type": "function"
    },
    {
      "inputs": [
        {
          "internalType": "bytes4",
          "name": "interfaceId",
          "type": "bytes4"
        }
      ],
      "name": "supportsInterface",
      "outputs": [
        {
          "internalType": "bool",
          "name": "",
          "type": "bool"
        }
      ],
      "stateMutability": "view",
      "type": "function"
    },
    {
      "inputs": [],
      "name": "symbol",
      "outputs": [
        {
          "internalType": "string",
          "name": "",
          "type": "string"
        }
      ],
      "stateMutability": "view",
      "type": "function"
    },
    {
      "inputs": [
        {
          "internalType": "uint256",
          "name": "index",
          "type": "uint256"
        }
      ],
      "name": "tokenByIndex",
      "outputs": [
        {
          "internalType": "uint256",
          "name": "",
          "type": "uint256"
        }
      ],
      "stateMutability": "view",
      "type": "function"
    },
    {
      "inputs": [
        {
          "internalType": "address",
          "name": "owner",
          "type": "address"
        },
        {
          "internalType": "uint256",
          "name": "index",
          "type": "uint256"
        }
      ],
      "name": "tokenOfOwnerByIndex",
      "outputs": [
        {
          "internalType": "uint256",
          "name": "",
          "type": "uint256"
        }
      ],
      "stateMutability": "view",
      "type": "function"
    },
    {
      "inputs": [
        {
          "internalType": "uint256",
          "name": "tokenId",
          "type": "uint256"
        }
      ],
      "name": "tokenURI",
      "outputs": [
        {
          "internalType": "string",
          "name": "",
          "type": "string"
        }
      ],
      "stateMutability": "view",
      "type": "function"
    },
    {
      "inputs": [],
      "name": "totalSupply",
      "outputs": [
        {
          "internalType": "uint256",
          "name": "",
          "type": "uint256"
        }
      ],
      "stateMutability": "view",
      "type": "function"
    },
    {
      "inputs": [
        {
          "internalType": "address",
          "name": "from",
          "type": "address"
        },
        {
          "internalType": "address",
          "name": "to",
          "type": "address"
        },
        {
          "internalType": "uint256",
          "name": "tokenId",
          "type": "uint256"
        }
      ],
      "name": "transferFrom",
      "outputs": [],
      "stateMutability": "nonpayable",
      "type": "function"
    }
  ],
  "bytecode": "0x6080604052619c40600a55604051806060016040528060368152602001620034d660369139600c90805190602001906200003b929190620000f0565b503480156200004957600080fd5b506040518060400160405280600381526020017f4e667400000000000000000000000000000000000000000000000000000000008152506040518060400160405280600381526020017f4e465400000000000000000000000000000000000000000000000000000000008152508160009080519060200190620000ce929190620000f0565b508060019080519060200190620000e7929190620000f0565b50505062000205565b828054620000fe90620001a0565b90600052602060002090601f0160209004810192826200012257600085556200016e565b82601f106200013d57805160ff19168380011785556200016e565b828001600101855582156200016e579182015b828111156200016d57825182559160200191906001019062000150565b5b5090506200017d919062000181565b5090565b5b808211156200019c57600081600090555060010162000182565b5090565b60006002820490506001821680620001b957607f821691505b60208210811415620001d057620001cf620001d6565b5b50919050565b7f4e487b7100000000000000000000000000000000000000000000000000000000600052602260045260246000fd5b6132c180620002156000396000f3fe608060405234801561001057600080fd5b50600436106101215760003560e01c806355f804b3116100ad578063a22cb46511610071578063a22cb4651461032c578063b88d4fde14610348578063c87b56dd14610364578063e985e9c514610394578063ffcc43c4146103c457610121565b806355f804b3146102765780636352211e1461029257806370a08231146102c257806395d89b41146102f2578063a0712d681461031057610121565b806318160ddd116100f457806318160ddd146101c057806323b872dd146101de5780632f745c59146101fa57806342842e0e1461022a5780634f6ccce71461024657610121565b806301ffc9a71461012657806306fdde0314610156578063081812fc14610174578063095ea7b3146101a4575b600080fd5b610140600480360381019061013b91906122c1565b6103e2565b60405161014d919061272b565b60405180910390f35b61015e61045c565b60405161016b9190612746565b60405180910390f35b61018e60048036038101906101899190612354565b6104ee565b60405161019b91906126c4565b60405180910390f35b6101be60048036038101906101b99190612285565b610573565b005b6101c861068b565b6040516101d59190612988565b60405180910390f35b6101f860048036038101906101f3919061217f565b610698565b005b610214600480360381019061020f9190612285565b6106f8565b6040516102219190612988565b60405180910390f35b610244600480360381019061023f919061217f565b61079d565b005b610260600480360381019061025b9190612354565b6107bd565b60405161026d9190612988565b60405180910390f35b610290600480360381019061028b9190612313565b610854565b005b6102ac60048036038101906102a79190612354565b61086e565b6040516102b991906126c4565b60405180910390f35b6102dc60048036038101906102d7919061211a565b610920565b6040516102e99190612988565b60405180910390f35b6102fa6109d8565b6040516103079190612746565b60405180910390f35b61032a60048036038101906103259190612354565b610a6a565b005b61034660048036038101906103419190612249565b610afd565b005b610362600480360381019061035d91906121ce565b610b13565b005b61037e60048036038101906103799190612354565b610b75565b60405161038b9190612746565b60405180910390f35b6103ae60048036038101906103a99190612143565b610c2c565b6040516103bb919061272b565b60405180910390f35b6103cc610cc0565b6040516103d99190612746565b60405180910390f35b60007f780e9d63000000000000000000000000000000000000000000000000000000007bffffffffffffffffffffffffffffffffffffffffffffffffffffffff1916827bffffffffffffffffffffffffffffffffffffffffffffffffffffffff19161480610455575061045482610d4e565b5b9050919050565b60606000805461046b90612bde565b80601f016020809104026020016040519081016040528092919081815260200182805461049790612bde565b80156104e45780601f106104b9576101008083540402835291602001916104e4565b820191906000526020600020905b8154815290600101906020018083116104c757829003601f168201915b5050505050905090565b60006104f982610e30565b610538576040517f08c379a000000000000000000000000000000000000000000000000000000000815260040161052f906128e8565b60405180910390fd5b6004600083815260200190815260200160002060009054906101000a900473ffffffffffffffffffffffffffffffffffffffff169050919050565b600061057e8261086e565b90508073ffffffffffffffffffffffffffffffffffffffff168373ffffffffffffffffffffffffffffffffffffffff1614156105ef576040517f08c379a00000000000000000000000000000000000000000000000000000000081526004016105e690612928565b60405180910390fd5b8073ffffffffffffffffffffffffffffffffffffffff1661060e610e9c565b73ffffffffffffffffffffffffffffffffffffffff16148061063d575061063c81610637610e9c565b610c2c565b5b61067c576040517f08c379a000000000000000000000000000000000000000000000000000000000815260040161067390612848565b60405180910390fd5b6106868383610ea4565b505050565b6000600880549050905090565b6106a96106a3610e9c565b82610f5d565b6106e8576040517f08c379a00000000000000000000000000000000000000000000000000000000081526004016106df90612948565b60405180910390fd5b6106f383838361103b565b505050565b600061070383610920565b8210610744576040517f08c379a000000000000000000000000000000000000000000000000000000000815260040161073b90612768565b60405180910390fd5b600660008473ffffffffffffffffffffffffffffffffffffffff1673ffffffffffffffffffffffffffffffffffffffff168152602001908152602001600020600083815260200190815260200160002054905092915050565b6107b883838360405180602001604052806000815250610b13565b505050565b60006107c761068b565b8210610808576040517f08c379a00000000000000000000000000000000000000000000000000000000081526004016107ff90612968565b60405180910390fd5b60088281548110610842577f4e487b7100000000000000000000000000000000000000000000000000000000600052603260045260246000fd5b90600052602060002001549050919050565b80600c908051906020019061086a929190611f3e565b5050565b6000806002600084815260200190815260200160002060009054906101000a900473ffffffffffffffffffffffffffffffffffffffff169050600073ffffffffffffffffffffffffffffffffffffffff168173ffffffffffffffffffffffffffffffffffffffff161415610917576040517f08c379a000000000000000000000000000000000000000000000000000000000815260040161090e90612888565b60405180910390fd5b80915050919050565b60008073ffffffffffffffffffffffffffffffffffffffff168273ffffffffffffffffffffffffffffffffffffffff161415610991576040517f08c379a000000000000000000000000000000000000000000000000000000000815260040161098890612868565b60405180910390fd5b600360008373ffffffffffffffffffffffffffffffffffffffff1673ffffffffffffffffffffffffffffffffffffffff168152602001908152602001600020549050919050565b6060600180546109e790612bde565b80601f0160208091040260200160405190810160405280929190818152602001828054610a1390612bde565b8015610a605780601f10610a3557610100808354040283529160200191610a60565b820191906000526020600020905b815481529060010190602001808311610a4357829003601f168201915b5050505050905090565b6000610a7461068b565b9050600a548282610a859190612a6d565b10610ac5576040517f08c379a0000000000000000000000000000000000000000000000000000000008152600401610abc906128a8565b60405180910390fd5b60005b82811015610af857610ae5338284610ae09190612a6d565b6112a2565b8080610af090612c41565b915050610ac8565b505050565b610b0f610b08610e9c565b838361147c565b5050565b610b24610b1e610e9c565b83610f5d565b610b63576040517f08c379a0000000000000000000000000000000000000000000000000000000008152600401610b5a90612948565b60405180910390fd5b610b6f848484846115e9565b50505050565b6060610b8082610e30565b610bbf576040517f08c379a0000000000000000000000000000000000000000000000000000000008152600401610bb690612908565b60405180910390fd5b6000610bc9611645565b9050600a5483610bd99190612c8a565b92506000815111610bf95760405180602001604052806000815250610c24565b80610c03846116d7565b604051602001610c149291906126a0565b6040516020818303038152906040525b915050919050565b6000600560008473ffffffffffffffffffffffffffffffffffffffff1673ffffffffffffffffffffffffffffffffffffffff16815260200190815260200160002060008373ffffffffffffffffffffffffffffffffffffffff1673ffffffffffffffffffffffffffffffffffffffff16815260200190815260200160002060009054906101000a900460ff16905092915050565b600c8054610ccd90612bde565b80601f0160208091040260200160405190810160405280929190818152602001828054610cf990612bde565b8015610d465780601f10610d1b57610100808354040283529160200191610d46565b820191906000526020600020905b815481529060010190602001808311610d2957829003601f168201915b505050505081565b60007f80ac58cd000000000000000000000000000000000000000000000000000000007bffffffffffffffffffffffffffffffffffffffffffffffffffffffff1916827bffffffffffffffffffffffffffffffffffffffffffffffffffffffff19161480610e1957507f5b5e139f000000000000000000000000000000000000000000000000000000007bffffffffffffffffffffffffffffffffffffffffffffffffffffffff1916827bffffffffffffffffffffffffffffffffffffffffffffffffffffffff1916145b80610e295750610e2882611884565b5b9050919050565b60008073ffffffffffffffffffffffffffffffffffffffff166002600084815260200190815260200160002060009054906101000a900473ffffffffffffffffffffffffffffffffffffffff1673ffffffffffffffffffffffffffffffffffffffff1614159050919050565b600033905090565b816004600083815260200190815260200160002060006101000a81548173ffffffffffffffffffffffffffffffffffffffff021916908373ffffffffffffffffffffffffffffffffffffffff160217905550808273ffffffffffffffffffffffffffffffffffffffff16610f178361086e565b73ffffffffffffffffffffffffffffffffffffffff167f8c5be1e5ebec7d5bd14f71427d1e84f3dd0314c0f7b2291e5b200ac8c7c3b92560405160405180910390a45050565b6000610f6882610e30565b610fa7576040517f08c379a0000000000000000000000000000000000000000000000000000000008152600401610f9e90612828565b60405180910390fd5b6000610fb28361086e565b90508073ffffffffffffffffffffffffffffffffffffffff168473ffffffffffffffffffffffffffffffffffffffff16148061102157508373ffffffffffffffffffffffffffffffffffffffff16611009846104ee565b73ffffffffffffffffffffffffffffffffffffffff16145b8061103257506110318185610c2c565b5b91505092915050565b8273ffffffffffffffffffffffffffffffffffffffff1661105b8261086e565b73ffffffffffffffffffffffffffffffffffffffff16146110b1576040517f08c379a00000000000000000000000000000000000000000000000000000000081526004016110a8906127a8565b60405180910390fd5b600073ffffffffffffffffffffffffffffffffffffffff168273ffffffffffffffffffffffffffffffffffffffff161415611121576040517f08c379a0000000000000000000000000000000000000000000000000000000008152600401611118906127e8565b60405180910390fd5b61112c8383836118ee565b611137600082610ea4565b6001600360008573ffffffffffffffffffffffffffffffffffffffff1673ffffffffffffffffffffffffffffffffffffffff16815260200190815260200160002060008282546111879190612af4565b925050819055506001600360008473ffffffffffffffffffffffffffffffffffffffff1673ffffffffffffffffffffffffffffffffffffffff16815260200190815260200160002060008282546111de9190612a6d565b92505081905550816002600083815260200190815260200160002060006101000a81548173ffffffffffffffffffffffffffffffffffffffff021916908373ffffffffffffffffffffffffffffffffffffffff160217905550808273ffffffffffffffffffffffffffffffffffffffff168473ffffffffffffffffffffffffffffffffffffffff167fddf252ad1be2c89b69c2b068fc378daa952ba7f163c4a11628f55a4df523b3ef60405160405180910390a461129d838383611a02565b505050565b600073ffffffffffffffffffffffffffffffffffffffff168273ffffffffffffffffffffffffffffffffffffffff161415611312576040517f08c379a0000000000000000000000000000000000000000000000000000000008152600401611309906128c8565b60405180910390fd5b61131b81610e30565b1561135b576040517f08c379a0000000000000000000000000000000000000000000000000000000008152600401611352906127c8565b60405180910390fd5b611367600083836118ee565b6001600360008473ffffffffffffffffffffffffffffffffffffffff1673ffffffffffffffffffffffffffffffffffffffff16815260200190815260200160002060008282546113b79190612a6d565b92505081905550816002600083815260200190815260200160002060006101000a81548173ffffffffffffffffffffffffffffffffffffffff021916908373ffffffffffffffffffffffffffffffffffffffff160217905550808273ffffffffffffffffffffffffffffffffffffffff16600073ffffffffffffffffffffffffffffffffffffffff167fddf252ad1be2c89b69c2b068fc378daa952ba7f163c4a11628f55a4df523b3ef60405160405180910390a461147860008383611a02565b5050565b8173ffffffffffffffffffffffffffffffffffffffff168373ffffffffffffffffffffffffffffffffffffffff1614156114eb576040517f08c379a00000000000000000000000000000000000000000000000000000000081526004016114e290612808565b60405180910390fd5b80600560008573ffffffffffffffffffffffffffffffffffffffff1673ffffffffffffffffffffffffffffffffffffffff16815260200190815260200160002060008473ffffffffffffffffffffffffffffffffffffffff1673ffffffffffffffffffffffffffffffffffffffff16815260200190815260200160002060006101000a81548160ff0219169083151502179055508173ffffffffffffffffffffffffffffffffffffffff168373ffffffffffffffffffffffffffffffffffffffff167f17307eab39ab6107e8899845ad3d59bd9653f200f220920489ca2b5937696c31836040516115dc919061272b565b60405180910390a3505050565b6115f484848461103b565b61160084848484611a07565b61163f576040517f08c379a000000000000000000000000000000000000000000000000000000000815260040161163690612788565b60405180910390fd5b50505050565b6060600c805461165490612bde565b80601f016020809104026020016040519081016040528092919081815260200182805461168090612bde565b80156116cd5780601f106116a2576101008083540402835291602001916116cd565b820191906000526020600020905b8154815290600101906020018083116116b057829003601f168201915b5050505050905090565b6060600082141561171f576040518060400160405280600181526020017f3000000000000000000000000000000000000000000000000000000000000000815250905061187f565b600082905060005b6000821461175157808061173a90612c41565b915050600a8261174a9190612ac3565b9150611727565b60008167ffffffffffffffff811115611793577f4e487b7100000000000000000000000000000000000000000000000000000000600052604160045260246000fd5b6040519080825280601f01601f1916602001820160405280156117c55781602001600182028036833780820191505090505b5090505b60008514611878576001826117de9190612af4565b9150600a856117ed9190612c8a565b60306117f99190612a6d565b60f81b818381518110611835577f4e487b7100000000000000000000000000000000000000000000000000000000600052603260045260246000fd5b60200101907effffffffffffffffffffffffffffffffffffffffffffffffffffffffffffff1916908160001a905350600a856118719190612ac3565b94506117c9565b8093505050505b919050565b60007f01ffc9a7000000000000000000000000000000000000000000000000000000007bffffffffffffffffffffffffffffffffffffffffffffffffffffffff1916827bffffffffffffffffffffffffffffffffffffffffffffffffffffffff1916149050919050565b6118f9838383611b9e565b600073ffffffffffffffffffffffffffffffffffffffff168373ffffffffffffffffffffffffffffffffffffffff16141561193c5761193781611ba3565b61197b565b8173ffffffffffffffffffffffffffffffffffffffff168373ffffffffffffffffffffffffffffffffffffffff161461197a576119798382611bec565b5b5b600073ffffffffffffffffffffffffffffffffffffffff168273ffffffffffffffffffffffffffffffffffffffff1614156119be576119b981611d59565b6119fd565b8273ffffffffffffffffffffffffffffffffffffffff168273ffffffffffffffffffffffffffffffffffffffff16146119fc576119fb8282611e9c565b5b5b505050565b505050565b6000611a288473ffffffffffffffffffffffffffffffffffffffff16611f1b565b15611b91578373ffffffffffffffffffffffffffffffffffffffff1663150b7a02611a51610e9c565b8786866040518563ffffffff1660e01b8152600401611a7394939291906126df565b602060405180830381600087803b158015611a8d57600080fd5b505af1925050508015611abe57506040513d601f19601f82011682018060405250810190611abb91906122ea565b60015b611b41573d8060008114611aee576040519150601f19603f3d011682016040523d82523d6000602084013e611af3565b606091505b50600081511415611b39576040517f08c379a0000000000000000000000000000000000000000000000000000000008152600401611b3090612788565b60405180910390fd5b805181602001fd5b63150b7a0260e01b7bffffffffffffffffffffffffffffffffffffffffffffffffffffffff1916817bffffffffffffffffffffffffffffffffffffffffffffffffffffffff191614915050611b96565b600190505b949350505050565b505050565b6008805490506009600083815260200190815260200160002081905550600881908060018154018082558091505060019003906000526020600020016000909190919091505550565b60006001611bf984610920565b611c039190612af4565b9050600060076000848152602001908152602001600020549050818114611ce8576000600660008673ffffffffffffffffffffffffffffffffffffffff1673ffffffffffffffffffffffffffffffffffffffff168152602001908152602001600020600084815260200190815260200160002054905080600660008773ffffffffffffffffffffffffffffffffffffffff1673ffffffffffffffffffffffffffffffffffffffff168152602001908152602001600020600084815260200190815260200160002081905550816007600083815260200190815260200160002081905550505b6007600084815260200190815260200160002060009055600660008573ffffffffffffffffffffffffffffffffffffffff1673ffffffffffffffffffffffffffffffffffffffff16815260200190815260200160002060008381526020019081526020016000206000905550505050565b60006001600880549050611d6d9190612af4565b9050600060096000848152602001908152602001600020549050600060088381548110611dc3577f4e487b7100000000000000000000000000000000000000000000000000000000600052603260045260246000fd5b906000526020600020015490508060088381548110611e0b577f4e487b7100000000000000000000000000000000000000000000000000000000600052603260045260246000fd5b906000526020600020018190555081600960008381526020019081526020016000208190555060096000858152602001908152602001600020600090556008805480611e80577f4e487b7100000000000000000000000000000000000000000000000000000000600052603160045260246000fd5b6001900381819060005260206000200160009055905550505050565b6000611ea783610920565b905081600660008573ffffffffffffffffffffffffffffffffffffffff1673ffffffffffffffffffffffffffffffffffffffff168152602001908152602001600020600083815260200190815260200160002081905550806007600084815260200190815260200160002081905550505050565b6000808273ffffffffffffffffffffffffffffffffffffffff163b119050919050565b828054611f4a90612bde565b90600052602060002090601f016020900481019282611f6c5760008555611fb3565b82601f10611f8557805160ff1916838001178555611fb3565b82800160010185558215611fb3579182015b82811115611fb2578251825591602001919060010190611f97565b5b509050611fc09190611fc4565b5090565b5b80821115611fdd576000816000905550600101611fc5565b5090565b6000611ff4611fef846129c8565b6129a3565b90508281526020810184848401111561200c57600080fd5b612017848285612b9c565b509392505050565b600061203261202d846129f9565b6129a3565b90508281526020810184848401111561204a57600080fd5b612055848285612b9c565b509392505050565b60008135905061206c8161322f565b92915050565b60008135905061208181613246565b92915050565b6000813590506120968161325d565b92915050565b6000815190506120ab8161325d565b92915050565b600082601f8301126120c257600080fd5b81356120d2848260208601611fe1565b91505092915050565b600082601f8301126120ec57600080fd5b81356120fc84826020860161201f565b91505092915050565b60008135905061211481613274565b92915050565b60006020828403121561212c57600080fd5b600061213a8482850161205d565b91505092915050565b6000806040838503121561215657600080fd5b60006121648582860161205d565b92505060206121758582860161205d565b9150509250929050565b60008060006060848603121561219457600080fd5b60006121a28682870161205d565b93505060206121b38682870161205d565b92505060406121c486828701612105565b9150509250925092565b600080600080608085870312156121e457600080fd5b60006121f28782880161205d565b94505060206122038782880161205d565b935050604061221487828801612105565b925050606085013567ffffffffffffffff81111561223157600080fd5b61223d878288016120b1565b91505092959194509250565b6000806040838503121561225c57600080fd5b600061226a8582860161205d565b925050602061227b85828601612072565b9150509250929050565b6000806040838503121561229857600080fd5b60006122a68582860161205d565b92505060206122b785828601612105565b9150509250929050565b6000602082840312156122d357600080fd5b60006122e184828501612087565b91505092915050565b6000602082840312156122fc57600080fd5b600061230a8482850161209c565b91505092915050565b60006020828403121561232557600080fd5b600082013567ffffffffffffffff81111561233f57600080fd5b61234b848285016120db565b91505092915050565b60006020828403121561236657600080fd5b600061237484828501612105565b91505092915050565b61238681612b28565b82525050565b61239581612b3a565b82525050565b60006123a682612a2a565b6123b08185612a40565b93506123c0818560208601612bab565b6123c981612d77565b840191505092915050565b60006123df82612a35565b6123e98185612a51565b93506123f9818560208601612bab565b61240281612d77565b840191505092915050565b600061241882612a35565b6124228185612a62565b9350612432818560208601612bab565b80840191505092915050565b600061244b602b83612a51565b915061245682612d88565b604082019050919050565b600061246e603283612a51565b915061247982612dd7565b604082019050919050565b6000612491602583612a51565b915061249c82612e26565b604082019050919050565b60006124b4601c83612a51565b91506124bf82612e75565b602082019050919050565b60006124d7602483612a51565b91506124e282612e9e565b604082019050919050565b60006124fa601983612a51565b915061250582612eed565b602082019050919050565b600061251d602c83612a51565b915061252882612f16565b604082019050919050565b6000612540603883612a51565b915061254b82612f65565b604082019050919050565b6000612563602a83612a51565b915061256e82612fb4565b604082019050919050565b6000612586602983612a51565b915061259182613003565b604082019050919050565b60006125a9600f83612a51565b91506125b482613052565b602082019050919050565b60006125cc602083612a51565b91506125d78261307b565b602082019050919050565b60006125ef602c83612a51565b91506125fa826130a4565b604082019050919050565b6000612612602f83612a51565b915061261d826130f3565b604082019050919050565b6000612635602183612a51565b915061264082613142565b604082019050919050565b6000612658603183612a51565b915061266382613191565b604082019050919050565b600061267b602c83612a51565b9150612686826131e0565b604082019050919050565b61269a81612b92565b82525050565b60006126ac828561240d565b91506126b8828461240d565b91508190509392505050565b60006020820190506126d9600083018461237d565b92915050565b60006080820190506126f4600083018761237d565b612701602083018661237d565b61270e6040830185612691565b8181036060830152612720818461239b565b905095945050505050565b6000602082019050612740600083018461238c565b92915050565b6000602082019050818103600083015261276081846123d4565b905092915050565b600060208201905081810360008301526127818161243e565b9050919050565b600060208201905081810360008301526127a181612461565b9050919050565b600060208201905081810360008301526127c181612484565b9050919050565b600060208201905081810360008301526127e1816124a7565b9050919050565b60006020820190508181036000830152612801816124ca565b9050919050565b60006020820190508181036000830152612821816124ed565b9050919050565b6000602082019050818103600083015261284181612510565b9050919050565b6000602082019050818103600083015261286181612533565b9050919050565b6000602082019050818103600083015261288181612556565b9050919050565b600060208201905081810360008301526128a181612579565b9050919050565b600060208201905081810360008301526128c18161259c565b9050919050565b600060208201905081810360008301526128e1816125bf565b9050919050565b60006020820190508181036000830152612901816125e2565b9050919050565b6000602082019050818103600083015261292181612605565b9050919050565b6000602082019050818103600083015261294181612628565b9050919050565b600060208201905081810360008301526129618161264b565b9050919050565b600060208201905081810360008301526129818161266e565b9050919050565b600060208201905061299d6000830184612691565b92915050565b60006129ad6129be565b90506129b98282612c10565b919050565b6000604051905090565b600067ffffffffffffffff8211156129e3576129e2612d48565b5b6129ec82612d77565b9050602081019050919050565b600067ffffffffffffffff821115612a1457612a13612d48565b5b612a1d82612d77565b9050602081019050919050565b600081519050919050565b600081519050919050565b600082825260208201905092915050565b600082825260208201905092915050565b600081905092915050565b6000612a7882612b92565b9150612a8383612b92565b9250827fffffffffffffffffffffffffffffffffffffffffffffffffffffffffffffffff03821115612ab857612ab7612cbb565b5b828201905092915050565b6000612ace82612b92565b9150612ad983612b92565b925082612ae957612ae8612cea565b5b828204905092915050565b6000612aff82612b92565b9150612b0a83612b92565b925082821015612b1d57612b1c612cbb565b5b828203905092915050565b6000612b3382612b72565b9050919050565b60008115159050919050565b60007fffffffff0000000000000000000000000000000000000000000000000000000082169050919050565b600073ffffffffffffffffffffffffffffffffffffffff82169050919050565b6000819050919050565b82818337600083830152505050565b60005b83811015612bc9578082015181840152602081019050612bae565b83811115612bd8576000848401525b50505050565b60006002820490506001821680612bf657607f821691505b60208210811415612c0a57612c09612d19565b5b50919050565b612c1982612d77565b810181811067ffffffffffffffff82111715612c3857612c37612d48565b5b80604052505050565b6000612c4c82612b92565b91507fffffffffffffffffffffffffffffffffffffffffffffffffffffffffffffffff821415612c7f57612c7e612cbb565b5b600182019050919050565b6000612c9582612b92565b9150612ca083612b92565b925082612cb057612caf612cea565b5b828206905092915050565b7f4e487b7100000000000000000000000000000000000000000000000000000000600052601160045260246000fd5b7f4e487b7100000000000000000000000000000000000000000000000000000000600052601260045260246000fd5b7f4e487b7100000000000000000000000000000000000000000000000000000000600052602260045260246000fd5b7f4e487b7100000000000000000000000000000000000000000000000000000000600052604160045260246000fd5b6000601f19601f8301169050919050565b7f455243373231456e756d657261626c653a206f776e657220696e646578206f7560008201527f74206f6620626f756e6473000000000000000000000000000000000000000000602082015250565b7f4552433732313a207472616e7366657220746f206e6f6e20455243373231526560008201527f63656976657220696d706c656d656e7465720000000000000000000000000000602082015250565b7f4552433732313a207472616e736665722066726f6d20696e636f72726563742060008201527f6f776e6572000000000000000000000000000000000000000000000000000000602082015250565b7f4552433732313a20746f6b656e20616c7265616479206d696e74656400000000600082015250565b7f4552433732313a207472616e7366657220746f20746865207a65726f2061646460008201527f7265737300000000000000000000000000000000000000000000000000000000602082015250565b7f4552433732313a20617070726f766520746f2063616c6c657200000000000000600082015250565b7f4552433732313a206f70657261746f7220717565727920666f72206e6f6e657860008201527f697374656e7420746f6b656e0000000000000000000000000000000000000000602082015250565b7f4552433732313a20617070726f76652063616c6c6572206973206e6f74206f7760008201527f6e6572206e6f7220617070726f76656420666f7220616c6c0000000000000000602082015250565b7f4552433732313a2062616c616e636520717565727920666f7220746865207a6560008201527f726f206164647265737300000000000000000000000000000000000000000000602082015250565b7f4552433732313a206f776e657220717565727920666f72206e6f6e657869737460008201527f656e7420746f6b656e0000000000000000000000000000000000000000000000602082015250565b7f6f766572206d617820737570706c790000000000000000000000000000000000600082015250565b7f4552433732313a206d696e7420746f20746865207a65726f2061646472657373600082015250565b7f4552433732313a20617070726f76656420717565727920666f72206e6f6e657860008201527f697374656e7420746f6b656e0000000000000000000000000000000000000000602082015250565b7f4552433732314d657461646174613a2055524920717565727920666f72206e6f60008201527f6e6578697374656e7420746f6b656e0000000000000000000000000000000000602082015250565b7f4552433732313a20617070726f76616c20746f2063757272656e74206f776e6560008201527f7200000000000000000000000000000000000000000000000000000000000000602082015250565b7f4552433732313a207472616e736665722063616c6c6572206973206e6f74206f60008201527f776e6572206e6f7220617070726f766564000000000000000000000000000000602082015250565b7f455243373231456e756d657261626c653a20676c6f62616c20696e646578206f60008201527f7574206f6620626f756e64730000000000000000000000000000000000000000602082015250565b61323881612b28565b811461324357600080fd5b50565b61324f81612b3a565b811461325a57600080fd5b50565b61326681612b46565b811461327157600080fd5b50565b61327d81612b92565b811461328857600080fd5b5056fea2646970667358221220eb047bedf9a48dd95c5d2812ce648b221c10bd09cc9feb2f2efa75de9b5b673464736f6c63430008040033697066733a2f2f516d65536a53696e4870506e6d586d73704d6a776958794e367a533445397a63636172694752336a7863615774712f",
  "linkReferences": {},
  "deployedLinkReferences": {}
}