{
  "_format": "hh-sol-artifact-1",
  "contractName": "RandomTokenIdContract",
  "sourceName": "contracts/RandomTokenIdContract.sol",
  "abi": [
    {
      "inputs": [
        {
          "internalType": "address",
          "name": "_honeyAddress",
          "type": "address"
        }
      ],
      "stateMutability": "nonpayable",
      "type": "constructor"
    },
    {
      "anonymous": false,
      "inputs": [
        {
          "indexed": true,
          "internalType": "address",
          "name": "owner",
          "type": "address"
        },
        {
          "indexed": true,
          "internalType": "address",
          "name": "approved",
          "type": "address"
        },
        {
          "indexed": true,
          "internalType": "uint256",
          "name": "tokenId",
          "type": "uint256"
        }
      ],
      "name": "Approval",
      "type": "event"
    },
    {
      "anonymous": false,
      "inputs": [
        {
          "indexed": true,
          "internalType": "address",
          "name": "owner",
          "type": "address"
        },
        {
          "indexed": true,
          "internalType": "address",
          "name": "operator",
          "type": "address"
        },
        {
          "indexed": false,
          "internalType": "bool",
          "name": "approved",
          "type": "bool"
        }
      ],
      "name": "ApprovalForAll",
      "type": "event"
    },
    {
      "anonymous": false,
      "inputs": [
        {
          "indexed": true,
          "internalType": "address",
          "name": "previousOwner",
          "type": "address"
        },
        {
          "indexed": true,
          "internalType": "address",
          "name": "newOwner",
          "type": "address"
        }
      ],
      "name": "OwnershipTransferred",
      "type": "event"
    },
    {
      "anonymous": false,
      "inputs": [
        {
          "indexed": true,
          "internalType": "address",
          "name": "from",
          "type": "address"
        },
        {
          "indexed": true,
          "internalType": "address",
          "name": "to",
          "type": "address"
        },
        {
          "indexed": true,
          "internalType": "uint256",
          "name": "tokenId",
          "type": "uint256"
        }
      ],
      "name": "Transfer",
      "type": "event"
    },
    {
      "inputs": [
        {
          "internalType": "address",
          "name": "to",
          "type": "address"
        },
        {
          "internalType": "uint256",
          "name": "tokenId",
          "type": "uint256"
        }
      ],
      "name": "approve",
      "outputs": [],
      "stateMutability": "nonpayable",
      "type": "function"
    },
    {
      "inputs": [
        {
          "internalType": "uint256",
          "name": "tokenId",
          "type": "uint256"
        },
        {
          "internalType": "uint256",
          "name": "emissionRate",
          "type": "uint256"
        },
        {
          "internalType": "address",
          "name": "_reciepient",
          "type": "address"
        }
      ],
      "name": "auctionMint",
      "outputs": [],
      "stateMutability": "nonpayable",
      "type": "function"
    },
    {
      "inputs": [
        {
          "internalType": "address",
          "name": "owner",
          "type": "address"
        }
      ],
      "name": "balanceOf",
      "outputs": [
        {
          "internalType": "uint256",
          "name": "",
          "type": "uint256"
        }
      ],
      "stateMutability": "view",
      "type": "function"
    },
    {
      "inputs": [
        {
          "internalType": "uint256",
          "name": "tokenId",
          "type": "uint256"
        }
      ],
      "name": "getApproved",
      "outputs": [
        {
          "internalType": "address",
          "name": "",
          "type": "address"
        }
      ],
      "stateMutability": "view",
      "type": "function"
    },
    {
      "inputs": [
        {
          "internalType": "uint256",
          "name": "totalAmount",
          "type": "uint256"
        }
      ],
      "name": "getMintCost",
      "outputs": [
        {
          "internalType": "uint256",
          "name": "",
          "type": "uint256"
        }
      ],
      "stateMutability": "view",
      "type": "function"
    },
    {
      "inputs": [
        {
          "internalType": "uint256",
          "name": "_tokenId",
          "type": "uint256"
        }
      ],
      "name": "getTokensEmissionRate",
      "outputs": [
        {
          "internalType": "uint256",
          "name": "",
          "type": "uint256"
        }
      ],
      "stateMutability": "view",
      "type": "function"
    },
    {
      "inputs": [
        {
          "internalType": "address",
          "name": "owner",
          "type": "address"
        },
        {
          "internalType": "address",
          "name": "operator",
          "type": "address"
        }
      ],
      "name": "isApprovedForAll",
      "outputs": [
        {
          "internalType": "bool",
          "name": "",
          "type": "bool"
        }
      ],
      "stateMutability": "view",
      "type": "function"
    },
    {
      "inputs": [
        {
          "internalType": "uint256",
          "name": "_randomNumber",
          "type": "uint256"
        },
        {
          "internalType": "address",
          "name": "_reciepient",
          "type": "address"
        }
      ],
      "name": "mintRandom",
      "outputs": [],
      "stateMutability": "nonpayable",
      "type": "function"
    },
    {
      "inputs": [],
      "name": "minted",
      "outputs": [
        {
          "internalType": "uint256",
          "name": "",
          "type": "uint256"
        }
      ],
      "stateMutability": "view",
      "type": "function"
    },
    {
      "inputs": [],
      "name": "name",
      "outputs": [
        {
          "internalType": "string",
          "name": "",
          "type": "string"
        }
      ],
      "stateMutability": "view",
      "type": "function"
    },
    {
      "inputs": [],
      "name": "owner",
      "outputs": [
        {
          "internalType": "address",
          "name": "",
          "type": "address"
        }
      ],
      "stateMutability": "view",
      "type": "function"
    },
    {
      "inputs": [
        {
          "internalType": "uint256",
          "name": "tokenId",
          "type": "uint256"
        }
      ],
      "name": "ownerOf",
      "outputs": [
        {
          "internalType": "address",
          "name": "",
          "type": "address"
        }
      ],
      "stateMutability": "view",
      "type": "function"
    },
    {
      "inputs": [
        {
          "internalType": "uint256",
          "name": "_amount",
          "type": "uint256"
        }
      ],
      "name": "publicMint",
      "outputs": [],
      "stateMutability": "nonpayable",
      "type": "function"
    },
    {
      "inputs": [],
      "name": "renounceOwnership",
      "outputs": [],
      "stateMutability": "nonpayable",
      "type": "function"
    },
    {
      "inputs": [
        {
          "internalType": "address",
          "name": "from",
          "type": "address"
        },
        {
          "internalType": "address",
          "name": "to",
          "type": "address"
        },
        {
          "internalType": "uint256",
          "name": "tokenId",
          "type": "uint256"
        }
      ],
      "name": "safeTransferFrom",
      "outputs": [],
      "stateMutability": "nonpayable",
      "type": "function"
    },
    {
      "inputs": [
        {
          "internalType": "address",
          "name": "from",
          "type": "address"
        },
        {
          "internalType": "address",
          "name": "to",
          "type": "address"
        },
        {
          "internalType": "uint256",
          "name": "tokenId",
          "type": "uint256"
        },
        {
          "internalType": "bytes",
          "name": "_data",
          "type": "bytes"
        }
      ],
      "name": "safeTransferFrom",
      "outputs": [],
      "stateMutability": "nonpayable",
      "type": "function"
    },
    {
      "inputs": [
        {
          "internalType": "address",
          "name": "operator",
          "type": "address"
        },
        {
          "internalType": "bool",
          "name": "approved",
          "type": "bool"
        }
      ],
      "name": "setApprovalForAll",
      "outputs": [],
      "stateMutability": "nonpayable",
      "type": "function"
    },
    {
      "inputs": [
        {
          "internalType": "bytes4",
          "name": "interfaceId",
          "type": "bytes4"
        }
      ],
      "name": "supportsInterface",
      "outputs": [
        {
          "internalType": "bool",
          "name": "",
          "type": "bool"
        }
      ],
      "stateMutability": "view",
      "type": "function"
    },
    {
      "inputs": [],
      "name": "symbol",
      "outputs": [
        {
          "internalType": "string",
          "name": "",
          "type": "string"
        }
      ],
      "stateMutability": "view",
      "type": "function"
    },
    {
      "inputs": [
        {
          "internalType": "uint256",
          "name": "index",
          "type": "uint256"
        }
      ],
      "name": "tokenByIndex",
      "outputs": [
        {
          "internalType": "uint256",
          "name": "",
          "type": "uint256"
        }
      ],
      "stateMutability": "view",
      "type": "function"
    },
    {
      "inputs": [
        {
          "internalType": "address",
          "name": "owner",
          "type": "address"
        },
        {
          "internalType": "uint256",
          "name": "index",
          "type": "uint256"
        }
      ],
      "name": "tokenOfOwnerByIndex",
      "outputs": [
        {
          "internalType": "uint256",
          "name": "",
          "type": "uint256"
        }
      ],
      "stateMutability": "view",
      "type": "function"
    },
    {
      "inputs": [
        {
          "internalType": "uint256",
          "name": "tokenId",
          "type": "uint256"
        }
      ],
      "name": "tokenURI",
      "outputs": [
        {
          "internalType": "string",
          "name": "",
          "type": "string"
        }
      ],
      "stateMutability": "view",
      "type": "function"
    },
    {
      "inputs": [],
      "name": "totalSupply",
      "outputs": [
        {
          "internalType": "uint256",
          "name": "",
          "type": "uint256"
        }
      ],
      "stateMutability": "view",
      "type": "function"
    },
    {
      "inputs": [
        {
          "internalType": "address",
          "name": "from",
          "type": "address"
        },
        {
          "internalType": "address",
          "name": "to",
          "type": "address"
        },
        {
          "internalType": "uint256",
          "name": "tokenId",
          "type": "uint256"
        }
      ],
      "name": "transferFrom",
      "outputs": [],
      "stateMutability": "nonpayable",
      "type": "function"
    },
    {
      "inputs": [
        {
          "internalType": "address",
          "name": "newOwner",
          "type": "address"
        }
      ],
      "name": "transferOwnership",
      "outputs": [],
      "stateMutability": "nonpayable",
      "type": "function"
    }
  ],
  "bytecode": "0x60806040523480156200001157600080fd5b5060405162004163380380620041638339818101604052810190620000379190620002d4565b6040518060400160405280600881526020017f52616e646f6d49640000000000000000000000000000000000000000000000008152506040518060400160405280600881526020017f52616e646f6d49640000000000000000000000000000000000000000000000008152508160009080519060200190620000bb9291906200020d565b508060019080519060200190620000d49291906200020d565b505050620000f7620000eb6200013f60201b60201c565b6200014760201b60201c565b80600c60006101000a81548173ffffffffffffffffffffffffffffffffffffffff021916908373ffffffffffffffffffffffffffffffffffffffff16021790555050620003b3565b600033905090565b6000600a60009054906101000a900473ffffffffffffffffffffffffffffffffffffffff16905081600a60006101000a81548173ffffffffffffffffffffffffffffffffffffffff021916908373ffffffffffffffffffffffffffffffffffffffff1602179055508173ffffffffffffffffffffffffffffffffffffffff168173ffffffffffffffffffffffffffffffffffffffff167f8be0079c531659141344cd1fd0a4f28419497f9722a3daafe3b4186f6b6457e060405160405180910390a35050565b8280546200021b9062000334565b90600052602060002090601f0160209004810192826200023f57600085556200028b565b82601f106200025a57805160ff19168380011785556200028b565b828001600101855582156200028b579182015b828111156200028a5782518255916020019190600101906200026d565b5b5090506200029a91906200029e565b5090565b5b80821115620002b95760008160009055506001016200029f565b5090565b600081519050620002ce8162000399565b92915050565b600060208284031215620002e757600080fd5b6000620002f784828501620002bd565b91505092915050565b60006200030d8262000314565b9050919050565b600073ffffffffffffffffffffffffffffffffffffffff82169050919050565b600060028204905060018216806200034d57607f821691505b602082108114156200036457620003636200036a565b5b50919050565b7f4e487b7100000000000000000000000000000000000000000000000000000000600052602260045260246000fd5b620003a48162000300565b8114620003b057600080fd5b50565b613da080620003c36000396000f3fe608060405234801561001057600080fd5b50600436106101735760003560e01c80634f6ccce7116100de57806395d89b4111610097578063c87b56dd11610071578063c87b56dd1461045c578063e985e9c51461048c578063f2fde38b146104bc578063f445dbf4146104d857610173565b806395d89b4114610406578063a22cb46514610424578063b88d4fde1461044057610173565b80634f6ccce71461033257806350dfe98a146103625780636352211e1461037e57806370a08231146103ae578063715018a6146103de5780638da5cb5b146103e857610173565b806318160ddd1161013057806318160ddd1461027257806323b872dd146102905780632db11544146102ac5780632f745c59146102c857806342842e0e146102f85780634f02c4201461031457610173565b806301ffc9a71461017857806306fdde03146101a8578063081812fc146101c6578063095ea7b3146101f65780630c509436146102125780630dabeabd14610242575b600080fd5b610192600480360381019061018d91906129b7565b6104f4565b60405161019f9190612fbc565b60405180910390f35b6101b061056e565b6040516101bd9190612fd7565b60405180910390f35b6101e060048036038101906101db9190612a09565b610600565b6040516101ed9190612f1e565b60405180910390f35b610210600480360381019061020b9190612952565b610685565b005b61022c60048036038101906102279190612a09565b61079d565b60405161023991906132d9565b60405180910390f35b61025c60048036038101906102579190612a09565b6107af565b60405161026991906132d9565b60405180910390f35b61027a610820565b60405161028791906132d9565b60405180910390f35b6102aa60048036038101906102a5919061284c565b61082d565b005b6102c660048036038101906102c19190612a09565b61088d565b005b6102e260048036038101906102dd9190612952565b6109b7565b6040516102ef91906132d9565b60405180910390f35b610312600480360381019061030d919061284c565b610a5c565b005b61031c610a7c565b60405161032991906132d9565b60405180910390f35b61034c60048036038101906103479190612a09565b610a82565b60405161035991906132d9565b60405180910390f35b61037c60048036038101906103779190612a6e565b610b19565b005b61039860048036038101906103939190612a09565b610be1565b6040516103a59190612f1e565b60405180910390f35b6103c860048036038101906103c391906127e7565b610c93565b6040516103d591906132d9565b60405180910390f35b6103e6610d4b565b005b6103f0610dd3565b6040516103fd9190612f1e565b60405180910390f35b61040e610dfd565b60405161041b9190612fd7565b60405180910390f35b61043e60048036038101906104399190612916565b610e8f565b005b61045a6004803603810190610455919061289b565b610ea5565b005b61047660048036038101906104719190612a09565b610f07565b6040516104839190612fd7565b60405180910390f35b6104a660048036038101906104a19190612810565b610fae565b6040516104b39190612fbc565b60405180910390f35b6104d660048036038101906104d191906127e7565b611042565b005b6104f260048036038101906104ed9190612a32565b61113a565b005b60007f780e9d63000000000000000000000000000000000000000000000000000000007bffffffffffffffffffffffffffffffffffffffffffffffffffffffff1916827bffffffffffffffffffffffffffffffffffffffffffffffffffffffff19161480610567575061056682611180565b5b9050919050565b60606000805461057d90613509565b80601f01602080910402602001604051908101604052809291908181526020018280546105a990613509565b80156105f65780601f106105cb576101008083540402835291602001916105f6565b820191906000526020600020905b8154815290600101906020018083116105d957829003601f168201915b5050505050905090565b600061060b82611262565b61064a576040517f08c379a0000000000000000000000000000000000000000000000000000000008152600401610641906131b9565b60405180910390fd5b6004600083815260200190815260200160002060009054906101000a900473ffffffffffffffffffffffffffffffffffffffff169050919050565b600061069082610be1565b90508073ffffffffffffffffffffffffffffffffffffffff168373ffffffffffffffffffffffffffffffffffffffff161415610701576040517f08c379a00000000000000000000000000000000000000000000000000000000081526004016106f890613239565b60405180910390fd5b8073ffffffffffffffffffffffffffffffffffffffff166107206112ce565b73ffffffffffffffffffffffffffffffffffffffff16148061074f575061074e816107496112ce565b610fae565b5b61078e576040517f08c379a000000000000000000000000000000000000000000000000000000000815260040161078590613139565b60405180910390fd5b61079883836112d6565b505050565b6000678ac7230489e800009050919050565b600080600e600084815260200190815260200160002054905060008111156107da578091505061081b565b60c98310156107f4576702c68af0bb14000091505061081b565b61992183101561080f5767016345785d8a000091505061081b565b66b1a2bc2ec500009150505b919050565b6000600880549050905090565b61083e6108386112ce565b8261138f565b61087d576040517f08c379a000000000000000000000000000000000000000000000000000000000815260040161087490613259565b60405180910390fd5b61088883838361146d565b505050565b60058111156108d1576040517f08c379a00000000000000000000000000000000000000000000000000000000081526004016108c890613099565b60405180910390fd5b619c40600b54826108e29190613398565b1115610923576040517f08c379a000000000000000000000000000000000000000000000000000000000815260040161091a90612ff9565b60405180910390fd5b600061093b600b54836109369190613398565b61079d565b905081600b600082825461094f9190613398565b925050819055506109b36109616112ce565b610969610dd3565b83600c60009054906101000a900473ffffffffffffffffffffffffffffffffffffffff1673ffffffffffffffffffffffffffffffffffffffff166116c9909392919063ffffffff16565b5050565b60006109c283610c93565b8210610a03576040517f08c379a00000000000000000000000000000000000000000000000000000000081526004016109fa90613019565b60405180910390fd5b600660008473ffffffffffffffffffffffffffffffffffffffff1673ffffffffffffffffffffffffffffffffffffffff168152602001908152602001600020600083815260200190815260200160002054905092915050565b610a7783838360405180602001604052806000815250610ea5565b505050565b600b5481565b6000610a8c610820565b8210610acd576040517f08c379a0000000000000000000000000000000000000000000000000000000008152600401610ac490613299565b60405180910390fd5b60088281548110610b07577f4e487b7100000000000000000000000000000000000000000000000000000000600052603260045260246000fd5b90600052602060002001549050919050565b610b216112ce565b73ffffffffffffffffffffffffffffffffffffffff16610b3f610dd3565b73ffffffffffffffffffffffffffffffffffffffff1614610b95576040517f08c379a0000000000000000000000000000000000000000000000000000000008152600401610b8c906131d9565b60405180910390fd5b6000610b9f610820565b619c40610bac919061341f565b9050610bb9848284611752565b6000831115610bdb5782600e6000868152602001908152602001600020819055505b50505050565b6000806002600084815260200190815260200160002060009054906101000a900473ffffffffffffffffffffffffffffffffffffffff169050600073ffffffffffffffffffffffffffffffffffffffff168173ffffffffffffffffffffffffffffffffffffffff161415610c8a576040517f08c379a0000000000000000000000000000000000000000000000000000000008152600401610c8190613179565b60405180910390fd5b80915050919050565b60008073ffffffffffffffffffffffffffffffffffffffff168273ffffffffffffffffffffffffffffffffffffffff161415610d04576040517f08c379a0000000000000000000000000000000000000000000000000000000008152600401610cfb90613159565b60405180910390fd5b600360008373ffffffffffffffffffffffffffffffffffffffff1673ffffffffffffffffffffffffffffffffffffffff168152602001908152602001600020549050919050565b610d536112ce565b73ffffffffffffffffffffffffffffffffffffffff16610d71610dd3565b73ffffffffffffffffffffffffffffffffffffffff1614610dc7576040517f08c379a0000000000000000000000000000000000000000000000000000000008152600401610dbe906131d9565b60405180910390fd5b610dd160006117e1565b565b6000600a60009054906101000a900473ffffffffffffffffffffffffffffffffffffffff16905090565b606060018054610e0c90613509565b80601f0160208091040260200160405190810160405280929190818152602001828054610e3890613509565b8015610e855780601f10610e5a57610100808354040283529160200191610e85565b820191906000526020600020905b815481529060010190602001808311610e6857829003601f168201915b5050505050905090565b610ea1610e9a6112ce565b83836118a7565b5050565b610eb6610eb06112ce565b8361138f565b610ef5576040517f08c379a0000000000000000000000000000000000000000000000000000000008152600401610eec90613259565b60405180910390fd5b610f0184848484611a14565b50505050565b6060610f1282611262565b610f51576040517f08c379a0000000000000000000000000000000000000000000000000000000008152600401610f4890613219565b60405180910390fd5b6000610f5b611a70565b90506000815111610f7b5760405180602001604052806000815250610fa6565b80610f8584611a87565b604051602001610f96929190612efa565b6040516020818303038152906040525b915050919050565b6000600560008473ffffffffffffffffffffffffffffffffffffffff1673ffffffffffffffffffffffffffffffffffffffff16815260200190815260200160002060008373ffffffffffffffffffffffffffffffffffffffff1673ffffffffffffffffffffffffffffffffffffffff16815260200190815260200160002060009054906101000a900460ff16905092915050565b61104a6112ce565b73ffffffffffffffffffffffffffffffffffffffff16611068610dd3565b73ffffffffffffffffffffffffffffffffffffffff16146110be576040517f08c379a00000000000000000000000000000000000000000000000000000000081526004016110b5906131d9565b60405180910390fd5b600073ffffffffffffffffffffffffffffffffffffffff168173ffffffffffffffffffffffffffffffffffffffff16141561112e576040517f08c379a000000000000000000000000000000000000000000000000000000000815260040161112590613059565b60405180910390fd5b611137816117e1565b50565b6000611144610820565b619c40611151919061341f565b905060006001828561116391906135b5565b61116d9190613398565b905061117a818385611752565b50505050565b60007f80ac58cd000000000000000000000000000000000000000000000000000000007bffffffffffffffffffffffffffffffffffffffffffffffffffffffff1916827bffffffffffffffffffffffffffffffffffffffffffffffffffffffff1916148061124b57507f5b5e139f000000000000000000000000000000000000000000000000000000007bffffffffffffffffffffffffffffffffffffffffffffffffffffffff1916827bffffffffffffffffffffffffffffffffffffffffffffffffffffffff1916145b8061125b575061125a82611c34565b5b9050919050565b60008073ffffffffffffffffffffffffffffffffffffffff166002600084815260200190815260200160002060009054906101000a900473ffffffffffffffffffffffffffffffffffffffff1673ffffffffffffffffffffffffffffffffffffffff1614159050919050565b600033905090565b816004600083815260200190815260200160002060006101000a81548173ffffffffffffffffffffffffffffffffffffffff021916908373ffffffffffffffffffffffffffffffffffffffff160217905550808273ffffffffffffffffffffffffffffffffffffffff1661134983610be1565b73ffffffffffffffffffffffffffffffffffffffff167f8c5be1e5ebec7d5bd14f71427d1e84f3dd0314c0f7b2291e5b200ac8c7c3b92560405160405180910390a45050565b600061139a82611262565b6113d9576040517f08c379a00000000000000000000000000000000000000000000000000000000081526004016113d090613119565b60405180910390fd5b60006113e483610be1565b90508073ffffffffffffffffffffffffffffffffffffffff168473ffffffffffffffffffffffffffffffffffffffff16148061145357508373ffffffffffffffffffffffffffffffffffffffff1661143b84610600565b73ffffffffffffffffffffffffffffffffffffffff16145b8061146457506114638185610fae565b5b91505092915050565b8273ffffffffffffffffffffffffffffffffffffffff1661148d82610be1565b73ffffffffffffffffffffffffffffffffffffffff16146114e3576040517f08c379a00000000000000000000000000000000000000000000000000000000081526004016114da906131f9565b60405180910390fd5b600073ffffffffffffffffffffffffffffffffffffffff168273ffffffffffffffffffffffffffffffffffffffff161415611553576040517f08c379a000000000000000000000000000000000000000000000000000000000815260040161154a906130b9565b60405180910390fd5b61155e838383611c9e565b6115696000826112d6565b6001600360008573ffffffffffffffffffffffffffffffffffffffff1673ffffffffffffffffffffffffffffffffffffffff16815260200190815260200160002060008282546115b9919061341f565b925050819055506001600360008473ffffffffffffffffffffffffffffffffffffffff1673ffffffffffffffffffffffffffffffffffffffff16815260200190815260200160002060008282546116109190613398565b92505081905550816002600083815260200190815260200160002060006101000a81548173ffffffffffffffffffffffffffffffffffffffff021916908373ffffffffffffffffffffffffffffffffffffffff160217905550808273ffffffffffffffffffffffffffffffffffffffff168473ffffffffffffffffffffffffffffffffffffffff167fddf252ad1be2c89b69c2b068fc378daa952ba7f163c4a11628f55a4df523b3ef60405160405180910390a4505050565b61174c846323b872dd60e01b8585856040516024016116ea93929190612f39565b604051602081830303815290604052907bffffffffffffffffffffffffffffffffffffffffffffffffffffffff19166020820180517bffffffffffffffffffffffffffffffffffffffffffffffffffffffff8381831617835250505050611db2565b50505050565b6000600d60008581526020019081526020016000205490506000811415611777578390505b6117818282611e79565b6000600d600085815260200190815260200160002054905060008111156117be57600d6000858152602001908152602001600020600090556117c2565b8390505b80600d6000878152602001908152602001600020819055505050505050565b6000600a60009054906101000a900473ffffffffffffffffffffffffffffffffffffffff16905081600a60006101000a81548173ffffffffffffffffffffffffffffffffffffffff021916908373ffffffffffffffffffffffffffffffffffffffff1602179055508173ffffffffffffffffffffffffffffffffffffffff168173ffffffffffffffffffffffffffffffffffffffff167f8be0079c531659141344cd1fd0a4f28419497f9722a3daafe3b4186f6b6457e060405160405180910390a35050565b8173ffffffffffffffffffffffffffffffffffffffff168373ffffffffffffffffffffffffffffffffffffffff161415611916576040517f08c379a000000000000000000000000000000000000000000000000000000000815260040161190d906130d9565b60405180910390fd5b80600560008573ffffffffffffffffffffffffffffffffffffffff1673ffffffffffffffffffffffffffffffffffffffff16815260200190815260200160002060008473ffffffffffffffffffffffffffffffffffffffff1673ffffffffffffffffffffffffffffffffffffffff16815260200190815260200160002060006101000a81548160ff0219169083151502179055508173ffffffffffffffffffffffffffffffffffffffff168373ffffffffffffffffffffffffffffffffffffffff167f17307eab39ab6107e8899845ad3d59bd9653f200f220920489ca2b5937696c3183604051611a079190612fbc565b60405180910390a3505050565b611a1f84848461146d565b611a2b84848484612047565b611a6a576040517f08c379a0000000000000000000000000000000000000000000000000000000008152600401611a6190613039565b60405180910390fd5b50505050565b606060405180602001604052806000815250905090565b60606000821415611acf576040518060400160405280600181526020017f30000000000000000000000000000000000000000000000000000000000000008152509050611c2f565b600082905060005b60008214611b01578080611aea9061356c565b915050600a82611afa91906133ee565b9150611ad7565b60008167ffffffffffffffff811115611b43577f4e487b7100000000000000000000000000000000000000000000000000000000600052604160045260246000fd5b6040519080825280601f01601f191660200182016040528015611b755781602001600182028036833780820191505090505b5090505b60008514611c2857600182611b8e919061341f565b9150600a85611b9d91906135b5565b6030611ba99190613398565b60f81b818381518110611be5577f4e487b7100000000000000000000000000000000000000000000000000000000600052603260045260246000fd5b60200101907effffffffffffffffffffffffffffffffffffffffffffffffffffffffffffff1916908160001a905350600a85611c2191906133ee565b9450611b79565b8093505050505b919050565b60007f01ffc9a7000000000000000000000000000000000000000000000000000000007bffffffffffffffffffffffffffffffffffffffffffffffffffffffff1916827bffffffffffffffffffffffffffffffffffffffffffffffffffffffff1916149050919050565b611ca98383836121de565b600073ffffffffffffffffffffffffffffffffffffffff168373ffffffffffffffffffffffffffffffffffffffff161415611cec57611ce7816121e3565b611d2b565b8173ffffffffffffffffffffffffffffffffffffffff168373ffffffffffffffffffffffffffffffffffffffff1614611d2a57611d29838261222c565b5b5b600073ffffffffffffffffffffffffffffffffffffffff168273ffffffffffffffffffffffffffffffffffffffff161415611d6e57611d6981612399565b611dad565b8273ffffffffffffffffffffffffffffffffffffffff168273ffffffffffffffffffffffffffffffffffffffff1614611dac57611dab82826124dc565b5b5b505050565b6000611e14826040518060400160405280602081526020017f5361666545524332303a206c6f772d6c6576656c2063616c6c206661696c65648152508573ffffffffffffffffffffffffffffffffffffffff1661255b9092919063ffffffff16565b9050600081511115611e745780806020019051810190611e34919061298e565b611e73576040517f08c379a0000000000000000000000000000000000000000000000000000000008152600401611e6a906132b9565b60405180910390fd5b5b505050565b600073ffffffffffffffffffffffffffffffffffffffff168273ffffffffffffffffffffffffffffffffffffffff161415611ee9576040517f08c379a0000000000000000000000000000000000000000000000000000000008152600401611ee090613199565b60405180910390fd5b611ef281611262565b15611f32576040517f08c379a0000000000000000000000000000000000000000000000000000000008152600401611f2990613079565b60405180910390fd5b611f3e60008383611c9e565b6001600360008473ffffffffffffffffffffffffffffffffffffffff1673ffffffffffffffffffffffffffffffffffffffff1681526020019081526020016000206000828254611f8e9190613398565b92505081905550816002600083815260200190815260200160002060006101000a81548173ffffffffffffffffffffffffffffffffffffffff021916908373ffffffffffffffffffffffffffffffffffffffff160217905550808273ffffffffffffffffffffffffffffffffffffffff16600073ffffffffffffffffffffffffffffffffffffffff167fddf252ad1be2c89b69c2b068fc378daa952ba7f163c4a11628f55a4df523b3ef60405160405180910390a45050565b60006120688473ffffffffffffffffffffffffffffffffffffffff16612573565b156121d1578373ffffffffffffffffffffffffffffffffffffffff1663150b7a026120916112ce565b8786866040518563ffffffff1660e01b81526004016120b39493929190612f70565b602060405180830381600087803b1580156120cd57600080fd5b505af19250505080156120fe57506040513d601f19601f820116820180604052508101906120fb91906129e0565b60015b612181573d806000811461212e576040519150601f19603f3d011682016040523d82523d6000602084013e612133565b606091505b50600081511415612179576040517f08c379a000000000000000000000000000000000000000000000000000000000815260040161217090613039565b60405180910390fd5b805181602001fd5b63150b7a0260e01b7bffffffffffffffffffffffffffffffffffffffffffffffffffffffff1916817bffffffffffffffffffffffffffffffffffffffffffffffffffffffff1916149150506121d6565b600190505b949350505050565b505050565b6008805490506009600083815260200190815260200160002081905550600881908060018154018082558091505060019003906000526020600020016000909190919091505550565b6000600161223984610c93565b612243919061341f565b9050600060076000848152602001908152602001600020549050818114612328576000600660008673ffffffffffffffffffffffffffffffffffffffff1673ffffffffffffffffffffffffffffffffffffffff168152602001908152602001600020600084815260200190815260200160002054905080600660008773ffffffffffffffffffffffffffffffffffffffff1673ffffffffffffffffffffffffffffffffffffffff168152602001908152602001600020600084815260200190815260200160002081905550816007600083815260200190815260200160002081905550505b6007600084815260200190815260200160002060009055600660008573ffffffffffffffffffffffffffffffffffffffff1673ffffffffffffffffffffffffffffffffffffffff16815260200190815260200160002060008381526020019081526020016000206000905550505050565b600060016008805490506123ad919061341f565b9050600060096000848152602001908152602001600020549050600060088381548110612403577f4e487b7100000000000000000000000000000000000000000000000000000000600052603260045260246000fd5b90600052602060002001549050806008838154811061244b577f4e487b7100000000000000000000000000000000000000000000000000000000600052603260045260246000fd5b9060005260206000200181905550816009600083815260200190815260200160002081905550600960008581526020019081526020016000206000905560088054806124c0577f4e487b7100000000000000000000000000000000000000000000000000000000600052603160045260246000fd5b6001900381819060005260206000200160009055905550505050565b60006124e783610c93565b905081600660008573ffffffffffffffffffffffffffffffffffffffff1673ffffffffffffffffffffffffffffffffffffffff168152602001908152602001600020600083815260200190815260200160002081905550806007600084815260200190815260200160002081905550505050565b606061256a8484600085612586565b90509392505050565b600080823b905060008111915050919050565b6060824710156125cb576040517f08c379a00000000000000000000000000000000000000000000000000000000081526004016125c2906130f9565b60405180910390fd5b6125d485612573565b612613576040517f08c379a000000000000000000000000000000000000000000000000000000000815260040161260a90613279565b60405180910390fd5b6000808673ffffffffffffffffffffffffffffffffffffffff16858760405161263c9190612ee3565b60006040518083038185875af1925050503d8060008114612679576040519150601f19603f3d011682016040523d82523d6000602084013e61267e565b606091505b509150915061268e82828661269a565b92505050949350505050565b606083156126aa578290506126fa565b6000835111156126bd5782518084602001fd5b816040517f08c379a00000000000000000000000000000000000000000000000000000000081526004016126f19190612fd7565b60405180910390fd5b9392505050565b600061271461270f84613319565b6132f4565b90508281526020810184848401111561272c57600080fd5b6127378482856134c7565b509392505050565b60008135905061274e81613d0e565b92915050565b60008135905061276381613d25565b92915050565b60008151905061277881613d25565b92915050565b60008135905061278d81613d3c565b92915050565b6000815190506127a281613d3c565b92915050565b600082601f8301126127b957600080fd5b81356127c9848260208601612701565b91505092915050565b6000813590506127e181613d53565b92915050565b6000602082840312156127f957600080fd5b60006128078482850161273f565b91505092915050565b6000806040838503121561282357600080fd5b60006128318582860161273f565b92505060206128428582860161273f565b9150509250929050565b60008060006060848603121561286157600080fd5b600061286f8682870161273f565b93505060206128808682870161273f565b9250506040612891868287016127d2565b9150509250925092565b600080600080608085870312156128b157600080fd5b60006128bf8782880161273f565b94505060206128d08782880161273f565b93505060406128e1878288016127d2565b925050606085013567ffffffffffffffff8111156128fe57600080fd5b61290a878288016127a8565b91505092959194509250565b6000806040838503121561292957600080fd5b60006129378582860161273f565b925050602061294885828601612754565b9150509250929050565b6000806040838503121561296557600080fd5b60006129738582860161273f565b9250506020612984858286016127d2565b9150509250929050565b6000602082840312156129a057600080fd5b60006129ae84828501612769565b91505092915050565b6000602082840312156129c957600080fd5b60006129d78482850161277e565b91505092915050565b6000602082840312156129f257600080fd5b6000612a0084828501612793565b91505092915050565b600060208284031215612a1b57600080fd5b6000612a29848285016127d2565b91505092915050565b60008060408385031215612a4557600080fd5b6000612a53858286016127d2565b9250506020612a648582860161273f565b9150509250929050565b600080600060608486031215612a8357600080fd5b6000612a91868287016127d2565b9350506020612aa2868287016127d2565b9250506040612ab38682870161273f565b9150509250925092565b612ac681613453565b82525050565b612ad581613465565b82525050565b6000612ae68261334a565b612af08185613360565b9350612b008185602086016134d6565b612b09816136a2565b840191505092915050565b6000612b1f8261334a565b612b298185613371565b9350612b398185602086016134d6565b80840191505092915050565b6000612b5082613355565b612b5a818561337c565b9350612b6a8185602086016134d6565b612b73816136a2565b840191505092915050565b6000612b8982613355565b612b93818561338d565b9350612ba38185602086016134d6565b80840191505092915050565b6000612bbc60228361337c565b9150612bc7826136b3565b604082019050919050565b6000612bdf602b8361337c565b9150612bea82613702565b604082019050919050565b6000612c0260328361337c565b9150612c0d82613751565b604082019050919050565b6000612c2560268361337c565b9150612c30826137a0565b604082019050919050565b6000612c48601c8361337c565b9150612c53826137ef565b602082019050919050565b6000612c6b60238361337c565b9150612c7682613818565b604082019050919050565b6000612c8e60248361337c565b9150612c9982613867565b604082019050919050565b6000612cb160198361337c565b9150612cbc826138b6565b602082019050919050565b6000612cd460268361337c565b9150612cdf826138df565b604082019050919050565b6000612cf7602c8361337c565b9150612d028261392e565b604082019050919050565b6000612d1a60388361337c565b9150612d258261397d565b604082019050919050565b6000612d3d602a8361337c565b9150612d48826139cc565b604082019050919050565b6000612d6060298361337c565b9150612d6b82613a1b565b604082019050919050565b6000612d8360208361337c565b9150612d8e82613a6a565b602082019050919050565b6000612da6602c8361337c565b9150612db182613a93565b604082019050919050565b6000612dc960208361337c565b9150612dd482613ae2565b602082019050919050565b6000612dec60298361337c565b9150612df782613b0b565b604082019050919050565b6000612e0f602f8361337c565b9150612e1a82613b5a565b604082019050919050565b6000612e3260218361337c565b9150612e3d82613ba9565b604082019050919050565b6000612e5560318361337c565b9150612e6082613bf8565b604082019050919050565b6000612e78601d8361337c565b9150612e8382613c47565b602082019050919050565b6000612e9b602c8361337c565b9150612ea682613c70565b604082019050919050565b6000612ebe602a8361337c565b9150612ec982613cbf565b604082019050919050565b612edd816134bd565b82525050565b6000612eef8284612b14565b915081905092915050565b6000612f068285612b7e565b9150612f128284612b7e565b91508190509392505050565b6000602082019050612f336000830184612abd565b92915050565b6000606082019050612f4e6000830186612abd565b612f5b6020830185612abd565b612f686040830184612ed4565b949350505050565b6000608082019050612f856000830187612abd565b612f926020830186612abd565b612f9f6040830185612ed4565b8181036060830152612fb18184612adb565b905095945050505050565b6000602082019050612fd16000830184612acc565b92915050565b60006020820190508181036000830152612ff18184612b45565b905092915050565b6000602082019050818103600083015261301281612baf565b9050919050565b6000602082019050818103600083015261303281612bd2565b9050919050565b6000602082019050818103600083015261305281612bf5565b9050919050565b6000602082019050818103600083015261307281612c18565b9050919050565b6000602082019050818103600083015261309281612c3b565b9050919050565b600060208201905081810360008301526130b281612c5e565b9050919050565b600060208201905081810360008301526130d281612c81565b9050919050565b600060208201905081810360008301526130f281612ca4565b9050919050565b6000602082019050818103600083015261311281612cc7565b9050919050565b6000602082019050818103600083015261313281612cea565b9050919050565b6000602082019050818103600083015261315281612d0d565b9050919050565b6000602082019050818103600083015261317281612d30565b9050919050565b6000602082019050818103600083015261319281612d53565b9050919050565b600060208201905081810360008301526131b281612d76565b9050919050565b600060208201905081810360008301526131d281612d99565b9050919050565b600060208201905081810360008301526131f281612dbc565b9050919050565b6000602082019050818103600083015261321281612ddf565b9050919050565b6000602082019050818103600083015261323281612e02565b9050919050565b6000602082019050818103600083015261325281612e25565b9050919050565b6000602082019050818103600083015261327281612e48565b9050919050565b6000602082019050818103600083015261329281612e6b565b9050919050565b600060208201905081810360008301526132b281612e8e565b9050919050565b600060208201905081810360008301526132d281612eb1565b9050919050565b60006020820190506132ee6000830184612ed4565b92915050565b60006132fe61330f565b905061330a828261353b565b919050565b6000604051905090565b600067ffffffffffffffff82111561333457613333613673565b5b61333d826136a2565b9050602081019050919050565b600081519050919050565b600081519050919050565b600082825260208201905092915050565b600081905092915050565b600082825260208201905092915050565b600081905092915050565b60006133a3826134bd565b91506133ae836134bd565b9250827fffffffffffffffffffffffffffffffffffffffffffffffffffffffffffffffff038211156133e3576133e26135e6565b5b828201905092915050565b60006133f9826134bd565b9150613404836134bd565b92508261341457613413613615565b5b828204905092915050565b600061342a826134bd565b9150613435836134bd565b925082821015613448576134476135e6565b5b828203905092915050565b600061345e8261349d565b9050919050565b60008115159050919050565b60007fffffffff0000000000000000000000000000000000000000000000000000000082169050919050565b600073ffffffffffffffffffffffffffffffffffffffff82169050919050565b6000819050919050565b82818337600083830152505050565b60005b838110156134f45780820151818401526020810190506134d9565b83811115613503576000848401525b50505050565b6000600282049050600182168061352157607f821691505b6020821081141561353557613534613644565b5b50919050565b613544826136a2565b810181811067ffffffffffffffff8211171561356357613562613673565b5b80604052505050565b6000613577826134bd565b91507fffffffffffffffffffffffffffffffffffffffffffffffffffffffffffffffff8214156135aa576135a96135e6565b5b600182019050919050565b60006135c0826134bd565b91506135cb836134bd565b9250826135db576135da613615565b5b828206905092915050565b7f4e487b7100000000000000000000000000000000000000000000000000000000600052601160045260246000fd5b7f4e487b7100000000000000000000000000000000000000000000000000000000600052601260045260246000fd5b7f4e487b7100000000000000000000000000000000000000000000000000000000600052602260045260246000fd5b7f4e487b7100000000000000000000000000000000000000000000000000000000600052604160045260246000fd5b6000601f19601f8301169050919050565b7f417474656d7074696e6720746f206d696e74206f766572206d6178207375707060008201527f6c79000000000000000000000000000000000000000000000000000000000000602082015250565b7f455243373231456e756d657261626c653a206f776e657220696e646578206f7560008201527f74206f6620626f756e6473000000000000000000000000000000000000000000602082015250565b7f4552433732313a207472616e7366657220746f206e6f6e20455243373231526560008201527f63656976657220696d706c656d656e7465720000000000000000000000000000602082015250565b7f4f776e61626c653a206e6577206f776e657220697320746865207a65726f206160008201527f6464726573730000000000000000000000000000000000000000000000000000602082015250565b7f4552433732313a20746f6b656e20616c7265616479206d696e74656400000000600082015250565b7f417474656d7074696e6720746f206d696e7420746f6f206d616e79206174206f60008201527f6e63650000000000000000000000000000000000000000000000000000000000602082015250565b7f4552433732313a207472616e7366657220746f20746865207a65726f2061646460008201527f7265737300000000000000000000000000000000000000000000000000000000602082015250565b7f4552433732313a20617070726f766520746f2063616c6c657200000000000000600082015250565b7f416464726573733a20696e73756666696369656e742062616c616e636520666f60008201527f722063616c6c0000000000000000000000000000000000000000000000000000602082015250565b7f4552433732313a206f70657261746f7220717565727920666f72206e6f6e657860008201527f697374656e7420746f6b656e0000000000000000000000000000000000000000602082015250565b7f4552433732313a20617070726f76652063616c6c6572206973206e6f74206f7760008201527f6e6572206e6f7220617070726f76656420666f7220616c6c0000000000000000602082015250565b7f4552433732313a2062616c616e636520717565727920666f7220746865207a6560008201527f726f206164647265737300000000000000000000000000000000000000000000602082015250565b7f4552433732313a206f776e657220717565727920666f72206e6f6e657869737460008201527f656e7420746f6b656e0000000000000000000000000000000000000000000000602082015250565b7f4552433732313a206d696e7420746f20746865207a65726f2061646472657373600082015250565b7f4552433732313a20617070726f76656420717565727920666f72206e6f6e657860008201527f697374656e7420746f6b656e0000000000000000000000000000000000000000602082015250565b7f4f776e61626c653a2063616c6c6572206973206e6f7420746865206f776e6572600082015250565b7f4552433732313a207472616e73666572206f6620746f6b656e2074686174206960008201527f73206e6f74206f776e0000000000000000000000000000000000000000000000602082015250565b7f4552433732314d657461646174613a2055524920717565727920666f72206e6f60008201527f6e6578697374656e7420746f6b656e0000000000000000000000000000000000602082015250565b7f4552433732313a20617070726f76616c20746f2063757272656e74206f776e6560008201527f7200000000000000000000000000000000000000000000000000000000000000602082015250565b7f4552433732313a207472616e736665722063616c6c6572206973206e6f74206f60008201527f776e6572206e6f7220617070726f766564000000000000000000000000000000602082015250565b7f416464726573733a2063616c6c20746f206e6f6e2d636f6e7472616374000000600082015250565b7f455243373231456e756d657261626c653a20676c6f62616c20696e646578206f60008201527f7574206f6620626f756e64730000000000000000000000000000000000000000602082015250565b7f5361666545524332303a204552433230206f7065726174696f6e20646964206e60008201527f6f74207375636365656400000000000000000000000000000000000000000000602082015250565b613d1781613453565b8114613d2257600080fd5b50565b613d2e81613465565b8114613d3957600080fd5b50565b613d4581613471565b8114613d5057600080fd5b50565b613d5c816134bd565b8114613d6757600080fd5b5056fea2646970667358221220d312454e7895fbb51f6bfc8943879158e9ae81e4394b2014975ff894656e0e0764736f6c63430008040033",
  "linkReferences": {},
  "deployedLinkReferences": {}
}