{
  "_format": "hh-sol-artifact-1",
  "contractName": "TestNFT",
  "sourceName": "contracts/TestNFT.sol",
  "abi": [
    {
      "inputs": [],
      "stateMutability": "nonpayable",
      "type": "constructor"
    },
    {
      "anonymous": false,
      "inputs": [
        {
          "indexed": true,
          "internalType": "address",
          "name": "owner",
          "type": "address"
        },
        {
          "indexed": true,
          "internalType": "address",
          "name": "approved",
          "type": "address"
        },
        {
          "indexed": true,
          "internalType": "uint256",
          "name": "tokenId",
          "type": "uint256"
        }
      ],
      "name": "Approval",
      "type": "event"
    },
    {
      "anonymous": false,
      "inputs": [
        {
          "indexed": true,
          "internalType": "address",
          "name": "owner",
          "type": "address"
        },
        {
          "indexed": true,
          "internalType": "address",
          "name": "operator",
          "type": "address"
        },
        {
          "indexed": false,
          "internalType": "bool",
          "name": "approved",
          "type": "bool"
        }
      ],
      "name": "ApprovalForAll",
      "type": "event"
    },
    {
      "anonymous": false,
      "inputs": [
        {
          "indexed": true,
          "internalType": "address",
          "name": "from",
          "type": "address"
        },
        {
          "indexed": true,
          "internalType": "address",
          "name": "to",
          "type": "address"
        },
        {
          "indexed": true,
          "internalType": "uint256",
          "name": "tokenId",
          "type": "uint256"
        }
      ],
      "name": "Transfer",
      "type": "event"
    },
    {
      "inputs": [
        {
          "internalType": "address",
          "name": "to",
          "type": "address"
        },
        {
          "internalType": "uint256",
          "name": "tokenId",
          "type": "uint256"
        }
      ],
      "name": "approve",
      "outputs": [],
      "stateMutability": "nonpayable",
      "type": "function"
    },
    {
      "inputs": [
        {
          "internalType": "address",
          "name": "owner",
          "type": "address"
        }
      ],
      "name": "balanceOf",
      "outputs": [
        {
          "internalType": "uint256",
          "name": "",
          "type": "uint256"
        }
      ],
      "stateMutability": "view",
      "type": "function"
    },
    {
      "inputs": [],
      "name": "baseURI",
      "outputs": [
        {
          "internalType": "string",
          "name": "",
          "type": "string"
        }
      ],
      "stateMutability": "view",
      "type": "function"
    },
    {
      "inputs": [
        {
          "internalType": "uint256",
          "name": "tokenId",
          "type": "uint256"
        }
      ],
      "name": "getApproved",
      "outputs": [
        {
          "internalType": "address",
          "name": "",
          "type": "address"
        }
      ],
      "stateMutability": "view",
      "type": "function"
    },
    {
      "inputs": [
        {
          "internalType": "address",
          "name": "owner",
          "type": "address"
        },
        {
          "internalType": "address",
          "name": "operator",
          "type": "address"
        }
      ],
      "name": "isApprovedForAll",
      "outputs": [
        {
          "internalType": "bool",
          "name": "",
          "type": "bool"
        }
      ],
      "stateMutability": "view",
      "type": "function"
    },
    {
      "inputs": [
        {
          "internalType": "uint256",
          "name": "_amount",
          "type": "uint256"
        }
      ],
      "name": "mint",
      "outputs": [],
      "stateMutability": "nonpayable",
      "type": "function"
    },
    {
      "inputs": [],
      "name": "name",
      "outputs": [
        {
          "internalType": "string",
          "name": "",
          "type": "string"
        }
      ],
      "stateMutability": "view",
      "type": "function"
    },
    {
      "inputs": [
        {
          "internalType": "uint256",
          "name": "tokenId",
          "type": "uint256"
        }
      ],
      "name": "ownerOf",
      "outputs": [
        {
          "internalType": "address",
          "name": "",
          "type": "address"
        }
      ],
      "stateMutability": "view",
      "type": "function"
    },
    {
      "inputs": [
        {
          "internalType": "address",
          "name": "from",
          "type": "address"
        },
        {
          "internalType": "address",
          "name": "to",
          "type": "address"
        },
        {
          "internalType": "uint256",
          "name": "tokenId",
          "type": "uint256"
        }
      ],
      "name": "safeTransferFrom",
      "outputs": [],
      "stateMutability": "nonpayable",
      "type": "function"
    },
    {
      "inputs": [
        {
          "internalType": "address",
          "name": "from",
          "type": "address"
        },
        {
          "internalType": "address",
          "name": "to",
          "type": "address"
        },
        {
          "internalType": "uint256",
          "name": "tokenId",
          "type": "uint256"
        },
        {
          "internalType": "bytes",
          "name": "_data",
          "type": "bytes"
        }
      ],
      "name": "safeTransferFrom",
      "outputs": [],
      "stateMutability": "nonpayable",
      "type": "function"
    },
    {
      "inputs": [
        {
          "internalType": "address",
          "name": "operator",
          "type": "address"
        },
        {
          "internalType": "bool",
          "name": "approved",
          "type": "bool"
        }
      ],
      "name": "setApprovalForAll",
      "outputs": [],
      "stateMutability": "nonpayable",
      "type": "function"
    },
    {
      "inputs": [
        {
          "internalType": "string",
          "name": "_uri",
          "type": "string"
        }
      ],
      "name": "setBaseURI",
      "outputs": [],
      "stateMutability": "nonpayable",
      "type": "function"
    },
    {
      "inputs": [
        {
          "internalType": "bytes4",
          "name": "interfaceId",
          "type": "bytes4"
        }
      ],
      "name": "supportsInterface",
      "outputs": [
        {
          "internalType": "bool",
          "name": "",
          "type": "bool"
        }
      ],
      "stateMutability": "view",
      "type": "function"
    },
    {
      "inputs": [],
      "name": "symbol",
      "outputs": [
        {
          "internalType": "string",
          "name": "",
          "type": "string"
        }
      ],
      "stateMutability": "view",
      "type": "function"
    },
    {
      "inputs": [
        {
          "internalType": "uint256",
          "name": "index",
          "type": "uint256"
        }
      ],
      "name": "tokenByIndex",
      "outputs": [
        {
          "internalType": "uint256",
          "name": "",
          "type": "uint256"
        }
      ],
      "stateMutability": "view",
      "type": "function"
    },
    {
      "inputs": [
        {
          "internalType": "address",
          "name": "owner",
          "type": "address"
        },
        {
          "internalType": "uint256",
          "name": "index",
          "type": "uint256"
        }
      ],
      "name": "tokenOfOwnerByIndex",
      "outputs": [
        {
          "internalType": "uint256",
          "name": "",
          "type": "uint256"
        }
      ],
      "stateMutability": "view",
      "type": "function"
    },
    {
      "inputs": [
        {
          "internalType": "uint256",
          "name": "tokenId",
          "type": "uint256"
        }
      ],
      "name": "tokenURI",
      "outputs": [
        {
          "internalType": "string",
          "name": "",
          "type": "string"
        }
      ],
      "stateMutability": "view",
      "type": "function"
    },
    {
      "inputs": [],
      "name": "totalSupply",
      "outputs": [
        {
          "internalType": "uint256",
          "name": "",
          "type": "uint256"
        }
      ],
      "stateMutability": "view",
      "type": "function"
    },
    {
      "inputs": [
        {
          "internalType": "address",
          "name": "from",
          "type": "address"
        },
        {
          "internalType": "address",
          "name": "to",
          "type": "address"
        },
        {
          "internalType": "uint256",
          "name": "tokenId",
          "type": "uint256"
        }
      ],
      "name": "transferFrom",
      "outputs": [],
      "stateMutability": "nonpayable",
      "type": "function"
    }
  ],
  "bytecode": "0x6080604052611388600a553480156200001757600080fd5b506040518060400160405280600381526020017f4e667400000000000000000000000000000000000000000000000000000000008152506040518060400160405280600381526020017f4e4654000000000000000000000000000000000000000000000000000000000081525081600090805190602001906200009c929190620000be565b508060019080519060200190620000b5929190620000be565b505050620001d3565b828054620000cc906200016e565b90600052602060002090601f016020900481019282620000f057600085556200013c565b82601f106200010b57805160ff19168380011785556200013c565b828001600101855582156200013c579182015b828111156200013b5782518255916020019190600101906200011e565b5b5090506200014b91906200014f565b5090565b5b808211156200016a57600081600090555060010162000150565b5090565b600060028204905060018216806200018757607f821691505b602082108114156200019e576200019d620001a4565b5b50919050565b7f4e487b7100000000000000000000000000000000000000000000000000000000600052602260045260246000fd5b61333480620001e36000396000f3fe608060405234801561001057600080fd5b50600436106101215760003560e01c806355f804b3116100ad578063a0712d6811610071578063a0712d681461032e578063a22cb4651461034a578063b88d4fde14610366578063c87b56dd14610382578063e985e9c5146103b257610121565b806355f804b3146102765780636352211e146102925780636c0360eb146102c257806370a08231146102e057806395d89b411461031057610121565b806318160ddd116100f457806318160ddd146101c057806323b872dd146101de5780632f745c59146101fa57806342842e0e1461022a5780634f6ccce71461024657610121565b806301ffc9a71461012657806306fdde0314610156578063081812fc14610174578063095ea7b3146101a4575b600080fd5b610140600480360381019061013b91906122c8565b6103e2565b60405161014d9190612755565b60405180910390f35b61015e61045c565b60405161016b9190612770565b60405180910390f35b61018e6004803603810190610189919061235b565b6104ee565b60405161019b91906126ee565b60405180910390f35b6101be60048036038101906101b9919061228c565b610573565b005b6101c861068b565b6040516101d591906129d2565b60405180910390f35b6101f860048036038101906101f39190612186565b610698565b005b610214600480360381019061020f919061228c565b6106f8565b60405161022191906129d2565b60405180910390f35b610244600480360381019061023f9190612186565b61079d565b005b610260600480360381019061025b919061235b565b6107bd565b60405161026d91906129d2565b60405180910390f35b610290600480360381019061028b919061231a565b610854565b005b6102ac60048036038101906102a7919061235b565b61086e565b6040516102b991906126ee565b60405180910390f35b6102ca610920565b6040516102d79190612770565b60405180910390f35b6102fa60048036038101906102f59190612121565b6109ae565b60405161030791906129d2565b60405180910390f35b610318610a66565b6040516103259190612770565b60405180910390f35b6103486004803603810190610343919061235b565b610af8565b005b610364600480360381019061035f9190612250565b610bce565b005b610380600480360381019061037b91906121d5565b610be4565b005b61039c6004803603810190610397919061235b565b610c46565b6040516103a99190612770565b60405180910390f35b6103cc60048036038101906103c7919061214a565b610ced565b6040516103d99190612755565b60405180910390f35b60007f780e9d63000000000000000000000000000000000000000000000000000000007bffffffffffffffffffffffffffffffffffffffffffffffffffffffff1916827bffffffffffffffffffffffffffffffffffffffffffffffffffffffff19161480610455575061045482610d81565b5b9050919050565b60606000805461046b90612c28565b80601f016020809104026020016040519081016040528092919081815260200182805461049790612c28565b80156104e45780601f106104b9576101008083540402835291602001916104e4565b820191906000526020600020905b8154815290600101906020018083116104c757829003601f168201915b5050505050905090565b60006104f982610e63565b610538576040517f08c379a000000000000000000000000000000000000000000000000000000000815260040161052f90612912565b60405180910390fd5b6004600083815260200190815260200160002060009054906101000a900473ffffffffffffffffffffffffffffffffffffffff169050919050565b600061057e8261086e565b90508073ffffffffffffffffffffffffffffffffffffffff168373ffffffffffffffffffffffffffffffffffffffff1614156105ef576040517f08c379a00000000000000000000000000000000000000000000000000000000081526004016105e690612972565b60405180910390fd5b8073ffffffffffffffffffffffffffffffffffffffff1661060e610ecf565b73ffffffffffffffffffffffffffffffffffffffff16148061063d575061063c81610637610ecf565b610ced565b5b61067c576040517f08c379a000000000000000000000000000000000000000000000000000000000815260040161067390612852565b60405180910390fd5b6106868383610ed7565b505050565b6000600880549050905090565b6106a96106a3610ecf565b82610f90565b6106e8576040517f08c379a00000000000000000000000000000000000000000000000000000000081526004016106df90612992565b60405180910390fd5b6106f383838361106e565b505050565b6000610703836109ae565b8210610744576040517f08c379a000000000000000000000000000000000000000000000000000000000815260040161073b90612792565b60405180910390fd5b600660008473ffffffffffffffffffffffffffffffffffffffff1673ffffffffffffffffffffffffffffffffffffffff168152602001908152602001600020600083815260200190815260200160002054905092915050565b6107b883838360405180602001604052806000815250610be4565b505050565b60006107c761068b565b8210610808576040517f08c379a00000000000000000000000000000000000000000000000000000000081526004016107ff906129b2565b60405180910390fd5b60088281548110610842577f4e487b7100000000000000000000000000000000000000000000000000000000600052603260045260246000fd5b90600052602060002001549050919050565b80600c908051906020019061086a929190611f45565b5050565b6000806002600084815260200190815260200160002060009054906101000a900473ffffffffffffffffffffffffffffffffffffffff169050600073ffffffffffffffffffffffffffffffffffffffff168173ffffffffffffffffffffffffffffffffffffffff161415610917576040517f08c379a000000000000000000000000000000000000000000000000000000000815260040161090e90612892565b60405180910390fd5b80915050919050565b600c805461092d90612c28565b80601f016020809104026020016040519081016040528092919081815260200182805461095990612c28565b80156109a65780601f1061097b576101008083540402835291602001916109a6565b820191906000526020600020905b81548152906001019060200180831161098957829003601f168201915b505050505081565b60008073ffffffffffffffffffffffffffffffffffffffff168273ffffffffffffffffffffffffffffffffffffffff161415610a1f576040517f08c379a0000000000000000000000000000000000000000000000000000000008152600401610a1690612872565b60405180910390fd5b600360008373ffffffffffffffffffffffffffffffffffffffff1673ffffffffffffffffffffffffffffffffffffffff168152602001908152602001600020549050919050565b606060018054610a7590612c28565b80601f0160208091040260200160405190810160405280929190818152602001828054610aa190612c28565b8015610aee5780601f10610ac357610100808354040283529160200191610aee565b820191906000526020600020905b815481529060010190602001808311610ad157829003601f168201915b5050505050905090565b6000610b0261068b565b9050600b8210610b47576040517f08c379a0000000000000000000000000000000000000000000000000000000008152600401610b3e906128f2565b60405180910390fd5b600a548282610b569190612ab7565b10610b96576040517f08c379a0000000000000000000000000000000000000000000000000000000008152600401610b8d906128b2565b60405180910390fd5b60005b82811015610bc957610bb6338284610bb19190612ab7565b6112ca565b8080610bc190612c8b565b915050610b99565b505050565b610be0610bd9610ecf565b8383611498565b5050565b610bf5610bef610ecf565b83610f90565b610c34576040517f08c379a0000000000000000000000000000000000000000000000000000000008152600401610c2b90612992565b60405180910390fd5b610c4084848484611605565b50505050565b6060610c5182610e63565b610c90576040517f08c379a0000000000000000000000000000000000000000000000000000000008152600401610c8790612952565b60405180910390fd5b6000610c9a611661565b90506000815111610cba5760405180602001604052806000815250610ce5565b80610cc4846116f3565b604051602001610cd59291906126ca565b6040516020818303038152906040525b915050919050565b6000600560008473ffffffffffffffffffffffffffffffffffffffff1673ffffffffffffffffffffffffffffffffffffffff16815260200190815260200160002060008373ffffffffffffffffffffffffffffffffffffffff1673ffffffffffffffffffffffffffffffffffffffff16815260200190815260200160002060009054906101000a900460ff16905092915050565b60007f80ac58cd000000000000000000000000000000000000000000000000000000007bffffffffffffffffffffffffffffffffffffffffffffffffffffffff1916827bffffffffffffffffffffffffffffffffffffffffffffffffffffffff19161480610e4c57507f5b5e139f000000000000000000000000000000000000000000000000000000007bffffffffffffffffffffffffffffffffffffffffffffffffffffffff1916827bffffffffffffffffffffffffffffffffffffffffffffffffffffffff1916145b80610e5c5750610e5b826118a0565b5b9050919050565b60008073ffffffffffffffffffffffffffffffffffffffff166002600084815260200190815260200160002060009054906101000a900473ffffffffffffffffffffffffffffffffffffffff1673ffffffffffffffffffffffffffffffffffffffff1614159050919050565b600033905090565b816004600083815260200190815260200160002060006101000a81548173ffffffffffffffffffffffffffffffffffffffff021916908373ffffffffffffffffffffffffffffffffffffffff160217905550808273ffffffffffffffffffffffffffffffffffffffff16610f4a8361086e565b73ffffffffffffffffffffffffffffffffffffffff167f8c5be1e5ebec7d5bd14f71427d1e84f3dd0314c0f7b2291e5b200ac8c7c3b92560405160405180910390a45050565b6000610f9b82610e63565b610fda576040517f08c379a0000000000000000000000000000000000000000000000000000000008152600401610fd190612832565b60405180910390fd5b6000610fe58361086e565b90508073ffffffffffffffffffffffffffffffffffffffff168473ffffffffffffffffffffffffffffffffffffffff16148061105457508373ffffffffffffffffffffffffffffffffffffffff1661103c846104ee565b73ffffffffffffffffffffffffffffffffffffffff16145b8061106557506110648185610ced565b5b91505092915050565b8273ffffffffffffffffffffffffffffffffffffffff1661108e8261086e565b73ffffffffffffffffffffffffffffffffffffffff16146110e4576040517f08c379a00000000000000000000000000000000000000000000000000000000081526004016110db90612932565b60405180910390fd5b600073ffffffffffffffffffffffffffffffffffffffff168273ffffffffffffffffffffffffffffffffffffffff161415611154576040517f08c379a000000000000000000000000000000000000000000000000000000000815260040161114b906127f2565b60405180910390fd5b61115f83838361190a565b61116a600082610ed7565b6001600360008573ffffffffffffffffffffffffffffffffffffffff1673ffffffffffffffffffffffffffffffffffffffff16815260200190815260200160002060008282546111ba9190612b3e565b925050819055506001600360008473ffffffffffffffffffffffffffffffffffffffff1673ffffffffffffffffffffffffffffffffffffffff16815260200190815260200160002060008282546112119190612ab7565b92505081905550816002600083815260200190815260200160002060006101000a81548173ffffffffffffffffffffffffffffffffffffffff021916908373ffffffffffffffffffffffffffffffffffffffff160217905550808273ffffffffffffffffffffffffffffffffffffffff168473ffffffffffffffffffffffffffffffffffffffff167fddf252ad1be2c89b69c2b068fc378daa952ba7f163c4a11628f55a4df523b3ef60405160405180910390a4505050565b600073ffffffffffffffffffffffffffffffffffffffff168273ffffffffffffffffffffffffffffffffffffffff16141561133a576040517f08c379a0000000000000000000000000000000000000000000000000000000008152600401611331906128d2565b60405180910390fd5b61134381610e63565b15611383576040517f08c379a000000000000000000000000000000000000000000000000000000000815260040161137a906127d2565b60405180910390fd5b61138f6000838361190a565b6001600360008473ffffffffffffffffffffffffffffffffffffffff1673ffffffffffffffffffffffffffffffffffffffff16815260200190815260200160002060008282546113df9190612ab7565b92505081905550816002600083815260200190815260200160002060006101000a81548173ffffffffffffffffffffffffffffffffffffffff021916908373ffffffffffffffffffffffffffffffffffffffff160217905550808273ffffffffffffffffffffffffffffffffffffffff16600073ffffffffffffffffffffffffffffffffffffffff167fddf252ad1be2c89b69c2b068fc378daa952ba7f163c4a11628f55a4df523b3ef60405160405180910390a45050565b8173ffffffffffffffffffffffffffffffffffffffff168373ffffffffffffffffffffffffffffffffffffffff161415611507576040517f08c379a00000000000000000000000000000000000000000000000000000000081526004016114fe90612812565b60405180910390fd5b80600560008573ffffffffffffffffffffffffffffffffffffffff1673ffffffffffffffffffffffffffffffffffffffff16815260200190815260200160002060008473ffffffffffffffffffffffffffffffffffffffff1673ffffffffffffffffffffffffffffffffffffffff16815260200190815260200160002060006101000a81548160ff0219169083151502179055508173ffffffffffffffffffffffffffffffffffffffff168373ffffffffffffffffffffffffffffffffffffffff167f17307eab39ab6107e8899845ad3d59bd9653f200f220920489ca2b5937696c31836040516115f89190612755565b60405180910390a3505050565b61161084848461106e565b61161c84848484611a1e565b61165b576040517f08c379a0000000000000000000000000000000000000000000000000000000008152600401611652906127b2565b60405180910390fd5b50505050565b6060600c805461167090612c28565b80601f016020809104026020016040519081016040528092919081815260200182805461169c90612c28565b80156116e95780601f106116be576101008083540402835291602001916116e9565b820191906000526020600020905b8154815290600101906020018083116116cc57829003601f168201915b5050505050905090565b6060600082141561173b576040518060400160405280600181526020017f3000000000000000000000000000000000000000000000000000000000000000815250905061189b565b600082905060005b6000821461176d57808061175690612c8b565b915050600a826117669190612b0d565b9150611743565b60008167ffffffffffffffff8111156117af577f4e487b7100000000000000000000000000000000000000000000000000000000600052604160045260246000fd5b6040519080825280601f01601f1916602001820160405280156117e15781602001600182028036833780820191505090505b5090505b60008514611894576001826117fa9190612b3e565b9150600a856118099190612cd4565b60306118159190612ab7565b60f81b818381518110611851577f4e487b7100000000000000000000000000000000000000000000000000000000600052603260045260246000fd5b60200101907effffffffffffffffffffffffffffffffffffffffffffffffffffffffffffff1916908160001a905350600a8561188d9190612b0d565b94506117e5565b8093505050505b919050565b60007f01ffc9a7000000000000000000000000000000000000000000000000000000007bffffffffffffffffffffffffffffffffffffffffffffffffffffffff1916827bffffffffffffffffffffffffffffffffffffffffffffffffffffffff1916149050919050565b611915838383611bb5565b600073ffffffffffffffffffffffffffffffffffffffff168373ffffffffffffffffffffffffffffffffffffffff1614156119585761195381611bba565b611997565b8173ffffffffffffffffffffffffffffffffffffffff168373ffffffffffffffffffffffffffffffffffffffff1614611996576119958382611c03565b5b5b600073ffffffffffffffffffffffffffffffffffffffff168273ffffffffffffffffffffffffffffffffffffffff1614156119da576119d581611d70565b611a19565b8273ffffffffffffffffffffffffffffffffffffffff168273ffffffffffffffffffffffffffffffffffffffff1614611a1857611a178282611eb3565b5b5b505050565b6000611a3f8473ffffffffffffffffffffffffffffffffffffffff16611f32565b15611ba8578373ffffffffffffffffffffffffffffffffffffffff1663150b7a02611a68610ecf565b8786866040518563ffffffff1660e01b8152600401611a8a9493929190612709565b602060405180830381600087803b158015611aa457600080fd5b505af1925050508015611ad557506040513d601f19601f82011682018060405250810190611ad291906122f1565b60015b611b58573d8060008114611b05576040519150601f19603f3d011682016040523d82523d6000602084013e611b0a565b606091505b50600081511415611b50576040517f08c379a0000000000000000000000000000000000000000000000000000000008152600401611b47906127b2565b60405180910390fd5b805181602001fd5b63150b7a0260e01b7bffffffffffffffffffffffffffffffffffffffffffffffffffffffff1916817bffffffffffffffffffffffffffffffffffffffffffffffffffffffff191614915050611bad565b600190505b949350505050565b505050565b6008805490506009600083815260200190815260200160002081905550600881908060018154018082558091505060019003906000526020600020016000909190919091505550565b60006001611c10846109ae565b611c1a9190612b3e565b9050600060076000848152602001908152602001600020549050818114611cff576000600660008673ffffffffffffffffffffffffffffffffffffffff1673ffffffffffffffffffffffffffffffffffffffff168152602001908152602001600020600084815260200190815260200160002054905080600660008773ffffffffffffffffffffffffffffffffffffffff1673ffffffffffffffffffffffffffffffffffffffff168152602001908152602001600020600084815260200190815260200160002081905550816007600083815260200190815260200160002081905550505b6007600084815260200190815260200160002060009055600660008573ffffffffffffffffffffffffffffffffffffffff1673ffffffffffffffffffffffffffffffffffffffff16815260200190815260200160002060008381526020019081526020016000206000905550505050565b60006001600880549050611d849190612b3e565b9050600060096000848152602001908152602001600020549050600060088381548110611dda577f4e487b7100000000000000000000000000000000000000000000000000000000600052603260045260246000fd5b906000526020600020015490508060088381548110611e22577f4e487b7100000000000000000000000000000000000000000000000000000000600052603260045260246000fd5b906000526020600020018190555081600960008381526020019081526020016000208190555060096000858152602001908152602001600020600090556008805480611e97577f4e487b7100000000000000000000000000000000000000000000000000000000600052603160045260246000fd5b6001900381819060005260206000200160009055905550505050565b6000611ebe836109ae565b905081600660008573ffffffffffffffffffffffffffffffffffffffff1673ffffffffffffffffffffffffffffffffffffffff168152602001908152602001600020600083815260200190815260200160002081905550806007600084815260200190815260200160002081905550505050565b600080823b905060008111915050919050565b828054611f5190612c28565b90600052602060002090601f016020900481019282611f735760008555611fba565b82601f10611f8c57805160ff1916838001178555611fba565b82800160010185558215611fba579182015b82811115611fb9578251825591602001919060010190611f9e565b5b509050611fc79190611fcb565b5090565b5b80821115611fe4576000816000905550600101611fcc565b5090565b6000611ffb611ff684612a12565b6129ed565b90508281526020810184848401111561201357600080fd5b61201e848285612be6565b509392505050565b600061203961203484612a43565b6129ed565b90508281526020810184848401111561205157600080fd5b61205c848285612be6565b509392505050565b600081359050612073816132a2565b92915050565b600081359050612088816132b9565b92915050565b60008135905061209d816132d0565b92915050565b6000815190506120b2816132d0565b92915050565b600082601f8301126120c957600080fd5b81356120d9848260208601611fe8565b91505092915050565b600082601f8301126120f357600080fd5b8135612103848260208601612026565b91505092915050565b60008135905061211b816132e7565b92915050565b60006020828403121561213357600080fd5b600061214184828501612064565b91505092915050565b6000806040838503121561215d57600080fd5b600061216b85828601612064565b925050602061217c85828601612064565b9150509250929050565b60008060006060848603121561219b57600080fd5b60006121a986828701612064565b93505060206121ba86828701612064565b92505060406121cb8682870161210c565b9150509250925092565b600080600080608085870312156121eb57600080fd5b60006121f987828801612064565b945050602061220a87828801612064565b935050604061221b8782880161210c565b925050606085013567ffffffffffffffff81111561223857600080fd5b612244878288016120b8565b91505092959194509250565b6000806040838503121561226357600080fd5b600061227185828601612064565b925050602061228285828601612079565b9150509250929050565b6000806040838503121561229f57600080fd5b60006122ad85828601612064565b92505060206122be8582860161210c565b9150509250929050565b6000602082840312156122da57600080fd5b60006122e88482850161208e565b91505092915050565b60006020828403121561230357600080fd5b6000612311848285016120a3565b91505092915050565b60006020828403121561232c57600080fd5b600082013567ffffffffffffffff81111561234657600080fd5b612352848285016120e2565b91505092915050565b60006020828403121561236d57600080fd5b600061237b8482850161210c565b91505092915050565b61238d81612b72565b82525050565b61239c81612b84565b82525050565b60006123ad82612a74565b6123b78185612a8a565b93506123c7818560208601612bf5565b6123d081612dc1565b840191505092915050565b60006123e682612a7f565b6123f08185612a9b565b9350612400818560208601612bf5565b61240981612dc1565b840191505092915050565b600061241f82612a7f565b6124298185612aac565b9350612439818560208601612bf5565b80840191505092915050565b6000612452602b83612a9b565b915061245d82612dd2565b604082019050919050565b6000612475603283612a9b565b915061248082612e21565b604082019050919050565b6000612498601c83612a9b565b91506124a382612e70565b602082019050919050565b60006124bb602483612a9b565b91506124c682612e99565b604082019050919050565b60006124de601983612a9b565b91506124e982612ee8565b602082019050919050565b6000612501602c83612a9b565b915061250c82612f11565b604082019050919050565b6000612524603883612a9b565b915061252f82612f60565b604082019050919050565b6000612547602a83612a9b565b915061255282612faf565b604082019050919050565b600061256a602983612a9b565b915061257582612ffe565b604082019050919050565b600061258d600f83612a9b565b91506125988261304d565b602082019050919050565b60006125b0602083612a9b565b91506125bb82613076565b602082019050919050565b60006125d3601883612a9b565b91506125de8261309f565b602082019050919050565b60006125f6602c83612a9b565b9150612601826130c8565b604082019050919050565b6000612619602983612a9b565b915061262482613117565b604082019050919050565b600061263c602f83612a9b565b915061264782613166565b604082019050919050565b600061265f602183612a9b565b915061266a826131b5565b604082019050919050565b6000612682603183612a9b565b915061268d82613204565b604082019050919050565b60006126a5602c83612a9b565b91506126b082613253565b604082019050919050565b6126c481612bdc565b82525050565b60006126d68285612414565b91506126e28284612414565b91508190509392505050565b60006020820190506127036000830184612384565b92915050565b600060808201905061271e6000830187612384565b61272b6020830186612384565b61273860408301856126bb565b818103606083015261274a81846123a2565b905095945050505050565b600060208201905061276a6000830184612393565b92915050565b6000602082019050818103600083015261278a81846123db565b905092915050565b600060208201905081810360008301526127ab81612445565b9050919050565b600060208201905081810360008301526127cb81612468565b9050919050565b600060208201905081810360008301526127eb8161248b565b9050919050565b6000602082019050818103600083015261280b816124ae565b9050919050565b6000602082019050818103600083015261282b816124d1565b9050919050565b6000602082019050818103600083015261284b816124f4565b9050919050565b6000602082019050818103600083015261286b81612517565b9050919050565b6000602082019050818103600083015261288b8161253a565b9050919050565b600060208201905081810360008301526128ab8161255d565b9050919050565b600060208201905081810360008301526128cb81612580565b9050919050565b600060208201905081810360008301526128eb816125a3565b9050919050565b6000602082019050818103600083015261290b816125c6565b9050919050565b6000602082019050818103600083015261292b816125e9565b9050919050565b6000602082019050818103600083015261294b8161260c565b9050919050565b6000602082019050818103600083015261296b8161262f565b9050919050565b6000602082019050818103600083015261298b81612652565b9050919050565b600060208201905081810360008301526129ab81612675565b9050919050565b600060208201905081810360008301526129cb81612698565b9050919050565b60006020820190506129e760008301846126bb565b92915050565b60006129f7612a08565b9050612a038282612c5a565b919050565b6000604051905090565b600067ffffffffffffffff821115612a2d57612a2c612d92565b5b612a3682612dc1565b9050602081019050919050565b600067ffffffffffffffff821115612a5e57612a5d612d92565b5b612a6782612dc1565b9050602081019050919050565b600081519050919050565b600081519050919050565b600082825260208201905092915050565b600082825260208201905092915050565b600081905092915050565b6000612ac282612bdc565b9150612acd83612bdc565b9250827fffffffffffffffffffffffffffffffffffffffffffffffffffffffffffffffff03821115612b0257612b01612d05565b5b828201905092915050565b6000612b1882612bdc565b9150612b2383612bdc565b925082612b3357612b32612d34565b5b828204905092915050565b6000612b4982612bdc565b9150612b5483612bdc565b925082821015612b6757612b66612d05565b5b828203905092915050565b6000612b7d82612bbc565b9050919050565b60008115159050919050565b60007fffffffff0000000000000000000000000000000000000000000000000000000082169050919050565b600073ffffffffffffffffffffffffffffffffffffffff82169050919050565b6000819050919050565b82818337600083830152505050565b60005b83811015612c13578082015181840152602081019050612bf8565b83811115612c22576000848401525b50505050565b60006002820490506001821680612c4057607f821691505b60208210811415612c5457612c53612d63565b5b50919050565b612c6382612dc1565b810181811067ffffffffffffffff82111715612c8257612c81612d92565b5b80604052505050565b6000612c9682612bdc565b91507fffffffffffffffffffffffffffffffffffffffffffffffffffffffffffffffff821415612cc957612cc8612d05565b5b600182019050919050565b6000612cdf82612bdc565b9150612cea83612bdc565b925082612cfa57612cf9612d34565b5b828206905092915050565b7f4e487b7100000000000000000000000000000000000000000000000000000000600052601160045260246000fd5b7f4e487b7100000000000000000000000000000000000000000000000000000000600052601260045260246000fd5b7f4e487b7100000000000000000000000000000000000000000000000000000000600052602260045260246000fd5b7f4e487b7100000000000000000000000000000000000000000000000000000000600052604160045260246000fd5b6000601f19601f8301169050919050565b7f455243373231456e756d657261626c653a206f776e657220696e646578206f7560008201527f74206f6620626f756e6473000000000000000000000000000000000000000000602082015250565b7f4552433732313a207472616e7366657220746f206e6f6e20455243373231526560008201527f63656976657220696d706c656d656e7465720000000000000000000000000000602082015250565b7f4552433732313a20746f6b656e20616c7265616479206d696e74656400000000600082015250565b7f4552433732313a207472616e7366657220746f20746865207a65726f2061646460008201527f7265737300000000000000000000000000000000000000000000000000000000602082015250565b7f4552433732313a20617070726f766520746f2063616c6c657200000000000000600082015250565b7f4552433732313a206f70657261746f7220717565727920666f72206e6f6e657860008201527f697374656e7420746f6b656e0000000000000000000000000000000000000000602082015250565b7f4552433732313a20617070726f76652063616c6c6572206973206e6f74206f7760008201527f6e6572206e6f7220617070726f76656420666f7220616c6c0000000000000000602082015250565b7f4552433732313a2062616c616e636520717565727920666f7220746865207a6560008201527f726f206164647265737300000000000000000000000000000000000000000000602082015250565b7f4552433732313a206f776e657220717565727920666f72206e6f6e657869737460008201527f656e7420746f6b656e0000000000000000000000000000000000000000000000602082015250565b7f6f766572206d617820737570706c790000000000000000000000000000000000600082015250565b7f4552433732313a206d696e7420746f20746865207a65726f2061646472657373600082015250565b7f746f6f206d75636820746f206d696e74206174206f6e63650000000000000000600082015250565b7f4552433732313a20617070726f76656420717565727920666f72206e6f6e657860008201527f697374656e7420746f6b656e0000000000000000000000000000000000000000602082015250565b7f4552433732313a207472616e73666572206f6620746f6b656e2074686174206960008201527f73206e6f74206f776e0000000000000000000000000000000000000000000000602082015250565b7f4552433732314d657461646174613a2055524920717565727920666f72206e6f60008201527f6e6578697374656e7420746f6b656e0000000000000000000000000000000000602082015250565b7f4552433732313a20617070726f76616c20746f2063757272656e74206f776e6560008201527f7200000000000000000000000000000000000000000000000000000000000000602082015250565b7f4552433732313a207472616e736665722063616c6c6572206973206e6f74206f60008201527f776e6572206e6f7220617070726f766564000000000000000000000000000000602082015250565b7f455243373231456e756d657261626c653a20676c6f62616c20696e646578206f60008201527f7574206f6620626f756e64730000000000000000000000000000000000000000602082015250565b6132ab81612b72565b81146132b657600080fd5b50565b6132c281612b84565b81146132cd57600080fd5b50565b6132d981612b90565b81146132e457600080fd5b50565b6132f081612bdc565b81146132fb57600080fd5b5056fea26469706673582212205ea8ec79b1de48ce6d9ad5fac89c4a61854ae28b133014036b120626ea7cc68e64736f6c63430008040033",
  "linkReferences": {},
  "deployedLinkReferences": {}
}