{
  "_format": "hh-sol-artifact-1",
  "contractName": "TestCollection",
  "sourceName": "contracts/TestCollection.sol",
  "abi": [
    {
      "inputs": [],
      "stateMutability": "nonpayable",
      "type": "constructor"
    },
    {
      "anonymous": false,
      "inputs": [
        {
          "indexed": true,
          "internalType": "address",
          "name": "owner",
          "type": "address"
        },
        {
          "indexed": true,
          "internalType": "address",
          "name": "approved",
          "type": "address"
        },
        {
          "indexed": true,
          "internalType": "uint256",
          "name": "tokenId",
          "type": "uint256"
        }
      ],
      "name": "Approval",
      "type": "event"
    },
    {
      "anonymous": false,
      "inputs": [
        {
          "indexed": true,
          "internalType": "address",
          "name": "owner",
          "type": "address"
        },
        {
          "indexed": true,
          "internalType": "address",
          "name": "operator",
          "type": "address"
        },
        {
          "indexed": false,
          "internalType": "bool",
          "name": "approved",
          "type": "bool"
        }
      ],
      "name": "ApprovalForAll",
      "type": "event"
    },
    {
      "anonymous": false,
      "inputs": [
        {
          "indexed": true,
          "internalType": "address",
          "name": "from",
          "type": "address"
        },
        {
          "indexed": true,
          "internalType": "address",
          "name": "to",
          "type": "address"
        },
        {
          "indexed": true,
          "internalType": "uint256",
          "name": "tokenId",
          "type": "uint256"
        }
      ],
      "name": "Transfer",
      "type": "event"
    },
    {
      "inputs": [],
      "name": "BaseURI",
      "outputs": [
        {
          "internalType": "string",
          "name": "",
          "type": "string"
        }
      ],
      "stateMutability": "view",
      "type": "function"
    },
    {
      "inputs": [
        {
          "internalType": "address",
          "name": "to",
          "type": "address"
        },
        {
          "internalType": "uint256",
          "name": "tokenId",
          "type": "uint256"
        }
      ],
      "name": "approve",
      "outputs": [],
      "stateMutability": "nonpayable",
      "type": "function"
    },
    {
      "inputs": [
        {
          "internalType": "address",
          "name": "owner",
          "type": "address"
        }
      ],
      "name": "balanceOf",
      "outputs": [
        {
          "internalType": "uint256",
          "name": "",
          "type": "uint256"
        }
      ],
      "stateMutability": "view",
      "type": "function"
    },
    {
      "inputs": [
        {
          "internalType": "uint256",
          "name": "tokenId",
          "type": "uint256"
        }
      ],
      "name": "getApproved",
      "outputs": [
        {
          "internalType": "address",
          "name": "",
          "type": "address"
        }
      ],
      "stateMutability": "view",
      "type": "function"
    },
    {
      "inputs": [],
      "name": "getTotalSupply",
      "outputs": [
        {
          "internalType": "uint256",
          "name": "",
          "type": "uint256"
        }
      ],
      "stateMutability": "view",
      "type": "function"
    },
    {
      "inputs": [
        {
          "internalType": "address",
          "name": "owner",
          "type": "address"
        },
        {
          "internalType": "address",
          "name": "operator",
          "type": "address"
        }
      ],
      "name": "isApprovedForAll",
      "outputs": [
        {
          "internalType": "bool",
          "name": "",
          "type": "bool"
        }
      ],
      "stateMutability": "view",
      "type": "function"
    },
    {
      "inputs": [
        {
          "internalType": "uint256",
          "name": "_amount",
          "type": "uint256"
        }
      ],
      "name": "mint",
      "outputs": [],
      "stateMutability": "nonpayable",
      "type": "function"
    },
    {
      "inputs": [],
      "name": "name",
      "outputs": [
        {
          "internalType": "string",
          "name": "",
          "type": "string"
        }
      ],
      "stateMutability": "view",
      "type": "function"
    },
    {
      "inputs": [
        {
          "internalType": "uint256",
          "name": "tokenId",
          "type": "uint256"
        }
      ],
      "name": "ownerOf",
      "outputs": [
        {
          "internalType": "address",
          "name": "",
          "type": "address"
        }
      ],
      "stateMutability": "view",
      "type": "function"
    },
    {
      "inputs": [
        {
          "internalType": "address",
          "name": "from",
          "type": "address"
        },
        {
          "internalType": "address",
          "name": "to",
          "type": "address"
        },
        {
          "internalType": "uint256",
          "name": "tokenId",
          "type": "uint256"
        }
      ],
      "name": "safeTransferFrom",
      "outputs": [],
      "stateMutability": "nonpayable",
      "type": "function"
    },
    {
      "inputs": [
        {
          "internalType": "address",
          "name": "from",
          "type": "address"
        },
        {
          "internalType": "address",
          "name": "to",
          "type": "address"
        },
        {
          "internalType": "uint256",
          "name": "tokenId",
          "type": "uint256"
        },
        {
          "internalType": "bytes",
          "name": "_data",
          "type": "bytes"
        }
      ],
      "name": "safeTransferFrom",
      "outputs": [],
      "stateMutability": "nonpayable",
      "type": "function"
    },
    {
      "inputs": [
        {
          "internalType": "address",
          "name": "operator",
          "type": "address"
        },
        {
          "internalType": "bool",
          "name": "approved",
          "type": "bool"
        }
      ],
      "name": "setApprovalForAll",
      "outputs": [],
      "stateMutability": "nonpayable",
      "type": "function"
    },
    {
      "inputs": [
        {
          "internalType": "string",
          "name": "_uri",
          "type": "string"
        }
      ],
      "name": "setBaseURI",
      "outputs": [],
      "stateMutability": "nonpayable",
      "type": "function"
    },
    {
      "inputs": [
        {
          "internalType": "bytes4",
          "name": "interfaceId",
          "type": "bytes4"
        }
      ],
      "name": "supportsInterface",
      "outputs": [
        {
          "internalType": "bool",
          "name": "",
          "type": "bool"
        }
      ],
      "stateMutability": "view",
      "type": "function"
    },
    {
      "inputs": [],
      "name": "symbol",
      "outputs": [
        {
          "internalType": "string",
          "name": "",
          "type": "string"
        }
      ],
      "stateMutability": "view",
      "type": "function"
    },
    {
      "inputs": [
        {
          "internalType": "uint256",
          "name": "index",
          "type": "uint256"
        }
      ],
      "name": "tokenByIndex",
      "outputs": [
        {
          "internalType": "uint256",
          "name": "",
          "type": "uint256"
        }
      ],
      "stateMutability": "view",
      "type": "function"
    },
    {
      "inputs": [
        {
          "internalType": "address",
          "name": "owner",
          "type": "address"
        },
        {
          "internalType": "uint256",
          "name": "index",
          "type": "uint256"
        }
      ],
      "name": "tokenOfOwnerByIndex",
      "outputs": [
        {
          "internalType": "uint256",
          "name": "",
          "type": "uint256"
        }
      ],
      "stateMutability": "view",
      "type": "function"
    },
    {
      "inputs": [
        {
          "internalType": "uint256",
          "name": "tokenId",
          "type": "uint256"
        }
      ],
      "name": "tokenURI",
      "outputs": [
        {
          "internalType": "string",
          "name": "",
          "type": "string"
        }
      ],
      "stateMutability": "view",
      "type": "function"
    },
    {
      "inputs": [],
      "name": "totalSupply",
      "outputs": [
        {
          "internalType": "uint256",
          "name": "",
          "type": "uint256"
        }
      ],
      "stateMutability": "view",
      "type": "function"
    },
    {
      "inputs": [
        {
          "internalType": "address",
          "name": "from",
          "type": "address"
        },
        {
          "internalType": "address",
          "name": "to",
          "type": "address"
        },
        {
          "internalType": "uint256",
          "name": "tokenId",
          "type": "uint256"
        }
      ],
      "name": "transferFrom",
      "outputs": [],
      "stateMutability": "nonpayable",
      "type": "function"
    }
  ],
  "bytecode": "0x6080604052612710600a556040518060600160405280603681526020016200350e60369139600c90805190602001906200003b929190620000f0565b503480156200004957600080fd5b506040518060400160405280600e81526020017f54657374436f6c6c656374696f6e0000000000000000000000000000000000008152506040518060400160405280600e81526020017f54455354434f4c4c454354494f4e0000000000000000000000000000000000008152508160009080519060200190620000ce929190620000f0565b508060019080519060200190620000e7929190620000f0565b50505062000205565b828054620000fe90620001a0565b90600052602060002090601f0160209004810192826200012257600085556200016e565b82601f106200013d57805160ff19168380011785556200016e565b828001600101855582156200016e579182015b828111156200016d57825182559160200191906001019062000150565b5b5090506200017d919062000181565b5090565b5b808211156200019c57600081600090555060010162000182565b5090565b60006002820490506001821680620001b957607f821691505b60208210811415620001d057620001cf620001d6565b5b50919050565b7f4e487b7100000000000000000000000000000000000000000000000000000000600052602260045260246000fd5b6132f980620002156000396000f3fe608060405234801561001057600080fd5b506004361061012c5760003560e01c80636352211e116100ad578063b88d4fde11610071578063b88d4fde14610353578063c4e41b221461036f578063c87b56dd1461038d578063e985e9c5146103bd578063ffcc43c4146103ed5761012c565b80636352211e1461029d57806370a08231146102cd57806395d89b41146102fd578063a0712d681461031b578063a22cb465146103375761012c565b806323b872dd116100f457806323b872dd146101e95780632f745c591461020557806342842e0e146102355780634f6ccce71461025157806355f804b3146102815761012c565b806301ffc9a71461013157806306fdde0314610161578063081812fc1461017f578063095ea7b3146101af57806318160ddd146101cb575b600080fd5b61014b600480360381019061014691906122f9565b61040b565b6040516101589190612763565b60405180910390f35b610169610485565b604051610176919061277e565b60405180910390f35b6101996004803603810190610194919061238c565b610517565b6040516101a691906126fc565b60405180910390f35b6101c960048036038101906101c491906122bd565b61059c565b005b6101d36106b4565b6040516101e091906129c0565b60405180910390f35b61020360048036038101906101fe91906121b7565b6106c1565b005b61021f600480360381019061021a91906122bd565b610721565b60405161022c91906129c0565b60405180910390f35b61024f600480360381019061024a91906121b7565b6107c6565b005b61026b6004803603810190610266919061238c565b6107e6565b60405161027891906129c0565b60405180910390f35b61029b6004803603810190610296919061234b565b61087d565b005b6102b760048036038101906102b2919061238c565b610897565b6040516102c491906126fc565b60405180910390f35b6102e760048036038101906102e29190612152565b610949565b6040516102f491906129c0565b60405180910390f35b610305610a01565b604051610312919061277e565b60405180910390f35b6103356004803603810190610330919061238c565b610a93565b005b610351600480360381019061034c9190612281565b610b26565b005b61036d60048036038101906103689190612206565b610b3c565b005b610377610b9e565b60405161038491906129c0565b60405180910390f35b6103a760048036038101906103a2919061238c565b610bad565b6040516103b4919061277e565b60405180910390f35b6103d760048036038101906103d2919061217b565b610c64565b6040516103e49190612763565b60405180910390f35b6103f5610cf8565b604051610402919061277e565b60405180910390f35b60007f780e9d63000000000000000000000000000000000000000000000000000000007bffffffffffffffffffffffffffffffffffffffffffffffffffffffff1916827bffffffffffffffffffffffffffffffffffffffffffffffffffffffff1916148061047e575061047d82610d86565b5b9050919050565b60606000805461049490612c16565b80601f01602080910402602001604051908101604052809291908181526020018280546104c090612c16565b801561050d5780601f106104e25761010080835404028352916020019161050d565b820191906000526020600020905b8154815290600101906020018083116104f057829003601f168201915b5050505050905090565b600061052282610e68565b610561576040517f08c379a000000000000000000000000000000000000000000000000000000000815260040161055890612920565b60405180910390fd5b6004600083815260200190815260200160002060009054906101000a900473ffffffffffffffffffffffffffffffffffffffff169050919050565b60006105a782610897565b90508073ffffffffffffffffffffffffffffffffffffffff168373ffffffffffffffffffffffffffffffffffffffff161415610618576040517f08c379a000000000000000000000000000000000000000000000000000000000815260040161060f90612960565b60405180910390fd5b8073ffffffffffffffffffffffffffffffffffffffff16610637610ed4565b73ffffffffffffffffffffffffffffffffffffffff161480610666575061066581610660610ed4565b610c64565b5b6106a5576040517f08c379a000000000000000000000000000000000000000000000000000000000815260040161069c90612880565b60405180910390fd5b6106af8383610edc565b505050565b6000600880549050905090565b6106d26106cc610ed4565b82610f95565b610711576040517f08c379a000000000000000000000000000000000000000000000000000000000815260040161070890612980565b60405180910390fd5b61071c838383611073565b505050565b600061072c83610949565b821061076d576040517f08c379a0000000000000000000000000000000000000000000000000000000008152600401610764906127a0565b60405180910390fd5b600660008473ffffffffffffffffffffffffffffffffffffffff1673ffffffffffffffffffffffffffffffffffffffff168152602001908152602001600020600083815260200190815260200160002054905092915050565b6107e183838360405180602001604052806000815250610b3c565b505050565b60006107f06106b4565b8210610831576040517f08c379a0000000000000000000000000000000000000000000000000000000008152600401610828906129a0565b60405180910390fd5b6008828154811061086b577f4e487b7100000000000000000000000000000000000000000000000000000000600052603260045260246000fd5b90600052602060002001549050919050565b80600c9080519060200190610893929190611f76565b5050565b6000806002600084815260200190815260200160002060009054906101000a900473ffffffffffffffffffffffffffffffffffffffff169050600073ffffffffffffffffffffffffffffffffffffffff168173ffffffffffffffffffffffffffffffffffffffff161415610940576040517f08c379a0000000000000000000000000000000000000000000000000000000008152600401610937906128c0565b60405180910390fd5b80915050919050565b60008073ffffffffffffffffffffffffffffffffffffffff168273ffffffffffffffffffffffffffffffffffffffff1614156109ba576040517f08c379a00000000000000000000000000000000000000000000000000000000081526004016109b1906128a0565b60405180910390fd5b600360008373ffffffffffffffffffffffffffffffffffffffff1673ffffffffffffffffffffffffffffffffffffffff168152602001908152602001600020549050919050565b606060018054610a1090612c16565b80601f0160208091040260200160405190810160405280929190818152602001828054610a3c90612c16565b8015610a895780601f10610a5e57610100808354040283529160200191610a89565b820191906000526020600020905b815481529060010190602001808311610a6c57829003601f168201915b5050505050905090565b6000610a9d6106b4565b9050600a548282610aae9190612aa5565b10610aee576040517f08c379a0000000000000000000000000000000000000000000000000000000008152600401610ae5906128e0565b60405180910390fd5b60005b82811015610b2157610b0e338284610b099190612aa5565b6112da565b8080610b1990612c79565b915050610af1565b505050565b610b38610b31610ed4565b83836114b4565b5050565b610b4d610b47610ed4565b83610f95565b610b8c576040517f08c379a0000000000000000000000000000000000000000000000000000000008152600401610b8390612980565b60405180910390fd5b610b9884848484611621565b50505050565b6000610ba86106b4565b905090565b6060610bb882610e68565b610bf7576040517f08c379a0000000000000000000000000000000000000000000000000000000008152600401610bee90612940565b60405180910390fd5b6000610c0161167d565b9050600a5483610c119190612cc2565b92506000815111610c315760405180602001604052806000815250610c5c565b80610c3b8461170f565b604051602001610c4c9291906126d8565b6040516020818303038152906040525b915050919050565b6000600560008473ffffffffffffffffffffffffffffffffffffffff1673ffffffffffffffffffffffffffffffffffffffff16815260200190815260200160002060008373ffffffffffffffffffffffffffffffffffffffff1673ffffffffffffffffffffffffffffffffffffffff16815260200190815260200160002060009054906101000a900460ff16905092915050565b600c8054610d0590612c16565b80601f0160208091040260200160405190810160405280929190818152602001828054610d3190612c16565b8015610d7e5780601f10610d5357610100808354040283529160200191610d7e565b820191906000526020600020905b815481529060010190602001808311610d6157829003601f168201915b505050505081565b60007f80ac58cd000000000000000000000000000000000000000000000000000000007bffffffffffffffffffffffffffffffffffffffffffffffffffffffff1916827bffffffffffffffffffffffffffffffffffffffffffffffffffffffff19161480610e5157507f5b5e139f000000000000000000000000000000000000000000000000000000007bffffffffffffffffffffffffffffffffffffffffffffffffffffffff1916827bffffffffffffffffffffffffffffffffffffffffffffffffffffffff1916145b80610e615750610e60826118bc565b5b9050919050565b60008073ffffffffffffffffffffffffffffffffffffffff166002600084815260200190815260200160002060009054906101000a900473ffffffffffffffffffffffffffffffffffffffff1673ffffffffffffffffffffffffffffffffffffffff1614159050919050565b600033905090565b816004600083815260200190815260200160002060006101000a81548173ffffffffffffffffffffffffffffffffffffffff021916908373ffffffffffffffffffffffffffffffffffffffff160217905550808273ffffffffffffffffffffffffffffffffffffffff16610f4f83610897565b73ffffffffffffffffffffffffffffffffffffffff167f8c5be1e5ebec7d5bd14f71427d1e84f3dd0314c0f7b2291e5b200ac8c7c3b92560405160405180910390a45050565b6000610fa082610e68565b610fdf576040517f08c379a0000000000000000000000000000000000000000000000000000000008152600401610fd690612860565b60405180910390fd5b6000610fea83610897565b90508073ffffffffffffffffffffffffffffffffffffffff168473ffffffffffffffffffffffffffffffffffffffff16148061105957508373ffffffffffffffffffffffffffffffffffffffff1661104184610517565b73ffffffffffffffffffffffffffffffffffffffff16145b8061106a57506110698185610c64565b5b91505092915050565b8273ffffffffffffffffffffffffffffffffffffffff1661109382610897565b73ffffffffffffffffffffffffffffffffffffffff16146110e9576040517f08c379a00000000000000000000000000000000000000000000000000000000081526004016110e0906127e0565b60405180910390fd5b600073ffffffffffffffffffffffffffffffffffffffff168273ffffffffffffffffffffffffffffffffffffffff161415611159576040517f08c379a000000000000000000000000000000000000000000000000000000000815260040161115090612820565b60405180910390fd5b611164838383611926565b61116f600082610edc565b6001600360008573ffffffffffffffffffffffffffffffffffffffff1673ffffffffffffffffffffffffffffffffffffffff16815260200190815260200160002060008282546111bf9190612b2c565b925050819055506001600360008473ffffffffffffffffffffffffffffffffffffffff1673ffffffffffffffffffffffffffffffffffffffff16815260200190815260200160002060008282546112169190612aa5565b92505081905550816002600083815260200190815260200160002060006101000a81548173ffffffffffffffffffffffffffffffffffffffff021916908373ffffffffffffffffffffffffffffffffffffffff160217905550808273ffffffffffffffffffffffffffffffffffffffff168473ffffffffffffffffffffffffffffffffffffffff167fddf252ad1be2c89b69c2b068fc378daa952ba7f163c4a11628f55a4df523b3ef60405160405180910390a46112d5838383611a3a565b505050565b600073ffffffffffffffffffffffffffffffffffffffff168273ffffffffffffffffffffffffffffffffffffffff16141561134a576040517f08c379a000000000000000000000000000000000000000000000000000000000815260040161134190612900565b60405180910390fd5b61135381610e68565b15611393576040517f08c379a000000000000000000000000000000000000000000000000000000000815260040161138a90612800565b60405180910390fd5b61139f60008383611926565b6001600360008473ffffffffffffffffffffffffffffffffffffffff1673ffffffffffffffffffffffffffffffffffffffff16815260200190815260200160002060008282546113ef9190612aa5565b92505081905550816002600083815260200190815260200160002060006101000a81548173ffffffffffffffffffffffffffffffffffffffff021916908373ffffffffffffffffffffffffffffffffffffffff160217905550808273ffffffffffffffffffffffffffffffffffffffff16600073ffffffffffffffffffffffffffffffffffffffff167fddf252ad1be2c89b69c2b068fc378daa952ba7f163c4a11628f55a4df523b3ef60405160405180910390a46114b060008383611a3a565b5050565b8173ffffffffffffffffffffffffffffffffffffffff168373ffffffffffffffffffffffffffffffffffffffff161415611523576040517f08c379a000000000000000000000000000000000000000000000000000000000815260040161151a90612840565b60405180910390fd5b80600560008573ffffffffffffffffffffffffffffffffffffffff1673ffffffffffffffffffffffffffffffffffffffff16815260200190815260200160002060008473ffffffffffffffffffffffffffffffffffffffff1673ffffffffffffffffffffffffffffffffffffffff16815260200190815260200160002060006101000a81548160ff0219169083151502179055508173ffffffffffffffffffffffffffffffffffffffff168373ffffffffffffffffffffffffffffffffffffffff167f17307eab39ab6107e8899845ad3d59bd9653f200f220920489ca2b5937696c31836040516116149190612763565b60405180910390a3505050565b61162c848484611073565b61163884848484611a3f565b611677576040517f08c379a000000000000000000000000000000000000000000000000000000000815260040161166e906127c0565b60405180910390fd5b50505050565b6060600c805461168c90612c16565b80601f01602080910402602001604051908101604052809291908181526020018280546116b890612c16565b80156117055780601f106116da57610100808354040283529160200191611705565b820191906000526020600020905b8154815290600101906020018083116116e857829003601f168201915b5050505050905090565b60606000821415611757576040518060400160405280600181526020017f300000000000000000000000000000000000000000000000000000000000000081525090506118b7565b600082905060005b6000821461178957808061177290612c79565b915050600a826117829190612afb565b915061175f565b60008167ffffffffffffffff8111156117cb577f4e487b7100000000000000000000000000000000000000000000000000000000600052604160045260246000fd5b6040519080825280601f01601f1916602001820160405280156117fd5781602001600182028036833780820191505090505b5090505b600085146118b0576001826118169190612b2c565b9150600a856118259190612cc2565b60306118319190612aa5565b60f81b81838151811061186d577f4e487b7100000000000000000000000000000000000000000000000000000000600052603260045260246000fd5b60200101907effffffffffffffffffffffffffffffffffffffffffffffffffffffffffffff1916908160001a905350600a856118a99190612afb565b9450611801565b8093505050505b919050565b60007f01ffc9a7000000000000000000000000000000000000000000000000000000007bffffffffffffffffffffffffffffffffffffffffffffffffffffffff1916827bffffffffffffffffffffffffffffffffffffffffffffffffffffffff1916149050919050565b611931838383611bd6565b600073ffffffffffffffffffffffffffffffffffffffff168373ffffffffffffffffffffffffffffffffffffffff1614156119745761196f81611bdb565b6119b3565b8173ffffffffffffffffffffffffffffffffffffffff168373ffffffffffffffffffffffffffffffffffffffff16146119b2576119b18382611c24565b5b5b600073ffffffffffffffffffffffffffffffffffffffff168273ffffffffffffffffffffffffffffffffffffffff1614156119f6576119f181611d91565b611a35565b8273ffffffffffffffffffffffffffffffffffffffff168273ffffffffffffffffffffffffffffffffffffffff1614611a3457611a338282611ed4565b5b5b505050565b505050565b6000611a608473ffffffffffffffffffffffffffffffffffffffff16611f53565b15611bc9578373ffffffffffffffffffffffffffffffffffffffff1663150b7a02611a89610ed4565b8786866040518563ffffffff1660e01b8152600401611aab9493929190612717565b602060405180830381600087803b158015611ac557600080fd5b505af1925050508015611af657506040513d601f19601f82011682018060405250810190611af39190612322565b60015b611b79573d8060008114611b26576040519150601f19603f3d011682016040523d82523d6000602084013e611b2b565b606091505b50600081511415611b71576040517f08c379a0000000000000000000000000000000000000000000000000000000008152600401611b68906127c0565b60405180910390fd5b805181602001fd5b63150b7a0260e01b7bffffffffffffffffffffffffffffffffffffffffffffffffffffffff1916817bffffffffffffffffffffffffffffffffffffffffffffffffffffffff191614915050611bce565b600190505b949350505050565b505050565b6008805490506009600083815260200190815260200160002081905550600881908060018154018082558091505060019003906000526020600020016000909190919091505550565b60006001611c3184610949565b611c3b9190612b2c565b9050600060076000848152602001908152602001600020549050818114611d20576000600660008673ffffffffffffffffffffffffffffffffffffffff1673ffffffffffffffffffffffffffffffffffffffff168152602001908152602001600020600084815260200190815260200160002054905080600660008773ffffffffffffffffffffffffffffffffffffffff1673ffffffffffffffffffffffffffffffffffffffff168152602001908152602001600020600084815260200190815260200160002081905550816007600083815260200190815260200160002081905550505b6007600084815260200190815260200160002060009055600660008573ffffffffffffffffffffffffffffffffffffffff1673ffffffffffffffffffffffffffffffffffffffff16815260200190815260200160002060008381526020019081526020016000206000905550505050565b60006001600880549050611da59190612b2c565b9050600060096000848152602001908152602001600020549050600060088381548110611dfb577f4e487b7100000000000000000000000000000000000000000000000000000000600052603260045260246000fd5b906000526020600020015490508060088381548110611e43577f4e487b7100000000000000000000000000000000000000000000000000000000600052603260045260246000fd5b906000526020600020018190555081600960008381526020019081526020016000208190555060096000858152602001908152602001600020600090556008805480611eb8577f4e487b7100000000000000000000000000000000000000000000000000000000600052603160045260246000fd5b6001900381819060005260206000200160009055905550505050565b6000611edf83610949565b905081600660008573ffffffffffffffffffffffffffffffffffffffff1673ffffffffffffffffffffffffffffffffffffffff168152602001908152602001600020600083815260200190815260200160002081905550806007600084815260200190815260200160002081905550505050565b6000808273ffffffffffffffffffffffffffffffffffffffff163b119050919050565b828054611f8290612c16565b90600052602060002090601f016020900481019282611fa45760008555611feb565b82601f10611fbd57805160ff1916838001178555611feb565b82800160010185558215611feb579182015b82811115611fea578251825591602001919060010190611fcf565b5b509050611ff89190611ffc565b5090565b5b80821115612015576000816000905550600101611ffd565b5090565b600061202c61202784612a00565b6129db565b90508281526020810184848401111561204457600080fd5b61204f848285612bd4565b509392505050565b600061206a61206584612a31565b6129db565b90508281526020810184848401111561208257600080fd5b61208d848285612bd4565b509392505050565b6000813590506120a481613267565b92915050565b6000813590506120b98161327e565b92915050565b6000813590506120ce81613295565b92915050565b6000815190506120e381613295565b92915050565b600082601f8301126120fa57600080fd5b813561210a848260208601612019565b91505092915050565b600082601f83011261212457600080fd5b8135612134848260208601612057565b91505092915050565b60008135905061214c816132ac565b92915050565b60006020828403121561216457600080fd5b600061217284828501612095565b91505092915050565b6000806040838503121561218e57600080fd5b600061219c85828601612095565b92505060206121ad85828601612095565b9150509250929050565b6000806000606084860312156121cc57600080fd5b60006121da86828701612095565b93505060206121eb86828701612095565b92505060406121fc8682870161213d565b9150509250925092565b6000806000806080858703121561221c57600080fd5b600061222a87828801612095565b945050602061223b87828801612095565b935050604061224c8782880161213d565b925050606085013567ffffffffffffffff81111561226957600080fd5b612275878288016120e9565b91505092959194509250565b6000806040838503121561229457600080fd5b60006122a285828601612095565b92505060206122b3858286016120aa565b9150509250929050565b600080604083850312156122d057600080fd5b60006122de85828601612095565b92505060206122ef8582860161213d565b9150509250929050565b60006020828403121561230b57600080fd5b6000612319848285016120bf565b91505092915050565b60006020828403121561233457600080fd5b6000612342848285016120d4565b91505092915050565b60006020828403121561235d57600080fd5b600082013567ffffffffffffffff81111561237757600080fd5b61238384828501612113565b91505092915050565b60006020828403121561239e57600080fd5b60006123ac8482850161213d565b91505092915050565b6123be81612b60565b82525050565b6123cd81612b72565b82525050565b60006123de82612a62565b6123e88185612a78565b93506123f8818560208601612be3565b61240181612daf565b840191505092915050565b600061241782612a6d565b6124218185612a89565b9350612431818560208601612be3565b61243a81612daf565b840191505092915050565b600061245082612a6d565b61245a8185612a9a565b935061246a818560208601612be3565b80840191505092915050565b6000612483602b83612a89565b915061248e82612dc0565b604082019050919050565b60006124a6603283612a89565b91506124b182612e0f565b604082019050919050565b60006124c9602583612a89565b91506124d482612e5e565b604082019050919050565b60006124ec601c83612a89565b91506124f782612ead565b602082019050919050565b600061250f602483612a89565b915061251a82612ed6565b604082019050919050565b6000612532601983612a89565b915061253d82612f25565b602082019050919050565b6000612555602c83612a89565b915061256082612f4e565b604082019050919050565b6000612578603883612a89565b915061258382612f9d565b604082019050919050565b600061259b602a83612a89565b91506125a682612fec565b604082019050919050565b60006125be602983612a89565b91506125c98261303b565b604082019050919050565b60006125e1600f83612a89565b91506125ec8261308a565b602082019050919050565b6000612604602083612a89565b915061260f826130b3565b602082019050919050565b6000612627602c83612a89565b9150612632826130dc565b604082019050919050565b600061264a602f83612a89565b91506126558261312b565b604082019050919050565b600061266d602183612a89565b91506126788261317a565b604082019050919050565b6000612690603183612a89565b915061269b826131c9565b604082019050919050565b60006126b3602c83612a89565b91506126be82613218565b604082019050919050565b6126d281612bca565b82525050565b60006126e48285612445565b91506126f08284612445565b91508190509392505050565b600060208201905061271160008301846123b5565b92915050565b600060808201905061272c60008301876123b5565b61273960208301866123b5565b61274660408301856126c9565b818103606083015261275881846123d3565b905095945050505050565b600060208201905061277860008301846123c4565b92915050565b60006020820190508181036000830152612798818461240c565b905092915050565b600060208201905081810360008301526127b981612476565b9050919050565b600060208201905081810360008301526127d981612499565b9050919050565b600060208201905081810360008301526127f9816124bc565b9050919050565b60006020820190508181036000830152612819816124df565b9050919050565b6000602082019050818103600083015261283981612502565b9050919050565b6000602082019050818103600083015261285981612525565b9050919050565b6000602082019050818103600083015261287981612548565b9050919050565b600060208201905081810360008301526128998161256b565b9050919050565b600060208201905081810360008301526128b98161258e565b9050919050565b600060208201905081810360008301526128d9816125b1565b9050919050565b600060208201905081810360008301526128f9816125d4565b9050919050565b60006020820190508181036000830152612919816125f7565b9050919050565b600060208201905081810360008301526129398161261a565b9050919050565b600060208201905081810360008301526129598161263d565b9050919050565b6000602082019050818103600083015261297981612660565b9050919050565b6000602082019050818103600083015261299981612683565b9050919050565b600060208201905081810360008301526129b9816126a6565b9050919050565b60006020820190506129d560008301846126c9565b92915050565b60006129e56129f6565b90506129f18282612c48565b919050565b6000604051905090565b600067ffffffffffffffff821115612a1b57612a1a612d80565b5b612a2482612daf565b9050602081019050919050565b600067ffffffffffffffff821115612a4c57612a4b612d80565b5b612a5582612daf565b9050602081019050919050565b600081519050919050565b600081519050919050565b600082825260208201905092915050565b600082825260208201905092915050565b600081905092915050565b6000612ab082612bca565b9150612abb83612bca565b9250827fffffffffffffffffffffffffffffffffffffffffffffffffffffffffffffffff03821115612af057612aef612cf3565b5b828201905092915050565b6000612b0682612bca565b9150612b1183612bca565b925082612b2157612b20612d22565b5b828204905092915050565b6000612b3782612bca565b9150612b4283612bca565b925082821015612b5557612b54612cf3565b5b828203905092915050565b6000612b6b82612baa565b9050919050565b60008115159050919050565b60007fffffffff0000000000000000000000000000000000000000000000000000000082169050919050565b600073ffffffffffffffffffffffffffffffffffffffff82169050919050565b6000819050919050565b82818337600083830152505050565b60005b83811015612c01578082015181840152602081019050612be6565b83811115612c10576000848401525b50505050565b60006002820490506001821680612c2e57607f821691505b60208210811415612c4257612c41612d51565b5b50919050565b612c5182612daf565b810181811067ffffffffffffffff82111715612c7057612c6f612d80565b5b80604052505050565b6000612c8482612bca565b91507fffffffffffffffffffffffffffffffffffffffffffffffffffffffffffffffff821415612cb757612cb6612cf3565b5b600182019050919050565b6000612ccd82612bca565b9150612cd883612bca565b925082612ce857612ce7612d22565b5b828206905092915050565b7f4e487b7100000000000000000000000000000000000000000000000000000000600052601160045260246000fd5b7f4e487b7100000000000000000000000000000000000000000000000000000000600052601260045260246000fd5b7f4e487b7100000000000000000000000000000000000000000000000000000000600052602260045260246000fd5b7f4e487b7100000000000000000000000000000000000000000000000000000000600052604160045260246000fd5b6000601f19601f8301169050919050565b7f455243373231456e756d657261626c653a206f776e657220696e646578206f7560008201527f74206f6620626f756e6473000000000000000000000000000000000000000000602082015250565b7f4552433732313a207472616e7366657220746f206e6f6e20455243373231526560008201527f63656976657220696d706c656d656e7465720000000000000000000000000000602082015250565b7f4552433732313a207472616e736665722066726f6d20696e636f72726563742060008201527f6f776e6572000000000000000000000000000000000000000000000000000000602082015250565b7f4552433732313a20746f6b656e20616c7265616479206d696e74656400000000600082015250565b7f4552433732313a207472616e7366657220746f20746865207a65726f2061646460008201527f7265737300000000000000000000000000000000000000000000000000000000602082015250565b7f4552433732313a20617070726f766520746f2063616c6c657200000000000000600082015250565b7f4552433732313a206f70657261746f7220717565727920666f72206e6f6e657860008201527f697374656e7420746f6b656e0000000000000000000000000000000000000000602082015250565b7f4552433732313a20617070726f76652063616c6c6572206973206e6f74206f7760008201527f6e6572206e6f7220617070726f76656420666f7220616c6c0000000000000000602082015250565b7f4552433732313a2062616c616e636520717565727920666f7220746865207a6560008201527f726f206164647265737300000000000000000000000000000000000000000000602082015250565b7f4552433732313a206f776e657220717565727920666f72206e6f6e657869737460008201527f656e7420746f6b656e0000000000000000000000000000000000000000000000602082015250565b7f6f766572206d617820737570706c790000000000000000000000000000000000600082015250565b7f4552433732313a206d696e7420746f20746865207a65726f2061646472657373600082015250565b7f4552433732313a20617070726f76656420717565727920666f72206e6f6e657860008201527f697374656e7420746f6b656e0000000000000000000000000000000000000000602082015250565b7f4552433732314d657461646174613a2055524920717565727920666f72206e6f60008201527f6e6578697374656e7420746f6b656e0000000000000000000000000000000000602082015250565b7f4552433732313a20617070726f76616c20746f2063757272656e74206f776e6560008201527f7200000000000000000000000000000000000000000000000000000000000000602082015250565b7f4552433732313a207472616e736665722063616c6c6572206973206e6f74206f60008201527f776e6572206e6f7220617070726f766564000000000000000000000000000000602082015250565b7f455243373231456e756d657261626c653a20676c6f62616c20696e646578206f60008201527f7574206f6620626f756e64730000000000000000000000000000000000000000602082015250565b61327081612b60565b811461327b57600080fd5b50565b61328781612b72565b811461329257600080fd5b50565b61329e81612b7e565b81146132a957600080fd5b50565b6132b581612bca565b81146132c057600080fd5b5056fea26469706673582212205832dd9c97369dee2db81892e13a448df089a395cc975728fc414820d2ce2bb064736f6c63430008040033697066733a2f2f516d576951453635746d70597a636f6b436865516d6e673244434d33334445686a586350423650616e7770415a6f2f",
  "linkReferences": {},
  "deployedLinkReferences": {}
}