{
  "_format": "hh-sol-artifact-1",
  "contractName": "HiveMarketplaceV2",
  "sourceName": "contracts/HiveMarketplacev2.sol",
  "abi": [
    {
      "inputs": [],
      "stateMutability": "nonpayable",
      "type": "constructor"
    },
    {
      "anonymous": false,
      "inputs": [
        {
          "indexed": true,
          "internalType": "address",
          "name": "nftContract",
          "type": "address"
        },
        {
          "indexed": true,
          "internalType": "uint256",
          "name": "tokenId",
          "type": "uint256"
        },
        {
          "indexed": true,
          "internalType": "address",
          "name": "seller",
          "type": "address"
        },
        {
          "indexed": false,
          "internalType": "address",
          "name": "buyer",
          "type": "address"
        },
        {
          "indexed": false,
          "internalType": "uint256",
          "name": "marketplaceFee",
          "type": "uint256"
        },
        {
          "indexed": false,
          "internalType": "uint256",
          "name": "creatorFee",
          "type": "uint256"
        },
        {
          "indexed": false,
          "internalType": "uint256",
          "name": "ownerRevenue",
          "type": "uint256"
        },
        {
          "indexed": false,
          "internalType": "uint256",
          "name": "value",
          "type": "uint256"
        }
      ],
      "name": "BidAccepted",
      "type": "event"
    },
    {
      "anonymous": false,
      "inputs": [
        {
          "indexed": true,
          "internalType": "address",
          "name": "nftContractAddress",
          "type": "address"
        },
        {
          "indexed": true,
          "internalType": "uint256",
          "name": "tokenId",
          "type": "uint256"
        },
        {
          "indexed": true,
          "internalType": "address",
          "name": "bidder",
          "type": "address"
        },
        {
          "indexed": false,
          "internalType": "uint256",
          "name": "nonce",
          "type": "uint256"
        }
      ],
      "name": "BidCanceled",
      "type": "event"
    },
    {
      "anonymous": false,
      "inputs": [
        {
          "indexed": false,
          "internalType": "address",
          "name": "nftAddress",
          "type": "address"
        }
      ],
      "name": "CollectionRemoved",
      "type": "event"
    },
    {
      "anonymous": false,
      "inputs": [
        {
          "indexed": false,
          "internalType": "address",
          "name": "nftAddress",
          "type": "address"
        },
        {
          "indexed": false,
          "internalType": "address",
          "name": "royaltyRecipient",
          "type": "address"
        },
        {
          "indexed": false,
          "internalType": "uint256",
          "name": "royaltyFee",
          "type": "uint256"
        }
      ],
      "name": "CollectionUpdated",
      "type": "event"
    },
    {
      "anonymous": false,
      "inputs": [
        {
          "indexed": false,
          "internalType": "address",
          "name": "nftAddress",
          "type": "address"
        },
        {
          "indexed": false,
          "internalType": "address",
          "name": "royaltyRecipient",
          "type": "address"
        },
        {
          "indexed": false,
          "internalType": "uint256",
          "name": "royaltyFee",
          "type": "uint256"
        }
      ],
      "name": "CollectionWhitelisted",
      "type": "event"
    },
    {
      "anonymous": false,
      "inputs": [
        {
          "indexed": true,
          "internalType": "address",
          "name": "nftContractAddress",
          "type": "address"
        },
        {
          "indexed": true,
          "internalType": "uint256",
          "name": "tokenId",
          "type": "uint256"
        },
        {
          "indexed": true,
          "internalType": "address",
          "name": "owner",
          "type": "address"
        },
        {
          "indexed": false,
          "internalType": "address",
          "name": "buyer",
          "type": "address"
        },
        {
          "indexed": false,
          "internalType": "uint256",
          "name": "marketplaceFee",
          "type": "uint256"
        },
        {
          "indexed": false,
          "internalType": "uint256",
          "name": "creatorFee",
          "type": "uint256"
        },
        {
          "indexed": false,
          "internalType": "uint256",
          "name": "ownerRevenue",
          "type": "uint256"
        },
        {
          "indexed": false,
          "internalType": "uint256",
          "name": "value",
          "type": "uint256"
        }
      ],
      "name": "ListingAccepted",
      "type": "event"
    },
    {
      "anonymous": false,
      "inputs": [
        {
          "indexed": true,
          "internalType": "address",
          "name": "nftContractAddress",
          "type": "address"
        },
        {
          "indexed": true,
          "internalType": "uint256",
          "name": "tokenId",
          "type": "uint256"
        },
        {
          "indexed": true,
          "internalType": "address",
          "name": "owner",
          "type": "address"
        },
        {
          "indexed": false,
          "internalType": "uint256",
          "name": "nonce",
          "type": "uint256"
        }
      ],
      "name": "ListingCanceled",
      "type": "event"
    },
    {
      "anonymous": false,
      "inputs": [
        {
          "indexed": true,
          "internalType": "address",
          "name": "previousOwner",
          "type": "address"
        },
        {
          "indexed": true,
          "internalType": "address",
          "name": "newOwner",
          "type": "address"
        }
      ],
      "name": "OwnershipTransferred",
      "type": "event"
    },
    {
      "anonymous": false,
      "inputs": [
        {
          "indexed": false,
          "internalType": "uint256",
          "name": "fee",
          "type": "uint256"
        }
      ],
      "name": "UpdateFee",
      "type": "event"
    },
    {
      "anonymous": false,
      "inputs": [
        {
          "indexed": false,
          "internalType": "address",
          "name": "feeRecipient",
          "type": "address"
        }
      ],
      "name": "UpdateFeeRecipient",
      "type": "event"
    },
    {
      "anonymous": false,
      "inputs": [
        {
          "indexed": false,
          "internalType": "address",
          "name": "paymentToken",
          "type": "address"
        }
      ],
      "name": "UpdatePaymentToken",
      "type": "event"
    },
    {
      "inputs": [
        {
          "components": [
            {
              "internalType": "address",
              "name": "nftContractAddress",
              "type": "address"
            },
            {
              "internalType": "address",
              "name": "bidder",
              "type": "address"
            },
            {
              "internalType": "uint256",
              "name": "tokenId",
              "type": "uint256"
            },
            {
              "internalType": "uint256",
              "name": "quantity",
              "type": "uint256"
            },
            {
              "internalType": "uint256",
              "name": "pricePerItem",
              "type": "uint256"
            },
            {
              "internalType": "uint256",
              "name": "expiry",
              "type": "uint256"
            },
            {
              "internalType": "uint256",
              "name": "nonce",
              "type": "uint256"
            },
            {
              "internalType": "bytes32",
              "name": "r",
              "type": "bytes32"
            },
            {
              "internalType": "bytes32",
              "name": "s",
              "type": "bytes32"
            },
            {
              "internalType": "uint8",
              "name": "v",
              "type": "uint8"
            }
          ],
          "internalType": "struct HiveMarketplaceV2.Bid",
          "name": "bid",
          "type": "tuple"
        }
      ],
      "name": "AcceptBid",
      "outputs": [],
      "stateMutability": "nonpayable",
      "type": "function"
    },
    {
      "inputs": [
        {
          "components": [
            {
              "internalType": "address",
              "name": "nftContractAddress",
              "type": "address"
            },
            {
              "internalType": "address",
              "name": "owner",
              "type": "address"
            },
            {
              "internalType": "uint256",
              "name": "tokenId",
              "type": "uint256"
            },
            {
              "internalType": "uint256",
              "name": "quantity",
              "type": "uint256"
            },
            {
              "internalType": "uint256",
              "name": "pricePerItem",
              "type": "uint256"
            },
            {
              "internalType": "uint256",
              "name": "expiry",
              "type": "uint256"
            },
            {
              "internalType": "uint256",
              "name": "nonce",
              "type": "uint256"
            },
            {
              "internalType": "bytes32",
              "name": "r",
              "type": "bytes32"
            },
            {
              "internalType": "bytes32",
              "name": "s",
              "type": "bytes32"
            },
            {
              "internalType": "uint8",
              "name": "v",
              "type": "uint8"
            }
          ],
          "internalType": "struct HiveMarketplaceV2.Listing",
          "name": "listing",
          "type": "tuple"
        }
      ],
      "name": "AcceptListing",
      "outputs": [],
      "stateMutability": "nonpayable",
      "type": "function"
    },
    {
      "inputs": [],
      "name": "BASIS_POINTS",
      "outputs": [
        {
          "internalType": "uint256",
          "name": "",
          "type": "uint256"
        }
      ],
      "stateMutability": "view",
      "type": "function"
    },
    {
      "inputs": [
        {
          "components": [
            {
              "internalType": "address",
              "name": "nftContractAddress",
              "type": "address"
            },
            {
              "internalType": "address",
              "name": "bidder",
              "type": "address"
            },
            {
              "internalType": "uint256",
              "name": "tokenId",
              "type": "uint256"
            },
            {
              "internalType": "uint256",
              "name": "quantity",
              "type": "uint256"
            },
            {
              "internalType": "uint256",
              "name": "pricePerItem",
              "type": "uint256"
            },
            {
              "internalType": "uint256",
              "name": "expiry",
              "type": "uint256"
            },
            {
              "internalType": "uint256",
              "name": "nonce",
              "type": "uint256"
            },
            {
              "internalType": "bytes32",
              "name": "r",
              "type": "bytes32"
            },
            {
              "internalType": "bytes32",
              "name": "s",
              "type": "bytes32"
            },
            {
              "internalType": "uint8",
              "name": "v",
              "type": "uint8"
            }
          ],
          "internalType": "struct HiveMarketplaceV2.Bid",
          "name": "bid",
          "type": "tuple"
        }
      ],
      "name": "CancelBid",
      "outputs": [],
      "stateMutability": "nonpayable",
      "type": "function"
    },
    {
      "inputs": [
        {
          "components": [
            {
              "internalType": "address",
              "name": "nftContractAddress",
              "type": "address"
            },
            {
              "internalType": "address",
              "name": "owner",
              "type": "address"
            },
            {
              "internalType": "uint256",
              "name": "tokenId",
              "type": "uint256"
            },
            {
              "internalType": "uint256",
              "name": "quantity",
              "type": "uint256"
            },
            {
              "internalType": "uint256",
              "name": "pricePerItem",
              "type": "uint256"
            },
            {
              "internalType": "uint256",
              "name": "expiry",
              "type": "uint256"
            },
            {
              "internalType": "uint256",
              "name": "nonce",
              "type": "uint256"
            },
            {
              "internalType": "bytes32",
              "name": "r",
              "type": "bytes32"
            },
            {
              "internalType": "bytes32",
              "name": "s",
              "type": "bytes32"
            },
            {
              "internalType": "uint8",
              "name": "v",
              "type": "uint8"
            }
          ],
          "internalType": "struct HiveMarketplaceV2.Listing",
          "name": "listing",
          "type": "tuple"
        }
      ],
      "name": "CancelListing",
      "outputs": [],
      "stateMutability": "nonpayable",
      "type": "function"
    },
    {
      "inputs": [
        {
          "components": [
            {
              "internalType": "address",
              "name": "nftContractAddress",
              "type": "address"
            },
            {
              "internalType": "address",
              "name": "bidder",
              "type": "address"
            },
            {
              "internalType": "uint256",
              "name": "tokenId",
              "type": "uint256"
            },
            {
              "internalType": "uint256",
              "name": "quantity",
              "type": "uint256"
            },
            {
              "internalType": "uint256",
              "name": "pricePerItem",
              "type": "uint256"
            },
            {
              "internalType": "uint256",
              "name": "expiry",
              "type": "uint256"
            },
            {
              "internalType": "uint256",
              "name": "nonce",
              "type": "uint256"
            },
            {
              "internalType": "bytes32",
              "name": "r",
              "type": "bytes32"
            },
            {
              "internalType": "bytes32",
              "name": "s",
              "type": "bytes32"
            },
            {
              "internalType": "uint8",
              "name": "v",
              "type": "uint8"
            }
          ],
          "internalType": "struct HiveMarketplaceV2.Bid",
          "name": "bid",
          "type": "tuple"
        }
      ],
      "name": "ValidBid",
      "outputs": [
        {
          "internalType": "bool",
          "name": "",
          "type": "bool"
        }
      ],
      "stateMutability": "view",
      "type": "function"
    },
    {
      "inputs": [
        {
          "components": [
            {
              "internalType": "address",
              "name": "nftContractAddress",
              "type": "address"
            },
            {
              "internalType": "address",
              "name": "owner",
              "type": "address"
            },
            {
              "internalType": "uint256",
              "name": "tokenId",
              "type": "uint256"
            },
            {
              "internalType": "uint256",
              "name": "quantity",
              "type": "uint256"
            },
            {
              "internalType": "uint256",
              "name": "pricePerItem",
              "type": "uint256"
            },
            {
              "internalType": "uint256",
              "name": "expiry",
              "type": "uint256"
            },
            {
              "internalType": "uint256",
              "name": "nonce",
              "type": "uint256"
            },
            {
              "internalType": "bytes32",
              "name": "r",
              "type": "bytes32"
            },
            {
              "internalType": "bytes32",
              "name": "s",
              "type": "bytes32"
            },
            {
              "internalType": "uint8",
              "name": "v",
              "type": "uint8"
            }
          ],
          "internalType": "struct HiveMarketplaceV2.Listing",
          "name": "listing",
          "type": "tuple"
        }
      ],
      "name": "ValidListing",
      "outputs": [
        {
          "internalType": "bool",
          "name": "",
          "type": "bool"
        }
      ],
      "stateMutability": "view",
      "type": "function"
    },
    {
      "inputs": [
        {
          "internalType": "address",
          "name": "_nft",
          "type": "address"
        },
        {
          "internalType": "address",
          "name": "_royaltyRecipient",
          "type": "address"
        },
        {
          "internalType": "uint256",
          "name": "_royaltyFee",
          "type": "uint256"
        }
      ],
      "name": "addToWhitelist",
      "outputs": [],
      "stateMutability": "nonpayable",
      "type": "function"
    },
    {
      "inputs": [],
      "name": "fee",
      "outputs": [
        {
          "internalType": "uint256",
          "name": "",
          "type": "uint256"
        }
      ],
      "stateMutability": "view",
      "type": "function"
    },
    {
      "inputs": [],
      "name": "feeReceipient",
      "outputs": [
        {
          "internalType": "address",
          "name": "",
          "type": "address"
        }
      ],
      "stateMutability": "view",
      "type": "function"
    },
    {
      "inputs": [],
      "name": "owner",
      "outputs": [
        {
          "internalType": "address",
          "name": "",
          "type": "address"
        }
      ],
      "stateMutability": "view",
      "type": "function"
    },
    {
      "inputs": [],
      "name": "paymentToken",
      "outputs": [
        {
          "internalType": "address",
          "name": "",
          "type": "address"
        }
      ],
      "stateMutability": "view",
      "type": "function"
    },
    {
      "inputs": [
        {
          "internalType": "address",
          "name": "_nft",
          "type": "address"
        }
      ],
      "name": "removeFromWhitelist",
      "outputs": [],
      "stateMutability": "nonpayable",
      "type": "function"
    },
    {
      "inputs": [],
      "name": "renounceOwnership",
      "outputs": [],
      "stateMutability": "nonpayable",
      "type": "function"
    },
    {
      "inputs": [
        {
          "internalType": "uint256",
          "name": "_fee",
          "type": "uint256"
        }
      ],
      "name": "setFee",
      "outputs": [],
      "stateMutability": "nonpayable",
      "type": "function"
    },
    {
      "inputs": [
        {
          "internalType": "address",
          "name": "_feeRecipient",
          "type": "address"
        }
      ],
      "name": "setFeeRecipient",
      "outputs": [],
      "stateMutability": "nonpayable",
      "type": "function"
    },
    {
      "inputs": [
        {
          "internalType": "address",
          "name": "_paymentToken",
          "type": "address"
        }
      ],
      "name": "setPaymentToken",
      "outputs": [],
      "stateMutability": "nonpayable",
      "type": "function"
    },
    {
      "inputs": [
        {
          "internalType": "address",
          "name": "newOwner",
          "type": "address"
        }
      ],
      "name": "transferOwnership",
      "outputs": [],
      "stateMutability": "nonpayable",
      "type": "function"
    },
    {
      "inputs": [
        {
          "internalType": "address",
          "name": "_nftAddress",
          "type": "address"
        },
        {
          "internalType": "address",
          "name": "_royaltyRecipient",
          "type": "address"
        },
        {
          "internalType": "uint256",
          "name": "_royaltyFee",
          "type": "uint256"
        }
      ],
      "name": "updateWhitelist",
      "outputs": [],
      "stateMutability": "nonpayable",
      "type": "function"
    },
    {
      "inputs": [
        {
          "internalType": "address",
          "name": "",
          "type": "address"
        }
      ],
      "name": "whitelistedCollections",
      "outputs": [
        {
          "internalType": "address",
          "name": "royaltyRecipient",
          "type": "address"
        },
        {
          "internalType": "uint256",
          "name": "royaltyFee",
          "type": "uint256"
        }
      ],
      "stateMutability": "view",
      "type": "function"
    }
  ],
  "bytecode": "0x60806040523480156200001157600080fd5b5062000032620000266200004f60201b60201c565b6200005760201b60201c565b60018081905550620000496200011b60201b60201c565b620002ca565b600033905090565b60008060009054906101000a900473ffffffffffffffffffffffffffffffffffffffff169050816000806101000a81548173ffffffffffffffffffffffffffffffffffffffff021916908373ffffffffffffffffffffffffffffffffffffffff1602179055508173ffffffffffffffffffffffffffffffffffffffff168173ffffffffffffffffffffffffffffffffffffffff167f8be0079c531659141344cd1fd0a4f28419497f9722a3daafe3b4186f6b6457e060405160405180910390a35050565b60004690507f8b73c3c69bb8fe3d512ecc4cf759cc79239f7b179b0ffacaa9a75d522b39400f6040518060400160405280601281526020017f484956454e46544d61726b6574706c6163650000000000000000000000000000815250805190602001206040518060400160405280600181526020017f3100000000000000000000000000000000000000000000000000000000000000815250805190602001208330604051602001620001d395949392919062000225565b6040516020818303038152906040528051906020012060078190555050565b620001fd8162000282565b82525050565b6200020e8162000296565b82525050565b6200021f81620002c0565b82525050565b600060a0820190506200023c600083018862000203565b6200024b602083018762000203565b6200025a604083018662000203565b62000269606083018562000214565b620002786080830184620001f2565b9695505050505050565b60006200028f82620002a0565b9050919050565b6000819050919050565b600073ffffffffffffffffffffffffffffffffffffffff82169050919050565b6000819050919050565b613bce80620002da6000396000f3fe608060405234801561001057600080fd5b506004361061012c5760003560e01c80638da5cb5b116100ad578063ddca3f4311610071578063ddca3f4314610306578063e09e83e314610324578063e1f1c4a714610340578063e74b981b1461035e578063f2fde38b1461037a5761012c565b80638da5cb5b146102645780638fe4111b146102825780639ed0fcc01461029e578063b54e96fb146102ba578063d182c98c146102ea5761012c565b80634f05cbd8116100f45780634f05cbd8146101d557806369fe0e2d146102065780636a326ab114610222578063715018a61461023e5780638ab1d681146102485761012c565b80630c42946714610131578063115c54ed1461014d5780632977c5321461017d5780633013ce29146101995780633740ebb3146101b7575b600080fd5b61014b60048036038101906101469190612d36565b610396565b005b61016760048036038101906101629190612d36565b6105c7565b604051610174919061329c565b60405180910390f35b61019760048036038101906101929190612d60565b610856565b005b6101a1610a87565b6040516101ae9190613174565b60405180910390f35b6101bf610aad565b6040516101cc9190613174565b60405180910390f35b6101ef60048036038101906101ea9190612c6c565b610ad3565b6040516101fd929190613220565b60405180910390f35b610220600480360381019061021b9190612d8a565b610b17565b005b61023c60048036038101906102379190612c6c565b610c18565b005b610246610d0f565b005b610262600480360381019061025d9190612c6c565b610d97565b005b61026c610f45565b6040516102799190613174565b60405180910390f35b61029c60048036038101906102979190612d36565b610f6e565b005b6102b860048036038101906102b39190612d60565b611586565b005b6102d460048036038101906102cf9190612d60565b611ba0565b6040516102e1919061329c565b60405180910390f35b61030460048036038101906102ff9190612cbe565b611fb0565b005b61030e6121b1565b60405161031b9190613604565b60405180910390f35b61033e60048036038101906103399190612cbe565b6121b7565b005b6103486123b6565b6040516103559190613604565b60405180910390f35b61037860048036038101906103739190612c6c565b6123bc565b005b610394600480360381019061038f9190612c6c565b6124b3565b005b60006007547faa27b2bf4798f706da590ae705a985c6905de01f72d76939d6983628a577f7be8360000160208101906103cf9190612c6c565b846040013533866080013587606001358860a001358960c00135604051602001610400989796959493929190613344565b6040516020818303038152906040528051906020012060405160200161042792919061313d565b6040516020818303038152906040528051906020012090503373ffffffffffffffffffffffffffffffffffffffff166001828461012001602081019061046d9190612ddc565b8560e001358661010001356040516000815260200160405260405161049594939291906133c2565b6020604051602081039080840390855afa1580156104b7573d6000803e3d6000fd5b5050506020604051035173ffffffffffffffffffffffffffffffffffffffff1614610517576040517f08c379a000000000000000000000000000000000000000000000000000000000815260040161050e90613524565b60405180910390fd5b60016006600083815260200190815260200160002060006101000a81548160ff0219169083151502179055503373ffffffffffffffffffffffffffffffffffffffff1682604001358360000160208101906105729190612c6c565b73ffffffffffffffffffffffffffffffffffffffff167ffc7e8f60b93483ac279477fd6d6c1a674a50580ac354d10507e914236b416b848560c001356040516105bb9190613604565b60405180910390a45050565b6000806007547faa27b2bf4798f706da590ae705a985c6905de01f72d76939d6983628a577f7be8460000160208101906106019190612c6c565b85604001358660200160208101906106199190612c6c565b876080013588606001358960a001358a60c00135604051602001610644989796959493929190613344565b6040516020818303038152906040528051906020012060405160200161066b92919061313d565b6040516020818303038152906040528051906020012090506000600260009054906101000a900473ffffffffffffffffffffffffffffffffffffffff1673ffffffffffffffffffffffffffffffffffffffff166370a082318560200160208101906106d69190612c6c565b6040518263ffffffff1660e01b81526004016106f29190613174565b60206040518083038186803b15801561070a57600080fd5b505afa15801561071e573d6000803e3d6000fd5b505050506040513d601f19601f820116820180604052508101906107429190612db3565b90508360200160208101906107579190612c6c565b73ffffffffffffffffffffffffffffffffffffffff16600183866101200160208101906107849190612ddc565b8760e00135886101000135604051600081526020016040526040516107ac94939291906133c2565b6020604051602081039080840390855afa1580156107ce573d6000803e3d6000fd5b5050506020604051035173ffffffffffffffffffffffffffffffffffffffff1614801561081f5750600015156006600084815260200190815260200160002060009054906101000a900460ff161515145b801561083e57508360800135846060013561083a919061369e565b8110155b801561084d5750428460a00135115b92505050919050565b60006007547faa27b2bf4798f706da590ae705a985c6905de01f72d76939d6983628a577f7be83600001602081019061088f9190612c6c565b846040013533866080013587606001358860a001358960c001356040516020016108c0989796959493929190613344565b604051602081830303815290604052805190602001206040516020016108e792919061313d565b6040516020818303038152906040528051906020012090503373ffffffffffffffffffffffffffffffffffffffff166001828461012001602081019061092d9190612ddc565b8560e001358661010001356040516000815260200160405260405161095594939291906133c2565b6020604051602081039080840390855afa158015610977573d6000803e3d6000fd5b5050506020604051035173ffffffffffffffffffffffffffffffffffffffff16146109d7576040517f08c379a00000000000000000000000000000000000000000000000000000000081526004016109ce90613524565b60405180910390fd5b60016006600083815260200190815260200160002060006101000a81548160ff0219169083151502179055503373ffffffffffffffffffffffffffffffffffffffff168260400135836000016020810190610a329190612c6c565b73ffffffffffffffffffffffffffffffffffffffff167f0a48f29152340b912fb15883b6f5f438254d492050799bbf102f85bb88219e168560c00135604051610a7b9190613604565b60405180910390a45050565b600260009054906101000a900473ffffffffffffffffffffffffffffffffffffffff1681565b600460009054906101000a900473ffffffffffffffffffffffffffffffffffffffff1681565b60056020528060005260406000206000915090508060000160009054906101000a900473ffffffffffffffffffffffffffffffffffffffff16908060010154905082565b610b1f6125ab565b73ffffffffffffffffffffffffffffffffffffffff16610b3d610f45565b73ffffffffffffffffffffffffffffffffffffffff1614610b93576040517f08c379a0000000000000000000000000000000000000000000000000000000008152600401610b8a90613544565b60405180910390fd5b6127108110610bd7576040517f08c379a0000000000000000000000000000000000000000000000000000000008152600401610bce90613584565b60405180910390fd5b806003819055507f38e229a7f3f9c329892d08eb37c4e91ccac6d12c798d394990ca4f56028ec26681604051610c0d9190613604565b60405180910390a150565b610c206125ab565b73ffffffffffffffffffffffffffffffffffffffff16610c3e610f45565b73ffffffffffffffffffffffffffffffffffffffff1614610c94576040517f08c379a0000000000000000000000000000000000000000000000000000000008152600401610c8b90613544565b60405180910390fd5b80600260006101000a81548173ffffffffffffffffffffffffffffffffffffffff021916908373ffffffffffffffffffffffffffffffffffffffff1602179055507fc2125241dd55c14b337aea21dcef108a9fd20a816ae6d4d18560572afce99c4e81604051610d049190613174565b60405180910390a150565b610d176125ab565b73ffffffffffffffffffffffffffffffffffffffff16610d35610f45565b73ffffffffffffffffffffffffffffffffffffffff1614610d8b576040517f08c379a0000000000000000000000000000000000000000000000000000000008152600401610d8290613544565b60405180910390fd5b610d9560006125b3565b565b610d9f6125ab565b73ffffffffffffffffffffffffffffffffffffffff16610dbd610f45565b73ffffffffffffffffffffffffffffffffffffffff1614610e13576040517f08c379a0000000000000000000000000000000000000000000000000000000008152600401610e0a90613544565b60405180910390fd5b806000600560008373ffffffffffffffffffffffffffffffffffffffff1673ffffffffffffffffffffffffffffffffffffffff1681526020019081526020016000206001015411610e99576040517f08c379a0000000000000000000000000000000000000000000000000000000008152600401610e9090613564565b60405180910390fd5b600560008373ffffffffffffffffffffffffffffffffffffffff1673ffffffffffffffffffffffffffffffffffffffff168152602001908152602001600020600080820160006101000a81549073ffffffffffffffffffffffffffffffffffffffff0219169055600182016000905550507fa0691bd707b2f65c33c8343d61c274df72c6b5007937dcfbc31aa5a0d0f6fe3c82604051610f399190613174565b60405180910390a15050565b60008060009054906101000a900473ffffffffffffffffffffffffffffffffffffffff16905090565b60026001541415610fb4576040517f08c379a0000000000000000000000000000000000000000000000000000000008152600401610fab906135e4565b60405180910390fd5b6002600181905550806000016020810190610fcf9190612c6c565b6000600560008373ffffffffffffffffffffffffffffffffffffffff1673ffffffffffffffffffffffffffffffffffffffff1681526020019081526020016000206001015411611054576040517f08c379a000000000000000000000000000000000000000000000000000000000815260040161104b90613564565b60405180910390fd5b60006007547faa27b2bf4798f706da590ae705a985c6905de01f72d76939d6983628a577f7be84600001602081019061108d9190612c6c565b85604001358660200160208101906110a59190612c6c565b876080013588606001358960a001358a60c001356040516020016110d0989796959493929190613344565b604051602081830303815290604052805190602001206040516020016110f792919061313d565b6040516020818303038152906040528051906020012090508260200160208101906111229190612c6c565b73ffffffffffffffffffffffffffffffffffffffff166001828561012001602081019061114f9190612ddc565b8660e001358761010001356040516000815260200160405260405161117794939291906133c2565b6020604051602081039080840390855afa158015611199573d6000803e3d6000fd5b5050506020604051035173ffffffffffffffffffffffffffffffffffffffff161480156111ea5750600015156006600083815260200190815260200160002060009054906101000a900460ff161515145b611229576040517f08c379a000000000000000000000000000000000000000000000000000000000815260040161122090613504565b60405180910390fd5b60016006600083815260200190815260200160002060006101000a81548160ff021916908315150217905550428360a001351161129b576040517f08c379a000000000000000000000000000000000000000000000000000000000815260040161129290613464565b60405180910390fd5b8260000160208101906112ae9190612c6c565b73ffffffffffffffffffffffffffffffffffffffff166301ffc9a76380ac58cd60e01b6040518263ffffffff1660e01b81526004016112ed9190613407565b60206040518083038186803b15801561130557600080fd5b505afa158015611319573d6000803e3d6000fd5b505050506040513d601f19601f8201168201806040525081019061133d9190612d0d565b156113de578260000160208101906113559190612c6c565b73ffffffffffffffffffffffffffffffffffffffff166342842e0e338560200160208101906113849190612c6c565b86604001356040518463ffffffff1660e01b81526004016113a79392919061318f565b600060405180830381600087803b1580156113c157600080fd5b505af11580156113d5573d6000803e3d6000fd5b5050505061148d565b8260000160208101906113f19190612c6c565b73ffffffffffffffffffffffffffffffffffffffff1663f242432a338560200160208101906114209190612c6c565b86604001358760600135604051806020016040528060008152506040518663ffffffff1660e01b815260040161145a9594939291906131c6565b600060405180830381600087803b15801561147457600080fd5b505af1158015611488573d6000803e3d6000fd5b505050505b6000836060013584608001356114a3919061369e565b905060008060006114da84338960200160208101906114c29190612c6c565b8a60000160208101906114d59190612c6c565b612677565b9250925092503373ffffffffffffffffffffffffffffffffffffffff16876040013588600001602081019061150f9190612c6c565b73ffffffffffffffffffffffffffffffffffffffff167f4039b02a048d21ee8c5469ec08d5876102f8ee44242b696d4927382c7b6a5eb98a60200160208101906115599190612c6c565b8787878b60405161156e959493929190613249565b60405180910390a45050505050506001808190555050565b600260015414156115cc576040517f08c379a00000000000000000000000000000000000000000000000000000000081526004016115c3906135e4565b60405180910390fd5b60026001819055508060000160208101906115e79190612c6c565b6000600560008373ffffffffffffffffffffffffffffffffffffffff1673ffffffffffffffffffffffffffffffffffffffff168152602001908152602001600020600101541161166c576040517f08c379a000000000000000000000000000000000000000000000000000000000815260040161166390613564565b60405180910390fd5b60006007547ff4af86528321cd170810c5d6d16072d1b38dc43c15c3a810816da5bae79370838460000160208101906116a59190612c6c565b85604001358660200160208101906116bd9190612c6c565b33886080013589606001358a60a001358b60c001356040516020016116ea999897969594939291906132b7565b6040516020818303038152906040528051906020012060405160200161171192919061313d565b60405160208183030381529060405280519060200120905082602001602081019061173c9190612c6c565b73ffffffffffffffffffffffffffffffffffffffff16600182856101200160208101906117699190612ddc565b8660e001358761010001356040516000815260200160405260405161179194939291906133c2565b6020604051602081039080840390855afa1580156117b3573d6000803e3d6000fd5b5050506020604051035173ffffffffffffffffffffffffffffffffffffffff161480156118045750600015156006600083815260200190815260200160002060009054906101000a900460ff161515145b611843576040517f08c379a000000000000000000000000000000000000000000000000000000000815260040161183a90613444565b60405180910390fd5b60016006600083815260200190815260200160002060006101000a81548160ff021916908315150217905550428360a00135116118b5576040517f08c379a00000000000000000000000000000000000000000000000000000000081526004016118ac906134c4565b60405180910390fd5b8260000160208101906118c89190612c6c565b73ffffffffffffffffffffffffffffffffffffffff166301ffc9a76380ac58cd60e01b6040518263ffffffff1660e01b81526004016119079190613407565b60206040518083038186803b15801561191f57600080fd5b505afa158015611933573d6000803e3d6000fd5b505050506040513d601f19601f820116820180604052508101906119579190612d0d565b156119f85782600001602081019061196f9190612c6c565b73ffffffffffffffffffffffffffffffffffffffff166342842e0e84602001602081019061199d9190612c6c565b3386604001356040518463ffffffff1660e01b81526004016119c19392919061318f565b600060405180830381600087803b1580156119db57600080fd5b505af11580156119ef573d6000803e3d6000fd5b50505050611aa7565b826000016020810190611a0b9190612c6c565b73ffffffffffffffffffffffffffffffffffffffff1663f242432a846020016020810190611a399190612c6c565b3386604001358760600135604051806020016040528060008152506040518663ffffffff1660e01b8152600401611a749594939291906131c6565b600060405180830381600087803b158015611a8e57600080fd5b505af1158015611aa2573d6000803e3d6000fd5b505050505b600083606001358460800135611abd919061369e565b90506000806000611af484886020016020810190611adb9190612c6c565b338a6000016020810190611aef9190612c6c565b612677565b925092509250866020016020810190611b0d9190612c6c565b73ffffffffffffffffffffffffffffffffffffffff168760400135886000016020810190611b3b9190612c6c565b73ffffffffffffffffffffffffffffffffffffffff167fafcc183fdfbd763b183ddab7973b985d4ef1830fb2e8e85a304124a33ebff75e338787878b604051611b88959493929190613249565b60405180910390a45050505050506001808190555050565b6000806007547faa27b2bf4798f706da590ae705a985c6905de01f72d76939d6983628a577f7be846000016020810190611bda9190612c6c565b8560400135866020016020810190611bf29190612c6c565b876080013588606001358960a001358a60c00135604051602001611c1d989796959493929190613344565b60405160208183030381529060405280519060200120604051602001611c4492919061313d565b604051602081830303815290604052805190602001209050826000016020810190611c6f9190612c6c565b73ffffffffffffffffffffffffffffffffffffffff166301ffc9a76380ac58cd60e01b6040518263ffffffff1660e01b8152600401611cae9190613407565b60206040518083038186803b158015611cc657600080fd5b505afa158015611cda573d6000803e3d6000fd5b505050506040513d601f19601f82011682018060405250810190611cfe9190612d0d565b15611df557826020016020810190611d169190612c6c565b73ffffffffffffffffffffffffffffffffffffffff16836000016020810190611d3f9190612c6c565b73ffffffffffffffffffffffffffffffffffffffff16636352211e85604001356040518263ffffffff1660e01b8152600401611d7b9190613604565b60206040518083038186803b158015611d9357600080fd5b505afa158015611da7573d6000803e3d6000fd5b505050506040513d601f19601f82011682018060405250810190611dcb9190612c95565b73ffffffffffffffffffffffffffffffffffffffff1614611df0576000915050611fab565b611ebd565b8260600135836000016020810190611e0d9190612c6c565b73ffffffffffffffffffffffffffffffffffffffff1662fdd58e856020016020810190611e3a9190612c6c565b86604001356040518363ffffffff1660e01b8152600401611e5c929190613220565b60206040518083038186803b158015611e7457600080fd5b505afa158015611e88573d6000803e3d6000fd5b505050506040513d601f19601f82011682018060405250810190611eac9190612db3565b1015611ebc576000915050611fab565b5b826020016020810190611ed09190612c6c565b73ffffffffffffffffffffffffffffffffffffffff1660018285610120016020810190611efd9190612ddc565b8660e0013587610100013560405160008152602001604052604051611f2594939291906133c2565b6020604051602081039080840390855afa158015611f47573d6000803e3d6000fd5b5050506020604051035173ffffffffffffffffffffffffffffffffffffffff16148015611f985750600015156006600083815260200190815260200160002060009054906101000a900460ff161515145b8015611fa75750428360a00135115b9150505b919050565b611fb86125ab565b73ffffffffffffffffffffffffffffffffffffffff16611fd6610f45565b73ffffffffffffffffffffffffffffffffffffffff161461202c576040517f08c379a000000000000000000000000000000000000000000000000000000000815260040161202390613544565b60405180910390fd5b826000600560008373ffffffffffffffffffffffffffffffffffffffff1673ffffffffffffffffffffffffffffffffffffffff16815260200190815260200160002060010154116120b2576040517f08c379a00000000000000000000000000000000000000000000000000000000081526004016120a990613564565b60405180910390fd5b60405180604001604052808473ffffffffffffffffffffffffffffffffffffffff16815260200183815250600560008673ffffffffffffffffffffffffffffffffffffffff1673ffffffffffffffffffffffffffffffffffffffff16815260200190815260200160002060008201518160000160006101000a81548173ffffffffffffffffffffffffffffffffffffffff021916908373ffffffffffffffffffffffffffffffffffffffff160217905550602082015181600101559050507f1e37bc437a6eef66beaf65888fcbb24a15cbac885105fc4b3cb99f3e1a90da218484846040516121a39392919061318f565b60405180910390a150505050565b60035481565b6121bf6125ab565b73ffffffffffffffffffffffffffffffffffffffff166121dd610f45565b73ffffffffffffffffffffffffffffffffffffffff1614612233576040517f08c379a000000000000000000000000000000000000000000000000000000000815260040161222a90613544565b60405180910390fd5b6000600560008573ffffffffffffffffffffffffffffffffffffffff1673ffffffffffffffffffffffffffffffffffffffff16815260200190815260200160002060010154146122b8576040517f08c379a00000000000000000000000000000000000000000000000000000000081526004016122af906134a4565b60405180910390fd5b60405180604001604052808373ffffffffffffffffffffffffffffffffffffffff16815260200182815250600560008573ffffffffffffffffffffffffffffffffffffffff1673ffffffffffffffffffffffffffffffffffffffff16815260200190815260200160002060008201518160000160006101000a81548173ffffffffffffffffffffffffffffffffffffffff021916908373ffffffffffffffffffffffffffffffffffffffff160217905550602082015181600101559050507ffbd45b78399bdcbdef5bdce5ed51abb5fd3fb3f2baf9622a3d2e81b76c159d308383836040516123a99392919061318f565b60405180910390a1505050565b61271081565b6123c46125ab565b73ffffffffffffffffffffffffffffffffffffffff166123e2610f45565b73ffffffffffffffffffffffffffffffffffffffff1614612438576040517f08c379a000000000000000000000000000000000000000000000000000000000815260040161242f90613544565b60405180910390fd5b80600460006101000a81548173ffffffffffffffffffffffffffffffffffffffff021916908373ffffffffffffffffffffffffffffffffffffffff1602179055507f6632de8ab33c46549f7bb29f647ea0d751157b25fe6a14b1bcc7527cdfbeb79c816040516124a89190613174565b60405180910390a150565b6124bb6125ab565b73ffffffffffffffffffffffffffffffffffffffff166124d9610f45565b73ffffffffffffffffffffffffffffffffffffffff161461252f576040517f08c379a000000000000000000000000000000000000000000000000000000000815260040161252690613544565b60405180910390fd5b600073ffffffffffffffffffffffffffffffffffffffff168173ffffffffffffffffffffffffffffffffffffffff16141561259f576040517f08c379a000000000000000000000000000000000000000000000000000000000815260040161259690613484565b60405180910390fd5b6125a8816125b3565b50565b600033905090565b60008060009054906101000a900473ffffffffffffffffffffffffffffffffffffffff169050816000806101000a81548173ffffffffffffffffffffffffffffffffffffffff021916908373ffffffffffffffffffffffffffffffffffffffff1602179055508173ffffffffffffffffffffffffffffffffffffffff168173ffffffffffffffffffffffffffffffffffffffff167f8be0079c531659141344cd1fd0a4f28419497f9722a3daafe3b4186f6b6457e060405160405180910390a35050565b6000806000808711156128a65761271060035488612695919061369e565b61269f919061366d565b92506000600560008673ffffffffffffffffffffffffffffffffffffffff1673ffffffffffffffffffffffffffffffffffffffff1681526020019081526020016000206040518060400160405290816000820160009054906101000a900473ffffffffffffffffffffffffffffffffffffffff1673ffffffffffffffffffffffffffffffffffffffff1673ffffffffffffffffffffffffffffffffffffffff1681526020016001820154815250509050612710816020015189612762919061369e565b61276c919061366d565b92506127df86600460009054906101000a900473ffffffffffffffffffffffffffffffffffffffff1686600260009054906101000a900473ffffffffffffffffffffffffffffffffffffffff1673ffffffffffffffffffffffffffffffffffffffff166128b0909392919063ffffffff16565b600083111561283c5761283b86826000015185600260009054906101000a900473ffffffffffffffffffffffffffffffffffffffff1673ffffffffffffffffffffffffffffffffffffffff166128b0909392919063ffffffff16565b5b82848961284991906136f8565b61285391906136f8565b91506128a4868884600260009054906101000a900473ffffffffffffffffffffffffffffffffffffffff1673ffffffffffffffffffffffffffffffffffffffff166128b0909392919063ffffffff16565b505b9450945094915050565b612933846323b872dd60e01b8585856040516024016128d19392919061318f565b604051602081830303815290604052907bffffffffffffffffffffffffffffffffffffffffffffffffffffffff19166020820180517bffffffffffffffffffffffffffffffffffffffffffffffffffffffff8381831617835250505050612939565b50505050565b600061299b826040518060400160405280602081526020017f5361666545524332303a206c6f772d6c6576656c2063616c6c206661696c65648152508573ffffffffffffffffffffffffffffffffffffffff16612a009092919063ffffffff16565b90506000815111156129fb57808060200190518101906129bb9190612d0d565b6129fa576040517f08c379a00000000000000000000000000000000000000000000000000000000081526004016129f1906135c4565b60405180910390fd5b5b505050565b6060612a0f8484600085612a18565b90509392505050565b606082471015612a5d576040517f08c379a0000000000000000000000000000000000000000000000000000000008152600401612a54906134e4565b60405180910390fd5b612a6685612b2c565b612aa5576040517f08c379a0000000000000000000000000000000000000000000000000000000008152600401612a9c906135a4565b60405180910390fd5b6000808673ffffffffffffffffffffffffffffffffffffffff168587604051612ace9190613126565b60006040518083038185875af1925050503d8060008114612b0b576040519150601f19603f3d011682016040523d82523d6000602084013e612b10565b606091505b5091509150612b20828286612b4f565b92505050949350505050565b6000808273ffffffffffffffffffffffffffffffffffffffff163b119050919050565b60608315612b5f57829050612baf565b600083511115612b725782518084602001fd5b816040517f08c379a0000000000000000000000000000000000000000000000000000000008152600401612ba69190613422565b60405180910390fd5b9392505050565b600081359050612bc581613b3c565b92915050565b600081519050612bda81613b3c565b92915050565b600081519050612bef81613b53565b92915050565b60006101408284031215612c0857600080fd5b81905092915050565b60006101408284031215612c2457600080fd5b81905092915050565b600081359050612c3c81613b6a565b92915050565b600081519050612c5181613b6a565b92915050565b600081359050612c6681613b81565b92915050565b600060208284031215612c7e57600080fd5b6000612c8c84828501612bb6565b91505092915050565b600060208284031215612ca757600080fd5b6000612cb584828501612bcb565b91505092915050565b600080600060608486031215612cd357600080fd5b6000612ce186828701612bb6565b9350506020612cf286828701612bb6565b9250506040612d0386828701612c2d565b9150509250925092565b600060208284031215612d1f57600080fd5b6000612d2d84828501612be0565b91505092915050565b60006101408284031215612d4957600080fd5b6000612d5784828501612bf5565b91505092915050565b60006101408284031215612d7357600080fd5b6000612d8184828501612c11565b91505092915050565b600060208284031215612d9c57600080fd5b6000612daa84828501612c2d565b91505092915050565b600060208284031215612dc557600080fd5b6000612dd384828501612c42565b91505092915050565b600060208284031215612dee57600080fd5b6000612dfc84828501612c57565b91505092915050565b612e0e8161372c565b82525050565b612e1d8161373e565b82525050565b612e2c8161374a565b82525050565b612e43612e3e8261374a565b6137ea565b82525050565b612e5281613754565b82525050565b6000612e638261361f565b612e6d8185613635565b9350612e7d8185602086016137b7565b612e8681613852565b840191505092915050565b6000612e9c8261361f565b612ea68185613646565b9350612eb68185602086016137b7565b80840191505092915050565b6000612ecd8261362a565b612ed78185613651565b9350612ee78185602086016137b7565b612ef081613852565b840191505092915050565b6000612f08602083613651565b9150612f1382613863565b602082019050919050565b6000612f2b601283613651565b9150612f368261388c565b602082019050919050565b6000612f4e602683613651565b9150612f59826138b5565b604082019050919050565b6000612f71601783613651565b9150612f7c82613904565b602082019050919050565b6000612f94601683613651565b9150612f9f8261392d565b602082019050919050565b6000612fb7600283613662565b9150612fc282613956565b600282019050919050565b6000612fda602683613651565b9150612fe58261397f565b604082019050919050565b6000612ffd601c83613651565b9150613008826139ce565b602082019050919050565b6000613020601c83613651565b915061302b826139f7565b602082019050919050565b6000613043602083613651565b915061304e82613a20565b602082019050919050565b6000613066601383613651565b915061307182613a49565b602082019050919050565b6000613089600783613651565b915061309482613a72565b602082019050919050565b60006130ac601d83613651565b91506130b782613a9b565b602082019050919050565b60006130cf602a83613651565b91506130da82613ac4565b604082019050919050565b60006130f2601f83613651565b91506130fd82613b13565b602082019050919050565b613111816137a0565b82525050565b613120816137aa565b82525050565b60006131328284612e91565b915081905092915050565b600061314882612faa565b91506131548285612e32565b6020820191506131648284612e32565b6020820191508190509392505050565b60006020820190506131896000830184612e05565b92915050565b60006060820190506131a46000830186612e05565b6131b16020830185612e05565b6131be6040830184613108565b949350505050565b600060a0820190506131db6000830188612e05565b6131e86020830187612e05565b6131f56040830186613108565b6132026060830185613108565b81810360808301526132148184612e58565b90509695505050505050565b60006040820190506132356000830185612e05565b6132426020830184613108565b9392505050565b600060a08201905061325e6000830188612e05565b61326b6020830187613108565b6132786040830186613108565b6132856060830185613108565b6132926080830184613108565b9695505050505050565b60006020820190506132b16000830184612e14565b92915050565b6000610120820190506132cd600083018c612e23565b6132da602083018b612e05565b6132e7604083018a613108565b6132f46060830189612e05565b6133016080830188612e05565b61330e60a0830187613108565b61331b60c0830186613108565b61332860e0830185613108565b613336610100830184613108565b9a9950505050505050505050565b60006101008201905061335a600083018b612e23565b613367602083018a612e05565b6133746040830189613108565b6133816060830188612e05565b61338e6080830187613108565b61339b60a0830186613108565b6133a860c0830185613108565b6133b560e0830184613108565b9998505050505050505050565b60006080820190506133d76000830187612e23565b6133e46020830186613117565b6133f16040830185612e23565b6133fe6060830184612e23565b95945050505050565b600060208201905061341c6000830184612e49565b92915050565b6000602082019050818103600083015261343c8184612ec2565b905092915050565b6000602082019050818103600083015261345d81612efb565b9050919050565b6000602082019050818103600083015261347d81612f1e565b9050919050565b6000602082019050818103600083015261349d81612f41565b9050919050565b600060208201905081810360008301526134bd81612f64565b9050919050565b600060208201905081810360008301526134dd81612f87565b9050919050565b600060208201905081810360008301526134fd81612fcd565b9050919050565b6000602082019050818103600083015261351d81612ff0565b9050919050565b6000602082019050818103600083015261353d81613013565b9050919050565b6000602082019050818103600083015261355d81613036565b9050919050565b6000602082019050818103600083015261357d81613059565b9050919050565b6000602082019050818103600083015261359d8161307c565b9050919050565b600060208201905081810360008301526135bd8161309f565b9050919050565b600060208201905081810360008301526135dd816130c2565b9050919050565b600060208201905081810360008301526135fd816130e5565b9050919050565b60006020820190506136196000830184613108565b92915050565b600081519050919050565b600081519050919050565b600082825260208201905092915050565b600081905092915050565b600082825260208201905092915050565b600081905092915050565b6000613678826137a0565b9150613683836137a0565b92508261369357613692613823565b5b828204905092915050565b60006136a9826137a0565b91506136b4836137a0565b9250817fffffffffffffffffffffffffffffffffffffffffffffffffffffffffffffffff04831182151516156136ed576136ec6137f4565b5b828202905092915050565b6000613703826137a0565b915061370e836137a0565b925082821015613721576137206137f4565b5b828203905092915050565b600061373782613780565b9050919050565b60008115159050919050565b6000819050919050565b60007fffffffff0000000000000000000000000000000000000000000000000000000082169050919050565b600073ffffffffffffffffffffffffffffffffffffffff82169050919050565b6000819050919050565b600060ff82169050919050565b60005b838110156137d55780820151818401526020810190506137ba565b838111156137e4576000848401525b50505050565b6000819050919050565b7f4e487b7100000000000000000000000000000000000000000000000000000000600052601160045260246000fd5b7f4e487b7100000000000000000000000000000000000000000000000000000000600052601260045260246000fd5b6000601f19601f8301169050919050565b7f4163636570744c697374696e673a20496e76616c6964205369676e6174757265600082015250565b7f4163636570744269643a20455850495245440000000000000000000000000000600082015250565b7f4f776e61626c653a206e6577206f776e657220697320746865207a65726f206160008201527f6464726573730000000000000000000000000000000000000000000000000000602082015250565b7f6e667420616c72656164792077686974656c6973746564000000000000000000600082015250565b7f4163636570744c697374696e673a204558504952454400000000000000000000600082015250565b7f1901000000000000000000000000000000000000000000000000000000000000600082015250565b7f416464726573733a20696e73756666696369656e742062616c616e636520666f60008201527f722063616c6c0000000000000000000000000000000000000000000000000000602082015250565b7f4163636570744269643a20496e76616c6964205369676e617475726500000000600082015250565b7f43616e63656c4269643a20494e56414c49445f5349474e415455524500000000600082015250565b7f4f776e61626c653a2063616c6c6572206973206e6f7420746865206f776e6572600082015250565b7f6e6674206e6f742077686974656c697374656400000000000000000000000000600082015250565b7f6d61782066656500000000000000000000000000000000000000000000000000600082015250565b7f416464726573733a2063616c6c20746f206e6f6e2d636f6e7472616374000000600082015250565b7f5361666545524332303a204552433230206f7065726174696f6e20646964206e60008201527f6f74207375636365656400000000000000000000000000000000000000000000602082015250565b7f5265656e7472616e637947756172643a207265656e7472616e742063616c6c00600082015250565b613b458161372c565b8114613b5057600080fd5b50565b613b5c8161373e565b8114613b6757600080fd5b50565b613b73816137a0565b8114613b7e57600080fd5b50565b613b8a816137aa565b8114613b9557600080fd5b5056fea2646970667358221220b47f085c9d6db0a0511b686270e640f200a447c883767639e61c41e61cf762e964736f6c63430008040033",
  "linkReferences": {},
  "deployedLinkReferences": {}
}