{
  "_format": "hh-sol-artifact-1",
  "contractName": "HiveMarketplaceV2",
  "sourceName": "contracts/HiveMarketplacev2.sol",
  "abi": [
    {
      "inputs": [],
      "stateMutability": "nonpayable",
      "type": "constructor"
    },
    {
      "anonymous": false,
      "inputs": [
        {
          "indexed": true,
          "internalType": "address",
          "name": "nftContract",
          "type": "address"
        },
        {
          "indexed": true,
          "internalType": "uint256",
          "name": "tokenId",
          "type": "uint256"
        },
        {
          "indexed": true,
          "internalType": "address",
          "name": "seller",
          "type": "address"
        },
        {
          "indexed": false,
          "internalType": "address",
          "name": "buyer",
          "type": "address"
        },
        {
          "indexed": false,
          "internalType": "uint256",
          "name": "marketplaceFee",
          "type": "uint256"
        },
        {
          "indexed": false,
          "internalType": "uint256",
          "name": "creatorFee",
          "type": "uint256"
        },
        {
          "indexed": false,
          "internalType": "uint256",
          "name": "ownerRevenue",
          "type": "uint256"
        },
        {
          "indexed": false,
          "internalType": "uint256",
          "name": "expiry",
          "type": "uint256"
        }
      ],
      "name": "BidAccepted",
      "type": "event"
    },
    {
      "anonymous": false,
      "inputs": [
        {
          "indexed": true,
          "internalType": "address",
          "name": "nftContract",
          "type": "address"
        },
        {
          "indexed": true,
          "internalType": "uint256",
          "name": "tokenId",
          "type": "uint256"
        },
        {
          "indexed": true,
          "internalType": "address",
          "name": "bidder",
          "type": "address"
        },
        {
          "indexed": false,
          "internalType": "address",
          "name": "seller",
          "type": "address"
        },
        {
          "indexed": false,
          "internalType": "uint256",
          "name": "nonce",
          "type": "uint256"
        }
      ],
      "name": "BidCanceled",
      "type": "event"
    },
    {
      "anonymous": false,
      "inputs": [
        {
          "indexed": false,
          "internalType": "address",
          "name": "nftAddress",
          "type": "address"
        }
      ],
      "name": "CollectionRemoved",
      "type": "event"
    },
    {
      "anonymous": false,
      "inputs": [
        {
          "indexed": false,
          "internalType": "address",
          "name": "nftAddress",
          "type": "address"
        },
        {
          "indexed": false,
          "internalType": "address",
          "name": "royaltyRecipient",
          "type": "address"
        },
        {
          "indexed": false,
          "internalType": "uint256",
          "name": "royaltyFee",
          "type": "uint256"
        }
      ],
      "name": "CollectionUpdated",
      "type": "event"
    },
    {
      "anonymous": false,
      "inputs": [
        {
          "indexed": false,
          "internalType": "address",
          "name": "nftAddress",
          "type": "address"
        },
        {
          "indexed": false,
          "internalType": "address",
          "name": "royaltyRecipient",
          "type": "address"
        },
        {
          "indexed": false,
          "internalType": "uint256",
          "name": "royaltyFee",
          "type": "uint256"
        }
      ],
      "name": "CollectionWhitelisted",
      "type": "event"
    },
    {
      "anonymous": false,
      "inputs": [
        {
          "indexed": false,
          "internalType": "address",
          "name": "nftAddress",
          "type": "address"
        },
        {
          "indexed": false,
          "internalType": "address",
          "name": "bidder",
          "type": "address"
        },
        {
          "indexed": false,
          "internalType": "address",
          "name": "buyer",
          "type": "address"
        },
        {
          "indexed": false,
          "internalType": "uint256",
          "name": "quantity",
          "type": "uint256"
        },
        {
          "indexed": false,
          "internalType": "uint256",
          "name": "tokenId",
          "type": "uint256"
        },
        {
          "indexed": false,
          "internalType": "uint256",
          "name": "pricePerItem",
          "type": "uint256"
        }
      ],
      "name": "ItemBid",
      "type": "event"
    },
    {
      "anonymous": false,
      "inputs": [
        {
          "indexed": false,
          "internalType": "address",
          "name": "seller",
          "type": "address"
        },
        {
          "indexed": false,
          "internalType": "address",
          "name": "nftAddress",
          "type": "address"
        },
        {
          "indexed": false,
          "internalType": "uint256",
          "name": "tokenId",
          "type": "uint256"
        }
      ],
      "name": "ItemCanceled",
      "type": "event"
    },
    {
      "anonymous": false,
      "inputs": [
        {
          "indexed": false,
          "internalType": "address",
          "name": "seller",
          "type": "address"
        },
        {
          "indexed": false,
          "internalType": "address",
          "name": "nftAddress",
          "type": "address"
        },
        {
          "indexed": false,
          "internalType": "uint256",
          "name": "tokenId",
          "type": "uint256"
        },
        {
          "indexed": false,
          "internalType": "uint256",
          "name": "quantity",
          "type": "uint256"
        },
        {
          "indexed": false,
          "internalType": "uint256",
          "name": "pricePerItem",
          "type": "uint256"
        },
        {
          "indexed": false,
          "internalType": "uint256",
          "name": "expirationTime",
          "type": "uint256"
        }
      ],
      "name": "ItemListed",
      "type": "event"
    },
    {
      "anonymous": false,
      "inputs": [
        {
          "indexed": false,
          "internalType": "address",
          "name": "seller",
          "type": "address"
        },
        {
          "indexed": false,
          "internalType": "address",
          "name": "buyer",
          "type": "address"
        },
        {
          "indexed": false,
          "internalType": "address",
          "name": "nftAddress",
          "type": "address"
        },
        {
          "indexed": false,
          "internalType": "uint256",
          "name": "tokenId",
          "type": "uint256"
        },
        {
          "indexed": false,
          "internalType": "uint256",
          "name": "quantity",
          "type": "uint256"
        },
        {
          "indexed": false,
          "internalType": "uint256",
          "name": "pricePerItem",
          "type": "uint256"
        }
      ],
      "name": "ItemSold",
      "type": "event"
    },
    {
      "anonymous": false,
      "inputs": [
        {
          "indexed": false,
          "internalType": "address",
          "name": "seller",
          "type": "address"
        },
        {
          "indexed": false,
          "internalType": "address",
          "name": "nftAddress",
          "type": "address"
        },
        {
          "indexed": false,
          "internalType": "uint256",
          "name": "tokenId",
          "type": "uint256"
        },
        {
          "indexed": false,
          "internalType": "uint256",
          "name": "quantity",
          "type": "uint256"
        },
        {
          "indexed": false,
          "internalType": "uint256",
          "name": "pricePerItem",
          "type": "uint256"
        },
        {
          "indexed": false,
          "internalType": "uint256",
          "name": "expirationTime",
          "type": "uint256"
        }
      ],
      "name": "ItemUpdated",
      "type": "event"
    },
    {
      "anonymous": false,
      "inputs": [
        {
          "indexed": true,
          "internalType": "address",
          "name": "previousOwner",
          "type": "address"
        },
        {
          "indexed": true,
          "internalType": "address",
          "name": "newOwner",
          "type": "address"
        }
      ],
      "name": "OwnershipTransferred",
      "type": "event"
    },
    {
      "anonymous": false,
      "inputs": [
        {
          "indexed": false,
          "internalType": "uint256",
          "name": "fee",
          "type": "uint256"
        }
      ],
      "name": "UpdateFee",
      "type": "event"
    },
    {
      "anonymous": false,
      "inputs": [
        {
          "indexed": false,
          "internalType": "address",
          "name": "feeRecipient",
          "type": "address"
        }
      ],
      "name": "UpdateFeeRecipient",
      "type": "event"
    },
    {
      "anonymous": false,
      "inputs": [
        {
          "indexed": false,
          "internalType": "address",
          "name": "paymentToken",
          "type": "address"
        }
      ],
      "name": "UpdatePaymentToken",
      "type": "event"
    },
    {
      "inputs": [
        {
          "components": [
            {
              "internalType": "address",
              "name": "nftContractAddress",
              "type": "address"
            },
            {
              "internalType": "address",
              "name": "bidder",
              "type": "address"
            },
            {
              "internalType": "address",
              "name": "seller",
              "type": "address"
            },
            {
              "internalType": "uint256",
              "name": "tokenId",
              "type": "uint256"
            },
            {
              "internalType": "uint256",
              "name": "quantity",
              "type": "uint256"
            },
            {
              "internalType": "uint256",
              "name": "pricePerItem",
              "type": "uint256"
            },
            {
              "internalType": "uint256",
              "name": "expiry",
              "type": "uint256"
            },
            {
              "internalType": "uint256",
              "name": "nonce",
              "type": "uint256"
            },
            {
              "internalType": "bytes32",
              "name": "r",
              "type": "bytes32"
            },
            {
              "internalType": "bytes32",
              "name": "s",
              "type": "bytes32"
            },
            {
              "internalType": "uint8",
              "name": "v",
              "type": "uint8"
            }
          ],
          "internalType": "struct HiveMarketplaceV2.Bid",
          "name": "bid",
          "type": "tuple"
        }
      ],
      "name": "AcceptBid",
      "outputs": [],
      "stateMutability": "nonpayable",
      "type": "function"
    },
    {
      "inputs": [
        {
          "components": [
            {
              "internalType": "address",
              "name": "nftContractAddress",
              "type": "address"
            },
            {
              "internalType": "address",
              "name": "bidder",
              "type": "address"
            },
            {
              "internalType": "address",
              "name": "seller",
              "type": "address"
            },
            {
              "internalType": "uint256",
              "name": "tokenId",
              "type": "uint256"
            },
            {
              "internalType": "uint256",
              "name": "quantity",
              "type": "uint256"
            },
            {
              "internalType": "uint256",
              "name": "pricePerItem",
              "type": "uint256"
            },
            {
              "internalType": "uint256",
              "name": "expiry",
              "type": "uint256"
            },
            {
              "internalType": "uint256",
              "name": "nonce",
              "type": "uint256"
            },
            {
              "internalType": "bytes32",
              "name": "r",
              "type": "bytes32"
            },
            {
              "internalType": "bytes32",
              "name": "s",
              "type": "bytes32"
            },
            {
              "internalType": "uint8",
              "name": "v",
              "type": "uint8"
            }
          ],
          "internalType": "struct HiveMarketplaceV2.Bid",
          "name": "bid",
          "type": "tuple"
        }
      ],
      "name": "AcceptListing",
      "outputs": [],
      "stateMutability": "nonpayable",
      "type": "function"
    },
    {
      "inputs": [],
      "name": "BASIS_POINTS",
      "outputs": [
        {
          "internalType": "uint256",
          "name": "",
          "type": "uint256"
        }
      ],
      "stateMutability": "view",
      "type": "function"
    },
    {
      "inputs": [
        {
          "components": [
            {
              "internalType": "address",
              "name": "nftContractAddress",
              "type": "address"
            },
            {
              "internalType": "address",
              "name": "bidder",
              "type": "address"
            },
            {
              "internalType": "address",
              "name": "seller",
              "type": "address"
            },
            {
              "internalType": "uint256",
              "name": "tokenId",
              "type": "uint256"
            },
            {
              "internalType": "uint256",
              "name": "quantity",
              "type": "uint256"
            },
            {
              "internalType": "uint256",
              "name": "pricePerItem",
              "type": "uint256"
            },
            {
              "internalType": "uint256",
              "name": "expiry",
              "type": "uint256"
            },
            {
              "internalType": "uint256",
              "name": "nonce",
              "type": "uint256"
            },
            {
              "internalType": "bytes32",
              "name": "r",
              "type": "bytes32"
            },
            {
              "internalType": "bytes32",
              "name": "s",
              "type": "bytes32"
            },
            {
              "internalType": "uint8",
              "name": "v",
              "type": "uint8"
            }
          ],
          "internalType": "struct HiveMarketplaceV2.Bid",
          "name": "bid",
          "type": "tuple"
        }
      ],
      "name": "CancelBid",
      "outputs": [],
      "stateMutability": "nonpayable",
      "type": "function"
    },
    {
      "inputs": [
        {
          "components": [
            {
              "internalType": "address",
              "name": "nftContractAddress",
              "type": "address"
            },
            {
              "internalType": "address",
              "name": "bidder",
              "type": "address"
            },
            {
              "internalType": "address",
              "name": "seller",
              "type": "address"
            },
            {
              "internalType": "uint256",
              "name": "tokenId",
              "type": "uint256"
            },
            {
              "internalType": "uint256",
              "name": "quantity",
              "type": "uint256"
            },
            {
              "internalType": "uint256",
              "name": "pricePerItem",
              "type": "uint256"
            },
            {
              "internalType": "uint256",
              "name": "expiry",
              "type": "uint256"
            },
            {
              "internalType": "uint256",
              "name": "nonce",
              "type": "uint256"
            },
            {
              "internalType": "bytes32",
              "name": "r",
              "type": "bytes32"
            },
            {
              "internalType": "bytes32",
              "name": "s",
              "type": "bytes32"
            },
            {
              "internalType": "uint8",
              "name": "v",
              "type": "uint8"
            }
          ],
          "internalType": "struct HiveMarketplaceV2.Bid",
          "name": "bid",
          "type": "tuple"
        }
      ],
      "name": "ValidSignature",
      "outputs": [
        {
          "internalType": "bool",
          "name": "",
          "type": "bool"
        }
      ],
      "stateMutability": "view",
      "type": "function"
    },
    {
      "inputs": [
        {
          "internalType": "address",
          "name": "_nft",
          "type": "address"
        },
        {
          "internalType": "address",
          "name": "_royaltyRecipient",
          "type": "address"
        },
        {
          "internalType": "uint256",
          "name": "_royaltyFee",
          "type": "uint256"
        }
      ],
      "name": "addToWhitelist",
      "outputs": [],
      "stateMutability": "nonpayable",
      "type": "function"
    },
    {
      "inputs": [
        {
          "internalType": "address",
          "name": "",
          "type": "address"
        },
        {
          "internalType": "uint256",
          "name": "",
          "type": "uint256"
        }
      ],
      "name": "bids",
      "outputs": [
        {
          "internalType": "address",
          "name": "nftContractAddress",
          "type": "address"
        },
        {
          "internalType": "address",
          "name": "bidder",
          "type": "address"
        },
        {
          "internalType": "address",
          "name": "seller",
          "type": "address"
        },
        {
          "internalType": "uint256",
          "name": "tokenId",
          "type": "uint256"
        },
        {
          "internalType": "uint256",
          "name": "quantity",
          "type": "uint256"
        },
        {
          "internalType": "uint256",
          "name": "pricePerItem",
          "type": "uint256"
        },
        {
          "internalType": "uint256",
          "name": "expiry",
          "type": "uint256"
        },
        {
          "internalType": "uint256",
          "name": "nonce",
          "type": "uint256"
        },
        {
          "internalType": "bytes32",
          "name": "r",
          "type": "bytes32"
        },
        {
          "internalType": "bytes32",
          "name": "s",
          "type": "bytes32"
        },
        {
          "internalType": "uint8",
          "name": "v",
          "type": "uint8"
        }
      ],
      "stateMutability": "view",
      "type": "function"
    },
    {
      "inputs": [
        {
          "components": [
            {
              "internalType": "address",
              "name": "nftAddress",
              "type": "address"
            },
            {
              "internalType": "address",
              "name": "owner",
              "type": "address"
            },
            {
              "internalType": "uint256",
              "name": "quantity",
              "type": "uint256"
            },
            {
              "internalType": "uint256",
              "name": "tokenId",
              "type": "uint256"
            },
            {
              "internalType": "uint256",
              "name": "pricePerItem",
              "type": "uint256"
            }
          ],
          "internalType": "struct HiveMarketplaceV2.BuyOrder",
          "name": "_buyOrder",
          "type": "tuple"
        }
      ],
      "name": "buyItem",
      "outputs": [],
      "stateMutability": "nonpayable",
      "type": "function"
    },
    {
      "inputs": [
        {
          "internalType": "address",
          "name": "_nftAddress",
          "type": "address"
        },
        {
          "internalType": "uint256",
          "name": "_tokenId",
          "type": "uint256"
        }
      ],
      "name": "cancelListing",
      "outputs": [],
      "stateMutability": "nonpayable",
      "type": "function"
    },
    {
      "inputs": [
        {
          "internalType": "address",
          "name": "_nftAddress",
          "type": "address"
        },
        {
          "internalType": "uint256",
          "name": "_tokenId",
          "type": "uint256"
        },
        {
          "internalType": "uint256",
          "name": "_quantity",
          "type": "uint256"
        },
        {
          "internalType": "uint256",
          "name": "_pricePerItem",
          "type": "uint256"
        },
        {
          "internalType": "uint256",
          "name": "_expirationTime",
          "type": "uint256"
        }
      ],
      "name": "createListing",
      "outputs": [],
      "stateMutability": "nonpayable",
      "type": "function"
    },
    {
      "inputs": [],
      "name": "fee",
      "outputs": [
        {
          "internalType": "uint256",
          "name": "",
          "type": "uint256"
        }
      ],
      "stateMutability": "view",
      "type": "function"
    },
    {
      "inputs": [],
      "name": "feeReceipient",
      "outputs": [
        {
          "internalType": "address",
          "name": "",
          "type": "address"
        }
      ],
      "stateMutability": "view",
      "type": "function"
    },
    {
      "inputs": [
        {
          "internalType": "address",
          "name": "",
          "type": "address"
        },
        {
          "internalType": "uint256",
          "name": "",
          "type": "uint256"
        },
        {
          "internalType": "address",
          "name": "",
          "type": "address"
        }
      ],
      "name": "listings",
      "outputs": [
        {
          "internalType": "uint256",
          "name": "quantity",
          "type": "uint256"
        },
        {
          "internalType": "uint256",
          "name": "pricePerItem",
          "type": "uint256"
        },
        {
          "internalType": "uint256",
          "name": "expirationTime",
          "type": "uint256"
        }
      ],
      "stateMutability": "view",
      "type": "function"
    },
    {
      "inputs": [],
      "name": "minBidTime",
      "outputs": [
        {
          "internalType": "uint256",
          "name": "",
          "type": "uint256"
        }
      ],
      "stateMutability": "view",
      "type": "function"
    },
    {
      "inputs": [],
      "name": "owner",
      "outputs": [
        {
          "internalType": "address",
          "name": "",
          "type": "address"
        }
      ],
      "stateMutability": "view",
      "type": "function"
    },
    {
      "inputs": [],
      "name": "paymentToken",
      "outputs": [
        {
          "internalType": "address",
          "name": "",
          "type": "address"
        }
      ],
      "stateMutability": "view",
      "type": "function"
    },
    {
      "inputs": [
        {
          "internalType": "address",
          "name": "_nft",
          "type": "address"
        }
      ],
      "name": "removeFromWhitelist",
      "outputs": [],
      "stateMutability": "nonpayable",
      "type": "function"
    },
    {
      "inputs": [],
      "name": "renounceOwnership",
      "outputs": [],
      "stateMutability": "nonpayable",
      "type": "function"
    },
    {
      "inputs": [
        {
          "internalType": "uint256",
          "name": "_fee",
          "type": "uint256"
        }
      ],
      "name": "setFee",
      "outputs": [],
      "stateMutability": "nonpayable",
      "type": "function"
    },
    {
      "inputs": [
        {
          "internalType": "address",
          "name": "_feeRecipient",
          "type": "address"
        }
      ],
      "name": "setFeeRecipient",
      "outputs": [],
      "stateMutability": "nonpayable",
      "type": "function"
    },
    {
      "inputs": [
        {
          "internalType": "address",
          "name": "_paymentToken",
          "type": "address"
        }
      ],
      "name": "setPaymentToken",
      "outputs": [],
      "stateMutability": "nonpayable",
      "type": "function"
    },
    {
      "inputs": [
        {
          "internalType": "address",
          "name": "newOwner",
          "type": "address"
        }
      ],
      "name": "transferOwnership",
      "outputs": [],
      "stateMutability": "nonpayable",
      "type": "function"
    },
    {
      "inputs": [
        {
          "internalType": "address",
          "name": "_nftAddress",
          "type": "address"
        },
        {
          "internalType": "uint256",
          "name": "_tokenId",
          "type": "uint256"
        },
        {
          "internalType": "uint256",
          "name": "_newQuantity",
          "type": "uint256"
        },
        {
          "internalType": "uint256",
          "name": "_newPricePerItem",
          "type": "uint256"
        },
        {
          "internalType": "uint256",
          "name": "_newExpirationTime",
          "type": "uint256"
        }
      ],
      "name": "updateListing",
      "outputs": [],
      "stateMutability": "nonpayable",
      "type": "function"
    },
    {
      "inputs": [
        {
          "internalType": "address",
          "name": "_nftAddress",
          "type": "address"
        },
        {
          "internalType": "address",
          "name": "_royaltyRecipient",
          "type": "address"
        },
        {
          "internalType": "uint256",
          "name": "_royaltyFee",
          "type": "uint256"
        }
      ],
      "name": "updateWhitelist",
      "outputs": [],
      "stateMutability": "nonpayable",
      "type": "function"
    },
    {
      "inputs": [
        {
          "internalType": "address",
          "name": "",
          "type": "address"
        }
      ],
      "name": "whitelistedCollections",
      "outputs": [
        {
          "internalType": "address",
          "name": "royaltyRecipient",
          "type": "address"
        },
        {
          "internalType": "uint256",
          "name": "royaltyFee",
          "type": "uint256"
        }
      ],
      "stateMutability": "view",
      "type": "function"
    }
  ],
  "bytecode": "0x60806040523480156200001157600080fd5b5062000032620000266200004f60201b60201c565b6200005760201b60201c565b60018081905550620000496200011b60201b60201c565b620002ca565b600033905090565b60008060009054906101000a900473ffffffffffffffffffffffffffffffffffffffff169050816000806101000a81548173ffffffffffffffffffffffffffffffffffffffff021916908373ffffffffffffffffffffffffffffffffffffffff1602179055508173ffffffffffffffffffffffffffffffffffffffff168173ffffffffffffffffffffffffffffffffffffffff167f8be0079c531659141344cd1fd0a4f28419497f9722a3daafe3b4186f6b6457e060405160405180910390a35050565b60004690507f8b73c3c69bb8fe3d512ecc4cf759cc79239f7b179b0ffacaa9a75d522b39400f6040518060400160405280601281526020017f484956454e46544d61726b6574706c6163650000000000000000000000000000815250805190602001206040518060400160405280600181526020017f3100000000000000000000000000000000000000000000000000000000000000815250805190602001208330604051602001620001d395949392919062000225565b60405160208183030381529060405280519060200120600a8190555050565b620001fd8162000282565b82525050565b6200020e8162000296565b82525050565b6200021f81620002c0565b82525050565b600060a0820190506200023c600083018862000203565b6200024b602083018762000203565b6200025a604083018662000203565b62000269606083018562000214565b620002786080830184620001f2565b9695505050505050565b60006200028f82620002a0565b9050919050565b6000819050919050565b600073ffffffffffffffffffffffffffffffffffffffff82169050919050565b6000819050919050565b61608380620002da6000396000f3fe608060405234801561001057600080fd5b50600436106101735760003560e01c80638da5cb5b116100de578063d182c98c11610097578063e1f1c4a711610071578063e1f1c4a714610405578063e74b981b14610423578063ed599b871461043f578063f2fde38b1461046f57610173565b8063d182c98c146103af578063ddca3f43146103cb578063e09e83e3146103e957610173565b80638da5cb5b146103035780639057f2891461032157806397c195401461033d5780639d2440f514610359578063b2ddee0614610375578063cdd2f7f71461039157610173565b806369fe0e2d1161013057806369fe0e2d146102575780636a326ab1146102735780636bd3a64b1461028f5780636fad0409146102c1578063715018a6146102dd5780638ab1d681146102e757610173565b806301495c1c146101785780630dbf1b4d146101b25780632a63e00a146101ce5780633013ce29146101ea5780633740ebb3146102085780634f05cbd814610226575b600080fd5b610192600480360381019061018d91906149dd565b61048b565b6040516101a99b9a9998979695949392919061518e565b60405180910390f35b6101cc60048036038101906101c79190614b32565b61055f565b005b6101e860048036038101906101e39190614b08565b61106e565b005b6101f26112c8565b6040516101ff91906150e9565b60405180910390f35b6102106112ee565b60405161021d91906150e9565b60405180910390f35b610240600480360381019061023b919061493c565b611314565b60405161024e92919061532b565b60405180910390f35b610271600480360381019061026c9190614b5b565b611358565b005b61028d6004803603810190610288919061493c565b611459565b005b6102a960048036038101906102a49190614a19565b611550565b6040516102b89392919061582c565b60405180910390f35b6102db60048036038101906102d69190614a68565b611594565b005b6102e5611b89565b005b61030160048036038101906102fc919061493c565b611c11565b005b61030b611dbf565b60405161031891906150e9565b60405180910390f35b61033b60048036038101906103369190614a68565b611de8565b005b61035760048036038101906103529190614b08565b61263d565b005b610373600480360381019061036e9190614b08565b612b2a565b005b61038f600480360381019061038a91906149dd565b6130b1565b005b61039961322b565b6040516103a69190615811565b60405180910390f35b6103c960048036038101906103c4919061498e565b613231565b005b6103d3613432565b6040516103e09190615811565b60405180910390f35b61040360048036038101906103fe919061498e565b613438565b005b61040d613637565b60405161041a9190615811565b60405180910390f35b61043d6004803603810190610438919061493c565b61363d565b005b61045960048036038101906104549190614b08565b613734565b60405161046691906153a7565b60405180910390f35b6104896004803603810190610484919061493c565b613c2b565b005b6008602052816000526040600020602052806000526040600020600091509150508060000160009054906101000a900473ffffffffffffffffffffffffffffffffffffffff16908060010160009054906101000a900473ffffffffffffffffffffffffffffffffffffffff16908060020160009054906101000a900473ffffffffffffffffffffffffffffffffffffffff169080600301549080600401549080600501549080600601549080600701549080600801549080600901549080600a0160009054906101000a900460ff1690508b565b600260015414156105a5576040517f08c379a000000000000000000000000000000000000000000000000000000000815260040161059c906157d1565b60405180910390fd5b60026001819055508060000151816060015182602001516000600660008573ffffffffffffffffffffffffffffffffffffffff1673ffffffffffffffffffffffffffffffffffffffff168152602001908152602001600020600084815260200190815260200160002060008373ffffffffffffffffffffffffffffffffffffffff1673ffffffffffffffffffffffffffffffffffffffff1681526020019081526020016000206040518060600160405290816000820154815260200160018201548152602001600282015481525050905060008160000151116106bd576040517f08c379a00000000000000000000000000000000000000000000000000000000081526004016106b4906157f1565b60405180910390fd5b8460000151856060015186602001516000600660008573ffffffffffffffffffffffffffffffffffffffff1673ffffffffffffffffffffffffffffffffffffffff168152602001908152602001600020600084815260200190815260200160002060008373ffffffffffffffffffffffffffffffffffffffff1673ffffffffffffffffffffffffffffffffffffffff168152602001908152602001600020604051806060016040529081600082015481526020016001820154815260200160028201548152505090508373ffffffffffffffffffffffffffffffffffffffff166301ffc9a76380ac58cd60e01b6040518263ffffffff1660e01b81526004016107c69190615494565b60206040518083038186803b1580156107de57600080fd5b505afa1580156107f2573d6000803e3d6000fd5b505050506040513d601f19601f820116820180604052508101906108169190614adf565b1561091c5760008490508273ffffffffffffffffffffffffffffffffffffffff168173ffffffffffffffffffffffffffffffffffffffff16636352211e866040518263ffffffff1660e01b81526004016108709190615811565b60206040518083038186803b15801561088857600080fd5b505afa15801561089c573d6000803e3d6000fd5b505050506040513d601f19601f820116820180604052508101906108c09190614965565b73ffffffffffffffffffffffffffffffffffffffff1614610916576040517f08c379a000000000000000000000000000000000000000000000000000000000815260040161090d906155b1565b60405180910390fd5b50610ac8565b8373ffffffffffffffffffffffffffffffffffffffff166301ffc9a763d9b67a2660e01b6040518263ffffffff1660e01b815260040161095c9190615494565b60206040518083038186803b15801561097457600080fd5b505afa158015610988573d6000803e3d6000fd5b505050506040513d601f19601f820116820180604052508101906109ac9190614adf565b15610a8c57600084905081600001518173ffffffffffffffffffffffffffffffffffffffff1662fdd58e85876040518363ffffffff1660e01b81526004016109f592919061532b565b60206040518083038186803b158015610a0d57600080fd5b505afa158015610a21573d6000803e3d6000fd5b505050506040513d601f19601f82011682018060405250810190610a459190614b84565b1015610a86576040517f08c379a0000000000000000000000000000000000000000000000000000000008152600401610a7d906155b1565b60405180910390fd5b50610ac7565b6040517f08c379a0000000000000000000000000000000000000000000000000000000008152600401610abe90615511565b60405180910390fd5b5b4281604001511015610b0f576040517f08c379a0000000000000000000000000000000000000000000000000000000008152600401610b0690615751565b60405180910390fd5b886020015173ffffffffffffffffffffffffffffffffffffffff16610b32613d23565b73ffffffffffffffffffffffffffffffffffffffff161415610b89576040517f08c379a0000000000000000000000000000000000000000000000000000000008152600401610b8090615711565b60405180910390fd5b6000600660008b6000015173ffffffffffffffffffffffffffffffffffffffff1673ffffffffffffffffffffffffffffffffffffffff16815260200190815260200160002060008b60600151815260200190815260200160002060008b6020015173ffffffffffffffffffffffffffffffffffffffff1673ffffffffffffffffffffffffffffffffffffffff16815260200190815260200160002060405180606001604052908160008201548152602001600182015481526020016002820154815250509050896040015181600001511015610c9a576040517f08c379a0000000000000000000000000000000000000000000000000000000008152600401610c91906156d1565b60405180910390fd5b896000015173ffffffffffffffffffffffffffffffffffffffff166301ffc9a76380ac58cd60e01b6040518263ffffffff1660e01b8152600401610cde9190615494565b60206040518083038186803b158015610cf657600080fd5b505afa158015610d0a573d6000803e3d6000fd5b505050506040513d601f19601f82011682018060405250810190610d2e9190614adf565b15610dba57896000015173ffffffffffffffffffffffffffffffffffffffff166342842e0e8b60200151610d60613d23565b8d606001516040518463ffffffff1660e01b8152600401610d8393929190615239565b600060405180830381600087803b158015610d9d57600080fd5b505af1158015610db1573d6000803e3d6000fd5b50505050610e54565b896000015173ffffffffffffffffffffffffffffffffffffffff1663f242432a8b60200151610de7613d23565b8d606001518e60400151604051806020016040528060008152506040518663ffffffff1660e01b8152600401610e21959493929190615270565b600060405180830381600087803b158015610e3b57600080fd5b505af1158015610e4f573d6000803e3d6000fd5b505050505b896040015181600001511415610f1d57600660008b6000015173ffffffffffffffffffffffffffffffffffffffff1673ffffffffffffffffffffffffffffffffffffffff16815260200190815260200160002060008b60600151815260200190815260200160002060008b6020015173ffffffffffffffffffffffffffffffffffffffff1673ffffffffffffffffffffffffffffffffffffffff168152602001908152602001600020600080820160009055600182016000905560028201600090555050610fd5565b8960400151600660008c6000015173ffffffffffffffffffffffffffffffffffffffff1673ffffffffffffffffffffffffffffffffffffffff16815260200190815260200160002060008c60600151815260200190815260200160002060008c6020015173ffffffffffffffffffffffffffffffffffffffff1673ffffffffffffffffffffffffffffffffffffffff1681526020019081526020016000206000016000828254610fcd9190615961565b925050819055505b7f57d8d9cd489eb6f4aa398aa92b49d164d28fde9e7000b5c186bf1b3647a9ebb78a60200151611003613d23565b8c600001518d606001518e6040015186602001516040516110299695949392919061512d565b60405180910390a1611058816000015182602001516110489190615907565b8b60200151338d60000151613d2b565b5050505050505050505050506001808190555050565b6000600a547f6921f1b93a012603550e5201838a5937ba4060a579f1267f8cde95a9c82ed7488360000160208101906110a7919061493c565b84606001358560400160208101906110bf919061493c565b338760a0013588608001358960c001358a60e001356040516020016110ec999897969594939291906153c2565b604051602081830303815290604052805190602001206040516020016111139291906150b2565b6040516020818303038152906040528051906020012090503373ffffffffffffffffffffffffffffffffffffffff16600182846101400160208101906111599190614bad565b85610100013586610120013560405160008152602001604052604051611182949392919061544f565b6020604051602081039080840390855afa1580156111a4573d6000803e3d6000fd5b5050506020604051035173ffffffffffffffffffffffffffffffffffffffff1614611204576040517f08c379a00000000000000000000000000000000000000000000000000000000081526004016111fb90615611565b60405180910390fd5b60016009600083815260200190815260200160002060006101000a81548160ff0219169083151502179055503373ffffffffffffffffffffffffffffffffffffffff16826060013583600001602081019061125f919061493c565b73ffffffffffffffffffffffffffffffffffffffff167f2206717382ed98a50d41c9d10a48cb2e4d7929ff50504925b9328b99fdf112288560400160208101906112a9919061493c565b8660e001356040516112bc92919061532b565b60405180910390a45050565b600260009054906101000a900473ffffffffffffffffffffffffffffffffffffffff1681565b600460009054906101000a900473ffffffffffffffffffffffffffffffffffffffff1681565b60076020528060005260406000206000915090508060000160009054906101000a900473ffffffffffffffffffffffffffffffffffffffff16908060010154905082565b611360613d23565b73ffffffffffffffffffffffffffffffffffffffff1661137e611dbf565b73ffffffffffffffffffffffffffffffffffffffff16146113d4576040517f08c379a00000000000000000000000000000000000000000000000000000000081526004016113cb90615631565b60405180910390fd5b6127108110611418576040517f08c379a000000000000000000000000000000000000000000000000000000000815260040161140f906156b1565b60405180910390fd5b806003819055507f38e229a7f3f9c329892d08eb37c4e91ccac6d12c798d394990ca4f56028ec2668160405161144e9190615811565b60405180910390a150565b611461613d23565b73ffffffffffffffffffffffffffffffffffffffff1661147f611dbf565b73ffffffffffffffffffffffffffffffffffffffff16146114d5576040517f08c379a00000000000000000000000000000000000000000000000000000000081526004016114cc90615631565b60405180910390fd5b80600260006101000a81548173ffffffffffffffffffffffffffffffffffffffff021916908373ffffffffffffffffffffffffffffffffffffffff1602179055507fc2125241dd55c14b337aea21dcef108a9fd20a816ae6d4d18560572afce99c4e8160405161154591906150e9565b60405180910390a150565b600660205282600052604060002060205281600052604060002060205280600052604060002060009250925050508060000154908060010154908060020154905083565b600260015414156115da576040517f08c379a00000000000000000000000000000000000000000000000000000000081526004016115d1906157d1565b60405180910390fd5b600260018190555084846115ec613d23565b6000600660008573ffffffffffffffffffffffffffffffffffffffff1673ffffffffffffffffffffffffffffffffffffffff168152602001908152602001600020600084815260200190815260200160002060008373ffffffffffffffffffffffffffffffffffffffff1673ffffffffffffffffffffffffffffffffffffffff1681526020019081526020016000206040518060600160405290816000820154815260200160018201548152602001600282015481525050905060008160000151116116ed576040517f08c379a00000000000000000000000000000000000000000000000000000000081526004016116e4906157f1565b60405180910390fd5b42851161172f576040517f08c379a000000000000000000000000000000000000000000000000000000000815260040161172690615791565b60405180910390fd5b6000600660008b73ffffffffffffffffffffffffffffffffffffffff1673ffffffffffffffffffffffffffffffffffffffff16815260200190815260200160002060008a8152602001908152602001600020600061178b613d23565b73ffffffffffffffffffffffffffffffffffffffff1673ffffffffffffffffffffffffffffffffffffffff16815260200190815260200160002090508973ffffffffffffffffffffffffffffffffffffffff166301ffc9a76380ac58cd60e01b6040518263ffffffff1660e01b81526004016118079190615494565b60206040518083038186803b15801561181f57600080fd5b505afa158015611833573d6000803e3d6000fd5b505050506040513d601f19601f820116820180604052508101906118579190614adf565b156119645760008a9050611869613d23565b73ffffffffffffffffffffffffffffffffffffffff168173ffffffffffffffffffffffffffffffffffffffff16636352211e8c6040518263ffffffff1660e01b81526004016118b89190615811565b60206040518083038186803b1580156118d057600080fd5b505afa1580156118e4573d6000803e3d6000fd5b505050506040513d601f19601f820116820180604052508101906119089190614965565b73ffffffffffffffffffffffffffffffffffffffff161461195e576040517f08c379a0000000000000000000000000000000000000000000000000000000008152600401611955906155b1565b60405180910390fd5b50611b13565b8973ffffffffffffffffffffffffffffffffffffffff166301ffc9a763d9b67a2660e01b6040518263ffffffff1660e01b81526004016119a49190615494565b60206040518083038186803b1580156119bc57600080fd5b505afa1580156119d0573d6000803e3d6000fd5b505050506040513d601f19601f820116820180604052508101906119f49190614adf565b15611ad75760008a9050888173ffffffffffffffffffffffffffffffffffffffff1662fdd58e611a22613d23565b8d6040518363ffffffff1660e01b8152600401611a4092919061532b565b60206040518083038186803b158015611a5857600080fd5b505afa158015611a6c573d6000803e3d6000fd5b505050506040513d601f19601f82011682018060405250810190611a909190614b84565b1015611ad1576040517f08c379a0000000000000000000000000000000000000000000000000000000008152600401611ac890615691565b60405180910390fd5b50611b12565b6040517f08c379a0000000000000000000000000000000000000000000000000000000008152600401611b0990615511565b60405180910390fd5b5b8781600001819055508681600101819055508581600201819055507f25a89891a024b83ce77c6fc45ddada8564a9534184cd91a6db6c1f542e55abd8611b57613d23565b8b8b8b8b8b604051611b6e969594939291906152ca565b60405180910390a15050505050600180819055505050505050565b611b91613d23565b73ffffffffffffffffffffffffffffffffffffffff16611baf611dbf565b73ffffffffffffffffffffffffffffffffffffffff1614611c05576040517f08c379a0000000000000000000000000000000000000000000000000000000008152600401611bfc90615631565b60405180910390fd5b611c0f6000613f64565b565b611c19613d23565b73ffffffffffffffffffffffffffffffffffffffff16611c37611dbf565b73ffffffffffffffffffffffffffffffffffffffff1614611c8d576040517f08c379a0000000000000000000000000000000000000000000000000000000008152600401611c8490615631565b60405180910390fd5b806000600760008373ffffffffffffffffffffffffffffffffffffffff1673ffffffffffffffffffffffffffffffffffffffff1681526020019081526020016000206001015411611d13576040517f08c379a0000000000000000000000000000000000000000000000000000000008152600401611d0a90615651565b60405180910390fd5b600760008373ffffffffffffffffffffffffffffffffffffffff1673ffffffffffffffffffffffffffffffffffffffff168152602001908152602001600020600080820160006101000a81549073ffffffffffffffffffffffffffffffffffffffff0219169055600182016000905550507fa0691bd707b2f65c33c8343d61c274df72c6b5007937dcfbc31aa5a0d0f6fe3c82604051611db391906150e9565b60405180910390a15050565b60008060009054906101000a900473ffffffffffffffffffffffffffffffffffffffff16905090565b8484611df2613d23565b6000600660008573ffffffffffffffffffffffffffffffffffffffff1673ffffffffffffffffffffffffffffffffffffffff168152602001908152602001600020600084815260200190815260200160002060008373ffffffffffffffffffffffffffffffffffffffff1673ffffffffffffffffffffffffffffffffffffffff168152602001908152602001600020604051806060016040529081600082015481526020016001820154815260200160028201548152505090506000816000015114611ef3576040517f08c379a0000000000000000000000000000000000000000000000000000000008152600401611eea90615731565b60405180910390fd5b886000600760008373ffffffffffffffffffffffffffffffffffffffff1673ffffffffffffffffffffffffffffffffffffffff1681526020019081526020016000206001015411611f79576040517f08c379a0000000000000000000000000000000000000000000000000000000008152600401611f7090615651565b60405180910390fd5b6000861415611fa6577fffffffffffffffffffffffffffffffffffffffffffffffffffffffffffffffff95505b428611611fe8576040517f08c379a0000000000000000000000000000000000000000000000000000000008152600401611fdf90615791565b60405180910390fd5b6000881161202b576040517f08c379a0000000000000000000000000000000000000000000000000000000008152600401612022906157b1565b60405180910390fd5b8973ffffffffffffffffffffffffffffffffffffffff166301ffc9a76380ac58cd60e01b6040518263ffffffff1660e01b815260040161206b9190615494565b60206040518083038186803b15801561208357600080fd5b505afa158015612097573d6000803e3d6000fd5b505050506040513d601f19601f820116820180604052508101906120bb9190614adf565b156122995760008a90506120cd613d23565b73ffffffffffffffffffffffffffffffffffffffff168173ffffffffffffffffffffffffffffffffffffffff16636352211e8c6040518263ffffffff1660e01b815260040161211c9190615811565b60206040518083038186803b15801561213457600080fd5b505afa158015612148573d6000803e3d6000fd5b505050506040513d601f19601f8201168201806040525081019061216c9190614965565b73ffffffffffffffffffffffffffffffffffffffff16146121c2576040517f08c379a00000000000000000000000000000000000000000000000000000000081526004016121b9906155b1565b60405180910390fd5b8073ffffffffffffffffffffffffffffffffffffffff1663e985e9c56121e6613d23565b306040518363ffffffff1660e01b8152600401612204929190615104565b60206040518083038186803b15801561221c57600080fd5b505afa158015612230573d6000803e3d6000fd5b505050506040513d601f19601f820116820180604052508101906122549190614adf565b612293576040517f08c379a000000000000000000000000000000000000000000000000000000000815260040161228a90615671565b60405180910390fd5b50612519565b8973ffffffffffffffffffffffffffffffffffffffff166301ffc9a763d9b67a2660e01b6040518263ffffffff1660e01b81526004016122d99190615494565b60206040518083038186803b1580156122f157600080fd5b505afa158015612305573d6000803e3d6000fd5b505050506040513d601f19601f820116820180604052508101906123299190614adf565b156124dd5760008a9050888173ffffffffffffffffffffffffffffffffffffffff1662fdd58e612357613d23565b8d6040518363ffffffff1660e01b815260040161237592919061532b565b60206040518083038186803b15801561238d57600080fd5b505afa1580156123a1573d6000803e3d6000fd5b505050506040513d601f19601f820116820180604052508101906123c59190614b84565b1015612406576040517f08c379a00000000000000000000000000000000000000000000000000000000081526004016123fd90615691565b60405180910390fd5b8073ffffffffffffffffffffffffffffffffffffffff1663e985e9c561242a613d23565b306040518363ffffffff1660e01b8152600401612448929190615104565b60206040518083038186803b15801561246057600080fd5b505afa158015612474573d6000803e3d6000fd5b505050506040513d601f19601f820116820180604052508101906124989190614adf565b6124d7576040517f08c379a00000000000000000000000000000000000000000000000000000000081526004016124ce90615671565b60405180910390fd5b50612518565b6040517f08c379a000000000000000000000000000000000000000000000000000000000815260040161250f90615511565b60405180910390fd5b5b604051806060016040528089815260200188815260200187815250600660008c73ffffffffffffffffffffffffffffffffffffffff1673ffffffffffffffffffffffffffffffffffffffff16815260200190815260200160002060008b8152602001908152602001600020600061258e613d23565b73ffffffffffffffffffffffffffffffffffffffff1673ffffffffffffffffffffffffffffffffffffffff1681526020019081526020016000206000820151816000015560208201518160010155604082015181600201559050507f66bd0bc88d76947965bc00f670f5c5b25aebab9fef6cb916d8c63a253ec392b7612612613d23565b8b8b8b8b8b604051612629969594939291906152ca565b60405180910390a150505050505050505050565b60026001541415612683576040517f08c379a000000000000000000000000000000000000000000000000000000000815260040161267a906157d1565b60405180910390fd5b60026001819055506000600a547f541726d1b5118c7602f28a18a3fc5f04148d59333dedf9978513a123afcd227a8360000160208101906126c4919061493c565b84606001358560400160208101906126dc919061493c565b338760a0013588608001358960c001358a60e00135604051602001612709999897969594939291906153c2565b604051602081830303815290604052805190602001206040516020016127309291906150b2565b60405160208183030381529060405280519060200120905081604001602081019061275b919061493c565b73ffffffffffffffffffffffffffffffffffffffff16600182846101400160208101906127889190614bad565b856101000135866101200135604051600081526020016040526040516127b1949392919061544f565b6020604051602081039080840390855afa1580156127d3573d6000803e3d6000fd5b5050506020604051035173ffffffffffffffffffffffffffffffffffffffff161480156128245750600015156009600083815260200190815260200160002060009054906101000a900460ff161515145b612863576040517f08c379a000000000000000000000000000000000000000000000000000000000815260040161285a906154d1565b60405180910390fd5b60016009600083815260200190815260200160002060006101000a81548160ff021916908315150217905550428260c0013510156128d6576040517f08c379a00000000000000000000000000000000000000000000000000000000081526004016128cd90615591565b60405180910390fd5b8160000160208101906128e9919061493c565b73ffffffffffffffffffffffffffffffffffffffff166301ffc9a76380ac58cd60e01b6040518263ffffffff1660e01b81526004016129289190615494565b60206040518083038186803b15801561294057600080fd5b505afa158015612954573d6000803e3d6000fd5b505050506040513d601f19601f820116820180604052508101906129789190614adf565b15612a1957816000016020810190612990919061493c565b73ffffffffffffffffffffffffffffffffffffffff166342842e0e8360400160208101906129be919061493c565b3385606001356040518463ffffffff1660e01b81526004016129e293929190615239565b600060405180830381600087803b1580156129fc57600080fd5b505af1158015612a10573d6000803e3d6000fd5b50505050612ac8565b816000016020810190612a2c919061493c565b73ffffffffffffffffffffffffffffffffffffffff1663f242432a836040016020810190612a5a919061493c565b3385606001358660800135604051806020016040528060008152506040518663ffffffff1660e01b8152600401612a95959493929190615270565b600060405180830381600087803b158015612aaf57600080fd5b505af1158015612ac3573d6000803e3d6000fd5b505050505b600082608001358360a00135612ade9190615907565b90506000806000612b1584876040016020810190612afc919061493c565b33896000016020810190612b10919061493c565b613d2b565b92509250925050505050506001808190555050565b60026001541415612b70576040517f08c379a0000000000000000000000000000000000000000000000000000000008152600401612b67906157d1565b60405180910390fd5b60026001819055506000600a547f6921f1b93a012603550e5201838a5937ba4060a579f1267f8cde95a9c82ed748836000016020810190612bb1919061493c565b846060013533866020016020810190612bca919061493c565b8760a0013588608001358960c001358a60e00135604051602001612bf6999897969594939291906153c2565b60405160208183030381529060405280519060200120604051602001612c1d9291906150b2565b604051602081830303815290604052805190602001209050816020016020810190612c48919061493c565b73ffffffffffffffffffffffffffffffffffffffff1660018284610140016020810190612c759190614bad565b85610100013586610120013560405160008152602001604052604051612c9e949392919061544f565b6020604051602081039080840390855afa158015612cc0573d6000803e3d6000fd5b5050506020604051035173ffffffffffffffffffffffffffffffffffffffff16148015612d115750600015156009600083815260200190815260200160002060009054906101000a900460ff161515145b612d50576040517f08c379a0000000000000000000000000000000000000000000000000000000008152600401612d47906155f1565b60405180910390fd5b60016009600083815260200190815260200160002060006101000a81548160ff021916908315150217905550428260c001351015612dc3576040517f08c379a0000000000000000000000000000000000000000000000000000000008152600401612dba90615531565b60405180910390fd5b816000016020810190612dd6919061493c565b73ffffffffffffffffffffffffffffffffffffffff166301ffc9a76380ac58cd60e01b6040518263ffffffff1660e01b8152600401612e159190615494565b60206040518083038186803b158015612e2d57600080fd5b505afa158015612e41573d6000803e3d6000fd5b505050506040513d601f19601f82011682018060405250810190612e659190614adf565b15612f0657816000016020810190612e7d919061493c565b73ffffffffffffffffffffffffffffffffffffffff166342842e0e33846020016020810190612eac919061493c565b85606001356040518463ffffffff1660e01b8152600401612ecf93929190615239565b600060405180830381600087803b158015612ee957600080fd5b505af1158015612efd573d6000803e3d6000fd5b50505050612fb5565b816000016020810190612f19919061493c565b73ffffffffffffffffffffffffffffffffffffffff1663f242432a33846020016020810190612f48919061493c565b85606001358660800135604051806020016040528060008152506040518663ffffffff1660e01b8152600401612f82959493929190615270565b600060405180830381600087803b158015612f9c57600080fd5b505af1158015612fb0573d6000803e3d6000fd5b505050505b600082608001358360a00135612fcb9190615907565b905060008060006130028433886020016020810190612fea919061493c565b896000016020810190612ffd919061493c565b613d2b565b9250925092503373ffffffffffffffffffffffffffffffffffffffff168660600135876000016020810190613037919061493c565b73ffffffffffffffffffffffffffffffffffffffff167f4039b02a048d21ee8c5469ec08d5876102f8ee44242b696d4927382c7b6a5eb9896020016020810190613081919061493c565b8787878d60c0013560405161309a959493929190615354565b60405180910390a450505050506001808190555050565b600260015414156130f7576040517f08c379a00000000000000000000000000000000000000000000000000000000081526004016130ee906157d1565b60405180910390fd5b60026001819055508181613109613d23565b6000600660008573ffffffffffffffffffffffffffffffffffffffff1673ffffffffffffffffffffffffffffffffffffffff168152602001908152602001600020600084815260200190815260200160002060008373ffffffffffffffffffffffffffffffffffffffff1673ffffffffffffffffffffffffffffffffffffffff16815260200190815260200160002060405180606001604052908160008201548152602001600182015481526020016002820154815250509050600081600001511161320a576040517f08c379a0000000000000000000000000000000000000000000000000000000008152600401613201906157f1565b60405180910390fd5b61321c8686613217613d23565b614028565b50505050600180819055505050565b60055481565b613239613d23565b73ffffffffffffffffffffffffffffffffffffffff16613257611dbf565b73ffffffffffffffffffffffffffffffffffffffff16146132ad576040517f08c379a00000000000000000000000000000000000000000000000000000000081526004016132a490615631565b60405180910390fd5b826000600760008373ffffffffffffffffffffffffffffffffffffffff1673ffffffffffffffffffffffffffffffffffffffff1681526020019081526020016000206001015411613333576040517f08c379a000000000000000000000000000000000000000000000000000000000815260040161332a90615651565b60405180910390fd5b60405180604001604052808473ffffffffffffffffffffffffffffffffffffffff16815260200183815250600760008673ffffffffffffffffffffffffffffffffffffffff1673ffffffffffffffffffffffffffffffffffffffff16815260200190815260200160002060008201518160000160006101000a81548173ffffffffffffffffffffffffffffffffffffffff021916908373ffffffffffffffffffffffffffffffffffffffff160217905550602082015181600101559050507f1e37bc437a6eef66beaf65888fcbb24a15cbac885105fc4b3cb99f3e1a90da2184848460405161342493929190615239565b60405180910390a150505050565b60035481565b613440613d23565b73ffffffffffffffffffffffffffffffffffffffff1661345e611dbf565b73ffffffffffffffffffffffffffffffffffffffff16146134b4576040517f08c379a00000000000000000000000000000000000000000000000000000000081526004016134ab90615631565b60405180910390fd5b6000600760008573ffffffffffffffffffffffffffffffffffffffff1673ffffffffffffffffffffffffffffffffffffffff1681526020019081526020016000206001015414613539576040517f08c379a000000000000000000000000000000000000000000000000000000000815260040161353090615571565b60405180910390fd5b60405180604001604052808373ffffffffffffffffffffffffffffffffffffffff16815260200182815250600760008573ffffffffffffffffffffffffffffffffffffffff1673ffffffffffffffffffffffffffffffffffffffff16815260200190815260200160002060008201518160000160006101000a81548173ffffffffffffffffffffffffffffffffffffffff021916908373ffffffffffffffffffffffffffffffffffffffff160217905550602082015181600101559050507ffbd45b78399bdcbdef5bdce5ed51abb5fd3fb3f2baf9622a3d2e81b76c159d3083838360405161362a93929190615239565b60405180910390a1505050565b61271081565b613645613d23565b73ffffffffffffffffffffffffffffffffffffffff16613663611dbf565b73ffffffffffffffffffffffffffffffffffffffff16146136b9576040517f08c379a00000000000000000000000000000000000000000000000000000000081526004016136b090615631565b60405180910390fd5b80600460006101000a81548173ffffffffffffffffffffffffffffffffffffffff021916908373ffffffffffffffffffffffffffffffffffffffff1602179055507f6632de8ab33c46549f7bb29f647ea0d751157b25fe6a14b1bcc7527cdfbeb79c8160405161372991906150e9565b60405180910390a150565b600080600a547f6921f1b93a012603550e5201838a5937ba4060a579f1267f8cde95a9c82ed74884600001602081019061376e919061493c565b8560600135866040016020810190613786919061493c565b876020016020810190613799919061493c565b8860a0013589608001358a60c001358b60e001356040516020016137c5999897969594939291906153c2565b604051602081830303815290604052805190602001206040516020016137ec9291906150b2565b604051602081830303815290604052805190602001209050826000016020810190613817919061493c565b73ffffffffffffffffffffffffffffffffffffffff166301ffc9a76380ac58cd60e01b6040518263ffffffff1660e01b81526004016138569190615494565b60206040518083038186803b15801561386e57600080fd5b505afa158015613882573d6000803e3d6000fd5b505050506040513d601f19601f820116820180604052508101906138a69190614adf565b1561399d578260400160208101906138be919061493c565b73ffffffffffffffffffffffffffffffffffffffff168360000160208101906138e7919061493c565b73ffffffffffffffffffffffffffffffffffffffff16636352211e85606001356040518263ffffffff1660e01b81526004016139239190615811565b60206040518083038186803b15801561393b57600080fd5b505afa15801561394f573d6000803e3d6000fd5b505050506040513d601f19601f820116820180604052508101906139739190614965565b73ffffffffffffffffffffffffffffffffffffffff1614613998576000915050613c26565b613a65565b82608001358360000160208101906139b5919061493c565b73ffffffffffffffffffffffffffffffffffffffff1662fdd58e8560400160208101906139e2919061493c565b86606001356040518363ffffffff1660e01b8152600401613a0492919061532b565b60206040518083038186803b158015613a1c57600080fd5b505afa158015613a30573d6000803e3d6000fd5b505050506040513d601f19601f82011682018060405250810190613a549190614b84565b1015613a64576000915050613c26565b5b6000600260009054906101000a900473ffffffffffffffffffffffffffffffffffffffff1673ffffffffffffffffffffffffffffffffffffffff166370a08231856020016020810190613ab8919061493c565b6040518263ffffffff1660e01b8152600401613ad491906150e9565b60206040518083038186803b158015613aec57600080fd5b505afa158015613b00573d6000803e3d6000fd5b505050506040513d601f19601f82011682018060405250810190613b249190614b84565b9050836020016020810190613b39919061493c565b73ffffffffffffffffffffffffffffffffffffffff1660018386610140016020810190613b669190614bad565b87610100013588610120013560405160008152602001604052604051613b8f949392919061544f565b6020604051602081039080840390855afa158015613bb1573d6000803e3d6000fd5b5050506020604051035173ffffffffffffffffffffffffffffffffffffffff16148015613c025750600015156009600084815260200190815260200160002060009054906101000a900460ff161515145b8015613c2157508360a001358460800135613c1d9190615907565b8110155b925050505b919050565b613c33613d23565b73ffffffffffffffffffffffffffffffffffffffff16613c51611dbf565b73ffffffffffffffffffffffffffffffffffffffff1614613ca7576040517f08c379a0000000000000000000000000000000000000000000000000000000008152600401613c9e90615631565b60405180910390fd5b600073ffffffffffffffffffffffffffffffffffffffff168173ffffffffffffffffffffffffffffffffffffffff161415613d17576040517f08c379a0000000000000000000000000000000000000000000000000000000008152600401613d0e90615551565b60405180910390fd5b613d2081613f64565b50565b600033905090565b600080600080871115613f5a5761271060035488613d499190615907565b613d5391906158d6565b92506000600760008673ffffffffffffffffffffffffffffffffffffffff1673ffffffffffffffffffffffffffffffffffffffff1681526020019081526020016000206040518060400160405290816000820160009054906101000a900473ffffffffffffffffffffffffffffffffffffffff1673ffffffffffffffffffffffffffffffffffffffff1673ffffffffffffffffffffffffffffffffffffffff1681526020016001820154815250509050612710816020015189613e169190615907565b613e2091906158d6565b9250613e9386600460009054906101000a900473ffffffffffffffffffffffffffffffffffffffff1686600260009054906101000a900473ffffffffffffffffffffffffffffffffffffffff1673ffffffffffffffffffffffffffffffffffffffff16614514909392919063ffffffff16565b6000831115613ef057613eef86826000015185600260009054906101000a900473ffffffffffffffffffffffffffffffffffffffff1673ffffffffffffffffffffffffffffffffffffffff16614514909392919063ffffffff16565b5b828489613efd9190615961565b613f079190615961565b9150613f58868884600260009054906101000a900473ffffffffffffffffffffffffffffffffffffffff1673ffffffffffffffffffffffffffffffffffffffff16614514909392919063ffffffff16565b505b9450945094915050565b60008060009054906101000a900473ffffffffffffffffffffffffffffffffffffffff169050816000806101000a81548173ffffffffffffffffffffffffffffffffffffffff021916908373ffffffffffffffffffffffffffffffffffffffff1602179055508173ffffffffffffffffffffffffffffffffffffffff168173ffffffffffffffffffffffffffffffffffffffff167f8be0079c531659141344cd1fd0a4f28419497f9722a3daafe3b4186f6b6457e060405160405180910390a35050565b6000600660008573ffffffffffffffffffffffffffffffffffffffff1673ffffffffffffffffffffffffffffffffffffffff168152602001908152602001600020600084815260200190815260200160002060008373ffffffffffffffffffffffffffffffffffffffff1673ffffffffffffffffffffffffffffffffffffffff168152602001908152602001600020604051806060016040529081600082015481526020016001820154815260200160028201548152505090508373ffffffffffffffffffffffffffffffffffffffff166301ffc9a76380ac58cd60e01b6040518263ffffffff1660e01b81526004016141229190615494565b60206040518083038186803b15801561413a57600080fd5b505afa15801561414e573d6000803e3d6000fd5b505050506040513d601f19601f820116820180604052508101906141729190614adf565b156142785760008490508273ffffffffffffffffffffffffffffffffffffffff168173ffffffffffffffffffffffffffffffffffffffff16636352211e866040518263ffffffff1660e01b81526004016141cc9190615811565b60206040518083038186803b1580156141e457600080fd5b505afa1580156141f8573d6000803e3d6000fd5b505050506040513d601f19601f8201168201806040525081019061421c9190614965565b73ffffffffffffffffffffffffffffffffffffffff1614614272576040517f08c379a0000000000000000000000000000000000000000000000000000000008152600401614269906154f1565b60405180910390fd5b5061442b565b8373ffffffffffffffffffffffffffffffffffffffff166301ffc9a763d9b67a2660e01b6040518263ffffffff1660e01b81526004016142b89190615494565b60206040518083038186803b1580156142d057600080fd5b505afa1580156142e4573d6000803e3d6000fd5b505050506040513d601f19601f820116820180604052508101906143089190614adf565b156143ef57600084905081600001518173ffffffffffffffffffffffffffffffffffffffff1662fdd58e61433a613d23565b876040518363ffffffff1660e01b815260040161435892919061532b565b60206040518083038186803b15801561437057600080fd5b505afa158015614384573d6000803e3d6000fd5b505050506040513d601f19601f820116820180604052508101906143a89190614b84565b10156143e9576040517f08c379a00000000000000000000000000000000000000000000000000000000081526004016143e0906154f1565b60405180910390fd5b5061442a565b6040517f08c379a000000000000000000000000000000000000000000000000000000000815260040161442190615511565b60405180910390fd5b5b600660008573ffffffffffffffffffffffffffffffffffffffff1673ffffffffffffffffffffffffffffffffffffffff168152602001908152602001600020600084815260200190815260200160002060008373ffffffffffffffffffffffffffffffffffffffff1673ffffffffffffffffffffffffffffffffffffffff1681526020019081526020016000206000808201600090556001820160009055600282016000905550507f9ba1a3cb55ce8d63d072a886f94d2a744f50cddf82128e897d0661f5ec62315882858560405161450693929190615239565b60405180910390a150505050565b614597846323b872dd60e01b85858560405160240161453593929190615239565b604051602081830303815290604052907bffffffffffffffffffffffffffffffffffffffffffffffffffffffff19166020820180517bffffffffffffffffffffffffffffffffffffffffffffffffffffffff838183161783525050505061459d565b50505050565b60006145ff826040518060400160405280602081526020017f5361666545524332303a206c6f772d6c6576656c2063616c6c206661696c65648152508573ffffffffffffffffffffffffffffffffffffffff166146649092919063ffffffff16565b905060008151111561465f578080602001905181019061461f9190614adf565b61465e576040517f08c379a000000000000000000000000000000000000000000000000000000000815260040161465590615771565b60405180910390fd5b5b505050565b6060614673848460008561467c565b90509392505050565b6060824710156146c1576040517f08c379a00000000000000000000000000000000000000000000000000000000081526004016146b8906155d1565b60405180910390fd5b6146ca85614790565b614709576040517f08c379a0000000000000000000000000000000000000000000000000000000008152600401614700906156f1565b60405180910390fd5b6000808673ffffffffffffffffffffffffffffffffffffffff168587604051614732919061509b565b60006040518083038185875af1925050503d806000811461476f576040519150601f19603f3d011682016040523d82523d6000602084013e614774565b606091505b50915091506147848282866147b3565b92505050949350505050565b6000808273ffffffffffffffffffffffffffffffffffffffff163b119050919050565b606083156147c357829050614813565b6000835111156147d65782518084602001fd5b816040517f08c379a000000000000000000000000000000000000000000000000000000000815260040161480a91906154af565b60405180910390fd5b9392505050565b60008135905061482981615ff1565b92915050565b60008151905061483e81615ff1565b92915050565b60008151905061485381616008565b92915050565b6000610160828403121561486c57600080fd5b81905092915050565b600060a0828403121561488757600080fd5b61489160a0615863565b905060006148a18482850161481a565b60008301525060206148b58482850161481a565b60208301525060406148c9848285016148fd565b60408301525060606148dd848285016148fd565b60608301525060806148f1848285016148fd565b60808301525092915050565b60008135905061490c8161601f565b92915050565b6000815190506149218161601f565b92915050565b60008135905061493681616036565b92915050565b60006020828403121561494e57600080fd5b600061495c8482850161481a565b91505092915050565b60006020828403121561497757600080fd5b60006149858482850161482f565b91505092915050565b6000806000606084860312156149a357600080fd5b60006149b18682870161481a565b93505060206149c28682870161481a565b92505060406149d3868287016148fd565b9150509250925092565b600080604083850312156149f057600080fd5b60006149fe8582860161481a565b9250506020614a0f858286016148fd565b9150509250929050565b600080600060608486031215614a2e57600080fd5b6000614a3c8682870161481a565b9350506020614a4d868287016148fd565b9250506040614a5e8682870161481a565b9150509250925092565b600080600080600060a08688031215614a8057600080fd5b6000614a8e8882890161481a565b9550506020614a9f888289016148fd565b9450506040614ab0888289016148fd565b9350506060614ac1888289016148fd565b9250506080614ad2888289016148fd565b9150509295509295909350565b600060208284031215614af157600080fd5b6000614aff84828501614844565b91505092915050565b60006101608284031215614b1b57600080fd5b6000614b2984828501614859565b91505092915050565b600060a08284031215614b4457600080fd5b6000614b5284828501614875565b91505092915050565b600060208284031215614b6d57600080fd5b6000614b7b848285016148fd565b91505092915050565b600060208284031215614b9657600080fd5b6000614ba484828501614912565b91505092915050565b600060208284031215614bbf57600080fd5b6000614bcd84828501614927565b91505092915050565b614bdf81615995565b82525050565b614bee816159a7565b82525050565b614bfd816159b3565b82525050565b614c14614c0f826159b3565b615a84565b82525050565b614c23816159bd565b82525050565b6000614c3482615888565b614c3e818561589e565b9350614c4e818560208601615a20565b614c5781615b1b565b840191505092915050565b6000614c6d82615888565b614c7781856158af565b9350614c87818560208601615a20565b80840191505092915050565b6000614c9e82615893565b614ca881856158ba565b9350614cb8818560208601615a20565b614cc181615b1b565b840191505092915050565b6000614cd96020836158ba565b9150614ce482615b2c565b602082019050919050565b6000614cfc6011836158ba565b9150614d0782615b55565b602082019050919050565b6000614d1f6013836158ba565b9150614d2a82615b7e565b602082019050919050565b6000614d426012836158ba565b9150614d4d82615ba7565b602082019050919050565b6000614d656026836158ba565b9150614d7082615bd0565b604082019050919050565b6000614d886017836158ba565b9150614d9382615c1f565b602082019050919050565b6000614dab6016836158ba565b9150614db682615c48565b602082019050919050565b6000614dce6002836158cb565b9150614dd982615c71565b600282019050919050565b6000614df1600f836158ba565b9150614dfc82615c9a565b602082019050919050565b6000614e146026836158ba565b9150614e1f82615cc3565b604082019050919050565b6000614e37601c836158ba565b9150614e4282615d12565b602082019050919050565b6000614e5a601c836158ba565b9150614e6582615d3b565b602082019050919050565b6000614e7d6020836158ba565b9150614e8882615d64565b602082019050919050565b6000614ea06013836158ba565b9150614eab82615d8d565b602082019050919050565b6000614ec36011836158ba565b9150614ece82615db6565b602082019050919050565b6000614ee66015836158ba565b9150614ef182615ddf565b602082019050919050565b6000614f096007836158ba565b9150614f1482615e08565b602082019050919050565b6000614f2c6014836158ba565b9150614f3782615e31565b602082019050919050565b6000614f4f601d836158ba565b9150614f5a82615e5a565b602082019050919050565b6000614f726011836158ba565b9150614f7d82615e83565b602082019050919050565b6000614f95600e836158ba565b9150614fa082615eac565b602082019050919050565b6000614fb8600f836158ba565b9150614fc382615ed5565b602082019050919050565b6000614fdb602a836158ba565b9150614fe682615efe565b604082019050919050565b6000614ffe6017836158ba565b915061500982615f4d565b602082019050919050565b6000615021600f836158ba565b915061502c82615f76565b602082019050919050565b6000615044601f836158ba565b915061504f82615f9f565b602082019050919050565b6000615067600f836158ba565b915061507282615fc8565b602082019050919050565b61508681615a09565b82525050565b61509581615a13565b82525050565b60006150a78284614c62565b915081905092915050565b60006150bd82614dc1565b91506150c98285614c03565b6020820191506150d98284614c03565b6020820191508190509392505050565b60006020820190506150fe6000830184614bd6565b92915050565b60006040820190506151196000830185614bd6565b6151266020830184614bd6565b9392505050565b600060c0820190506151426000830189614bd6565b61514f6020830188614bd6565b61515c6040830187614bd6565b615169606083018661507d565b615176608083018561507d565b61518360a083018461507d565b979650505050505050565b6000610160820190506151a4600083018e614bd6565b6151b1602083018d614bd6565b6151be604083018c614bd6565b6151cb606083018b61507d565b6151d8608083018a61507d565b6151e560a083018961507d565b6151f260c083018861507d565b6151ff60e083018761507d565b61520d610100830186614bf4565b61521b610120830185614bf4565b61522961014083018461508c565b9c9b505050505050505050505050565b600060608201905061524e6000830186614bd6565b61525b6020830185614bd6565b615268604083018461507d565b949350505050565b600060a0820190506152856000830188614bd6565b6152926020830187614bd6565b61529f604083018661507d565b6152ac606083018561507d565b81810360808301526152be8184614c29565b90509695505050505050565b600060c0820190506152df6000830189614bd6565b6152ec6020830188614bd6565b6152f9604083018761507d565b615306606083018661507d565b615313608083018561507d565b61532060a083018461507d565b979650505050505050565b60006040820190506153406000830185614bd6565b61534d602083018461507d565b9392505050565b600060a0820190506153696000830188614bd6565b615376602083018761507d565b615383604083018661507d565b615390606083018561507d565b61539d608083018461507d565b9695505050505050565b60006020820190506153bc6000830184614be5565b92915050565b6000610120820190506153d8600083018c614bf4565b6153e5602083018b614bd6565b6153f2604083018a61507d565b6153ff6060830189614bd6565b61540c6080830188614bd6565b61541960a083018761507d565b61542660c083018661507d565b61543360e083018561507d565b61544161010083018461507d565b9a9950505050505050505050565b60006080820190506154646000830187614bf4565b615471602083018661508c565b61547e6040830185614bf4565b61548b6060830184614bf4565b95945050505050565b60006020820190506154a96000830184614c1a565b92915050565b600060208201905081810360008301526154c98184614c93565b905092915050565b600060208201905081810360008301526154ea81614ccc565b9050919050565b6000602082019050818103600083015261550a81614cef565b9050919050565b6000602082019050818103600083015261552a81614d12565b9050919050565b6000602082019050818103600083015261554a81614d35565b9050919050565b6000602082019050818103600083015261556a81614d58565b9050919050565b6000602082019050818103600083015261558a81614d7b565b9050919050565b600060208201905081810360008301526155aa81614d9e565b9050919050565b600060208201905081810360008301526155ca81614de4565b9050919050565b600060208201905081810360008301526155ea81614e07565b9050919050565b6000602082019050818103600083015261560a81614e2a565b9050919050565b6000602082019050818103600083015261562a81614e4d565b9050919050565b6000602082019050818103600083015261564a81614e70565b9050919050565b6000602082019050818103600083015261566a81614e93565b9050919050565b6000602082019050818103600083015261568a81614eb6565b9050919050565b600060208201905081810360008301526156aa81614ed9565b9050919050565b600060208201905081810360008301526156ca81614efc565b9050919050565b600060208201905081810360008301526156ea81614f1f565b9050919050565b6000602082019050818103600083015261570a81614f42565b9050919050565b6000602082019050818103600083015261572a81614f65565b9050919050565b6000602082019050818103600083015261574a81614f88565b9050919050565b6000602082019050818103600083015261576a81614fab565b9050919050565b6000602082019050818103600083015261578a81614fce565b9050919050565b600060208201905081810360008301526157aa81614ff1565b9050919050565b600060208201905081810360008301526157ca81615014565b9050919050565b600060208201905081810360008301526157ea81615037565b9050919050565b6000602082019050818103600083015261580a8161505a565b9050919050565b6000602082019050615826600083018461507d565b92915050565b6000606082019050615841600083018661507d565b61584e602083018561507d565b61585b604083018461507d565b949350505050565b600061586d61587e565b90506158798282615a53565b919050565b6000604051905090565b600081519050919050565b600081519050919050565b600082825260208201905092915050565b600081905092915050565b600082825260208201905092915050565b600081905092915050565b60006158e182615a09565b91506158ec83615a09565b9250826158fc576158fb615abd565b5b828204905092915050565b600061591282615a09565b915061591d83615a09565b9250817fffffffffffffffffffffffffffffffffffffffffffffffffffffffffffffffff048311821515161561595657615955615a8e565b5b828202905092915050565b600061596c82615a09565b915061597783615a09565b92508282101561598a57615989615a8e565b5b828203905092915050565b60006159a0826159e9565b9050919050565b60008115159050919050565b6000819050919050565b60007fffffffff0000000000000000000000000000000000000000000000000000000082169050919050565b600073ffffffffffffffffffffffffffffffffffffffff82169050919050565b6000819050919050565b600060ff82169050919050565b60005b83811015615a3e578082015181840152602081019050615a23565b83811115615a4d576000848401525b50505050565b615a5c82615b1b565b810181811067ffffffffffffffff82111715615a7b57615a7a615aec565b5b80604052505050565b6000819050919050565b7f4e487b7100000000000000000000000000000000000000000000000000000000600052601160045260246000fd5b7f4e487b7100000000000000000000000000000000000000000000000000000000600052601260045260246000fd5b7f4e487b7100000000000000000000000000000000000000000000000000000000600052604160045260246000fd5b6000601f19601f8301169050919050565b7f4163636570744c697374696e673a20496e76616c6964205369676e6174757265600082015250565b7f446f6573206e6f74206f776e206974656d000000000000000000000000000000600082015250565b7f696e76616c6964206e6674206164647265737300000000000000000000000000600082015250565b7f4163636570744269643a20455850495245440000000000000000000000000000600082015250565b7f4f776e61626c653a206e6577206f776e657220697320746865207a65726f206160008201527f6464726573730000000000000000000000000000000000000000000000000000602082015250565b7f6e667420616c72656164792077686974656c6973746564000000000000000000600082015250565b7f4163636570744c697374696e673a204558504952454400000000000000000000600082015250565b7f1901000000000000000000000000000000000000000000000000000000000000600082015250565b7f6e6f74206f776e696e67206974656d0000000000000000000000000000000000600082015250565b7f416464726573733a20696e73756666696369656e742062616c616e636520666f60008201527f722063616c6c0000000000000000000000000000000000000000000000000000602082015250565b7f4163636570744269643a20496e76616c6964205369676e617475726500000000600082015250565b7f43616e63656c4269643a20494e56414c49445f5349474e415455524500000000600082015250565b7f4f776e61626c653a2063616c6c6572206973206e6f7420746865206f776e6572600082015250565b7f6e6674206e6f742077686974656c697374656400000000000000000000000000600082015250565b7f6974656d206e6f7420617070726f766564000000000000000000000000000000600082015250565b7f6d75737420686f6c6420656e6f756768206e6674730000000000000000000000600082015250565b7f6d61782066656500000000000000000000000000000000000000000000000000600082015250565b7f4e6f7420656e6f75676820617661696c61626c65000000000000000000000000600082015250565b7f416464726573733a2063616c6c20746f206e6f6e2d636f6e7472616374000000600082015250565b7f4d757374206e6f74206f776e206974656d000000000000000000000000000000600082015250565b7f616c7265616479206c6973746564000000000000000000000000000000000000600082015250565b7f6c697374696e6720657870697265640000000000000000000000000000000000600082015250565b7f5361666545524332303a204552433230206f7065726174696f6e20646964206e60008201527f6f74207375636365656400000000000000000000000000000000000000000000602082015250565b7f696e76616c69642065787069726174696f6e2074696d65000000000000000000600082015250565b7f6e6f7468696e6720746f206c6973740000000000000000000000000000000000600082015250565b7f5265656e7472616e637947756172643a207265656e7472616e742063616c6c00600082015250565b7f6e6f74206c6973746564206974656d0000000000000000000000000000000000600082015250565b615ffa81615995565b811461600557600080fd5b50565b616011816159a7565b811461601c57600080fd5b50565b61602881615a09565b811461603357600080fd5b50565b61603f81615a13565b811461604a57600080fd5b5056fea264697066735822122017c5a085b5280e710114126f1ac23a6c6f3248dbeaf5f2e1e13d0b238505716d64736f6c63430008040033",
  "linkReferences": {},
  "deployedLinkReferences": {}
}