{
  "_format": "hh-sol-artifact-1",
  "contractName": "HiveMarketplace",
  "sourceName": "contracts/HiveMarketplace.sol",
  "abi": [
    {
      "inputs": [
        {
          "internalType": "uint256",
          "name": "_fee",
          "type": "uint256"
        },
        {
          "internalType": "address",
          "name": "_feeRecipient",
          "type": "address"
        },
        {
          "internalType": "address",
          "name": "_paymentToken",
          "type": "address"
        }
      ],
      "stateMutability": "nonpayable",
      "type": "constructor"
    },
    {
      "anonymous": false,
      "inputs": [
        {
          "indexed": false,
          "internalType": "address",
          "name": "nftAddress",
          "type": "address"
        }
      ],
      "name": "CollectionRemoved",
      "type": "event"
    },
    {
      "anonymous": false,
      "inputs": [
        {
          "indexed": false,
          "internalType": "address",
          "name": "nftAddress",
          "type": "address"
        },
        {
          "indexed": false,
          "internalType": "address",
          "name": "royaltyRecipient",
          "type": "address"
        },
        {
          "indexed": false,
          "internalType": "uint256",
          "name": "royaltyFee",
          "type": "uint256"
        }
      ],
      "name": "CollectionUpdated",
      "type": "event"
    },
    {
      "anonymous": false,
      "inputs": [
        {
          "indexed": false,
          "internalType": "address",
          "name": "nftAddress",
          "type": "address"
        },
        {
          "indexed": false,
          "internalType": "address",
          "name": "royaltyRecipient",
          "type": "address"
        },
        {
          "indexed": false,
          "internalType": "uint256",
          "name": "royaltyFee",
          "type": "uint256"
        }
      ],
      "name": "CollectionWhitelisted",
      "type": "event"
    },
    {
      "anonymous": false,
      "inputs": [
        {
          "indexed": false,
          "internalType": "address",
          "name": "seller",
          "type": "address"
        },
        {
          "indexed": false,
          "internalType": "address",
          "name": "nftAddress",
          "type": "address"
        },
        {
          "indexed": false,
          "internalType": "uint256",
          "name": "tokenId",
          "type": "uint256"
        }
      ],
      "name": "ItemCanceled",
      "type": "event"
    },
    {
      "anonymous": false,
      "inputs": [
        {
          "indexed": false,
          "internalType": "address",
          "name": "seller",
          "type": "address"
        },
        {
          "indexed": false,
          "internalType": "address",
          "name": "nftAddress",
          "type": "address"
        },
        {
          "indexed": false,
          "internalType": "uint256",
          "name": "tokenId",
          "type": "uint256"
        },
        {
          "indexed": false,
          "internalType": "uint256",
          "name": "quantity",
          "type": "uint256"
        },
        {
          "indexed": false,
          "internalType": "uint256",
          "name": "pricePerItem",
          "type": "uint256"
        },
        {
          "indexed": false,
          "internalType": "uint256",
          "name": "expirationTime",
          "type": "uint256"
        }
      ],
      "name": "ItemListed",
      "type": "event"
    },
    {
      "anonymous": false,
      "inputs": [
        {
          "indexed": false,
          "internalType": "address",
          "name": "seller",
          "type": "address"
        },
        {
          "indexed": false,
          "internalType": "address",
          "name": "buyer",
          "type": "address"
        },
        {
          "indexed": false,
          "internalType": "address",
          "name": "nftAddress",
          "type": "address"
        },
        {
          "indexed": false,
          "internalType": "uint256",
          "name": "tokenId",
          "type": "uint256"
        },
        {
          "indexed": false,
          "internalType": "uint256",
          "name": "quantity",
          "type": "uint256"
        },
        {
          "indexed": false,
          "internalType": "uint256",
          "name": "pricePerItem",
          "type": "uint256"
        }
      ],
      "name": "ItemSold",
      "type": "event"
    },
    {
      "anonymous": false,
      "inputs": [
        {
          "indexed": false,
          "internalType": "address",
          "name": "seller",
          "type": "address"
        },
        {
          "indexed": false,
          "internalType": "address",
          "name": "nftAddress",
          "type": "address"
        },
        {
          "indexed": false,
          "internalType": "uint256",
          "name": "tokenId",
          "type": "uint256"
        },
        {
          "indexed": false,
          "internalType": "uint256",
          "name": "quantity",
          "type": "uint256"
        },
        {
          "indexed": false,
          "internalType": "uint256",
          "name": "pricePerItem",
          "type": "uint256"
        },
        {
          "indexed": false,
          "internalType": "uint256",
          "name": "expirationTime",
          "type": "uint256"
        }
      ],
      "name": "ItemUpdated",
      "type": "event"
    },
    {
      "anonymous": false,
      "inputs": [
        {
          "indexed": true,
          "internalType": "address",
          "name": "previousOwner",
          "type": "address"
        },
        {
          "indexed": true,
          "internalType": "address",
          "name": "newOwner",
          "type": "address"
        }
      ],
      "name": "OwnershipTransferred",
      "type": "event"
    },
    {
      "anonymous": false,
      "inputs": [
        {
          "indexed": false,
          "internalType": "uint256",
          "name": "fee",
          "type": "uint256"
        }
      ],
      "name": "UpdateFee",
      "type": "event"
    },
    {
      "anonymous": false,
      "inputs": [
        {
          "indexed": false,
          "internalType": "address",
          "name": "feeRecipient",
          "type": "address"
        }
      ],
      "name": "UpdateFeeRecipient",
      "type": "event"
    },
    {
      "anonymous": false,
      "inputs": [
        {
          "indexed": false,
          "internalType": "address",
          "name": "paymentToken",
          "type": "address"
        }
      ],
      "name": "UpdatePaymentToken",
      "type": "event"
    },
    {
      "inputs": [],
      "name": "BASIS_POINTS",
      "outputs": [
        {
          "internalType": "uint256",
          "name": "",
          "type": "uint256"
        }
      ],
      "stateMutability": "view",
      "type": "function"
    },
    {
      "inputs": [
        {
          "internalType": "address",
          "name": "_nft",
          "type": "address"
        },
        {
          "internalType": "address",
          "name": "_royaltyRecipient",
          "type": "address"
        },
        {
          "internalType": "uint256",
          "name": "_royaltyFee",
          "type": "uint256"
        }
      ],
      "name": "addToWhitelist",
      "outputs": [],
      "stateMutability": "nonpayable",
      "type": "function"
    },
    {
      "inputs": [
        {
          "components": [
            {
              "internalType": "address",
              "name": "nftAddress",
              "type": "address"
            },
            {
              "internalType": "address",
              "name": "owner",
              "type": "address"
            },
            {
              "internalType": "uint256",
              "name": "quantity",
              "type": "uint256"
            },
            {
              "internalType": "uint256",
              "name": "tokenId",
              "type": "uint256"
            },
            {
              "internalType": "uint256",
              "name": "pricePerItem",
              "type": "uint256"
            }
          ],
          "internalType": "struct HiveMarketplace.BuyOrder",
          "name": "_buyOrder",
          "type": "tuple"
        }
      ],
      "name": "buyItem",
      "outputs": [],
      "stateMutability": "nonpayable",
      "type": "function"
    },
    {
      "inputs": [
        {
          "internalType": "address",
          "name": "_nftAddress",
          "type": "address"
        },
        {
          "internalType": "uint256",
          "name": "_tokenId",
          "type": "uint256"
        }
      ],
      "name": "cancelListing",
      "outputs": [],
      "stateMutability": "nonpayable",
      "type": "function"
    },
    {
      "inputs": [
        {
          "internalType": "address",
          "name": "_nftAddress",
          "type": "address"
        },
        {
          "internalType": "uint256",
          "name": "_tokenId",
          "type": "uint256"
        },
        {
          "internalType": "uint256",
          "name": "_quantity",
          "type": "uint256"
        },
        {
          "internalType": "uint256",
          "name": "_pricePerItem",
          "type": "uint256"
        },
        {
          "internalType": "uint256",
          "name": "_expirationTime",
          "type": "uint256"
        }
      ],
      "name": "createListing",
      "outputs": [],
      "stateMutability": "nonpayable",
      "type": "function"
    },
    {
      "inputs": [],
      "name": "fee",
      "outputs": [
        {
          "internalType": "uint256",
          "name": "",
          "type": "uint256"
        }
      ],
      "stateMutability": "view",
      "type": "function"
    },
    {
      "inputs": [],
      "name": "feeReceipient",
      "outputs": [
        {
          "internalType": "address",
          "name": "",
          "type": "address"
        }
      ],
      "stateMutability": "view",
      "type": "function"
    },
    {
      "inputs": [
        {
          "internalType": "address",
          "name": "",
          "type": "address"
        },
        {
          "internalType": "uint256",
          "name": "",
          "type": "uint256"
        },
        {
          "internalType": "address",
          "name": "",
          "type": "address"
        }
      ],
      "name": "listings",
      "outputs": [
        {
          "internalType": "uint256",
          "name": "quantity",
          "type": "uint256"
        },
        {
          "internalType": "uint256",
          "name": "pricePerItem",
          "type": "uint256"
        },
        {
          "internalType": "uint256",
          "name": "expirationTime",
          "type": "uint256"
        }
      ],
      "stateMutability": "view",
      "type": "function"
    },
    {
      "inputs": [],
      "name": "owner",
      "outputs": [
        {
          "internalType": "address",
          "name": "",
          "type": "address"
        }
      ],
      "stateMutability": "view",
      "type": "function"
    },
    {
      "inputs": [],
      "name": "paymentToken",
      "outputs": [
        {
          "internalType": "address",
          "name": "",
          "type": "address"
        }
      ],
      "stateMutability": "view",
      "type": "function"
    },
    {
      "inputs": [
        {
          "internalType": "address",
          "name": "_nft",
          "type": "address"
        }
      ],
      "name": "removeFromWhitelist",
      "outputs": [],
      "stateMutability": "nonpayable",
      "type": "function"
    },
    {
      "inputs": [],
      "name": "renounceOwnership",
      "outputs": [],
      "stateMutability": "nonpayable",
      "type": "function"
    },
    {
      "inputs": [
        {
          "internalType": "uint256",
          "name": "_fee",
          "type": "uint256"
        }
      ],
      "name": "setFee",
      "outputs": [],
      "stateMutability": "nonpayable",
      "type": "function"
    },
    {
      "inputs": [
        {
          "internalType": "address",
          "name": "_feeRecipient",
          "type": "address"
        }
      ],
      "name": "setFeeRecipient",
      "outputs": [],
      "stateMutability": "nonpayable",
      "type": "function"
    },
    {
      "inputs": [
        {
          "internalType": "address",
          "name": "_paymentToken",
          "type": "address"
        }
      ],
      "name": "setPaymentToken",
      "outputs": [],
      "stateMutability": "nonpayable",
      "type": "function"
    },
    {
      "inputs": [
        {
          "internalType": "address",
          "name": "newOwner",
          "type": "address"
        }
      ],
      "name": "transferOwnership",
      "outputs": [],
      "stateMutability": "nonpayable",
      "type": "function"
    },
    {
      "inputs": [
        {
          "internalType": "address",
          "name": "_nftAddress",
          "type": "address"
        },
        {
          "internalType": "uint256",
          "name": "_tokenId",
          "type": "uint256"
        },
        {
          "internalType": "uint256",
          "name": "_newQuantity",
          "type": "uint256"
        },
        {
          "internalType": "uint256",
          "name": "_newPricePerItem",
          "type": "uint256"
        },
        {
          "internalType": "uint256",
          "name": "_newExpirationTime",
          "type": "uint256"
        }
      ],
      "name": "updateListing",
      "outputs": [],
      "stateMutability": "nonpayable",
      "type": "function"
    },
    {
      "inputs": [
        {
          "internalType": "address",
          "name": "_nftAddress",
          "type": "address"
        },
        {
          "internalType": "address",
          "name": "_royaltyRecipient",
          "type": "address"
        },
        {
          "internalType": "uint256",
          "name": "_royaltyFee",
          "type": "uint256"
        }
      ],
      "name": "updateWhitelist",
      "outputs": [],
      "stateMutability": "nonpayable",
      "type": "function"
    },
    {
      "inputs": [
        {
          "internalType": "address",
          "name": "",
          "type": "address"
        }
      ],
      "name": "whitelistedCollections",
      "outputs": [
        {
          "internalType": "address",
          "name": "royaltyRecipient",
          "type": "address"
        },
        {
          "internalType": "uint256",
          "name": "royaltyFee",
          "type": "uint256"
        }
      ],
      "stateMutability": "view",
      "type": "function"
    }
  ],
  "bytecode": "0x60806040523480156200001157600080fd5b5060405162004e3b38038062004e3b8339818101604052810190620000379190620004ee565b620000576200004b6200009a60201b60201c565b620000a260201b60201c565b600180819055506200006f836200016660201b60201c565b62000080826200027f60201b60201c565b62000091816200038b60201b60201c565b50505062000707565b600033905090565b60008060009054906101000a900473ffffffffffffffffffffffffffffffffffffffff169050816000806101000a81548173ffffffffffffffffffffffffffffffffffffffff021916908373ffffffffffffffffffffffffffffffffffffffff1602179055508173ffffffffffffffffffffffffffffffffffffffff168173ffffffffffffffffffffffffffffffffffffffff167f8be0079c531659141344cd1fd0a4f28419497f9722a3daafe3b4186f6b6457e060405160405180910390a35050565b620001766200009a60201b60201c565b73ffffffffffffffffffffffffffffffffffffffff166200019c6200049760201b60201c565b73ffffffffffffffffffffffffffffffffffffffff1614620001f5576040517f08c379a0000000000000000000000000000000000000000000000000000000008152600401620001ec90620005d1565b60405180910390fd5b61271081106200023c576040517f08c379a00000000000000000000000000000000000000000000000000000000081526004016200023390620005f3565b60405180910390fd5b806003819055507f38e229a7f3f9c329892d08eb37c4e91ccac6d12c798d394990ca4f56028ec2668160405162000274919062000615565b60405180910390a150565b6200028f6200009a60201b60201c565b73ffffffffffffffffffffffffffffffffffffffff16620002b56200049760201b60201c565b73ffffffffffffffffffffffffffffffffffffffff16146200030e576040517f08c379a00000000000000000000000000000000000000000000000000000000081526004016200030590620005d1565b60405180910390fd5b80600460006101000a81548173ffffffffffffffffffffffffffffffffffffffff021916908373ffffffffffffffffffffffffffffffffffffffff1602179055507f6632de8ab33c46549f7bb29f647ea0d751157b25fe6a14b1bcc7527cdfbeb79c81604051620003809190620005b4565b60405180910390a150565b6200039b6200009a60201b60201c565b73ffffffffffffffffffffffffffffffffffffffff16620003c16200049760201b60201c565b73ffffffffffffffffffffffffffffffffffffffff16146200041a576040517f08c379a00000000000000000000000000000000000000000000000000000000081526004016200041190620005d1565b60405180910390fd5b80600260006101000a81548173ffffffffffffffffffffffffffffffffffffffff021916908373ffffffffffffffffffffffffffffffffffffffff1602179055507fc2125241dd55c14b337aea21dcef108a9fd20a816ae6d4d18560572afce99c4e816040516200048c9190620005b4565b60405180910390a150565b60008060009054906101000a900473ffffffffffffffffffffffffffffffffffffffff16905090565b600081519050620004d181620006d3565b92915050565b600081519050620004e881620006ed565b92915050565b6000806000606084860312156200050457600080fd5b60006200051486828701620004d7565b93505060206200052786828701620004c0565b92505060406200053a86828701620004c0565b9150509250925092565b6200054f8162000643565b82525050565b60006200056460208362000632565b9150620005718262000681565b602082019050919050565b60006200058b60078362000632565b91506200059882620006aa565b602082019050919050565b620005ae8162000677565b82525050565b6000602082019050620005cb600083018462000544565b92915050565b60006020820190508181036000830152620005ec8162000555565b9050919050565b600060208201905081810360008301526200060e816200057c565b9050919050565b60006020820190506200062c6000830184620005a3565b92915050565b600082825260208201905092915050565b6000620006508262000657565b9050919050565b600073ffffffffffffffffffffffffffffffffffffffff82169050919050565b6000819050919050565b7f4f776e61626c653a2063616c6c6572206973206e6f7420746865206f776e6572600082015250565b7f6d61782066656500000000000000000000000000000000000000000000000000600082015250565b620006de8162000643565b8114620006ea57600080fd5b50565b620006f88162000677565b81146200070457600080fd5b50565b61472480620007176000396000f3fe608060405234801561001057600080fd5b50600436106101215760003560e01c80638ab1d681116100ad578063ddca3f4311610071578063ddca3f43146102cd578063e09e83e3146102eb578063e1f1c4a714610307578063e74b981b14610325578063f2fde38b1461034157610121565b80638ab1d6811461023f5780638da5cb5b1461025b5780639057f28914610279578063b2ddee0614610295578063d182c98c146102b157610121565b806369fe0e2d116100f457806369fe0e2d146101af5780636a326ab1146101cb5780636bd3a64b146101e75780636fad040914610219578063715018a61461023557610121565b80630dbf1b4d146101265780633013ce29146101425780633740ebb3146101605780634f05cbd81461017e575b600080fd5b610140600480360381019061013b919061370d565b61035d565b005b61014a610e5e565b6040516101579190613b4e565b60405180910390f35b610168610e84565b6040516101759190613b4e565b60405180910390f35b61019860048036038101906101939190613541565b610eaa565b6040516101a6929190613ce5565b60405180910390f35b6101c960048036038101906101c49190613736565b610eee565b005b6101e560048036038101906101e09190613541565b610fef565b005b61020160048036038101906101fc919061361e565b6110e6565b60405161021093929190614006565b60405180910390f35b610233600480360381019061022e919061366d565b61112a565b005b61023d61171f565b005b61025960048036038101906102549190613541565b6117a7565b005b610263611955565b6040516102709190613b4e565b60405180910390f35b610293600480360381019061028e919061366d565b61197e565b005b6102af60048036038101906102aa91906135e2565b6121d3565b005b6102cb60048036038101906102c69190613593565b61234d565b005b6102d561254e565b6040516102e29190613feb565b60405180910390f35b61030560048036038101906103009190613593565b612554565b005b61030f612753565b60405161031c9190613feb565b60405180910390f35b61033f600480360381019061033a9190613541565b612759565b005b61035b60048036038101906103569190613541565b612850565b005b600260015414156103a3576040517f08c379a000000000000000000000000000000000000000000000000000000000815260040161039a90613fab565b60405180910390fd5b60026001819055508060000151816060015182602001516000600560008573ffffffffffffffffffffffffffffffffffffffff1673ffffffffffffffffffffffffffffffffffffffff168152602001908152602001600020600084815260200190815260200160002060008373ffffffffffffffffffffffffffffffffffffffff1673ffffffffffffffffffffffffffffffffffffffff1681526020019081526020016000206040518060600160405290816000820154815260200160018201548152602001600282015481525050905060008160000151116104bb576040517f08c379a00000000000000000000000000000000000000000000000000000000081526004016104b290613fcb565b60405180910390fd5b8460000151856060015186602001516000600560008573ffffffffffffffffffffffffffffffffffffffff1673ffffffffffffffffffffffffffffffffffffffff168152602001908152602001600020600084815260200190815260200160002060008373ffffffffffffffffffffffffffffffffffffffff1673ffffffffffffffffffffffffffffffffffffffff168152602001908152602001600020604051806060016040529081600082015481526020016001820154815260200160028201548152505090508373ffffffffffffffffffffffffffffffffffffffff166301ffc9a76380ac58cd60e01b6040518263ffffffff1660e01b81526004016105c49190613d0e565b60206040518083038186803b1580156105dc57600080fd5b505afa1580156105f0573d6000803e3d6000fd5b505050506040513d601f19601f8201168201806040525081019061061491906136e4565b1561071a5760008490508273ffffffffffffffffffffffffffffffffffffffff168173ffffffffffffffffffffffffffffffffffffffff16636352211e866040518263ffffffff1660e01b815260040161066e9190613feb565b60206040518083038186803b15801561068657600080fd5b505afa15801561069a573d6000803e3d6000fd5b505050506040513d601f19601f820116820180604052508101906106be919061356a565b73ffffffffffffffffffffffffffffffffffffffff1614610714576040517f08c379a000000000000000000000000000000000000000000000000000000000815260040161070b90613dcb565b60405180910390fd5b506108c6565b8373ffffffffffffffffffffffffffffffffffffffff166301ffc9a763d9b67a2660e01b6040518263ffffffff1660e01b815260040161075a9190613d0e565b60206040518083038186803b15801561077257600080fd5b505afa158015610786573d6000803e3d6000fd5b505050506040513d601f19601f820116820180604052508101906107aa91906136e4565b1561088a57600084905081600001518173ffffffffffffffffffffffffffffffffffffffff1662fdd58e85876040518363ffffffff1660e01b81526004016107f3929190613ce5565b60206040518083038186803b15801561080b57600080fd5b505afa15801561081f573d6000803e3d6000fd5b505050506040513d601f19601f82011682018060405250810190610843919061375f565b1015610884576040517f08c379a000000000000000000000000000000000000000000000000000000000815260040161087b90613dcb565b60405180910390fd5b506108c5565b6040517f08c379a00000000000000000000000000000000000000000000000000000000081526004016108bc90613d6b565b60405180910390fd5b5b428160400151101561090d576040517f08c379a000000000000000000000000000000000000000000000000000000000815260040161090490613f2b565b60405180910390fd5b886020015173ffffffffffffffffffffffffffffffffffffffff16610930612948565b73ffffffffffffffffffffffffffffffffffffffff161415610987576040517f08c379a000000000000000000000000000000000000000000000000000000000815260040161097e90613eeb565b60405180910390fd5b6000600560008b6000015173ffffffffffffffffffffffffffffffffffffffff1673ffffffffffffffffffffffffffffffffffffffff16815260200190815260200160002060008b60600151815260200190815260200160002060008b6020015173ffffffffffffffffffffffffffffffffffffffff1673ffffffffffffffffffffffffffffffffffffffff16815260200190815260200160002060405180606001604052908160008201548152602001600182015481526020016002820154815250509050896040015181600001511015610a98576040517f08c379a0000000000000000000000000000000000000000000000000000000008152600401610a8f90613eab565b60405180910390fd5b896000015173ffffffffffffffffffffffffffffffffffffffff166301ffc9a76380ac58cd60e01b6040518263ffffffff1660e01b8152600401610adc9190613d0e565b60206040518083038186803b158015610af457600080fd5b505afa158015610b08573d6000803e3d6000fd5b505050506040513d601f19601f82011682018060405250810190610b2c91906136e4565b15610bb857896000015173ffffffffffffffffffffffffffffffffffffffff166342842e0e8b60200151610b5e612948565b8d606001516040518463ffffffff1660e01b8152600401610b8193929190613bf3565b600060405180830381600087803b158015610b9b57600080fd5b505af1158015610baf573d6000803e3d6000fd5b50505050610c52565b896000015173ffffffffffffffffffffffffffffffffffffffff1663f242432a8b60200151610be5612948565b8d606001518e60400151604051806020016040528060008152506040518663ffffffff1660e01b8152600401610c1f959493929190613c2a565b600060405180830381600087803b158015610c3957600080fd5b505af1158015610c4d573d6000803e3d6000fd5b505050505b896040015181600001511415610d1b57600560008b6000015173ffffffffffffffffffffffffffffffffffffffff1673ffffffffffffffffffffffffffffffffffffffff16815260200190815260200160002060008b60600151815260200190815260200160002060008b6020015173ffffffffffffffffffffffffffffffffffffffff1673ffffffffffffffffffffffffffffffffffffffff168152602001908152602001600020600080820160009055600182016000905560028201600090555050610dd3565b8960400151600560008c6000015173ffffffffffffffffffffffffffffffffffffffff1673ffffffffffffffffffffffffffffffffffffffff16815260200190815260200160002060008c60600151815260200190815260200160002060008c6020015173ffffffffffffffffffffffffffffffffffffffff1673ffffffffffffffffffffffffffffffffffffffff1681526020019081526020016000206000016000828254610dcb9190614130565b925050819055505b7f57d8d9cd489eb6f4aa398aa92b49d164d28fde9e7000b5c186bf1b3647a9ebb78a60200151610e01612948565b8c600001518d606001518e604001518660200151604051610e2796959493929190613b92565b60405180910390a1610e4b81602001518b604001518c602001518d60000151612950565b5050505050505050506001808190555050565b600260009054906101000a900473ffffffffffffffffffffffffffffffffffffffff1681565b600460009054906101000a900473ffffffffffffffffffffffffffffffffffffffff1681565b60066020528060005260406000206000915090508060000160009054906101000a900473ffffffffffffffffffffffffffffffffffffffff16908060010154905082565b610ef6612948565b73ffffffffffffffffffffffffffffffffffffffff16610f14611955565b73ffffffffffffffffffffffffffffffffffffffff1614610f6a576040517f08c379a0000000000000000000000000000000000000000000000000000000008152600401610f6190613e0b565b60405180910390fd5b6127108110610fae576040517f08c379a0000000000000000000000000000000000000000000000000000000008152600401610fa590613e8b565b60405180910390fd5b806003819055507f38e229a7f3f9c329892d08eb37c4e91ccac6d12c798d394990ca4f56028ec26681604051610fe49190613feb565b60405180910390a150565b610ff7612948565b73ffffffffffffffffffffffffffffffffffffffff16611015611955565b73ffffffffffffffffffffffffffffffffffffffff161461106b576040517f08c379a000000000000000000000000000000000000000000000000000000000815260040161106290613e0b565b60405180910390fd5b80600260006101000a81548173ffffffffffffffffffffffffffffffffffffffff021916908373ffffffffffffffffffffffffffffffffffffffff1602179055507fc2125241dd55c14b337aea21dcef108a9fd20a816ae6d4d18560572afce99c4e816040516110db9190613b4e565b60405180910390a150565b600560205282600052604060002060205281600052604060002060205280600052604060002060009250925050508060000154908060010154908060020154905083565b60026001541415611170576040517f08c379a000000000000000000000000000000000000000000000000000000000815260040161116790613fab565b60405180910390fd5b60026001819055508484611182612948565b6000600560008573ffffffffffffffffffffffffffffffffffffffff1673ffffffffffffffffffffffffffffffffffffffff168152602001908152602001600020600084815260200190815260200160002060008373ffffffffffffffffffffffffffffffffffffffff1673ffffffffffffffffffffffffffffffffffffffff168152602001908152602001600020604051806060016040529081600082015481526020016001820154815260200160028201548152505090506000816000015111611283576040517f08c379a000000000000000000000000000000000000000000000000000000000815260040161127a90613fcb565b60405180910390fd5b4285116112c5576040517f08c379a00000000000000000000000000000000000000000000000000000000081526004016112bc90613f6b565b60405180910390fd5b6000600560008b73ffffffffffffffffffffffffffffffffffffffff1673ffffffffffffffffffffffffffffffffffffffff16815260200190815260200160002060008a81526020019081526020016000206000611321612948565b73ffffffffffffffffffffffffffffffffffffffff1673ffffffffffffffffffffffffffffffffffffffff16815260200190815260200160002090508973ffffffffffffffffffffffffffffffffffffffff166301ffc9a76380ac58cd60e01b6040518263ffffffff1660e01b815260040161139d9190613d0e565b60206040518083038186803b1580156113b557600080fd5b505afa1580156113c9573d6000803e3d6000fd5b505050506040513d601f19601f820116820180604052508101906113ed91906136e4565b156114fa5760008a90506113ff612948565b73ffffffffffffffffffffffffffffffffffffffff168173ffffffffffffffffffffffffffffffffffffffff16636352211e8c6040518263ffffffff1660e01b815260040161144e9190613feb565b60206040518083038186803b15801561146657600080fd5b505afa15801561147a573d6000803e3d6000fd5b505050506040513d601f19601f8201168201806040525081019061149e919061356a565b73ffffffffffffffffffffffffffffffffffffffff16146114f4576040517f08c379a00000000000000000000000000000000000000000000000000000000081526004016114eb90613dcb565b60405180910390fd5b506116a9565b8973ffffffffffffffffffffffffffffffffffffffff166301ffc9a763d9b67a2660e01b6040518263ffffffff1660e01b815260040161153a9190613d0e565b60206040518083038186803b15801561155257600080fd5b505afa158015611566573d6000803e3d6000fd5b505050506040513d601f19601f8201168201806040525081019061158a91906136e4565b1561166d5760008a9050888173ffffffffffffffffffffffffffffffffffffffff1662fdd58e6115b8612948565b8d6040518363ffffffff1660e01b81526004016115d6929190613ce5565b60206040518083038186803b1580156115ee57600080fd5b505afa158015611602573d6000803e3d6000fd5b505050506040513d601f19601f82011682018060405250810190611626919061375f565b1015611667576040517f08c379a000000000000000000000000000000000000000000000000000000000815260040161165e90613e6b565b60405180910390fd5b506116a8565b6040517f08c379a000000000000000000000000000000000000000000000000000000000815260040161169f90613d6b565b60405180910390fd5b5b8781600001819055508681600101819055508581600201819055507f25a89891a024b83ce77c6fc45ddada8564a9534184cd91a6db6c1f542e55abd86116ed612948565b8b8b8b8b8b60405161170496959493929190613c84565b60405180910390a15050505050600180819055505050505050565b611727612948565b73ffffffffffffffffffffffffffffffffffffffff16611745611955565b73ffffffffffffffffffffffffffffffffffffffff161461179b576040517f08c379a000000000000000000000000000000000000000000000000000000000815260040161179290613e0b565b60405180910390fd5b6117a56000612baa565b565b6117af612948565b73ffffffffffffffffffffffffffffffffffffffff166117cd611955565b73ffffffffffffffffffffffffffffffffffffffff1614611823576040517f08c379a000000000000000000000000000000000000000000000000000000000815260040161181a90613e0b565b60405180910390fd5b806000600660008373ffffffffffffffffffffffffffffffffffffffff1673ffffffffffffffffffffffffffffffffffffffff16815260200190815260200160002060010154116118a9576040517f08c379a00000000000000000000000000000000000000000000000000000000081526004016118a090613e2b565b60405180910390fd5b600660008373ffffffffffffffffffffffffffffffffffffffff1673ffffffffffffffffffffffffffffffffffffffff168152602001908152602001600020600080820160006101000a81549073ffffffffffffffffffffffffffffffffffffffff0219169055600182016000905550507fa0691bd707b2f65c33c8343d61c274df72c6b5007937dcfbc31aa5a0d0f6fe3c826040516119499190613b4e565b60405180910390a15050565b60008060009054906101000a900473ffffffffffffffffffffffffffffffffffffffff16905090565b8484611988612948565b6000600560008573ffffffffffffffffffffffffffffffffffffffff1673ffffffffffffffffffffffffffffffffffffffff168152602001908152602001600020600084815260200190815260200160002060008373ffffffffffffffffffffffffffffffffffffffff1673ffffffffffffffffffffffffffffffffffffffff168152602001908152602001600020604051806060016040529081600082015481526020016001820154815260200160028201548152505090506000816000015114611a89576040517f08c379a0000000000000000000000000000000000000000000000000000000008152600401611a8090613f0b565b60405180910390fd5b886000600660008373ffffffffffffffffffffffffffffffffffffffff1673ffffffffffffffffffffffffffffffffffffffff1681526020019081526020016000206001015411611b0f576040517f08c379a0000000000000000000000000000000000000000000000000000000008152600401611b0690613e2b565b60405180910390fd5b6000861415611b3c577fffffffffffffffffffffffffffffffffffffffffffffffffffffffffffffffff95505b428611611b7e576040517f08c379a0000000000000000000000000000000000000000000000000000000008152600401611b7590613f6b565b60405180910390fd5b60008811611bc1576040517f08c379a0000000000000000000000000000000000000000000000000000000008152600401611bb890613f8b565b60405180910390fd5b8973ffffffffffffffffffffffffffffffffffffffff166301ffc9a76380ac58cd60e01b6040518263ffffffff1660e01b8152600401611c019190613d0e565b60206040518083038186803b158015611c1957600080fd5b505afa158015611c2d573d6000803e3d6000fd5b505050506040513d601f19601f82011682018060405250810190611c5191906136e4565b15611e2f5760008a9050611c63612948565b73ffffffffffffffffffffffffffffffffffffffff168173ffffffffffffffffffffffffffffffffffffffff16636352211e8c6040518263ffffffff1660e01b8152600401611cb29190613feb565b60206040518083038186803b158015611cca57600080fd5b505afa158015611cde573d6000803e3d6000fd5b505050506040513d601f19601f82011682018060405250810190611d02919061356a565b73ffffffffffffffffffffffffffffffffffffffff1614611d58576040517f08c379a0000000000000000000000000000000000000000000000000000000008152600401611d4f90613dcb565b60405180910390fd5b8073ffffffffffffffffffffffffffffffffffffffff1663e985e9c5611d7c612948565b306040518363ffffffff1660e01b8152600401611d9a929190613b69565b60206040518083038186803b158015611db257600080fd5b505afa158015611dc6573d6000803e3d6000fd5b505050506040513d601f19601f82011682018060405250810190611dea91906136e4565b611e29576040517f08c379a0000000000000000000000000000000000000000000000000000000008152600401611e2090613e4b565b60405180910390fd5b506120af565b8973ffffffffffffffffffffffffffffffffffffffff166301ffc9a763d9b67a2660e01b6040518263ffffffff1660e01b8152600401611e6f9190613d0e565b60206040518083038186803b158015611e8757600080fd5b505afa158015611e9b573d6000803e3d6000fd5b505050506040513d601f19601f82011682018060405250810190611ebf91906136e4565b156120735760008a9050888173ffffffffffffffffffffffffffffffffffffffff1662fdd58e611eed612948565b8d6040518363ffffffff1660e01b8152600401611f0b929190613ce5565b60206040518083038186803b158015611f2357600080fd5b505afa158015611f37573d6000803e3d6000fd5b505050506040513d601f19601f82011682018060405250810190611f5b919061375f565b1015611f9c576040517f08c379a0000000000000000000000000000000000000000000000000000000008152600401611f9390613e6b565b60405180910390fd5b8073ffffffffffffffffffffffffffffffffffffffff1663e985e9c5611fc0612948565b306040518363ffffffff1660e01b8152600401611fde929190613b69565b60206040518083038186803b158015611ff657600080fd5b505afa15801561200a573d6000803e3d6000fd5b505050506040513d601f19601f8201168201806040525081019061202e91906136e4565b61206d576040517f08c379a000000000000000000000000000000000000000000000000000000000815260040161206490613e4b565b60405180910390fd5b506120ae565b6040517f08c379a00000000000000000000000000000000000000000000000000000000081526004016120a590613d6b565b60405180910390fd5b5b604051806060016040528089815260200188815260200187815250600560008c73ffffffffffffffffffffffffffffffffffffffff1673ffffffffffffffffffffffffffffffffffffffff16815260200190815260200160002060008b81526020019081526020016000206000612124612948565b73ffffffffffffffffffffffffffffffffffffffff1673ffffffffffffffffffffffffffffffffffffffff1681526020019081526020016000206000820151816000015560208201518160010155604082015181600201559050507f66bd0bc88d76947965bc00f670f5c5b25aebab9fef6cb916d8c63a253ec392b76121a8612948565b8b8b8b8b8b6040516121bf96959493929190613c84565b60405180910390a150505050505050505050565b60026001541415612219576040517f08c379a000000000000000000000000000000000000000000000000000000000815260040161221090613fab565b60405180910390fd5b6002600181905550818161222b612948565b6000600560008573ffffffffffffffffffffffffffffffffffffffff1673ffffffffffffffffffffffffffffffffffffffff168152602001908152602001600020600084815260200190815260200160002060008373ffffffffffffffffffffffffffffffffffffffff1673ffffffffffffffffffffffffffffffffffffffff16815260200190815260200160002060405180606001604052908160008201548152602001600182015481526020016002820154815250509050600081600001511161232c576040517f08c379a000000000000000000000000000000000000000000000000000000000815260040161232390613fcb565b60405180910390fd5b61233e8686612339612948565b612c6e565b50505050600180819055505050565b612355612948565b73ffffffffffffffffffffffffffffffffffffffff16612373611955565b73ffffffffffffffffffffffffffffffffffffffff16146123c9576040517f08c379a00000000000000000000000000000000000000000000000000000000081526004016123c090613e0b565b60405180910390fd5b826000600660008373ffffffffffffffffffffffffffffffffffffffff1673ffffffffffffffffffffffffffffffffffffffff168152602001908152602001600020600101541161244f576040517f08c379a000000000000000000000000000000000000000000000000000000000815260040161244690613e2b565b60405180910390fd5b60405180604001604052808473ffffffffffffffffffffffffffffffffffffffff16815260200183815250600660008673ffffffffffffffffffffffffffffffffffffffff1673ffffffffffffffffffffffffffffffffffffffff16815260200190815260200160002060008201518160000160006101000a81548173ffffffffffffffffffffffffffffffffffffffff021916908373ffffffffffffffffffffffffffffffffffffffff160217905550602082015181600101559050507f1e37bc437a6eef66beaf65888fcbb24a15cbac885105fc4b3cb99f3e1a90da2184848460405161254093929190613bf3565b60405180910390a150505050565b60035481565b61255c612948565b73ffffffffffffffffffffffffffffffffffffffff1661257a611955565b73ffffffffffffffffffffffffffffffffffffffff16146125d0576040517f08c379a00000000000000000000000000000000000000000000000000000000081526004016125c790613e0b565b60405180910390fd5b6000600660008573ffffffffffffffffffffffffffffffffffffffff1673ffffffffffffffffffffffffffffffffffffffff1681526020019081526020016000206001015414612655576040517f08c379a000000000000000000000000000000000000000000000000000000000815260040161264c90613dab565b60405180910390fd5b60405180604001604052808373ffffffffffffffffffffffffffffffffffffffff16815260200182815250600660008573ffffffffffffffffffffffffffffffffffffffff1673ffffffffffffffffffffffffffffffffffffffff16815260200190815260200160002060008201518160000160006101000a81548173ffffffffffffffffffffffffffffffffffffffff021916908373ffffffffffffffffffffffffffffffffffffffff160217905550602082015181600101559050507ffbd45b78399bdcbdef5bdce5ed51abb5fd3fb3f2baf9622a3d2e81b76c159d3083838360405161274693929190613bf3565b60405180910390a1505050565b61271081565b612761612948565b73ffffffffffffffffffffffffffffffffffffffff1661277f611955565b73ffffffffffffffffffffffffffffffffffffffff16146127d5576040517f08c379a00000000000000000000000000000000000000000000000000000000081526004016127cc90613e0b565b60405180910390fd5b80600460006101000a81548173ffffffffffffffffffffffffffffffffffffffff021916908373ffffffffffffffffffffffffffffffffffffffff1602179055507f6632de8ab33c46549f7bb29f647ea0d751157b25fe6a14b1bcc7527cdfbeb79c816040516128459190613b4e565b60405180910390a150565b612858612948565b73ffffffffffffffffffffffffffffffffffffffff16612876611955565b73ffffffffffffffffffffffffffffffffffffffff16146128cc576040517f08c379a00000000000000000000000000000000000000000000000000000000081526004016128c390613e0b565b60405180910390fd5b600073ffffffffffffffffffffffffffffffffffffffff168173ffffffffffffffffffffffffffffffffffffffff16141561293c576040517f08c379a000000000000000000000000000000000000000000000000000000000815260040161293390613d8b565b60405180910390fd5b61294581612baa565b50565b600033905090565b6000838561295e91906140d6565b90506000811115612ba35760006127106003548361297c91906140d6565b61298691906140a5565b90506000600660008573ffffffffffffffffffffffffffffffffffffffff1673ffffffffffffffffffffffffffffffffffffffff1681526020019081526020016000206040518060400160405290816000820160009054906101000a900473ffffffffffffffffffffffffffffffffffffffff1673ffffffffffffffffffffffffffffffffffffffff1673ffffffffffffffffffffffffffffffffffffffff16815260200160018201548152505090506000612710826020015185612a4b91906140d6565b612a5591906140a5565b9050612acf612a62612948565b600460009054906101000a900473ffffffffffffffffffffffffffffffffffffffff1685600260009054906101000a900473ffffffffffffffffffffffffffffffffffffffff1673ffffffffffffffffffffffffffffffffffffffff1661315a909392919063ffffffff16565b6000811115612b3357612b32612ae3612948565b836000015183600260009054906101000a900473ffffffffffffffffffffffffffffffffffffffff1673ffffffffffffffffffffffffffffffffffffffff1661315a909392919063ffffffff16565b5b612b9f612b3e612948565b87838688612b4c9190614130565b612b569190614130565b600260009054906101000a900473ffffffffffffffffffffffffffffffffffffffff1673ffffffffffffffffffffffffffffffffffffffff1661315a909392919063ffffffff16565b5050505b5050505050565b60008060009054906101000a900473ffffffffffffffffffffffffffffffffffffffff169050816000806101000a81548173ffffffffffffffffffffffffffffffffffffffff021916908373ffffffffffffffffffffffffffffffffffffffff1602179055508173ffffffffffffffffffffffffffffffffffffffff168173ffffffffffffffffffffffffffffffffffffffff167f8be0079c531659141344cd1fd0a4f28419497f9722a3daafe3b4186f6b6457e060405160405180910390a35050565b6000600560008573ffffffffffffffffffffffffffffffffffffffff1673ffffffffffffffffffffffffffffffffffffffff168152602001908152602001600020600084815260200190815260200160002060008373ffffffffffffffffffffffffffffffffffffffff1673ffffffffffffffffffffffffffffffffffffffff168152602001908152602001600020604051806060016040529081600082015481526020016001820154815260200160028201548152505090508373ffffffffffffffffffffffffffffffffffffffff166301ffc9a76380ac58cd60e01b6040518263ffffffff1660e01b8152600401612d689190613d0e565b60206040518083038186803b158015612d8057600080fd5b505afa158015612d94573d6000803e3d6000fd5b505050506040513d601f19601f82011682018060405250810190612db891906136e4565b15612ebe5760008490508273ffffffffffffffffffffffffffffffffffffffff168173ffffffffffffffffffffffffffffffffffffffff16636352211e866040518263ffffffff1660e01b8152600401612e129190613feb565b60206040518083038186803b158015612e2a57600080fd5b505afa158015612e3e573d6000803e3d6000fd5b505050506040513d601f19601f82011682018060405250810190612e62919061356a565b73ffffffffffffffffffffffffffffffffffffffff1614612eb8576040517f08c379a0000000000000000000000000000000000000000000000000000000008152600401612eaf90613d4b565b60405180910390fd5b50613071565b8373ffffffffffffffffffffffffffffffffffffffff166301ffc9a763d9b67a2660e01b6040518263ffffffff1660e01b8152600401612efe9190613d0e565b60206040518083038186803b158015612f1657600080fd5b505afa158015612f2a573d6000803e3d6000fd5b505050506040513d601f19601f82011682018060405250810190612f4e91906136e4565b1561303557600084905081600001518173ffffffffffffffffffffffffffffffffffffffff1662fdd58e612f80612948565b876040518363ffffffff1660e01b8152600401612f9e929190613ce5565b60206040518083038186803b158015612fb657600080fd5b505afa158015612fca573d6000803e3d6000fd5b505050506040513d601f19601f82011682018060405250810190612fee919061375f565b101561302f576040517f08c379a000000000000000000000000000000000000000000000000000000000815260040161302690613d4b565b60405180910390fd5b50613070565b6040517f08c379a000000000000000000000000000000000000000000000000000000000815260040161306790613d6b565b60405180910390fd5b5b600560008573ffffffffffffffffffffffffffffffffffffffff1673ffffffffffffffffffffffffffffffffffffffff168152602001908152602001600020600084815260200190815260200160002060008373ffffffffffffffffffffffffffffffffffffffff1673ffffffffffffffffffffffffffffffffffffffff1681526020019081526020016000206000808201600090556001820160009055600282016000905550507f9ba1a3cb55ce8d63d072a886f94d2a744f50cddf82128e897d0661f5ec62315882858560405161314c93929190613bf3565b60405180910390a150505050565b6131dd846323b872dd60e01b85858560405160240161317b93929190613bf3565b604051602081830303815290604052907bffffffffffffffffffffffffffffffffffffffffffffffffffffffff19166020820180517bffffffffffffffffffffffffffffffffffffffffffffffffffffffff83818316178352505050506131e3565b50505050565b6000613245826040518060400160405280602081526020017f5361666545524332303a206c6f772d6c6576656c2063616c6c206661696c65648152508573ffffffffffffffffffffffffffffffffffffffff166132aa9092919063ffffffff16565b90506000815111156132a5578080602001905181019061326591906136e4565b6132a4576040517f08c379a000000000000000000000000000000000000000000000000000000000815260040161329b90613f4b565b60405180910390fd5b5b505050565b60606132b984846000856132c2565b90509392505050565b606082471015613307576040517f08c379a00000000000000000000000000000000000000000000000000000000081526004016132fe90613deb565b60405180910390fd5b613310856133d6565b61334f576040517f08c379a000000000000000000000000000000000000000000000000000000000815260040161334690613ecb565b60405180910390fd5b6000808673ffffffffffffffffffffffffffffffffffffffff1685876040516133789190613b37565b60006040518083038185875af1925050503d80600081146133b5576040519150601f19603f3d011682016040523d82523d6000602084013e6133ba565b606091505b50915091506133ca8282866133e9565b92505050949350505050565b600080823b905060008111915050919050565b606083156133f957829050613449565b60008351111561340c5782518084602001fd5b816040517f08c379a00000000000000000000000000000000000000000000000000000000081526004016134409190613d29565b60405180910390fd5b9392505050565b60008135905061345f816146a9565b92915050565b600081519050613474816146a9565b92915050565b600081519050613489816146c0565b92915050565b600060a082840312156134a157600080fd5b6134ab60a061403d565b905060006134bb84828501613450565b60008301525060206134cf84828501613450565b60208301525060406134e384828501613517565b60408301525060606134f784828501613517565b606083015250608061350b84828501613517565b60808301525092915050565b600081359050613526816146d7565b92915050565b60008151905061353b816146d7565b92915050565b60006020828403121561355357600080fd5b600061356184828501613450565b91505092915050565b60006020828403121561357c57600080fd5b600061358a84828501613465565b91505092915050565b6000806000606084860312156135a857600080fd5b60006135b686828701613450565b93505060206135c786828701613450565b92505060406135d886828701613517565b9150509250925092565b600080604083850312156135f557600080fd5b600061360385828601613450565b925050602061361485828601613517565b9150509250929050565b60008060006060848603121561363357600080fd5b600061364186828701613450565b935050602061365286828701613517565b925050604061366386828701613450565b9150509250925092565b600080600080600060a0868803121561368557600080fd5b600061369388828901613450565b95505060206136a488828901613517565b94505060406136b588828901613517565b93505060606136c688828901613517565b92505060806136d788828901613517565b9150509295509295909350565b6000602082840312156136f657600080fd5b60006137048482850161347a565b91505092915050565b600060a0828403121561371f57600080fd5b600061372d8482850161348f565b91505092915050565b60006020828403121561374857600080fd5b600061375684828501613517565b91505092915050565b60006020828403121561377157600080fd5b600061377f8482850161352c565b91505092915050565b61379181614164565b82525050565b6137a081614182565b82525050565b60006137b182614062565b6137bb8185614078565b93506137cb8185602086016141d8565b6137d4816142c9565b840191505092915050565b60006137ea82614062565b6137f48185614089565b93506138048185602086016141d8565b80840191505092915050565b600061381b8261406d565b6138258185614094565b93506138358185602086016141d8565b61383e816142c9565b840191505092915050565b6000613856601183614094565b9150613861826142da565b602082019050919050565b6000613879601383614094565b915061388482614303565b602082019050919050565b600061389c602683614094565b91506138a78261432c565b604082019050919050565b60006138bf601783614094565b91506138ca8261437b565b602082019050919050565b60006138e2600f83614094565b91506138ed826143a4565b602082019050919050565b6000613905602683614094565b9150613910826143cd565b604082019050919050565b6000613928602083614094565b91506139338261441c565b602082019050919050565b600061394b601383614094565b915061395682614445565b602082019050919050565b600061396e601183614094565b91506139798261446e565b602082019050919050565b6000613991601583614094565b915061399c82614497565b602082019050919050565b60006139b4600783614094565b91506139bf826144c0565b602082019050919050565b60006139d7601483614094565b91506139e2826144e9565b602082019050919050565b60006139fa601d83614094565b9150613a0582614512565b602082019050919050565b6000613a1d601183614094565b9150613a288261453b565b602082019050919050565b6000613a40600e83614094565b9150613a4b82614564565b602082019050919050565b6000613a63600f83614094565b9150613a6e8261458d565b602082019050919050565b6000613a86602a83614094565b9150613a91826145b6565b604082019050919050565b6000613aa9601783614094565b9150613ab482614605565b602082019050919050565b6000613acc600f83614094565b9150613ad78261462e565b602082019050919050565b6000613aef601f83614094565b9150613afa82614657565b602082019050919050565b6000613b12600f83614094565b9150613b1d82614680565b602082019050919050565b613b31816141ce565b82525050565b6000613b4382846137df565b915081905092915050565b6000602082019050613b636000830184613788565b92915050565b6000604082019050613b7e6000830185613788565b613b8b6020830184613788565b9392505050565b600060c082019050613ba76000830189613788565b613bb46020830188613788565b613bc16040830187613788565b613bce6060830186613b28565b613bdb6080830185613b28565b613be860a0830184613b28565b979650505050505050565b6000606082019050613c086000830186613788565b613c156020830185613788565b613c226040830184613b28565b949350505050565b600060a082019050613c3f6000830188613788565b613c4c6020830187613788565b613c596040830186613b28565b613c666060830185613b28565b8181036080830152613c7881846137a6565b90509695505050505050565b600060c082019050613c996000830189613788565b613ca66020830188613788565b613cb36040830187613b28565b613cc06060830186613b28565b613ccd6080830185613b28565b613cda60a0830184613b28565b979650505050505050565b6000604082019050613cfa6000830185613788565b613d076020830184613b28565b9392505050565b6000602082019050613d236000830184613797565b92915050565b60006020820190508181036000830152613d438184613810565b905092915050565b60006020820190508181036000830152613d6481613849565b9050919050565b60006020820190508181036000830152613d848161386c565b9050919050565b60006020820190508181036000830152613da48161388f565b9050919050565b60006020820190508181036000830152613dc4816138b2565b9050919050565b60006020820190508181036000830152613de4816138d5565b9050919050565b60006020820190508181036000830152613e04816138f8565b9050919050565b60006020820190508181036000830152613e248161391b565b9050919050565b60006020820190508181036000830152613e448161393e565b9050919050565b60006020820190508181036000830152613e6481613961565b9050919050565b60006020820190508181036000830152613e8481613984565b9050919050565b60006020820190508181036000830152613ea4816139a7565b9050919050565b60006020820190508181036000830152613ec4816139ca565b9050919050565b60006020820190508181036000830152613ee4816139ed565b9050919050565b60006020820190508181036000830152613f0481613a10565b9050919050565b60006020820190508181036000830152613f2481613a33565b9050919050565b60006020820190508181036000830152613f4481613a56565b9050919050565b60006020820190508181036000830152613f6481613a79565b9050919050565b60006020820190508181036000830152613f8481613a9c565b9050919050565b60006020820190508181036000830152613fa481613abf565b9050919050565b60006020820190508181036000830152613fc481613ae2565b9050919050565b60006020820190508181036000830152613fe481613b05565b9050919050565b60006020820190506140006000830184613b28565b92915050565b600060608201905061401b6000830186613b28565b6140286020830185613b28565b6140356040830184613b28565b949350505050565b6000614047614058565b9050614053828261420b565b919050565b6000604051905090565b600081519050919050565b600081519050919050565b600082825260208201905092915050565b600081905092915050565b600082825260208201905092915050565b60006140b0826141ce565b91506140bb836141ce565b9250826140cb576140ca61426b565b5b828204905092915050565b60006140e1826141ce565b91506140ec836141ce565b9250817fffffffffffffffffffffffffffffffffffffffffffffffffffffffffffffffff04831182151516156141255761412461423c565b5b828202905092915050565b600061413b826141ce565b9150614146836141ce565b9250828210156141595761415861423c565b5b828203905092915050565b600061416f826141ae565b9050919050565b60008115159050919050565b60007fffffffff0000000000000000000000000000000000000000000000000000000082169050919050565b600073ffffffffffffffffffffffffffffffffffffffff82169050919050565b6000819050919050565b60005b838110156141f65780820151818401526020810190506141db565b83811115614205576000848401525b50505050565b614214826142c9565b810181811067ffffffffffffffff821117156142335761423261429a565b5b80604052505050565b7f4e487b7100000000000000000000000000000000000000000000000000000000600052601160045260246000fd5b7f4e487b7100000000000000000000000000000000000000000000000000000000600052601260045260246000fd5b7f4e487b7100000000000000000000000000000000000000000000000000000000600052604160045260246000fd5b6000601f19601f8301169050919050565b7f446f6573206e6f74206f776e206974656d000000000000000000000000000000600082015250565b7f696e76616c6964206e6674206164647265737300000000000000000000000000600082015250565b7f4f776e61626c653a206e6577206f776e657220697320746865207a65726f206160008201527f6464726573730000000000000000000000000000000000000000000000000000602082015250565b7f6e667420616c72656164792077686974656c6973746564000000000000000000600082015250565b7f6e6f74206f776e696e67206974656d0000000000000000000000000000000000600082015250565b7f416464726573733a20696e73756666696369656e742062616c616e636520666f60008201527f722063616c6c0000000000000000000000000000000000000000000000000000602082015250565b7f4f776e61626c653a2063616c6c6572206973206e6f7420746865206f776e6572600082015250565b7f6e6674206e6f742077686974656c697374656400000000000000000000000000600082015250565b7f6974656d206e6f7420617070726f766564000000000000000000000000000000600082015250565b7f6d75737420686f6c6420656e6f756768206e6674730000000000000000000000600082015250565b7f6d61782066656500000000000000000000000000000000000000000000000000600082015250565b7f4e6f7420656e6f75676820617661696c61626c65000000000000000000000000600082015250565b7f416464726573733a2063616c6c20746f206e6f6e2d636f6e7472616374000000600082015250565b7f4d757374206e6f74206f776e206974656d000000000000000000000000000000600082015250565b7f616c7265616479206c6973746564000000000000000000000000000000000000600082015250565b7f6c697374696e6720657870697265640000000000000000000000000000000000600082015250565b7f5361666545524332303a204552433230206f7065726174696f6e20646964206e60008201527f6f74207375636365656400000000000000000000000000000000000000000000602082015250565b7f696e76616c69642065787069726174696f6e2074696d65000000000000000000600082015250565b7f6e6f7468696e6720746f206c6973740000000000000000000000000000000000600082015250565b7f5265656e7472616e637947756172643a207265656e7472616e742063616c6c00600082015250565b7f6e6f74206c6973746564206974656d0000000000000000000000000000000000600082015250565b6146b281614164565b81146146bd57600080fd5b50565b6146c981614176565b81146146d457600080fd5b50565b6146e0816141ce565b81146146eb57600080fd5b5056fea26469706673582212200d2c884dd235b8303f420c2c5986e9e0dba8dde2e200e977ec67de6bee839eff64736f6c63430008040033",
  "linkReferences": {},
  "deployedLinkReferences": {}
}