{
  "_format": "hh-sol-artifact-1",
  "contractName": "HiveMarketplace",
  "sourceName": "contracts/HiveMarketplace.sol",
  "abi": [
    {
      "inputs": [
        {
          "internalType": "uint256",
          "name": "_fee",
          "type": "uint256"
        },
        {
          "internalType": "address",
          "name": "_feeRecipient",
          "type": "address"
        },
        {
          "internalType": "address",
          "name": "_paymentToken",
          "type": "address"
        }
      ],
      "stateMutability": "nonpayable",
      "type": "constructor"
    },
    {
      "anonymous": false,
      "inputs": [
        {
          "indexed": false,
          "internalType": "address",
          "name": "nftAddress",
          "type": "address"
        }
      ],
      "name": "CollectionRemoved",
      "type": "event"
    },
    {
      "anonymous": false,
      "inputs": [
        {
          "indexed": false,
          "internalType": "address",
          "name": "nftAddress",
          "type": "address"
        },
        {
          "indexed": false,
          "internalType": "address",
          "name": "royaltyRecipient",
          "type": "address"
        },
        {
          "indexed": false,
          "internalType": "uint256",
          "name": "royaltyFee",
          "type": "uint256"
        }
      ],
      "name": "CollectionUpdated",
      "type": "event"
    },
    {
      "anonymous": false,
      "inputs": [
        {
          "indexed": false,
          "internalType": "address",
          "name": "nftAddress",
          "type": "address"
        },
        {
          "indexed": false,
          "internalType": "address",
          "name": "royaltyRecipient",
          "type": "address"
        },
        {
          "indexed": false,
          "internalType": "uint256",
          "name": "royaltyFee",
          "type": "uint256"
        }
      ],
      "name": "CollectionWhitelisted",
      "type": "event"
    },
    {
      "anonymous": false,
      "inputs": [
        {
          "indexed": false,
          "internalType": "address",
          "name": "nftAddress",
          "type": "address"
        },
        {
          "indexed": false,
          "internalType": "address",
          "name": "bidder",
          "type": "address"
        },
        {
          "indexed": false,
          "internalType": "address",
          "name": "buyer",
          "type": "address"
        },
        {
          "indexed": false,
          "internalType": "uint256",
          "name": "quantity",
          "type": "uint256"
        },
        {
          "indexed": false,
          "internalType": "uint256",
          "name": "tokenId",
          "type": "uint256"
        },
        {
          "indexed": false,
          "internalType": "uint256",
          "name": "pricePerItem",
          "type": "uint256"
        }
      ],
      "name": "ItemBid",
      "type": "event"
    },
    {
      "anonymous": false,
      "inputs": [
        {
          "indexed": false,
          "internalType": "address",
          "name": "seller",
          "type": "address"
        },
        {
          "indexed": false,
          "internalType": "address",
          "name": "nftAddress",
          "type": "address"
        },
        {
          "indexed": false,
          "internalType": "uint256",
          "name": "tokenId",
          "type": "uint256"
        }
      ],
      "name": "ItemCanceled",
      "type": "event"
    },
    {
      "anonymous": false,
      "inputs": [
        {
          "indexed": false,
          "internalType": "address",
          "name": "seller",
          "type": "address"
        },
        {
          "indexed": false,
          "internalType": "address",
          "name": "nftAddress",
          "type": "address"
        },
        {
          "indexed": false,
          "internalType": "uint256",
          "name": "tokenId",
          "type": "uint256"
        },
        {
          "indexed": false,
          "internalType": "uint256",
          "name": "quantity",
          "type": "uint256"
        },
        {
          "indexed": false,
          "internalType": "uint256",
          "name": "pricePerItem",
          "type": "uint256"
        },
        {
          "indexed": false,
          "internalType": "uint256",
          "name": "expirationTime",
          "type": "uint256"
        }
      ],
      "name": "ItemListed",
      "type": "event"
    },
    {
      "anonymous": false,
      "inputs": [
        {
          "indexed": false,
          "internalType": "address",
          "name": "seller",
          "type": "address"
        },
        {
          "indexed": false,
          "internalType": "address",
          "name": "buyer",
          "type": "address"
        },
        {
          "indexed": false,
          "internalType": "address",
          "name": "nftAddress",
          "type": "address"
        },
        {
          "indexed": false,
          "internalType": "uint256",
          "name": "tokenId",
          "type": "uint256"
        },
        {
          "indexed": false,
          "internalType": "uint256",
          "name": "quantity",
          "type": "uint256"
        },
        {
          "indexed": false,
          "internalType": "uint256",
          "name": "pricePerItem",
          "type": "uint256"
        }
      ],
      "name": "ItemSold",
      "type": "event"
    },
    {
      "anonymous": false,
      "inputs": [
        {
          "indexed": false,
          "internalType": "address",
          "name": "seller",
          "type": "address"
        },
        {
          "indexed": false,
          "internalType": "address",
          "name": "nftAddress",
          "type": "address"
        },
        {
          "indexed": false,
          "internalType": "uint256",
          "name": "tokenId",
          "type": "uint256"
        },
        {
          "indexed": false,
          "internalType": "uint256",
          "name": "quantity",
          "type": "uint256"
        },
        {
          "indexed": false,
          "internalType": "uint256",
          "name": "pricePerItem",
          "type": "uint256"
        },
        {
          "indexed": false,
          "internalType": "uint256",
          "name": "expirationTime",
          "type": "uint256"
        }
      ],
      "name": "ItemUpdated",
      "type": "event"
    },
    {
      "anonymous": false,
      "inputs": [
        {
          "indexed": true,
          "internalType": "address",
          "name": "previousOwner",
          "type": "address"
        },
        {
          "indexed": true,
          "internalType": "address",
          "name": "newOwner",
          "type": "address"
        }
      ],
      "name": "OwnershipTransferred",
      "type": "event"
    },
    {
      "anonymous": false,
      "inputs": [
        {
          "indexed": false,
          "internalType": "uint256",
          "name": "fee",
          "type": "uint256"
        }
      ],
      "name": "UpdateFee",
      "type": "event"
    },
    {
      "anonymous": false,
      "inputs": [
        {
          "indexed": false,
          "internalType": "address",
          "name": "feeRecipient",
          "type": "address"
        }
      ],
      "name": "UpdateFeeRecipient",
      "type": "event"
    },
    {
      "anonymous": false,
      "inputs": [
        {
          "indexed": false,
          "internalType": "address",
          "name": "paymentToken",
          "type": "address"
        }
      ],
      "name": "UpdatePaymentToken",
      "type": "event"
    },
    {
      "inputs": [],
      "name": "BASIS_POINTS",
      "outputs": [
        {
          "internalType": "uint256",
          "name": "",
          "type": "uint256"
        }
      ],
      "stateMutability": "view",
      "type": "function"
    },
    {
      "inputs": [
        {
          "internalType": "address",
          "name": "_nft",
          "type": "address"
        },
        {
          "internalType": "address",
          "name": "_royaltyRecipient",
          "type": "address"
        },
        {
          "internalType": "uint256",
          "name": "_royaltyFee",
          "type": "uint256"
        }
      ],
      "name": "addToWhitelist",
      "outputs": [],
      "stateMutability": "nonpayable",
      "type": "function"
    },
    {
      "inputs": [
        {
          "internalType": "address",
          "name": "",
          "type": "address"
        },
        {
          "internalType": "uint256",
          "name": "",
          "type": "uint256"
        }
      ],
      "name": "bids",
      "outputs": [
        {
          "internalType": "uint256",
          "name": "quantity",
          "type": "uint256"
        },
        {
          "internalType": "uint256",
          "name": "pricePerItem",
          "type": "uint256"
        },
        {
          "internalType": "uint256",
          "name": "expirationTime",
          "type": "uint256"
        },
        {
          "internalType": "address",
          "name": "bidder",
          "type": "address"
        }
      ],
      "stateMutability": "view",
      "type": "function"
    },
    {
      "inputs": [
        {
          "components": [
            {
              "internalType": "address",
              "name": "nftAddress",
              "type": "address"
            },
            {
              "internalType": "address",
              "name": "owner",
              "type": "address"
            },
            {
              "internalType": "uint256",
              "name": "quantity",
              "type": "uint256"
            },
            {
              "internalType": "uint256",
              "name": "tokenId",
              "type": "uint256"
            },
            {
              "internalType": "uint256",
              "name": "pricePerItem",
              "type": "uint256"
            }
          ],
          "internalType": "struct HiveMarketplace.BuyOrder",
          "name": "_buyOrder",
          "type": "tuple"
        }
      ],
      "name": "buyItem",
      "outputs": [],
      "stateMutability": "nonpayable",
      "type": "function"
    },
    {
      "inputs": [
        {
          "internalType": "address",
          "name": "_nftAddress",
          "type": "address"
        },
        {
          "internalType": "uint256",
          "name": "_tokenId",
          "type": "uint256"
        }
      ],
      "name": "cancelListing",
      "outputs": [],
      "stateMutability": "nonpayable",
      "type": "function"
    },
    {
      "inputs": [
        {
          "internalType": "address",
          "name": "_nftAddress",
          "type": "address"
        },
        {
          "internalType": "uint256",
          "name": "_tokenId",
          "type": "uint256"
        },
        {
          "internalType": "uint256",
          "name": "_quantity",
          "type": "uint256"
        },
        {
          "internalType": "uint256",
          "name": "_pricePerItem",
          "type": "uint256"
        },
        {
          "internalType": "uint256",
          "name": "_expirationTime",
          "type": "uint256"
        }
      ],
      "name": "createListing",
      "outputs": [],
      "stateMutability": "nonpayable",
      "type": "function"
    },
    {
      "inputs": [],
      "name": "fee",
      "outputs": [
        {
          "internalType": "uint256",
          "name": "",
          "type": "uint256"
        }
      ],
      "stateMutability": "view",
      "type": "function"
    },
    {
      "inputs": [],
      "name": "feeReceipient",
      "outputs": [
        {
          "internalType": "address",
          "name": "",
          "type": "address"
        }
      ],
      "stateMutability": "view",
      "type": "function"
    },
    {
      "inputs": [
        {
          "internalType": "address",
          "name": "",
          "type": "address"
        },
        {
          "internalType": "uint256",
          "name": "",
          "type": "uint256"
        },
        {
          "internalType": "address",
          "name": "",
          "type": "address"
        }
      ],
      "name": "listings",
      "outputs": [
        {
          "internalType": "uint256",
          "name": "quantity",
          "type": "uint256"
        },
        {
          "internalType": "uint256",
          "name": "pricePerItem",
          "type": "uint256"
        },
        {
          "internalType": "uint256",
          "name": "expirationTime",
          "type": "uint256"
        }
      ],
      "stateMutability": "view",
      "type": "function"
    },
    {
      "inputs": [],
      "name": "minBidTime",
      "outputs": [
        {
          "internalType": "uint256",
          "name": "",
          "type": "uint256"
        }
      ],
      "stateMutability": "view",
      "type": "function"
    },
    {
      "inputs": [],
      "name": "owner",
      "outputs": [
        {
          "internalType": "address",
          "name": "",
          "type": "address"
        }
      ],
      "stateMutability": "view",
      "type": "function"
    },
    {
      "inputs": [],
      "name": "paymentToken",
      "outputs": [
        {
          "internalType": "address",
          "name": "",
          "type": "address"
        }
      ],
      "stateMutability": "view",
      "type": "function"
    },
    {
      "inputs": [
        {
          "internalType": "address",
          "name": "_nft",
          "type": "address"
        }
      ],
      "name": "removeFromWhitelist",
      "outputs": [],
      "stateMutability": "nonpayable",
      "type": "function"
    },
    {
      "inputs": [],
      "name": "renounceOwnership",
      "outputs": [],
      "stateMutability": "nonpayable",
      "type": "function"
    },
    {
      "inputs": [
        {
          "internalType": "uint256",
          "name": "_fee",
          "type": "uint256"
        }
      ],
      "name": "setFee",
      "outputs": [],
      "stateMutability": "nonpayable",
      "type": "function"
    },
    {
      "inputs": [
        {
          "internalType": "address",
          "name": "_feeRecipient",
          "type": "address"
        }
      ],
      "name": "setFeeRecipient",
      "outputs": [],
      "stateMutability": "nonpayable",
      "type": "function"
    },
    {
      "inputs": [
        {
          "internalType": "address",
          "name": "_paymentToken",
          "type": "address"
        }
      ],
      "name": "setPaymentToken",
      "outputs": [],
      "stateMutability": "nonpayable",
      "type": "function"
    },
    {
      "inputs": [
        {
          "internalType": "address",
          "name": "newOwner",
          "type": "address"
        }
      ],
      "name": "transferOwnership",
      "outputs": [],
      "stateMutability": "nonpayable",
      "type": "function"
    },
    {
      "inputs": [
        {
          "internalType": "address",
          "name": "_nftAddress",
          "type": "address"
        },
        {
          "internalType": "uint256",
          "name": "_tokenId",
          "type": "uint256"
        },
        {
          "internalType": "uint256",
          "name": "_newQuantity",
          "type": "uint256"
        },
        {
          "internalType": "uint256",
          "name": "_newPricePerItem",
          "type": "uint256"
        },
        {
          "internalType": "uint256",
          "name": "_newExpirationTime",
          "type": "uint256"
        }
      ],
      "name": "updateListing",
      "outputs": [],
      "stateMutability": "nonpayable",
      "type": "function"
    },
    {
      "inputs": [
        {
          "internalType": "address",
          "name": "_nftAddress",
          "type": "address"
        },
        {
          "internalType": "address",
          "name": "_royaltyRecipient",
          "type": "address"
        },
        {
          "internalType": "uint256",
          "name": "_royaltyFee",
          "type": "uint256"
        }
      ],
      "name": "updateWhitelist",
      "outputs": [],
      "stateMutability": "nonpayable",
      "type": "function"
    },
    {
      "inputs": [
        {
          "internalType": "address",
          "name": "",
          "type": "address"
        }
      ],
      "name": "whitelistedCollections",
      "outputs": [
        {
          "internalType": "address",
          "name": "royaltyRecipient",
          "type": "address"
        },
        {
          "internalType": "uint256",
          "name": "royaltyFee",
          "type": "uint256"
        }
      ],
      "stateMutability": "view",
      "type": "function"
    }
  ],
  "bytecode": "0x60806040523480156200001157600080fd5b5060405162004f4a38038062004f4a8339818101604052810190620000379190620004ee565b620000576200004b6200009a60201b60201c565b620000a260201b60201c565b600180819055506200006f836200016660201b60201c565b62000080826200027f60201b60201c565b62000091816200038b60201b60201c565b50505062000707565b600033905090565b60008060009054906101000a900473ffffffffffffffffffffffffffffffffffffffff169050816000806101000a81548173ffffffffffffffffffffffffffffffffffffffff021916908373ffffffffffffffffffffffffffffffffffffffff1602179055508173ffffffffffffffffffffffffffffffffffffffff168173ffffffffffffffffffffffffffffffffffffffff167f8be0079c531659141344cd1fd0a4f28419497f9722a3daafe3b4186f6b6457e060405160405180910390a35050565b620001766200009a60201b60201c565b73ffffffffffffffffffffffffffffffffffffffff166200019c6200049760201b60201c565b73ffffffffffffffffffffffffffffffffffffffff1614620001f5576040517f08c379a0000000000000000000000000000000000000000000000000000000008152600401620001ec90620005d1565b60405180910390fd5b61271081106200023c576040517f08c379a00000000000000000000000000000000000000000000000000000000081526004016200023390620005f3565b60405180910390fd5b806003819055507f38e229a7f3f9c329892d08eb37c4e91ccac6d12c798d394990ca4f56028ec2668160405162000274919062000615565b60405180910390a150565b6200028f6200009a60201b60201c565b73ffffffffffffffffffffffffffffffffffffffff16620002b56200049760201b60201c565b73ffffffffffffffffffffffffffffffffffffffff16146200030e576040517f08c379a00000000000000000000000000000000000000000000000000000000081526004016200030590620005d1565b60405180910390fd5b80600460006101000a81548173ffffffffffffffffffffffffffffffffffffffff021916908373ffffffffffffffffffffffffffffffffffffffff1602179055507f6632de8ab33c46549f7bb29f647ea0d751157b25fe6a14b1bcc7527cdfbeb79c81604051620003809190620005b4565b60405180910390a150565b6200039b6200009a60201b60201c565b73ffffffffffffffffffffffffffffffffffffffff16620003c16200049760201b60201c565b73ffffffffffffffffffffffffffffffffffffffff16146200041a576040517f08c379a00000000000000000000000000000000000000000000000000000000081526004016200041190620005d1565b60405180910390fd5b80600260006101000a81548173ffffffffffffffffffffffffffffffffffffffff021916908373ffffffffffffffffffffffffffffffffffffffff1602179055507fc2125241dd55c14b337aea21dcef108a9fd20a816ae6d4d18560572afce99c4e816040516200048c9190620005b4565b60405180910390a150565b60008060009054906101000a900473ffffffffffffffffffffffffffffffffffffffff16905090565b600081519050620004d181620006d3565b92915050565b600081519050620004e881620006ed565b92915050565b6000806000606084860312156200050457600080fd5b60006200051486828701620004d7565b93505060206200052786828701620004c0565b92505060406200053a86828701620004c0565b9150509250925092565b6200054f8162000643565b82525050565b60006200056460208362000632565b9150620005718262000681565b602082019050919050565b60006200058b60078362000632565b91506200059882620006aa565b602082019050919050565b620005ae8162000677565b82525050565b6000602082019050620005cb600083018462000544565b92915050565b60006020820190508181036000830152620005ec8162000555565b9050919050565b600060208201905081810360008301526200060e816200057c565b9050919050565b60006020820190506200062c6000830184620005a3565b92915050565b600082825260208201905092915050565b6000620006508262000657565b9050919050565b600073ffffffffffffffffffffffffffffffffffffffff82169050919050565b6000819050919050565b7f4f776e61626c653a2063616c6c6572206973206e6f7420746865206f776e6572600082015250565b7f6d61782066656500000000000000000000000000000000000000000000000000600082015250565b620006de8162000643565b8114620006ea57600080fd5b50565b620006f88162000677565b81146200070457600080fd5b50565b61483380620007176000396000f3fe608060405234801561001057600080fd5b50600436106101375760003560e01c80638ab1d681116100b8578063d182c98c1161007c578063d182c98c14610318578063ddca3f4314610334578063e09e83e314610352578063e1f1c4a71461036e578063e74b981b1461038c578063f2fde38b146103a857610137565b80638ab1d681146102885780638da5cb5b146102a45780639057f289146102c2578063b2ddee06146102de578063cdd2f7f7146102fa57610137565b806369fe0e2d116100ff57806369fe0e2d146101f85780636a326ab1146102145780636bd3a64b146102305780636fad040914610262578063715018a61461027e57610137565b806301495c1c1461013c5780630dbf1b4d1461016f5780633013ce291461018b5780633740ebb3146101a95780634f05cbd8146101c7575b600080fd5b610156600480360381019061015191906136ac565b6103c4565b6040516101669493929190614107565b60405180910390f35b610189600480360381019061018491906137d7565b610421565b005b610193610f22565b6040516101a09190613c18565b60405180910390f35b6101b1610f48565b6040516101be9190613c18565b60405180910390f35b6101e160048036038101906101dc919061360b565b610f6e565b6040516101ef929190613daf565b60405180910390f35b610212600480360381019061020d9190613800565b610fb2565b005b61022e6004803603810190610229919061360b565b6110b3565b005b61024a600480360381019061024591906136e8565b6111aa565b604051610259939291906140d0565b60405180910390f35b61027c60048036038101906102779190613737565b6111ee565b005b6102866117e3565b005b6102a2600480360381019061029d919061360b565b61186b565b005b6102ac611a19565b6040516102b99190613c18565b60405180910390f35b6102dc60048036038101906102d79190613737565b611a42565b005b6102f860048036038101906102f391906136ac565b612297565b005b610302612411565b60405161030f91906140b5565b60405180910390f35b610332600480360381019061032d919061365d565b612417565b005b61033c612618565b60405161034991906140b5565b60405180910390f35b61036c6004803603810190610367919061365d565b61261e565b005b61037661281d565b60405161038391906140b5565b60405180910390f35b6103a660048036038101906103a1919061360b565b612823565b005b6103c260048036038101906103bd919061360b565b61291a565b005b6008602052816000526040600020602052806000526040600020600091509150508060000154908060010154908060020154908060030160009054906101000a900473ffffffffffffffffffffffffffffffffffffffff16905084565b60026001541415610467576040517f08c379a000000000000000000000000000000000000000000000000000000000815260040161045e90614075565b60405180910390fd5b60026001819055508060000151816060015182602001516000600660008573ffffffffffffffffffffffffffffffffffffffff1673ffffffffffffffffffffffffffffffffffffffff168152602001908152602001600020600084815260200190815260200160002060008373ffffffffffffffffffffffffffffffffffffffff1673ffffffffffffffffffffffffffffffffffffffff16815260200190815260200160002060405180606001604052908160008201548152602001600182015481526020016002820154815250509050600081600001511161057f576040517f08c379a000000000000000000000000000000000000000000000000000000000815260040161057690614095565b60405180910390fd5b8460000151856060015186602001516000600660008573ffffffffffffffffffffffffffffffffffffffff1673ffffffffffffffffffffffffffffffffffffffff168152602001908152602001600020600084815260200190815260200160002060008373ffffffffffffffffffffffffffffffffffffffff1673ffffffffffffffffffffffffffffffffffffffff168152602001908152602001600020604051806060016040529081600082015481526020016001820154815260200160028201548152505090508373ffffffffffffffffffffffffffffffffffffffff166301ffc9a76380ac58cd60e01b6040518263ffffffff1660e01b81526004016106889190613dd8565b60206040518083038186803b1580156106a057600080fd5b505afa1580156106b4573d6000803e3d6000fd5b505050506040513d601f19601f820116820180604052508101906106d891906137ae565b156107de5760008490508273ffffffffffffffffffffffffffffffffffffffff168173ffffffffffffffffffffffffffffffffffffffff16636352211e866040518263ffffffff1660e01b815260040161073291906140b5565b60206040518083038186803b15801561074a57600080fd5b505afa15801561075e573d6000803e3d6000fd5b505050506040513d601f19601f820116820180604052508101906107829190613634565b73ffffffffffffffffffffffffffffffffffffffff16146107d8576040517f08c379a00000000000000000000000000000000000000000000000000000000081526004016107cf90613e95565b60405180910390fd5b5061098a565b8373ffffffffffffffffffffffffffffffffffffffff166301ffc9a763d9b67a2660e01b6040518263ffffffff1660e01b815260040161081e9190613dd8565b60206040518083038186803b15801561083657600080fd5b505afa15801561084a573d6000803e3d6000fd5b505050506040513d601f19601f8201168201806040525081019061086e91906137ae565b1561094e57600084905081600001518173ffffffffffffffffffffffffffffffffffffffff1662fdd58e85876040518363ffffffff1660e01b81526004016108b7929190613daf565b60206040518083038186803b1580156108cf57600080fd5b505afa1580156108e3573d6000803e3d6000fd5b505050506040513d601f19601f820116820180604052508101906109079190613829565b1015610948576040517f08c379a000000000000000000000000000000000000000000000000000000000815260040161093f90613e95565b60405180910390fd5b50610989565b6040517f08c379a000000000000000000000000000000000000000000000000000000000815260040161098090613e35565b60405180910390fd5b5b42816040015110156109d1576040517f08c379a00000000000000000000000000000000000000000000000000000000081526004016109c890613ff5565b60405180910390fd5b886020015173ffffffffffffffffffffffffffffffffffffffff166109f4612a12565b73ffffffffffffffffffffffffffffffffffffffff161415610a4b576040517f08c379a0000000000000000000000000000000000000000000000000000000008152600401610a4290613fb5565b60405180910390fd5b6000600660008b6000015173ffffffffffffffffffffffffffffffffffffffff1673ffffffffffffffffffffffffffffffffffffffff16815260200190815260200160002060008b60600151815260200190815260200160002060008b6020015173ffffffffffffffffffffffffffffffffffffffff1673ffffffffffffffffffffffffffffffffffffffff16815260200190815260200160002060405180606001604052908160008201548152602001600182015481526020016002820154815250509050896040015181600001511015610b5c576040517f08c379a0000000000000000000000000000000000000000000000000000000008152600401610b5390613f75565b60405180910390fd5b896000015173ffffffffffffffffffffffffffffffffffffffff166301ffc9a76380ac58cd60e01b6040518263ffffffff1660e01b8152600401610ba09190613dd8565b60206040518083038186803b158015610bb857600080fd5b505afa158015610bcc573d6000803e3d6000fd5b505050506040513d601f19601f82011682018060405250810190610bf091906137ae565b15610c7c57896000015173ffffffffffffffffffffffffffffffffffffffff166342842e0e8b60200151610c22612a12565b8d606001516040518463ffffffff1660e01b8152600401610c4593929190613cbd565b600060405180830381600087803b158015610c5f57600080fd5b505af1158015610c73573d6000803e3d6000fd5b50505050610d16565b896000015173ffffffffffffffffffffffffffffffffffffffff1663f242432a8b60200151610ca9612a12565b8d606001518e60400151604051806020016040528060008152506040518663ffffffff1660e01b8152600401610ce3959493929190613cf4565b600060405180830381600087803b158015610cfd57600080fd5b505af1158015610d11573d6000803e3d6000fd5b505050505b896040015181600001511415610ddf57600660008b6000015173ffffffffffffffffffffffffffffffffffffffff1673ffffffffffffffffffffffffffffffffffffffff16815260200190815260200160002060008b60600151815260200190815260200160002060008b6020015173ffffffffffffffffffffffffffffffffffffffff1673ffffffffffffffffffffffffffffffffffffffff168152602001908152602001600020600080820160009055600182016000905560028201600090555050610e97565b8960400151600660008c6000015173ffffffffffffffffffffffffffffffffffffffff1673ffffffffffffffffffffffffffffffffffffffff16815260200190815260200160002060008c60600151815260200190815260200160002060008c6020015173ffffffffffffffffffffffffffffffffffffffff1673ffffffffffffffffffffffffffffffffffffffff1681526020019081526020016000206000016000828254610e8f919061423f565b925050819055505b7f57d8d9cd489eb6f4aa398aa92b49d164d28fde9e7000b5c186bf1b3647a9ebb78a60200151610ec5612a12565b8c600001518d606001518e604001518660200151604051610eeb96959493929190613c5c565b60405180910390a1610f0f81602001518b604001518c602001518d60000151612a1a565b5050505050505050506001808190555050565b600260009054906101000a900473ffffffffffffffffffffffffffffffffffffffff1681565b600460009054906101000a900473ffffffffffffffffffffffffffffffffffffffff1681565b60076020528060005260406000206000915090508060000160009054906101000a900473ffffffffffffffffffffffffffffffffffffffff16908060010154905082565b610fba612a12565b73ffffffffffffffffffffffffffffffffffffffff16610fd8611a19565b73ffffffffffffffffffffffffffffffffffffffff161461102e576040517f08c379a000000000000000000000000000000000000000000000000000000000815260040161102590613ed5565b60405180910390fd5b6127108110611072576040517f08c379a000000000000000000000000000000000000000000000000000000000815260040161106990613f55565b60405180910390fd5b806003819055507f38e229a7f3f9c329892d08eb37c4e91ccac6d12c798d394990ca4f56028ec266816040516110a891906140b5565b60405180910390a150565b6110bb612a12565b73ffffffffffffffffffffffffffffffffffffffff166110d9611a19565b73ffffffffffffffffffffffffffffffffffffffff161461112f576040517f08c379a000000000000000000000000000000000000000000000000000000000815260040161112690613ed5565b60405180910390fd5b80600260006101000a81548173ffffffffffffffffffffffffffffffffffffffff021916908373ffffffffffffffffffffffffffffffffffffffff1602179055507fc2125241dd55c14b337aea21dcef108a9fd20a816ae6d4d18560572afce99c4e8160405161119f9190613c18565b60405180910390a150565b600660205282600052604060002060205281600052604060002060205280600052604060002060009250925050508060000154908060010154908060020154905083565b60026001541415611234576040517f08c379a000000000000000000000000000000000000000000000000000000000815260040161122b90614075565b60405180910390fd5b60026001819055508484611246612a12565b6000600660008573ffffffffffffffffffffffffffffffffffffffff1673ffffffffffffffffffffffffffffffffffffffff168152602001908152602001600020600084815260200190815260200160002060008373ffffffffffffffffffffffffffffffffffffffff1673ffffffffffffffffffffffffffffffffffffffff168152602001908152602001600020604051806060016040529081600082015481526020016001820154815260200160028201548152505090506000816000015111611347576040517f08c379a000000000000000000000000000000000000000000000000000000000815260040161133e90614095565b60405180910390fd5b428511611389576040517f08c379a000000000000000000000000000000000000000000000000000000000815260040161138090614035565b60405180910390fd5b6000600660008b73ffffffffffffffffffffffffffffffffffffffff1673ffffffffffffffffffffffffffffffffffffffff16815260200190815260200160002060008a815260200190815260200160002060006113e5612a12565b73ffffffffffffffffffffffffffffffffffffffff1673ffffffffffffffffffffffffffffffffffffffff16815260200190815260200160002090508973ffffffffffffffffffffffffffffffffffffffff166301ffc9a76380ac58cd60e01b6040518263ffffffff1660e01b81526004016114619190613dd8565b60206040518083038186803b15801561147957600080fd5b505afa15801561148d573d6000803e3d6000fd5b505050506040513d601f19601f820116820180604052508101906114b191906137ae565b156115be5760008a90506114c3612a12565b73ffffffffffffffffffffffffffffffffffffffff168173ffffffffffffffffffffffffffffffffffffffff16636352211e8c6040518263ffffffff1660e01b815260040161151291906140b5565b60206040518083038186803b15801561152a57600080fd5b505afa15801561153e573d6000803e3d6000fd5b505050506040513d601f19601f820116820180604052508101906115629190613634565b73ffffffffffffffffffffffffffffffffffffffff16146115b8576040517f08c379a00000000000000000000000000000000000000000000000000000000081526004016115af90613e95565b60405180910390fd5b5061176d565b8973ffffffffffffffffffffffffffffffffffffffff166301ffc9a763d9b67a2660e01b6040518263ffffffff1660e01b81526004016115fe9190613dd8565b60206040518083038186803b15801561161657600080fd5b505afa15801561162a573d6000803e3d6000fd5b505050506040513d601f19601f8201168201806040525081019061164e91906137ae565b156117315760008a9050888173ffffffffffffffffffffffffffffffffffffffff1662fdd58e61167c612a12565b8d6040518363ffffffff1660e01b815260040161169a929190613daf565b60206040518083038186803b1580156116b257600080fd5b505afa1580156116c6573d6000803e3d6000fd5b505050506040513d601f19601f820116820180604052508101906116ea9190613829565b101561172b576040517f08c379a000000000000000000000000000000000000000000000000000000000815260040161172290613f35565b60405180910390fd5b5061176c565b6040517f08c379a000000000000000000000000000000000000000000000000000000000815260040161176390613e35565b60405180910390fd5b5b8781600001819055508681600101819055508581600201819055507f25a89891a024b83ce77c6fc45ddada8564a9534184cd91a6db6c1f542e55abd86117b1612a12565b8b8b8b8b8b6040516117c896959493929190613d4e565b60405180910390a15050505050600180819055505050505050565b6117eb612a12565b73ffffffffffffffffffffffffffffffffffffffff16611809611a19565b73ffffffffffffffffffffffffffffffffffffffff161461185f576040517f08c379a000000000000000000000000000000000000000000000000000000000815260040161185690613ed5565b60405180910390fd5b6118696000612c74565b565b611873612a12565b73ffffffffffffffffffffffffffffffffffffffff16611891611a19565b73ffffffffffffffffffffffffffffffffffffffff16146118e7576040517f08c379a00000000000000000000000000000000000000000000000000000000081526004016118de90613ed5565b60405180910390fd5b806000600760008373ffffffffffffffffffffffffffffffffffffffff1673ffffffffffffffffffffffffffffffffffffffff168152602001908152602001600020600101541161196d576040517f08c379a000000000000000000000000000000000000000000000000000000000815260040161196490613ef5565b60405180910390fd5b600760008373ffffffffffffffffffffffffffffffffffffffff1673ffffffffffffffffffffffffffffffffffffffff168152602001908152602001600020600080820160006101000a81549073ffffffffffffffffffffffffffffffffffffffff0219169055600182016000905550507fa0691bd707b2f65c33c8343d61c274df72c6b5007937dcfbc31aa5a0d0f6fe3c82604051611a0d9190613c18565b60405180910390a15050565b60008060009054906101000a900473ffffffffffffffffffffffffffffffffffffffff16905090565b8484611a4c612a12565b6000600660008573ffffffffffffffffffffffffffffffffffffffff1673ffffffffffffffffffffffffffffffffffffffff168152602001908152602001600020600084815260200190815260200160002060008373ffffffffffffffffffffffffffffffffffffffff1673ffffffffffffffffffffffffffffffffffffffff168152602001908152602001600020604051806060016040529081600082015481526020016001820154815260200160028201548152505090506000816000015114611b4d576040517f08c379a0000000000000000000000000000000000000000000000000000000008152600401611b4490613fd5565b60405180910390fd5b886000600760008373ffffffffffffffffffffffffffffffffffffffff1673ffffffffffffffffffffffffffffffffffffffff1681526020019081526020016000206001015411611bd3576040517f08c379a0000000000000000000000000000000000000000000000000000000008152600401611bca90613ef5565b60405180910390fd5b6000861415611c00577fffffffffffffffffffffffffffffffffffffffffffffffffffffffffffffffff95505b428611611c42576040517f08c379a0000000000000000000000000000000000000000000000000000000008152600401611c3990614035565b60405180910390fd5b60008811611c85576040517f08c379a0000000000000000000000000000000000000000000000000000000008152600401611c7c90614055565b60405180910390fd5b8973ffffffffffffffffffffffffffffffffffffffff166301ffc9a76380ac58cd60e01b6040518263ffffffff1660e01b8152600401611cc59190613dd8565b60206040518083038186803b158015611cdd57600080fd5b505afa158015611cf1573d6000803e3d6000fd5b505050506040513d601f19601f82011682018060405250810190611d1591906137ae565b15611ef35760008a9050611d27612a12565b73ffffffffffffffffffffffffffffffffffffffff168173ffffffffffffffffffffffffffffffffffffffff16636352211e8c6040518263ffffffff1660e01b8152600401611d7691906140b5565b60206040518083038186803b158015611d8e57600080fd5b505afa158015611da2573d6000803e3d6000fd5b505050506040513d601f19601f82011682018060405250810190611dc69190613634565b73ffffffffffffffffffffffffffffffffffffffff1614611e1c576040517f08c379a0000000000000000000000000000000000000000000000000000000008152600401611e1390613e95565b60405180910390fd5b8073ffffffffffffffffffffffffffffffffffffffff1663e985e9c5611e40612a12565b306040518363ffffffff1660e01b8152600401611e5e929190613c33565b60206040518083038186803b158015611e7657600080fd5b505afa158015611e8a573d6000803e3d6000fd5b505050506040513d601f19601f82011682018060405250810190611eae91906137ae565b611eed576040517f08c379a0000000000000000000000000000000000000000000000000000000008152600401611ee490613f15565b60405180910390fd5b50612173565b8973ffffffffffffffffffffffffffffffffffffffff166301ffc9a763d9b67a2660e01b6040518263ffffffff1660e01b8152600401611f339190613dd8565b60206040518083038186803b158015611f4b57600080fd5b505afa158015611f5f573d6000803e3d6000fd5b505050506040513d601f19601f82011682018060405250810190611f8391906137ae565b156121375760008a9050888173ffffffffffffffffffffffffffffffffffffffff1662fdd58e611fb1612a12565b8d6040518363ffffffff1660e01b8152600401611fcf929190613daf565b60206040518083038186803b158015611fe757600080fd5b505afa158015611ffb573d6000803e3d6000fd5b505050506040513d601f19601f8201168201806040525081019061201f9190613829565b1015612060576040517f08c379a000000000000000000000000000000000000000000000000000000000815260040161205790613f35565b60405180910390fd5b8073ffffffffffffffffffffffffffffffffffffffff1663e985e9c5612084612a12565b306040518363ffffffff1660e01b81526004016120a2929190613c33565b60206040518083038186803b1580156120ba57600080fd5b505afa1580156120ce573d6000803e3d6000fd5b505050506040513d601f19601f820116820180604052508101906120f291906137ae565b612131576040517f08c379a000000000000000000000000000000000000000000000000000000000815260040161212890613f15565b60405180910390fd5b50612172565b6040517f08c379a000000000000000000000000000000000000000000000000000000000815260040161216990613e35565b60405180910390fd5b5b604051806060016040528089815260200188815260200187815250600660008c73ffffffffffffffffffffffffffffffffffffffff1673ffffffffffffffffffffffffffffffffffffffff16815260200190815260200160002060008b815260200190815260200160002060006121e8612a12565b73ffffffffffffffffffffffffffffffffffffffff1673ffffffffffffffffffffffffffffffffffffffff1681526020019081526020016000206000820151816000015560208201518160010155604082015181600201559050507f66bd0bc88d76947965bc00f670f5c5b25aebab9fef6cb916d8c63a253ec392b761226c612a12565b8b8b8b8b8b60405161228396959493929190613d4e565b60405180910390a150505050505050505050565b600260015414156122dd576040517f08c379a00000000000000000000000000000000000000000000000000000000081526004016122d490614075565b60405180910390fd5b600260018190555081816122ef612a12565b6000600660008573ffffffffffffffffffffffffffffffffffffffff1673ffffffffffffffffffffffffffffffffffffffff168152602001908152602001600020600084815260200190815260200160002060008373ffffffffffffffffffffffffffffffffffffffff1673ffffffffffffffffffffffffffffffffffffffff1681526020019081526020016000206040518060600160405290816000820154815260200160018201548152602001600282015481525050905060008160000151116123f0576040517f08c379a00000000000000000000000000000000000000000000000000000000081526004016123e790614095565b60405180910390fd5b61240286866123fd612a12565b612d38565b50505050600180819055505050565b60055481565b61241f612a12565b73ffffffffffffffffffffffffffffffffffffffff1661243d611a19565b73ffffffffffffffffffffffffffffffffffffffff1614612493576040517f08c379a000000000000000000000000000000000000000000000000000000000815260040161248a90613ed5565b60405180910390fd5b826000600760008373ffffffffffffffffffffffffffffffffffffffff1673ffffffffffffffffffffffffffffffffffffffff1681526020019081526020016000206001015411612519576040517f08c379a000000000000000000000000000000000000000000000000000000000815260040161251090613ef5565b60405180910390fd5b60405180604001604052808473ffffffffffffffffffffffffffffffffffffffff16815260200183815250600760008673ffffffffffffffffffffffffffffffffffffffff1673ffffffffffffffffffffffffffffffffffffffff16815260200190815260200160002060008201518160000160006101000a81548173ffffffffffffffffffffffffffffffffffffffff021916908373ffffffffffffffffffffffffffffffffffffffff160217905550602082015181600101559050507f1e37bc437a6eef66beaf65888fcbb24a15cbac885105fc4b3cb99f3e1a90da2184848460405161260a93929190613cbd565b60405180910390a150505050565b60035481565b612626612a12565b73ffffffffffffffffffffffffffffffffffffffff16612644611a19565b73ffffffffffffffffffffffffffffffffffffffff161461269a576040517f08c379a000000000000000000000000000000000000000000000000000000000815260040161269190613ed5565b60405180910390fd5b6000600760008573ffffffffffffffffffffffffffffffffffffffff1673ffffffffffffffffffffffffffffffffffffffff168152602001908152602001600020600101541461271f576040517f08c379a000000000000000000000000000000000000000000000000000000000815260040161271690613e75565b60405180910390fd5b60405180604001604052808373ffffffffffffffffffffffffffffffffffffffff16815260200182815250600760008573ffffffffffffffffffffffffffffffffffffffff1673ffffffffffffffffffffffffffffffffffffffff16815260200190815260200160002060008201518160000160006101000a81548173ffffffffffffffffffffffffffffffffffffffff021916908373ffffffffffffffffffffffffffffffffffffffff160217905550602082015181600101559050507ffbd45b78399bdcbdef5bdce5ed51abb5fd3fb3f2baf9622a3d2e81b76c159d3083838360405161281093929190613cbd565b60405180910390a1505050565b61271081565b61282b612a12565b73ffffffffffffffffffffffffffffffffffffffff16612849611a19565b73ffffffffffffffffffffffffffffffffffffffff161461289f576040517f08c379a000000000000000000000000000000000000000000000000000000000815260040161289690613ed5565b60405180910390fd5b80600460006101000a81548173ffffffffffffffffffffffffffffffffffffffff021916908373ffffffffffffffffffffffffffffffffffffffff1602179055507f6632de8ab33c46549f7bb29f647ea0d751157b25fe6a14b1bcc7527cdfbeb79c8160405161290f9190613c18565b60405180910390a150565b612922612a12565b73ffffffffffffffffffffffffffffffffffffffff16612940611a19565b73ffffffffffffffffffffffffffffffffffffffff1614612996576040517f08c379a000000000000000000000000000000000000000000000000000000000815260040161298d90613ed5565b60405180910390fd5b600073ffffffffffffffffffffffffffffffffffffffff168173ffffffffffffffffffffffffffffffffffffffff161415612a06576040517f08c379a00000000000000000000000000000000000000000000000000000000081526004016129fd90613e55565b60405180910390fd5b612a0f81612c74565b50565b600033905090565b60008385612a2891906141e5565b90506000811115612c6d57600061271060035483612a4691906141e5565b612a5091906141b4565b90506000600760008573ffffffffffffffffffffffffffffffffffffffff1673ffffffffffffffffffffffffffffffffffffffff1681526020019081526020016000206040518060400160405290816000820160009054906101000a900473ffffffffffffffffffffffffffffffffffffffff1673ffffffffffffffffffffffffffffffffffffffff1673ffffffffffffffffffffffffffffffffffffffff16815260200160018201548152505090506000612710826020015185612b1591906141e5565b612b1f91906141b4565b9050612b99612b2c612a12565b600460009054906101000a900473ffffffffffffffffffffffffffffffffffffffff1685600260009054906101000a900473ffffffffffffffffffffffffffffffffffffffff1673ffffffffffffffffffffffffffffffffffffffff16613224909392919063ffffffff16565b6000811115612bfd57612bfc612bad612a12565b836000015183600260009054906101000a900473ffffffffffffffffffffffffffffffffffffffff1673ffffffffffffffffffffffffffffffffffffffff16613224909392919063ffffffff16565b5b612c69612c08612a12565b87838688612c16919061423f565b612c20919061423f565b600260009054906101000a900473ffffffffffffffffffffffffffffffffffffffff1673ffffffffffffffffffffffffffffffffffffffff16613224909392919063ffffffff16565b5050505b5050505050565b60008060009054906101000a900473ffffffffffffffffffffffffffffffffffffffff169050816000806101000a81548173ffffffffffffffffffffffffffffffffffffffff021916908373ffffffffffffffffffffffffffffffffffffffff1602179055508173ffffffffffffffffffffffffffffffffffffffff168173ffffffffffffffffffffffffffffffffffffffff167f8be0079c531659141344cd1fd0a4f28419497f9722a3daafe3b4186f6b6457e060405160405180910390a35050565b6000600660008573ffffffffffffffffffffffffffffffffffffffff1673ffffffffffffffffffffffffffffffffffffffff168152602001908152602001600020600084815260200190815260200160002060008373ffffffffffffffffffffffffffffffffffffffff1673ffffffffffffffffffffffffffffffffffffffff168152602001908152602001600020604051806060016040529081600082015481526020016001820154815260200160028201548152505090508373ffffffffffffffffffffffffffffffffffffffff166301ffc9a76380ac58cd60e01b6040518263ffffffff1660e01b8152600401612e329190613dd8565b60206040518083038186803b158015612e4a57600080fd5b505afa158015612e5e573d6000803e3d6000fd5b505050506040513d601f19601f82011682018060405250810190612e8291906137ae565b15612f885760008490508273ffffffffffffffffffffffffffffffffffffffff168173ffffffffffffffffffffffffffffffffffffffff16636352211e866040518263ffffffff1660e01b8152600401612edc91906140b5565b60206040518083038186803b158015612ef457600080fd5b505afa158015612f08573d6000803e3d6000fd5b505050506040513d601f19601f82011682018060405250810190612f2c9190613634565b73ffffffffffffffffffffffffffffffffffffffff1614612f82576040517f08c379a0000000000000000000000000000000000000000000000000000000008152600401612f7990613e15565b60405180910390fd5b5061313b565b8373ffffffffffffffffffffffffffffffffffffffff166301ffc9a763d9b67a2660e01b6040518263ffffffff1660e01b8152600401612fc89190613dd8565b60206040518083038186803b158015612fe057600080fd5b505afa158015612ff4573d6000803e3d6000fd5b505050506040513d601f19601f8201168201806040525081019061301891906137ae565b156130ff57600084905081600001518173ffffffffffffffffffffffffffffffffffffffff1662fdd58e61304a612a12565b876040518363ffffffff1660e01b8152600401613068929190613daf565b60206040518083038186803b15801561308057600080fd5b505afa158015613094573d6000803e3d6000fd5b505050506040513d601f19601f820116820180604052508101906130b89190613829565b10156130f9576040517f08c379a00000000000000000000000000000000000000000000000000000000081526004016130f090613e15565b60405180910390fd5b5061313a565b6040517f08c379a000000000000000000000000000000000000000000000000000000000815260040161313190613e35565b60405180910390fd5b5b600660008573ffffffffffffffffffffffffffffffffffffffff1673ffffffffffffffffffffffffffffffffffffffff168152602001908152602001600020600084815260200190815260200160002060008373ffffffffffffffffffffffffffffffffffffffff1673ffffffffffffffffffffffffffffffffffffffff1681526020019081526020016000206000808201600090556001820160009055600282016000905550507f9ba1a3cb55ce8d63d072a886f94d2a744f50cddf82128e897d0661f5ec62315882858560405161321693929190613cbd565b60405180910390a150505050565b6132a7846323b872dd60e01b85858560405160240161324593929190613cbd565b604051602081830303815290604052907bffffffffffffffffffffffffffffffffffffffffffffffffffffffff19166020820180517bffffffffffffffffffffffffffffffffffffffffffffffffffffffff83818316178352505050506132ad565b50505050565b600061330f826040518060400160405280602081526020017f5361666545524332303a206c6f772d6c6576656c2063616c6c206661696c65648152508573ffffffffffffffffffffffffffffffffffffffff166133749092919063ffffffff16565b905060008151111561336f578080602001905181019061332f91906137ae565b61336e576040517f08c379a000000000000000000000000000000000000000000000000000000000815260040161336590614015565b60405180910390fd5b5b505050565b6060613383848460008561338c565b90509392505050565b6060824710156133d1576040517f08c379a00000000000000000000000000000000000000000000000000000000081526004016133c890613eb5565b60405180910390fd5b6133da856134a0565b613419576040517f08c379a000000000000000000000000000000000000000000000000000000000815260040161341090613f95565b60405180910390fd5b6000808673ffffffffffffffffffffffffffffffffffffffff1685876040516134429190613c01565b60006040518083038185875af1925050503d806000811461347f576040519150601f19603f3d011682016040523d82523d6000602084013e613484565b606091505b50915091506134948282866134b3565b92505050949350505050565b600080823b905060008111915050919050565b606083156134c357829050613513565b6000835111156134d65782518084602001fd5b816040517f08c379a000000000000000000000000000000000000000000000000000000000815260040161350a9190613df3565b60405180910390fd5b9392505050565b600081359050613529816147b8565b92915050565b60008151905061353e816147b8565b92915050565b600081519050613553816147cf565b92915050565b600060a0828403121561356b57600080fd5b61357560a061414c565b905060006135858482850161351a565b60008301525060206135998482850161351a565b60208301525060406135ad848285016135e1565b60408301525060606135c1848285016135e1565b60608301525060806135d5848285016135e1565b60808301525092915050565b6000813590506135f0816147e6565b92915050565b600081519050613605816147e6565b92915050565b60006020828403121561361d57600080fd5b600061362b8482850161351a565b91505092915050565b60006020828403121561364657600080fd5b60006136548482850161352f565b91505092915050565b60008060006060848603121561367257600080fd5b60006136808682870161351a565b93505060206136918682870161351a565b92505060406136a2868287016135e1565b9150509250925092565b600080604083850312156136bf57600080fd5b60006136cd8582860161351a565b92505060206136de858286016135e1565b9150509250929050565b6000806000606084860312156136fd57600080fd5b600061370b8682870161351a565b935050602061371c868287016135e1565b925050604061372d8682870161351a565b9150509250925092565b600080600080600060a0868803121561374f57600080fd5b600061375d8882890161351a565b955050602061376e888289016135e1565b945050604061377f888289016135e1565b9350506060613790888289016135e1565b92505060806137a1888289016135e1565b9150509295509295909350565b6000602082840312156137c057600080fd5b60006137ce84828501613544565b91505092915050565b600060a082840312156137e957600080fd5b60006137f784828501613559565b91505092915050565b60006020828403121561381257600080fd5b6000613820848285016135e1565b91505092915050565b60006020828403121561383b57600080fd5b6000613849848285016135f6565b91505092915050565b61385b81614273565b82525050565b61386a81614291565b82525050565b600061387b82614171565b6138858185614187565b93506138958185602086016142e7565b61389e816143d8565b840191505092915050565b60006138b482614171565b6138be8185614198565b93506138ce8185602086016142e7565b80840191505092915050565b60006138e58261417c565b6138ef81856141a3565b93506138ff8185602086016142e7565b613908816143d8565b840191505092915050565b60006139206011836141a3565b915061392b826143e9565b602082019050919050565b60006139436013836141a3565b915061394e82614412565b602082019050919050565b60006139666026836141a3565b91506139718261443b565b604082019050919050565b60006139896017836141a3565b91506139948261448a565b602082019050919050565b60006139ac600f836141a3565b91506139b7826144b3565b602082019050919050565b60006139cf6026836141a3565b91506139da826144dc565b604082019050919050565b60006139f26020836141a3565b91506139fd8261452b565b602082019050919050565b6000613a156013836141a3565b9150613a2082614554565b602082019050919050565b6000613a386011836141a3565b9150613a438261457d565b602082019050919050565b6000613a5b6015836141a3565b9150613a66826145a6565b602082019050919050565b6000613a7e6007836141a3565b9150613a89826145cf565b602082019050919050565b6000613aa16014836141a3565b9150613aac826145f8565b602082019050919050565b6000613ac4601d836141a3565b9150613acf82614621565b602082019050919050565b6000613ae76011836141a3565b9150613af28261464a565b602082019050919050565b6000613b0a600e836141a3565b9150613b1582614673565b602082019050919050565b6000613b2d600f836141a3565b9150613b388261469c565b602082019050919050565b6000613b50602a836141a3565b9150613b5b826146c5565b604082019050919050565b6000613b736017836141a3565b9150613b7e82614714565b602082019050919050565b6000613b96600f836141a3565b9150613ba18261473d565b602082019050919050565b6000613bb9601f836141a3565b9150613bc482614766565b602082019050919050565b6000613bdc600f836141a3565b9150613be78261478f565b602082019050919050565b613bfb816142dd565b82525050565b6000613c0d82846138a9565b915081905092915050565b6000602082019050613c2d6000830184613852565b92915050565b6000604082019050613c486000830185613852565b613c556020830184613852565b9392505050565b600060c082019050613c716000830189613852565b613c7e6020830188613852565b613c8b6040830187613852565b613c986060830186613bf2565b613ca56080830185613bf2565b613cb260a0830184613bf2565b979650505050505050565b6000606082019050613cd26000830186613852565b613cdf6020830185613852565b613cec6040830184613bf2565b949350505050565b600060a082019050613d096000830188613852565b613d166020830187613852565b613d236040830186613bf2565b613d306060830185613bf2565b8181036080830152613d428184613870565b90509695505050505050565b600060c082019050613d636000830189613852565b613d706020830188613852565b613d7d6040830187613bf2565b613d8a6060830186613bf2565b613d976080830185613bf2565b613da460a0830184613bf2565b979650505050505050565b6000604082019050613dc46000830185613852565b613dd16020830184613bf2565b9392505050565b6000602082019050613ded6000830184613861565b92915050565b60006020820190508181036000830152613e0d81846138da565b905092915050565b60006020820190508181036000830152613e2e81613913565b9050919050565b60006020820190508181036000830152613e4e81613936565b9050919050565b60006020820190508181036000830152613e6e81613959565b9050919050565b60006020820190508181036000830152613e8e8161397c565b9050919050565b60006020820190508181036000830152613eae8161399f565b9050919050565b60006020820190508181036000830152613ece816139c2565b9050919050565b60006020820190508181036000830152613eee816139e5565b9050919050565b60006020820190508181036000830152613f0e81613a08565b9050919050565b60006020820190508181036000830152613f2e81613a2b565b9050919050565b60006020820190508181036000830152613f4e81613a4e565b9050919050565b60006020820190508181036000830152613f6e81613a71565b9050919050565b60006020820190508181036000830152613f8e81613a94565b9050919050565b60006020820190508181036000830152613fae81613ab7565b9050919050565b60006020820190508181036000830152613fce81613ada565b9050919050565b60006020820190508181036000830152613fee81613afd565b9050919050565b6000602082019050818103600083015261400e81613b20565b9050919050565b6000602082019050818103600083015261402e81613b43565b9050919050565b6000602082019050818103600083015261404e81613b66565b9050919050565b6000602082019050818103600083015261406e81613b89565b9050919050565b6000602082019050818103600083015261408e81613bac565b9050919050565b600060208201905081810360008301526140ae81613bcf565b9050919050565b60006020820190506140ca6000830184613bf2565b92915050565b60006060820190506140e56000830186613bf2565b6140f26020830185613bf2565b6140ff6040830184613bf2565b949350505050565b600060808201905061411c6000830187613bf2565b6141296020830186613bf2565b6141366040830185613bf2565b6141436060830184613852565b95945050505050565b6000614156614167565b9050614162828261431a565b919050565b6000604051905090565b600081519050919050565b600081519050919050565b600082825260208201905092915050565b600081905092915050565b600082825260208201905092915050565b60006141bf826142dd565b91506141ca836142dd565b9250826141da576141d961437a565b5b828204905092915050565b60006141f0826142dd565b91506141fb836142dd565b9250817fffffffffffffffffffffffffffffffffffffffffffffffffffffffffffffffff04831182151516156142345761423361434b565b5b828202905092915050565b600061424a826142dd565b9150614255836142dd565b9250828210156142685761426761434b565b5b828203905092915050565b600061427e826142bd565b9050919050565b60008115159050919050565b60007fffffffff0000000000000000000000000000000000000000000000000000000082169050919050565b600073ffffffffffffffffffffffffffffffffffffffff82169050919050565b6000819050919050565b60005b838110156143055780820151818401526020810190506142ea565b83811115614314576000848401525b50505050565b614323826143d8565b810181811067ffffffffffffffff82111715614342576143416143a9565b5b80604052505050565b7f4e487b7100000000000000000000000000000000000000000000000000000000600052601160045260246000fd5b7f4e487b7100000000000000000000000000000000000000000000000000000000600052601260045260246000fd5b7f4e487b7100000000000000000000000000000000000000000000000000000000600052604160045260246000fd5b6000601f19601f8301169050919050565b7f446f6573206e6f74206f776e206974656d000000000000000000000000000000600082015250565b7f696e76616c6964206e6674206164647265737300000000000000000000000000600082015250565b7f4f776e61626c653a206e6577206f776e657220697320746865207a65726f206160008201527f6464726573730000000000000000000000000000000000000000000000000000602082015250565b7f6e667420616c72656164792077686974656c6973746564000000000000000000600082015250565b7f6e6f74206f776e696e67206974656d0000000000000000000000000000000000600082015250565b7f416464726573733a20696e73756666696369656e742062616c616e636520666f60008201527f722063616c6c0000000000000000000000000000000000000000000000000000602082015250565b7f4f776e61626c653a2063616c6c6572206973206e6f7420746865206f776e6572600082015250565b7f6e6674206e6f742077686974656c697374656400000000000000000000000000600082015250565b7f6974656d206e6f7420617070726f766564000000000000000000000000000000600082015250565b7f6d75737420686f6c6420656e6f756768206e6674730000000000000000000000600082015250565b7f6d61782066656500000000000000000000000000000000000000000000000000600082015250565b7f4e6f7420656e6f75676820617661696c61626c65000000000000000000000000600082015250565b7f416464726573733a2063616c6c20746f206e6f6e2d636f6e7472616374000000600082015250565b7f4d757374206e6f74206f776e206974656d000000000000000000000000000000600082015250565b7f616c7265616479206c6973746564000000000000000000000000000000000000600082015250565b7f6c697374696e6720657870697265640000000000000000000000000000000000600082015250565b7f5361666545524332303a204552433230206f7065726174696f6e20646964206e60008201527f6f74207375636365656400000000000000000000000000000000000000000000602082015250565b7f696e76616c69642065787069726174696f6e2074696d65000000000000000000600082015250565b7f6e6f7468696e6720746f206c6973740000000000000000000000000000000000600082015250565b7f5265656e7472616e637947756172643a207265656e7472616e742063616c6c00600082015250565b7f6e6f74206c6973746564206974656d0000000000000000000000000000000000600082015250565b6147c181614273565b81146147cc57600080fd5b50565b6147d881614285565b81146147e357600080fd5b50565b6147ef816142dd565b81146147fa57600080fd5b5056fea264697066735822122017e3af8e40b9f4822f123c2877422291e32bc05e03878aff026c37601c2084ac64736f6c63430008040033",
  "linkReferences": {},
  "deployedLinkReferences": {}
}