{
  "_format": "hh-sol-artifact-1",
  "contractName": "HiveAuctionHouse",
  "sourceName": "contracts/AuctionContract.sol",
  "abi": [
    {
      "anonymous": false,
      "inputs": [
        {
          "indexed": true,
          "internalType": "uint256",
          "name": "tokenId",
          "type": "uint256"
        },
        {
          "indexed": false,
          "internalType": "address",
          "name": "sender",
          "type": "address"
        },
        {
          "indexed": false,
          "internalType": "uint256",
          "name": "value",
          "type": "uint256"
        },
        {
          "indexed": false,
          "internalType": "bool",
          "name": "extended",
          "type": "bool"
        }
      ],
      "name": "AuctionBid",
      "type": "event"
    },
    {
      "anonymous": false,
      "inputs": [
        {
          "indexed": true,
          "internalType": "uint256",
          "name": "tokenId",
          "type": "uint256"
        },
        {
          "indexed": false,
          "internalType": "uint256",
          "name": "startTime",
          "type": "uint256"
        },
        {
          "indexed": false,
          "internalType": "uint256",
          "name": "endTime",
          "type": "uint256"
        }
      ],
      "name": "AuctionCreated",
      "type": "event"
    },
    {
      "anonymous": false,
      "inputs": [
        {
          "indexed": true,
          "internalType": "uint256",
          "name": "tokenId",
          "type": "uint256"
        },
        {
          "indexed": false,
          "internalType": "uint256",
          "name": "endTime",
          "type": "uint256"
        }
      ],
      "name": "AuctionExtended",
      "type": "event"
    },
    {
      "anonymous": false,
      "inputs": [
        {
          "indexed": false,
          "internalType": "uint256",
          "name": "minBidIncrementPercentage",
          "type": "uint256"
        }
      ],
      "name": "AuctionMinBidIncrementUpdated",
      "type": "event"
    },
    {
      "anonymous": false,
      "inputs": [
        {
          "indexed": false,
          "internalType": "uint256",
          "name": "reservePrice",
          "type": "uint256"
        }
      ],
      "name": "AuctionReservePriceUpdated",
      "type": "event"
    },
    {
      "anonymous": false,
      "inputs": [
        {
          "indexed": true,
          "internalType": "uint256",
          "name": "tokenId",
          "type": "uint256"
        },
        {
          "indexed": false,
          "internalType": "address",
          "name": "winner",
          "type": "address"
        },
        {
          "indexed": false,
          "internalType": "uint256",
          "name": "amount",
          "type": "uint256"
        }
      ],
      "name": "AuctionSettled",
      "type": "event"
    },
    {
      "anonymous": false,
      "inputs": [
        {
          "indexed": false,
          "internalType": "uint256",
          "name": "timeBuffer",
          "type": "uint256"
        }
      ],
      "name": "AuctionTimeBufferUpdated",
      "type": "event"
    },
    {
      "anonymous": false,
      "inputs": [
        {
          "indexed": true,
          "internalType": "address",
          "name": "previousOwner",
          "type": "address"
        },
        {
          "indexed": true,
          "internalType": "address",
          "name": "newOwner",
          "type": "address"
        }
      ],
      "name": "OwnershipTransferred",
      "type": "event"
    },
    {
      "anonymous": false,
      "inputs": [
        {
          "indexed": false,
          "internalType": "address",
          "name": "account",
          "type": "address"
        }
      ],
      "name": "Paused",
      "type": "event"
    },
    {
      "anonymous": false,
      "inputs": [
        {
          "indexed": false,
          "internalType": "address",
          "name": "account",
          "type": "address"
        }
      ],
      "name": "Unpaused",
      "type": "event"
    },
    {
      "inputs": [],
      "name": "auction",
      "outputs": [
        {
          "internalType": "uint256",
          "name": "tokenId",
          "type": "uint256"
        },
        {
          "internalType": "uint256",
          "name": "amount",
          "type": "uint256"
        },
        {
          "internalType": "uint256",
          "name": "startTime",
          "type": "uint256"
        },
        {
          "internalType": "uint256",
          "name": "endTime",
          "type": "uint256"
        },
        {
          "internalType": "address payable",
          "name": "bidder",
          "type": "address"
        },
        {
          "internalType": "bool",
          "name": "settled",
          "type": "bool"
        }
      ],
      "stateMutability": "view",
      "type": "function"
    },
    {
      "inputs": [],
      "name": "baseTokenGenerationRate",
      "outputs": [
        {
          "internalType": "uint256",
          "name": "",
          "type": "uint256"
        }
      ],
      "stateMutability": "view",
      "type": "function"
    },
    {
      "inputs": [
        {
          "internalType": "uint256",
          "name": "tokenId",
          "type": "uint256"
        },
        {
          "internalType": "uint256",
          "name": "_bidAmount",
          "type": "uint256"
        }
      ],
      "name": "createBid",
      "outputs": [],
      "stateMutability": "payable",
      "type": "function"
    },
    {
      "inputs": [],
      "name": "dai",
      "outputs": [
        {
          "internalType": "address",
          "name": "",
          "type": "address"
        }
      ],
      "stateMutability": "view",
      "type": "function"
    },
    {
      "inputs": [],
      "name": "duration",
      "outputs": [
        {
          "internalType": "uint256",
          "name": "",
          "type": "uint256"
        }
      ],
      "stateMutability": "view",
      "type": "function"
    },
    {
      "inputs": [],
      "name": "hiveNFTContract",
      "outputs": [
        {
          "internalType": "contract IHiveNFT",
          "name": "",
          "type": "address"
        }
      ],
      "stateMutability": "view",
      "type": "function"
    },
    {
      "inputs": [],
      "name": "incrementalTokenGenerationRate",
      "outputs": [
        {
          "internalType": "uint256",
          "name": "",
          "type": "uint256"
        }
      ],
      "stateMutability": "view",
      "type": "function"
    },
    {
      "inputs": [
        {
          "internalType": "contract IHiveNFT",
          "name": "_hiveAddress",
          "type": "address"
        },
        {
          "internalType": "address",
          "name": "_dai",
          "type": "address"
        },
        {
          "internalType": "uint256",
          "name": "_timeBuffer",
          "type": "uint256"
        },
        {
          "internalType": "uint256",
          "name": "_reservePrice",
          "type": "uint256"
        },
        {
          "internalType": "uint8",
          "name": "_minBidIncrement",
          "type": "uint8"
        },
        {
          "internalType": "uint256",
          "name": "_baseTokenGenerationRate",
          "type": "uint256"
        },
        {
          "internalType": "uint256",
          "name": "_incrementalTokenGenerationRate",
          "type": "uint256"
        }
      ],
      "name": "initialize",
      "outputs": [],
      "stateMutability": "nonpayable",
      "type": "function"
    },
    {
      "inputs": [],
      "name": "minBidIncrement",
      "outputs": [
        {
          "internalType": "uint8",
          "name": "",
          "type": "uint8"
        }
      ],
      "stateMutability": "view",
      "type": "function"
    },
    {
      "inputs": [],
      "name": "owner",
      "outputs": [
        {
          "internalType": "address",
          "name": "",
          "type": "address"
        }
      ],
      "stateMutability": "view",
      "type": "function"
    },
    {
      "inputs": [],
      "name": "pause",
      "outputs": [],
      "stateMutability": "nonpayable",
      "type": "function"
    },
    {
      "inputs": [],
      "name": "paused",
      "outputs": [
        {
          "internalType": "bool",
          "name": "",
          "type": "bool"
        }
      ],
      "stateMutability": "view",
      "type": "function"
    },
    {
      "inputs": [],
      "name": "remainingDuration",
      "outputs": [
        {
          "internalType": "uint256",
          "name": "",
          "type": "uint256"
        }
      ],
      "stateMutability": "view",
      "type": "function"
    },
    {
      "inputs": [],
      "name": "renounceOwnership",
      "outputs": [],
      "stateMutability": "nonpayable",
      "type": "function"
    },
    {
      "inputs": [],
      "name": "reservePrice",
      "outputs": [
        {
          "internalType": "uint256",
          "name": "",
          "type": "uint256"
        }
      ],
      "stateMutability": "view",
      "type": "function"
    },
    {
      "inputs": [
        {
          "internalType": "uint8",
          "name": "_minBidIncrement",
          "type": "uint8"
        }
      ],
      "name": "setMinBidIncrement",
      "outputs": [],
      "stateMutability": "nonpayable",
      "type": "function"
    },
    {
      "inputs": [
        {
          "internalType": "uint256",
          "name": "_reservePrice",
          "type": "uint256"
        }
      ],
      "name": "setReservePrice",
      "outputs": [],
      "stateMutability": "nonpayable",
      "type": "function"
    },
    {
      "inputs": [
        {
          "internalType": "uint256",
          "name": "_timeBuffer",
          "type": "uint256"
        }
      ],
      "name": "setTimeBuffer",
      "outputs": [],
      "stateMutability": "nonpayable",
      "type": "function"
    },
    {
      "inputs": [],
      "name": "settleAuction",
      "outputs": [],
      "stateMutability": "nonpayable",
      "type": "function"
    },
    {
      "inputs": [],
      "name": "settleCurrentAndCreateNewAuction",
      "outputs": [],
      "stateMutability": "nonpayable",
      "type": "function"
    },
    {
      "inputs": [],
      "name": "timeBuffer",
      "outputs": [
        {
          "internalType": "uint256",
          "name": "",
          "type": "uint256"
        }
      ],
      "stateMutability": "view",
      "type": "function"
    },
    {
      "inputs": [
        {
          "internalType": "address",
          "name": "newOwner",
          "type": "address"
        }
      ],
      "name": "transferOwnership",
      "outputs": [],
      "stateMutability": "nonpayable",
      "type": "function"
    },
    {
      "inputs": [],
      "name": "unpause",
      "outputs": [],
      "stateMutability": "nonpayable",
      "type": "function"
    }
  ],
  "bytecode": "0x608060405234801561001057600080fd5b50613190806100206000396000f3fe6080604052600436106101405760003560e01c80638456cb59116100b6578063db2e1eed1161006f578063db2e1eed146103be578063de182c5d146103e9578063ec91f2a414610414578063f25efffc1461043f578063f2fde38b14610456578063f4b9fa751461047f57610140565b80638456cb59146102f55780638da5cb5b1461030c578063a4d0a17e14610337578063b7751c711461034e578063ce9c7c0d1461036a578063d730f52d1461039357610140565b8063335b115e11610108578063335b115e146102185780633f4ba83a146102435780635c975abb1461025a5780637120334b14610285578063715018a6146102ae5780637d9f6db5146102c557610140565b80630fb5a6b41461014557806317529ce41461017057806317b908d61461019b5780631935ae3f146101c4578063236197cc146101ef575b600080fd5b34801561015157600080fd5b5061015a6104aa565b6040516101679190612841565b60405180910390f35b34801561017c57600080fd5b506101856104b0565b6040516101929190612841565b60405180910390f35b3480156101a757600080fd5b506101c260048036038101906101bd9190612076565b6104b6565b005b3480156101d057600080fd5b506101d9610684565b6040516101e69190612841565b60405180910390f35b3480156101fb57600080fd5b50610216600480360381019061021191906121a2565b61068a565b005b34801561022457600080fd5b5061022d61075b565b60405161023a9190612901565b60405180910390f35b34801561024f57600080fd5b5061025861076e565b005b34801561026657600080fd5b5061026f610825565b60405161027c91906125c9565b60405180910390f35b34801561029157600080fd5b506102ac60048036038101906102a79190612114565b61083c565b005b3480156102ba57600080fd5b506102c36108f9565b005b3480156102d157600080fd5b506102da610981565b6040516102ec96959493929190612885565b60405180910390f35b34801561030157600080fd5b5061030a6109d8565b005b34801561031857600080fd5b50610321610a5e565b60405161032e9190612517565b60405180910390f35b34801561034357600080fd5b5061034c610a88565b005b61036860048036038101906103639190612166565b610b2f565b005b34801561037657600080fd5b50610391600480360381019061038c9190612114565b610ea1565b005b34801561039f57600080fd5b506103a8610f5e565b6040516103b59190612841565b60405180910390f35b3480156103ca57600080fd5b506103d3610f64565b6040516103e09190612841565b60405180910390f35b3480156103f557600080fd5b506103fe610f6a565b60405161040b91906125e4565b60405180910390f35b34801561042057600080fd5b50610429610f90565b6040516104369190612841565b60405180910390f35b34801561044b57600080fd5b50610454610f96565b005b34801561046257600080fd5b5061047d60048036038101906104789190612024565b611046565b005b34801561048b57600080fd5b5061049461113e565b6040516104a19190612517565b60405180910390f35b60ce5481565b60cf5481565b600060019054906101000a900460ff166104de5760008054906101000a900460ff16156104e7565b6104e6611164565b5b610526576040517f08c379a000000000000000000000000000000000000000000000000000000000815260040161051d90612701565b60405180910390fd5b60008060019054906101000a900460ff161590508015610576576001600060016101000a81548160ff02191690831515021790555060016000806101000a81548160ff0219169083151502179055505b61057e611175565b6105866111ce565b61058e611227565b610596611280565b8760c960006101000a81548173ffffffffffffffffffffffffffffffffffffffff021916908373ffffffffffffffffffffffffffffffffffffffff1602179055508660ca60006101000a81548173ffffffffffffffffffffffffffffffffffffffff021916908373ffffffffffffffffffffffffffffffffffffffff1602179055508460cc819055508360cd60006101000a81548160ff021916908360ff1602179055508260d0819055508160d1819055506212750060cf819055508560cb81905550801561067a5760008060016101000a81548160ff0219169083151502179055505b5050505050505050565b60d05481565b610692611323565b73ffffffffffffffffffffffffffffffffffffffff166106b0610a5e565b73ffffffffffffffffffffffffffffffffffffffff1614610706576040517f08c379a00000000000000000000000000000000000000000000000000000000081526004016106fd90612721565b60405180910390fd5b8060cd60006101000a81548160ff021916908360ff1602179055507fc3c898bec609452e0cecc8990f6692426351b704f348f19cc242bd4d42d65ce98160405161075091906128e6565b60405180910390a150565b60cd60009054906101000a900460ff1681565b610776611323565b73ffffffffffffffffffffffffffffffffffffffff16610794610a5e565b73ffffffffffffffffffffffffffffffffffffffff16146107ea576040517f08c379a00000000000000000000000000000000000000000000000000000000081526004016107e190612721565b60405180910390fd5b6107f261132b565b600060d2600201541480610815575060d260040160149054906101000a900460ff165b15610823576108226113cd565b5b565b6000603360009054906101000a900460ff16905090565b610844611323565b73ffffffffffffffffffffffffffffffffffffffff16610862610a5e565b73ffffffffffffffffffffffffffffffffffffffff16146108b8576040517f08c379a00000000000000000000000000000000000000000000000000000000081526004016108af90612721565b60405180910390fd5b8060cb819055507f1b55d9f7002bda4490f467e326f22a4a847629c0f2d1ed421607d318d25b410d816040516108ee9190612841565b60405180910390a150565b610901611323565b73ffffffffffffffffffffffffffffffffffffffff1661091f610a5e565b73ffffffffffffffffffffffffffffffffffffffff1614610975576040517f08c379a000000000000000000000000000000000000000000000000000000000815260040161096c90612721565b60405180910390fd5b61097f600061163f565b565b60d28060000154908060010154908060020154908060030154908060040160009054906101000a900473ffffffffffffffffffffffffffffffffffffffff16908060040160149054906101000a900460ff16905086565b6109e0611323565b73ffffffffffffffffffffffffffffffffffffffff166109fe610a5e565b73ffffffffffffffffffffffffffffffffffffffff1614610a54576040517f08c379a0000000000000000000000000000000000000000000000000000000008152600401610a4b90612721565b60405180910390fd5b610a5c611280565b565b6000609760009054906101000a900473ffffffffffffffffffffffffffffffffffffffff16905090565b610a90610825565b610acf576040517f08c379a0000000000000000000000000000000000000000000000000000000008152600401610ac690612621565b60405180910390fd5b60026065541415610b15576040517f08c379a0000000000000000000000000000000000000000000000000000000008152600401610b0c906127e1565b60405180910390fd5b6002606581905550610b25611705565b6001606581905550565b60026065541415610b75576040517f08c379a0000000000000000000000000000000000000000000000000000000008152600401610b6c906127e1565b60405180910390fd5b6002606581905550600060d26040518060c0016040529081600082015481526020016001820154815260200160028201548152602001600382015481526020016004820160009054906101000a900473ffffffffffffffffffffffffffffffffffffffff1673ffffffffffffffffffffffffffffffffffffffff1673ffffffffffffffffffffffffffffffffffffffff1681526020016004820160149054906101000a900460ff161515151581525050905082816000015114610c6d576040517f08c379a0000000000000000000000000000000000000000000000000000000008152600401610c6490612821565b60405180910390fd5b80606001514210610cb3576040517f08c379a0000000000000000000000000000000000000000000000000000000008152600401610caa90612801565b60405180910390fd5b60cc54821015610cf8576040517f08c379a0000000000000000000000000000000000000000000000000000000008152600401610cef906126c1565b60405180910390fd5b600060cd60009054906101000a900460ff1660ff1660cc5484610d1b9190612a39565b610d259190612bb6565b14610d65576040517f08c379a0000000000000000000000000000000000000000000000000000000008152600401610d5c90612641565b60405180910390fd5b6000816080015190508260d2600101819055503360d260040160006101000a81548173ffffffffffffffffffffffffffffffffffffffff021916908373ffffffffffffffffffffffffffffffffffffffff160217905550600073ffffffffffffffffffffffffffffffffffffffff168173ffffffffffffffffffffffffffffffffffffffff1614610e4457610e433082846020015160ca60009054906101000a900473ffffffffffffffffffffffffffffffffffffffff1673ffffffffffffffffffffffffffffffffffffffff16611b0e909392919063ffffffff16565b5b610e9333308560ca60009054906101000a900473ffffffffffffffffffffffffffffffffffffffff1673ffffffffffffffffffffffffffffffffffffffff16611b0e909392919063ffffffff16565b505060016065819055505050565b610ea9611323565b73ffffffffffffffffffffffffffffffffffffffff16610ec7610a5e565b73ffffffffffffffffffffffffffffffffffffffff1614610f1d576040517f08c379a0000000000000000000000000000000000000000000000000000000008152600401610f1490612721565b60405180910390fd5b8060cc819055507f6ab2e127d7fdf53b8f304e59d3aab5bfe97979f52a85479691a6fab27a28a6b281604051610f539190612841565b60405180910390a150565b60d15481565b60cc5481565b60c960009054906101000a900473ffffffffffffffffffffffffffffffffffffffff1681565b60cb5481565b60026065541415610fdc576040517f08c379a0000000000000000000000000000000000000000000000000000000008152600401610fd3906127e1565b60405180910390fd5b6002606581905550610fec610825565b1561102c576040517f08c379a0000000000000000000000000000000000000000000000000000000008152600401611023906126e1565b60405180910390fd5b611034611705565b61103c6113cd565b6001606581905550565b61104e611323565b73ffffffffffffffffffffffffffffffffffffffff1661106c610a5e565b73ffffffffffffffffffffffffffffffffffffffff16146110c2576040517f08c379a00000000000000000000000000000000000000000000000000000000081526004016110b990612721565b60405180910390fd5b600073ffffffffffffffffffffffffffffffffffffffff168173ffffffffffffffffffffffffffffffffffffffff161415611132576040517f08c379a000000000000000000000000000000000000000000000000000000000815260040161112990612661565b60405180910390fd5b61113b8161163f565b50565b60ca60009054906101000a900473ffffffffffffffffffffffffffffffffffffffff1681565b600061116f30611b97565b15905090565b600060019054906101000a900460ff166111c4576040517f08c379a00000000000000000000000000000000000000000000000000000000081526004016111bb90612781565b60405180910390fd5b6111cc611bba565b565b600060019054906101000a900460ff1661121d576040517f08c379a000000000000000000000000000000000000000000000000000000000815260040161121490612781565b60405180910390fd5b611225611c26565b565b600060019054906101000a900460ff16611276576040517f08c379a000000000000000000000000000000000000000000000000000000000815260040161126d90612781565b60405180910390fd5b61127e611c7f565b565b611288610825565b156112c8576040517f08c379a00000000000000000000000000000000000000000000000000000000081526004016112bf906126e1565b60405180910390fd5b6001603360006101000a81548160ff0219169083151502179055507f62e78cea01bee320cd4e420270b5ea74000d11b0c9f74754ebdbfc544b05a25861130c611323565b6040516113199190612517565b60405180910390a1565b600033905090565b611333610825565b611372576040517f08c379a000000000000000000000000000000000000000000000000000000000815260040161136990612621565b60405180910390fd5b6000603360006101000a81548160ff0219169083151502179055507f5db9ee0a495bf2e6ff9c91a7834c1ba4fdd244a5e8aa4e537bd38aeae4b073aa6113b6611323565b6040516113c39190612517565b60405180910390a1565b60c960009054906101000a900473ffffffffffffffffffffffffffffffffffffffff1673ffffffffffffffffffffffffffffffffffffffff166332f4a69b6040518163ffffffff1660e01b8152600401602060405180830381600087803b15801561143757600080fd5b505af192505050801561146857506040513d601f19601f82011682018060405250810190611465919061213d565b60015b6114b357611474612c74565b806308c379a014156114a25750611489613051565b8061149457506114a4565b61149c611280565b506114ae565b505b3d6000803e3d6000fd5b61163d565b610fb4620186a0610df360cf546114ca91906129df565b6114d491906129ae565b6114de9190612958565b60ce81905550610fb460ce546114f49190612a39565b60cf60008282546115059190612a39565b925050819055506000429050600060ce54826115219190612958565b90506040518060c0016040528084815260200160008152602001838152602001828152602001600073ffffffffffffffffffffffffffffffffffffffff1681526020016000151581525060d26000820151816000015560208201518160010155604082015181600201556060820151816003015560808201518160040160006101000a81548173ffffffffffffffffffffffffffffffffffffffff021916908373ffffffffffffffffffffffffffffffffffffffff16021790555060a08201518160040160146101000a81548160ff021916908315150217905550905050827fd6eddd1118d71820909c1197aa966dbc15ed6f508554252169cc3d5ccac756ca838360405161163192919061285c565b60405180910390a25050505b565b6000609760009054906101000a900473ffffffffffffffffffffffffffffffffffffffff16905081609760006101000a81548173ffffffffffffffffffffffffffffffffffffffff021916908373ffffffffffffffffffffffffffffffffffffffff1602179055508173ffffffffffffffffffffffffffffffffffffffff168173ffffffffffffffffffffffffffffffffffffffff167f8be0079c531659141344cd1fd0a4f28419497f9722a3daafe3b4186f6b6457e060405160405180910390a35050565b600060d26040518060c0016040529081600082015481526020016001820154815260200160028201548152602001600382015481526020016004820160009054906101000a900473ffffffffffffffffffffffffffffffffffffffff1673ffffffffffffffffffffffffffffffffffffffff1673ffffffffffffffffffffffffffffffffffffffff1681526020016004820160149054906101000a900460ff16151515158152505090506000816040015114156117f7576040517f08c379a00000000000000000000000000000000000000000000000000000000081526004016117ee906126a1565b60405180910390fd5b8060a001511561183c576040517f08c379a000000000000000000000000000000000000000000000000000000000815260040161183390612741565b60405180910390fd5b8060600151421015611883576040517f08c379a000000000000000000000000000000000000000000000000000000000815260040161187a906127c1565b60405180910390fd5b600160d260040160146101000a81548160ff021916908315150217905550600073ffffffffffffffffffffffffffffffffffffffff16816080015173ffffffffffffffffffffffffffffffffffffffff16146119735760c960009054906101000a900473ffffffffffffffffffffffffffffffffffffffff1673ffffffffffffffffffffffffffffffffffffffff166323b872dd30836080015184600001516040518463ffffffff1660e01b815260040161194093929190612532565b600060405180830381600087803b15801561195a57600080fd5b505af115801561196e573d6000803e3d6000fd5b505050505b6000816020015111156119db576119da3061198c610a5e565b836020015160ca60009054906101000a900473ffffffffffffffffffffffffffffffffffffffff1673ffffffffffffffffffffffffffffffffffffffff16611b0e909392919063ffffffff16565b5b60c960009054906101000a900473ffffffffffffffffffffffffffffffffffffffff1673ffffffffffffffffffffffffffffffffffffffff1663b8bf514d8260000151611a2b8460200151611ce0565b6040518363ffffffff1660e01b8152600401611a4892919061285c565b600060405180830381600087803b158015611a6257600080fd5b505af1158015611a76573d6000803e3d6000fd5b5050505060008073ffffffffffffffffffffffffffffffffffffffff16826080015173ffffffffffffffffffffffffffffffffffffffff1614611abd578160800151611ac6565b611ac5610a5e565b5b905081600001517fc9f72b276a388619c6d185d146697036241880c36654b1a3ffdad07c24038d99828460200151604051611b029291906125a0565b60405180910390a25050565b611b91846323b872dd60e01b858585604051602401611b2f93929190612569565b604051602081830303815290604052907bffffffffffffffffffffffffffffffffffffffffffffffffffffffff19166020820180517bffffffffffffffffffffffffffffffffffffffffffffffffffffffff8381831617835250505050611d39565b50505050565b6000808273ffffffffffffffffffffffffffffffffffffffff163b119050919050565b600060019054906101000a900460ff16611c09576040517f08c379a0000000000000000000000000000000000000000000000000000000008152600401611c0090612781565b60405180910390fd5b6000603360006101000a81548160ff021916908315150217905550565b600060019054906101000a900460ff16611c75576040517f08c379a0000000000000000000000000000000000000000000000000000000008152600401611c6c90612781565b60405180910390fd5b6001606581905550565b600060019054906101000a900460ff16611cce576040517f08c379a0000000000000000000000000000000000000000000000000000000008152600401611cc590612781565b60405180910390fd5b611cde611cd9611323565b61163f565b565b60008060d054905060cc5483611cf69190612a39565b925060d15460cd60009054906101000a900460ff1660ff1684611d1991906129ae565b611d2391906129df565b81611d2e9190612958565b905080915050919050565b6000611d9b826040518060400160405280602081526020017f5361666545524332303a206c6f772d6c6576656c2063616c6c206661696c65648152508573ffffffffffffffffffffffffffffffffffffffff16611e009092919063ffffffff16565b9050600081511115611dfb5780806020019051810190611dbb919061204d565b611dfa576040517f08c379a0000000000000000000000000000000000000000000000000000000008152600401611df1906127a1565b60405180910390fd5b5b505050565b6060611e0f8484600085611e18565b90509392505050565b606082471015611e5d576040517f08c379a0000000000000000000000000000000000000000000000000000000008152600401611e5490612681565b60405180910390fd5b611e6685611f2c565b611ea5576040517f08c379a0000000000000000000000000000000000000000000000000000000008152600401611e9c90612761565b60405180910390fd5b6000808673ffffffffffffffffffffffffffffffffffffffff168587604051611ece9190612500565b60006040518083038185875af1925050503d8060008114611f0b576040519150601f19603f3d011682016040523d82523d6000602084013e611f10565b606091505b5091509150611f20828286611f3f565b92505050949350505050565b600080823b905060008111915050919050565b60608315611f4f57829050611f9f565b600083511115611f625782518084602001fd5b816040517f08c379a0000000000000000000000000000000000000000000000000000000008152600401611f9691906125ff565b60405180910390fd5b9392505050565b600081359050611fb5816130e7565b92915050565b600081519050611fca816130fe565b92915050565b600081359050611fdf81613115565b92915050565b600081359050611ff48161312c565b92915050565b6000815190506120098161312c565b92915050565b60008135905061201e81613143565b92915050565b60006020828403121561203657600080fd5b600061204484828501611fa6565b91505092915050565b60006020828403121561205f57600080fd5b600061206d84828501611fbb565b91505092915050565b600080600080600080600060e0888a03121561209157600080fd5b600061209f8a828b01611fd0565b97505060206120b08a828b01611fa6565b96505060406120c18a828b01611fe5565b95505060606120d28a828b01611fe5565b94505060806120e38a828b0161200f565b93505060a06120f48a828b01611fe5565b92505060c06121058a828b01611fe5565b91505092959891949750929550565b60006020828403121561212657600080fd5b600061213484828501611fe5565b91505092915050565b60006020828403121561214f57600080fd5b600061215d84828501611ffa565b91505092915050565b6000806040838503121561217957600080fd5b600061218785828601611fe5565b925050602061219885828601611fe5565b9150509250929050565b6000602082840312156121b457600080fd5b60006121c28482850161200f565b91505092915050565b6121d481612ae6565b82525050565b6121e381612a7f565b82525050565b6121f281612a6d565b82525050565b61220181612a91565b82525050565b600061221282612926565b61221c818561293c565b935061222c818560208601612b52565b80840191505092915050565b61224181612af8565b82525050565b600061225282612931565b61225c8185612947565b935061226c818560208601612b52565b61227581612c96565b840191505092915050565b600061228d601483612947565b915061229882612cb4565b602082019050919050565b60006122b0602483612947565b91506122bb82612cdd565b604082019050919050565b60006122d3602683612947565b91506122de82612d2c565b604082019050919050565b60006122f6602683612947565b915061230182612d7b565b604082019050919050565b6000612319601483612947565b915061232482612dca565b602082019050919050565b600061233c601f83612947565b915061234782612df3565b602082019050919050565b600061235f601083612947565b915061236a82612e1c565b602082019050919050565b6000612382602e83612947565b915061238d82612e45565b604082019050919050565b60006123a5602083612947565b91506123b082612e94565b602082019050919050565b60006123c8602083612947565b91506123d382612ebd565b602082019050919050565b60006123eb601d83612947565b91506123f682612ee6565b602082019050919050565b600061240e602b83612947565b915061241982612f0f565b604082019050919050565b6000612431602a83612947565b915061243c82612f5e565b604082019050919050565b6000612454601883612947565b915061245f82612fad565b602082019050919050565b6000612477601f83612947565b915061248282612fd6565b602082019050919050565b600061249a600f83612947565b91506124a582612fff565b602082019050919050565b60006124bd601683612947565b91506124c882613028565b602082019050919050565b6124dc81612acf565b82525050565b6124eb81612b40565b82525050565b6124fa81612ad9565b82525050565b600061250c8284612207565b915081905092915050565b600060208201905061252c60008301846121e9565b92915050565b600060608201905061254760008301866121e9565b61255460208301856121cb565b61256160408301846124d3565b949350505050565b600060608201905061257e60008301866121e9565b61258b60208301856121e9565b61259860408301846124d3565b949350505050565b60006040820190506125b560008301856121e9565b6125c260208301846124d3565b9392505050565b60006020820190506125de60008301846121f8565b92915050565b60006020820190506125f96000830184612238565b92915050565b600060208201905081810360008301526126198184612247565b905092915050565b6000602082019050818103600083015261263a81612280565b9050919050565b6000602082019050818103600083015261265a816122a3565b9050919050565b6000602082019050818103600083015261267a816122c6565b9050919050565b6000602082019050818103600083015261269a816122e9565b9050919050565b600060208201905081810360008301526126ba8161230c565b9050919050565b600060208201905081810360008301526126da8161232f565b9050919050565b600060208201905081810360008301526126fa81612352565b9050919050565b6000602082019050818103600083015261271a81612375565b9050919050565b6000602082019050818103600083015261273a81612398565b9050919050565b6000602082019050818103600083015261275a816123bb565b9050919050565b6000602082019050818103600083015261277a816123de565b9050919050565b6000602082019050818103600083015261279a81612401565b9050919050565b600060208201905081810360008301526127ba81612424565b9050919050565b600060208201905081810360008301526127da81612447565b9050919050565b600060208201905081810360008301526127fa8161246a565b9050919050565b6000602082019050818103600083015261281a8161248d565b9050919050565b6000602082019050818103600083015261283a816124b0565b9050919050565b600060208201905061285660008301846124d3565b92915050565b600060408201905061287160008301856124d3565b61287e60208301846124d3565b9392505050565b600060c08201905061289a60008301896124d3565b6128a760208301886124d3565b6128b460408301876124d3565b6128c160608301866124d3565b6128ce60808301856121da565b6128db60a08301846121f8565b979650505050505050565b60006020820190506128fb60008301846124e2565b92915050565b600060208201905061291660008301846124f1565b92915050565b6000604051905090565b600081519050919050565b600081519050919050565b600081905092915050565b600082825260208201905092915050565b600061296382612acf565b915061296e83612acf565b9250827fffffffffffffffffffffffffffffffffffffffffffffffffffffffffffffffff038211156129a3576129a2612be7565b5b828201905092915050565b60006129b982612acf565b91506129c483612acf565b9250826129d4576129d3612c16565b5b828204905092915050565b60006129ea82612acf565b91506129f583612acf565b9250817fffffffffffffffffffffffffffffffffffffffffffffffffffffffffffffffff0483118215151615612a2e57612a2d612be7565b5b828202905092915050565b6000612a4482612acf565b9150612a4f83612acf565b925082821015612a6257612a61612be7565b5b828203905092915050565b6000612a7882612aaf565b9050919050565b6000612a8a82612aaf565b9050919050565b60008115159050919050565b6000612aa882612a6d565b9050919050565b600073ffffffffffffffffffffffffffffffffffffffff82169050919050565b6000819050919050565b600060ff82169050919050565b6000612af182612b1c565b9050919050565b6000612b0382612b0a565b9050919050565b6000612b1582612aaf565b9050919050565b6000612b2782612b2e565b9050919050565b6000612b3982612aaf565b9050919050565b6000612b4b82612ad9565b9050919050565b60005b83811015612b70578082015181840152602081019050612b55565b83811115612b7f576000848401525b50505050565b612b8e82612c96565b810181811067ffffffffffffffff82111715612bad57612bac612c45565b5b80604052505050565b6000612bc182612acf565b9150612bcc83612acf565b925082612bdc57612bdb612c16565b5b828206905092915050565b7f4e487b7100000000000000000000000000000000000000000000000000000000600052601160045260246000fd5b7f4e487b7100000000000000000000000000000000000000000000000000000000600052601260045260246000fd5b7f4e487b7100000000000000000000000000000000000000000000000000000000600052604160045260246000fd5b600060033d1115612c935760046000803e612c90600051612ca7565b90505b90565b6000601f19601f8301169050919050565b60008160e01c9050919050565b7f5061757361626c653a206e6f7420706175736564000000000000000000000000600082015250565b7f4d75737420626964206d75737420626520696e2070726f70657220696e63726560008201527f6d656e7400000000000000000000000000000000000000000000000000000000602082015250565b7f4f776e61626c653a206e6577206f776e657220697320746865207a65726f206160008201527f6464726573730000000000000000000000000000000000000000000000000000602082015250565b7f416464726573733a20696e73756666696369656e742062616c616e636520666f60008201527f722063616c6c0000000000000000000000000000000000000000000000000000602082015250565b7f41756374696f6e206861736e277420626567756e000000000000000000000000600082015250565b7f4d7573742073656e64206174206c656173742072657365727665507269636500600082015250565b7f5061757361626c653a2070617573656400000000000000000000000000000000600082015250565b7f496e697469616c697a61626c653a20636f6e747261637420697320616c72656160008201527f647920696e697469616c697a6564000000000000000000000000000000000000602082015250565b7f4f776e61626c653a2063616c6c6572206973206e6f7420746865206f776e6572600082015250565b7f41756374696f6e2068617320616c7265616479206265656e20736574746c6564600082015250565b7f416464726573733a2063616c6c20746f206e6f6e2d636f6e7472616374000000600082015250565b7f496e697469616c697a61626c653a20636f6e7472616374206973206e6f74206960008201527f6e697469616c697a696e67000000000000000000000000000000000000000000602082015250565b7f5361666545524332303a204552433230206f7065726174696f6e20646964206e60008201527f6f74207375636365656400000000000000000000000000000000000000000000602082015250565b7f41756374696f6e206861736e277420636f6d706c657465640000000000000000600082015250565b7f5265656e7472616e637947756172643a207265656e7472616e742063616c6c00600082015250565b7f41756374696f6e20657870697265640000000000000000000000000000000000600082015250565b7f4e4654206e6f7420757020666f722061756374696f6e00000000000000000000600082015250565b600060443d1015613061576130e4565b61306961291c565b60043d036004823e80513d602482011167ffffffffffffffff821117156130915750506130e4565b808201805167ffffffffffffffff8111156130af57505050506130e4565b80602083010160043d0385018111156130cc5750505050506130e4565b6130db82602001850186612b85565b82955050505050505b90565b6130f081612a6d565b81146130fb57600080fd5b50565b61310781612a91565b811461311257600080fd5b50565b61311e81612a9d565b811461312957600080fd5b50565b61313581612acf565b811461314057600080fd5b50565b61314c81612ad9565b811461315757600080fd5b5056fea264697066735822122088209aae24446f62ab159034a2ce257fe988b906ed60b7a170142835d48ca0e964736f6c63430008040033",
  "linkReferences": {},
  "deployedLinkReferences": {}
}