{
  "_format": "hh-sol-artifact-1",
  "contractName": "HiveAuctionHouse",
  "sourceName": "contracts/AuctionContract.sol",
  "abi": [
    {
      "anonymous": false,
      "inputs": [
        {
          "indexed": true,
          "internalType": "uint256",
          "name": "tokenId",
          "type": "uint256"
        },
        {
          "indexed": false,
          "internalType": "address",
          "name": "sender",
          "type": "address"
        },
        {
          "indexed": false,
          "internalType": "uint256",
          "name": "value",
          "type": "uint256"
        }
      ],
      "name": "AuctionBid",
      "type": "event"
    },
    {
      "anonymous": false,
      "inputs": [
        {
          "indexed": true,
          "internalType": "uint256",
          "name": "tokenId",
          "type": "uint256"
        },
        {
          "indexed": false,
          "internalType": "uint256",
          "name": "startTime",
          "type": "uint256"
        },
        {
          "indexed": false,
          "internalType": "uint256",
          "name": "endTime",
          "type": "uint256"
        }
      ],
      "name": "AuctionCreated",
      "type": "event"
    },
    {
      "anonymous": false,
      "inputs": [
        {
          "indexed": false,
          "internalType": "uint256",
          "name": "duration",
          "type": "uint256"
        }
      ],
      "name": "AuctionDurationUpdated",
      "type": "event"
    },
    {
      "anonymous": false,
      "inputs": [
        {
          "indexed": true,
          "internalType": "uint256",
          "name": "tokenId",
          "type": "uint256"
        },
        {
          "indexed": false,
          "internalType": "uint256",
          "name": "endTime",
          "type": "uint256"
        }
      ],
      "name": "AuctionExtended",
      "type": "event"
    },
    {
      "anonymous": false,
      "inputs": [
        {
          "indexed": false,
          "internalType": "uint256",
          "name": "minBidIncrementPercentage",
          "type": "uint256"
        }
      ],
      "name": "AuctionMinBidIncrementUpdated",
      "type": "event"
    },
    {
      "anonymous": false,
      "inputs": [
        {
          "indexed": false,
          "internalType": "uint256",
          "name": "reservePrice",
          "type": "uint256"
        }
      ],
      "name": "AuctionReservePriceUpdated",
      "type": "event"
    },
    {
      "anonymous": false,
      "inputs": [
        {
          "indexed": true,
          "internalType": "uint256",
          "name": "tokenId",
          "type": "uint256"
        },
        {
          "indexed": false,
          "internalType": "address",
          "name": "winner",
          "type": "address"
        },
        {
          "indexed": false,
          "internalType": "uint256",
          "name": "amount",
          "type": "uint256"
        }
      ],
      "name": "AuctionSettled",
      "type": "event"
    },
    {
      "anonymous": false,
      "inputs": [
        {
          "indexed": true,
          "internalType": "address",
          "name": "previousOwner",
          "type": "address"
        },
        {
          "indexed": true,
          "internalType": "address",
          "name": "newOwner",
          "type": "address"
        }
      ],
      "name": "OwnershipTransferred",
      "type": "event"
    },
    {
      "anonymous": false,
      "inputs": [
        {
          "indexed": false,
          "internalType": "address",
          "name": "account",
          "type": "address"
        }
      ],
      "name": "Paused",
      "type": "event"
    },
    {
      "anonymous": false,
      "inputs": [
        {
          "indexed": false,
          "internalType": "address",
          "name": "account",
          "type": "address"
        }
      ],
      "name": "Unpaused",
      "type": "event"
    },
    {
      "inputs": [],
      "name": "auction",
      "outputs": [
        {
          "internalType": "uint256",
          "name": "tokenId",
          "type": "uint256"
        },
        {
          "internalType": "uint256",
          "name": "amount",
          "type": "uint256"
        },
        {
          "internalType": "uint256",
          "name": "startTime",
          "type": "uint256"
        },
        {
          "internalType": "uint256",
          "name": "endTime",
          "type": "uint256"
        },
        {
          "internalType": "address payable",
          "name": "bidder",
          "type": "address"
        },
        {
          "internalType": "bool",
          "name": "settled",
          "type": "bool"
        }
      ],
      "stateMutability": "view",
      "type": "function"
    },
    {
      "inputs": [],
      "name": "baseTokenGenerationRate",
      "outputs": [
        {
          "internalType": "uint256",
          "name": "",
          "type": "uint256"
        }
      ],
      "stateMutability": "view",
      "type": "function"
    },
    {
      "inputs": [
        {
          "internalType": "uint256",
          "name": "_tokenId",
          "type": "uint256"
        },
        {
          "internalType": "uint256",
          "name": "_bidAmount",
          "type": "uint256"
        }
      ],
      "name": "createBid",
      "outputs": [],
      "stateMutability": "payable",
      "type": "function"
    },
    {
      "inputs": [],
      "name": "dai",
      "outputs": [
        {
          "internalType": "address",
          "name": "",
          "type": "address"
        }
      ],
      "stateMutability": "view",
      "type": "function"
    },
    {
      "inputs": [],
      "name": "duration",
      "outputs": [
        {
          "internalType": "uint256",
          "name": "",
          "type": "uint256"
        }
      ],
      "stateMutability": "view",
      "type": "function"
    },
    {
      "inputs": [],
      "name": "hiveNFTContract",
      "outputs": [
        {
          "internalType": "contract IHiveNFT",
          "name": "",
          "type": "address"
        }
      ],
      "stateMutability": "view",
      "type": "function"
    },
    {
      "inputs": [],
      "name": "incrementalTokenGenerationRate",
      "outputs": [
        {
          "internalType": "uint256",
          "name": "",
          "type": "uint256"
        }
      ],
      "stateMutability": "view",
      "type": "function"
    },
    {
      "inputs": [
        {
          "internalType": "contract IHiveNFT",
          "name": "_hiveAddress",
          "type": "address"
        },
        {
          "internalType": "address",
          "name": "_dai",
          "type": "address"
        },
        {
          "internalType": "uint256",
          "name": "_duration",
          "type": "uint256"
        },
        {
          "internalType": "uint256",
          "name": "_reservePrice",
          "type": "uint256"
        },
        {
          "internalType": "uint256",
          "name": "_minBidIncrement",
          "type": "uint256"
        },
        {
          "internalType": "uint256",
          "name": "_baseTokenGenerationRate",
          "type": "uint256"
        },
        {
          "internalType": "uint256",
          "name": "_incrementalTokenGenerationRate",
          "type": "uint256"
        }
      ],
      "name": "initialize",
      "outputs": [],
      "stateMutability": "nonpayable",
      "type": "function"
    },
    {
      "inputs": [],
      "name": "minBidIncrement",
      "outputs": [
        {
          "internalType": "uint256",
          "name": "",
          "type": "uint256"
        }
      ],
      "stateMutability": "view",
      "type": "function"
    },
    {
      "inputs": [],
      "name": "owner",
      "outputs": [
        {
          "internalType": "address",
          "name": "",
          "type": "address"
        }
      ],
      "stateMutability": "view",
      "type": "function"
    },
    {
      "inputs": [],
      "name": "pause",
      "outputs": [],
      "stateMutability": "nonpayable",
      "type": "function"
    },
    {
      "inputs": [],
      "name": "paused",
      "outputs": [
        {
          "internalType": "bool",
          "name": "",
          "type": "bool"
        }
      ],
      "stateMutability": "view",
      "type": "function"
    },
    {
      "inputs": [],
      "name": "renounceOwnership",
      "outputs": [],
      "stateMutability": "nonpayable",
      "type": "function"
    },
    {
      "inputs": [],
      "name": "reservePrice",
      "outputs": [
        {
          "internalType": "uint256",
          "name": "",
          "type": "uint256"
        }
      ],
      "stateMutability": "view",
      "type": "function"
    },
    {
      "inputs": [
        {
          "internalType": "uint256",
          "name": "_duration",
          "type": "uint256"
        }
      ],
      "name": "setDuration",
      "outputs": [],
      "stateMutability": "nonpayable",
      "type": "function"
    },
    {
      "inputs": [
        {
          "internalType": "uint8",
          "name": "_minBidIncrement",
          "type": "uint8"
        }
      ],
      "name": "setMinBidIncrement",
      "outputs": [],
      "stateMutability": "nonpayable",
      "type": "function"
    },
    {
      "inputs": [
        {
          "internalType": "uint256",
          "name": "_reservePrice",
          "type": "uint256"
        }
      ],
      "name": "setReservePrice",
      "outputs": [],
      "stateMutability": "nonpayable",
      "type": "function"
    },
    {
      "inputs": [],
      "name": "settleAuction",
      "outputs": [],
      "stateMutability": "nonpayable",
      "type": "function"
    },
    {
      "inputs": [],
      "name": "settleCurrentAndCreateNewAuction",
      "outputs": [],
      "stateMutability": "nonpayable",
      "type": "function"
    },
    {
      "inputs": [
        {
          "internalType": "address",
          "name": "newOwner",
          "type": "address"
        }
      ],
      "name": "transferOwnership",
      "outputs": [],
      "stateMutability": "nonpayable",
      "type": "function"
    },
    {
      "inputs": [],
      "name": "unpause",
      "outputs": [],
      "stateMutability": "nonpayable",
      "type": "function"
    }
  ],
  "bytecode": "0x608060405234801561001057600080fd5b50613073806100206000396000f3fe60806040526004361061012a5760003560e01c8063a4d0a17e116100ab578063de182c5d1161006f578063de182c5d14610356578063edbf4ac214610381578063f25efffc146103aa578063f2fde38b146103c1578063f4b9fa75146103ea578063f6be71d1146104155761012a565b8063a4d0a17e146102a4578063b7751c71146102bb578063ce9c7c0d146102d7578063d730f52d14610300578063db2e1eed1461032b5761012a565b80635c975abb116100f25780635c975abb146101f0578063715018a61461021b5780637d9f6db5146102325780638456cb59146102625780638da5cb5b146102795761012a565b80630fb5a6b41461012f5780631935ae3f1461015a578063236197cc14610185578063335b115e146101ae5780633f4ba83a146101d9575b600080fd5b34801561013b57600080fd5b5061014461043e565b604051610151919061273f565b60405180910390f35b34801561016657600080fd5b5061016f610444565b60405161017c919061273f565b60405180910390f35b34801561019157600080fd5b506101ac60048036038101906101a791906120af565b61044a565b005b3480156101ba57600080fd5b506101c361050a565b6040516101d0919061273f565b60405180910390f35b3480156101e557600080fd5b506101ee610510565b005b3480156101fc57600080fd5b506102056105c7565b60405161021291906124c7565b60405180910390f35b34801561022757600080fd5b506102306105de565b005b34801561023e57600080fd5b50610247610666565b60405161025996959493929190612783565b60405180910390f35b34801561026e57600080fd5b506102776106bd565b005b34801561028557600080fd5b5061028e610743565b60405161029b9190612415565b60405180910390f35b3480156102b057600080fd5b506102b961076d565b005b6102d560048036038101906102d09190612073565b610814565b005b3480156102e357600080fd5b506102fe60048036038101906102f99190612021565b610bb0565b005b34801561030c57600080fd5b50610315610c6d565b604051610322919061273f565b60405180910390f35b34801561033757600080fd5b50610340610c73565b60405161034d919061273f565b60405180910390f35b34801561036257600080fd5b5061036b610c79565b60405161037891906124e2565b60405180910390f35b34801561038d57600080fd5b506103a860048036038101906103a39190611f83565b610c9f565b005b3480156103b657600080fd5b506103bf610e4f565b005b3480156103cd57600080fd5b506103e860048036038101906103e39190611f31565b610eff565b005b3480156103f657600080fd5b506103ff610ff7565b60405161040c9190612415565b60405180910390f35b34801561042157600080fd5b5061043c60048036038101906104379190612021565b61101d565b005b60cd5481565b60ce5481565b6104526110da565b73ffffffffffffffffffffffffffffffffffffffff16610470610743565b73ffffffffffffffffffffffffffffffffffffffff16146104c6576040517f08c379a00000000000000000000000000000000000000000000000000000000081526004016104bd9061261f565b60405180910390fd5b8060ff1660cc819055507fc3c898bec609452e0cecc8990f6692426351b704f348f19cc242bd4d42d65ce9816040516104ff91906127e4565b60405180910390a150565b60cc5481565b6105186110da565b73ffffffffffffffffffffffffffffffffffffffff16610536610743565b73ffffffffffffffffffffffffffffffffffffffff161461058c576040517f08c379a00000000000000000000000000000000000000000000000000000000081526004016105839061261f565b60405180910390fd5b6105946110e2565b600060d06002015414806105b7575060d060040160149054906101000a900460ff165b156105c5576105c4611184565b5b565b6000603360009054906101000a900460ff16905090565b6105e66110da565b73ffffffffffffffffffffffffffffffffffffffff16610604610743565b73ffffffffffffffffffffffffffffffffffffffff161461065a576040517f08c379a00000000000000000000000000000000000000000000000000000000081526004016106519061261f565b60405180910390fd5b610664600061139d565b565b60d08060000154908060010154908060020154908060030154908060040160009054906101000a900473ffffffffffffffffffffffffffffffffffffffff16908060040160149054906101000a900460ff16905086565b6106c56110da565b73ffffffffffffffffffffffffffffffffffffffff166106e3610743565b73ffffffffffffffffffffffffffffffffffffffff1614610739576040517f08c379a00000000000000000000000000000000000000000000000000000000081526004016107309061261f565b60405180910390fd5b610741611463565b565b6000609760009054906101000a900473ffffffffffffffffffffffffffffffffffffffff16905090565b6107756105c7565b6107b4576040517f08c379a00000000000000000000000000000000000000000000000000000000081526004016107ab9061251f565b60405180910390fd5b600260655414156107fa576040517f08c379a00000000000000000000000000000000000000000000000000000000081526004016107f1906126df565b60405180910390fd5b600260658190555061080a611506565b6001606581905550565b6002606554141561085a576040517f08c379a0000000000000000000000000000000000000000000000000000000008152600401610851906126df565b60405180910390fd5b6002606581905550600060d06040518060c0016040529081600082015481526020016001820154815260200160028201548152602001600382015481526020016004820160009054906101000a900473ffffffffffffffffffffffffffffffffffffffff1673ffffffffffffffffffffffffffffffffffffffff1673ffffffffffffffffffffffffffffffffffffffff1681526020016004820160149054906101000a900460ff161515151581525050905082816000015114610952576040517f08c379a00000000000000000000000000000000000000000000000000000000081526004016109499061271f565b60405180910390fd5b80606001514210610998576040517f08c379a000000000000000000000000000000000000000000000000000000000815260040161098f906126ff565b60405180910390fd5b60cb548210156109dd576040517f08c379a00000000000000000000000000000000000000000000000000000000081526004016109d4906125bf565b60405180910390fd5b600060cc5460cb54846109f0919061291c565b6109fa9190612a99565b14610a3a576040517f08c379a0000000000000000000000000000000000000000000000000000000008152600401610a319061253f565b60405180910390fd5b6000816080015190508260d0600101819055503360d060040160006101000a81548173ffffffffffffffffffffffffffffffffffffffff021916908373ffffffffffffffffffffffffffffffffffffffff160217905550600073ffffffffffffffffffffffffffffffffffffffff168173ffffffffffffffffffffffffffffffffffffffff1614610b1957610b183082846020015160ca60009054906101000a900473ffffffffffffffffffffffffffffffffffffffff1673ffffffffffffffffffffffffffffffffffffffff1661190f909392919063ffffffff16565b5b610b6833308560ca60009054906101000a900473ffffffffffffffffffffffffffffffffffffffff1673ffffffffffffffffffffffffffffffffffffffff1661190f909392919063ffffffff16565b837fb8d756f2d1da4663767eb4d559780ace84f2f65a421a60ddcb47e8b2e5d2fd263385604051610b9a92919061249e565b60405180910390a2505060016065819055505050565b610bb86110da565b73ffffffffffffffffffffffffffffffffffffffff16610bd6610743565b73ffffffffffffffffffffffffffffffffffffffff1614610c2c576040517f08c379a0000000000000000000000000000000000000000000000000000000008152600401610c239061261f565b60405180910390fd5b8060cb819055507f6ab2e127d7fdf53b8f304e59d3aab5bfe97979f52a85479691a6fab27a28a6b281604051610c62919061273f565b60405180910390a150565b60cf5481565b60cb5481565b60c960009054906101000a900473ffffffffffffffffffffffffffffffffffffffff1681565b600060019054906101000a900460ff16610cc75760008054906101000a900460ff1615610cd0565b610ccf611998565b5b610d0f576040517f08c379a0000000000000000000000000000000000000000000000000000000008152600401610d06906125ff565b60405180910390fd5b60008060019054906101000a900460ff161590508015610d5f576001600060016101000a81548160ff02191690831515021790555060016000806101000a81548160ff0219169083151502179055505b610d676119a9565b610d6f611a02565b610d77611a5b565b610d7f611463565b8760c960006101000a81548173ffffffffffffffffffffffffffffffffffffffff021916908373ffffffffffffffffffffffffffffffffffffffff1602179055508660ca60006101000a81548173ffffffffffffffffffffffffffffffffffffffff021916908373ffffffffffffffffffffffffffffffffffffffff1602179055508460cb819055508360cc819055508260ce819055508160cf819055508560cd819055508015610e455760008060016101000a81548160ff0219169083151502179055505b5050505050505050565b60026065541415610e95576040517f08c379a0000000000000000000000000000000000000000000000000000000008152600401610e8c906126df565b60405180910390fd5b6002606581905550610ea56105c7565b15610ee5576040517f08c379a0000000000000000000000000000000000000000000000000000000008152600401610edc906125df565b60405180910390fd5b610eed611506565b610ef5611184565b6001606581905550565b610f076110da565b73ffffffffffffffffffffffffffffffffffffffff16610f25610743565b73ffffffffffffffffffffffffffffffffffffffff1614610f7b576040517f08c379a0000000000000000000000000000000000000000000000000000000008152600401610f729061261f565b60405180910390fd5b600073ffffffffffffffffffffffffffffffffffffffff168173ffffffffffffffffffffffffffffffffffffffff161415610feb576040517f08c379a0000000000000000000000000000000000000000000000000000000008152600401610fe29061255f565b60405180910390fd5b610ff48161139d565b50565b60ca60009054906101000a900473ffffffffffffffffffffffffffffffffffffffff1681565b6110256110da565b73ffffffffffffffffffffffffffffffffffffffff16611043610743565b73ffffffffffffffffffffffffffffffffffffffff1614611099576040517f08c379a00000000000000000000000000000000000000000000000000000000081526004016110909061261f565b60405180910390fd5b8060cd819055507faab6389d8f1c16ba1deb6e9831f5c5442cf4fcf99bf5bfa867460be408a91118816040516110cf919061273f565b60405180910390a150565b600033905090565b6110ea6105c7565b611129576040517f08c379a00000000000000000000000000000000000000000000000000000000081526004016111209061251f565b60405180910390fd5b6000603360006101000a81548160ff0219169083151502179055507f5db9ee0a495bf2e6ff9c91a7834c1ba4fdd244a5e8aa4e537bd38aeae4b073aa61116d6110da565b60405161117a9190612415565b60405180910390a1565b60c960009054906101000a900473ffffffffffffffffffffffffffffffffffffffff1673ffffffffffffffffffffffffffffffffffffffff166332f4a69b6040518163ffffffff1660e01b8152600401602060405180830381600087803b1580156111ee57600080fd5b505af192505050801561121f57506040513d601f19601f8201168201806040525081019061121c919061204a565b60015b61126a5761122b612b57565b806308c379a014156112595750611240612f34565b8061124b575061125b565b611253611463565b50611265565b505b3d6000803e3d6000fd5b61139b565b6000429050600060cd548261127f919061283b565b90506040518060c0016040528084815260200160008152602001838152602001828152602001600073ffffffffffffffffffffffffffffffffffffffff1681526020016000151581525060d06000820151816000015560208201518160010155604082015181600201556060820151816003015560808201518160040160006101000a81548173ffffffffffffffffffffffffffffffffffffffff021916908373ffffffffffffffffffffffffffffffffffffffff16021790555060a08201518160040160146101000a81548160ff021916908315150217905550905050827fd6eddd1118d71820909c1197aa966dbc15ed6f508554252169cc3d5ccac756ca838360405161138f92919061275a565b60405180910390a25050505b565b6000609760009054906101000a900473ffffffffffffffffffffffffffffffffffffffff16905081609760006101000a81548173ffffffffffffffffffffffffffffffffffffffff021916908373ffffffffffffffffffffffffffffffffffffffff1602179055508173ffffffffffffffffffffffffffffffffffffffff168173ffffffffffffffffffffffffffffffffffffffff167f8be0079c531659141344cd1fd0a4f28419497f9722a3daafe3b4186f6b6457e060405160405180910390a35050565b61146b6105c7565b156114ab576040517f08c379a00000000000000000000000000000000000000000000000000000000081526004016114a2906125df565b60405180910390fd5b6001603360006101000a81548160ff0219169083151502179055507f62e78cea01bee320cd4e420270b5ea74000d11b0c9f74754ebdbfc544b05a2586114ef6110da565b6040516114fc9190612415565b60405180910390a1565b600060d06040518060c0016040529081600082015481526020016001820154815260200160028201548152602001600382015481526020016004820160009054906101000a900473ffffffffffffffffffffffffffffffffffffffff1673ffffffffffffffffffffffffffffffffffffffff1673ffffffffffffffffffffffffffffffffffffffff1681526020016004820160149054906101000a900460ff16151515158152505090506000816040015114156115f8576040517f08c379a00000000000000000000000000000000000000000000000000000000081526004016115ef9061259f565b60405180910390fd5b8060a001511561163d576040517f08c379a00000000000000000000000000000000000000000000000000000000081526004016116349061263f565b60405180910390fd5b8060600151421015611684576040517f08c379a000000000000000000000000000000000000000000000000000000000815260040161167b906126bf565b60405180910390fd5b600160d060040160146101000a81548160ff021916908315150217905550600073ffffffffffffffffffffffffffffffffffffffff16816080015173ffffffffffffffffffffffffffffffffffffffff16146117745760c960009054906101000a900473ffffffffffffffffffffffffffffffffffffffff1673ffffffffffffffffffffffffffffffffffffffff166323b872dd30836080015184600001516040518463ffffffff1660e01b815260040161174193929190612430565b600060405180830381600087803b15801561175b57600080fd5b505af115801561176f573d6000803e3d6000fd5b505050505b6000816020015111156117dc576117db3061178d610743565b836020015160ca60009054906101000a900473ffffffffffffffffffffffffffffffffffffffff1673ffffffffffffffffffffffffffffffffffffffff1661190f909392919063ffffffff16565b5b60c960009054906101000a900473ffffffffffffffffffffffffffffffffffffffff1673ffffffffffffffffffffffffffffffffffffffff1663b8bf514d826000015161182c8460200151611ab4565b6040518363ffffffff1660e01b815260040161184992919061275a565b600060405180830381600087803b15801561186357600080fd5b505af1158015611877573d6000803e3d6000fd5b5050505060008073ffffffffffffffffffffffffffffffffffffffff16826080015173ffffffffffffffffffffffffffffffffffffffff16146118be5781608001516118c7565b6118c6610743565b5b905081600001517fc9f72b276a388619c6d185d146697036241880c36654b1a3ffdad07c24038d9982846020015160405161190392919061249e565b60405180910390a25050565b611992846323b872dd60e01b85858560405160240161193093929190612467565b604051602081830303815290604052907bffffffffffffffffffffffffffffffffffffffffffffffffffffffff19166020820180517bffffffffffffffffffffffffffffffffffffffffffffffffffffffff8381831617835250505050611afd565b50505050565b60006119a330611bc4565b15905090565b600060019054906101000a900460ff166119f8576040517f08c379a00000000000000000000000000000000000000000000000000000000081526004016119ef9061267f565b60405180910390fd5b611a00611be7565b565b600060019054906101000a900460ff16611a51576040517f08c379a0000000000000000000000000000000000000000000000000000000008152600401611a489061267f565b60405180910390fd5b611a59611c53565b565b600060019054906101000a900460ff16611aaa576040517f08c379a0000000000000000000000000000000000000000000000000000000008152600401611aa19061267f565b60405180910390fd5b611ab2611cac565b565b60008060ce54905060cb5483611aca919061291c565b925060cf5460cc5484611add9190612891565b611ae791906128c2565b81611af2919061283b565b905080915050919050565b6000611b5f826040518060400160405280602081526020017f5361666545524332303a206c6f772d6c6576656c2063616c6c206661696c65648152508573ffffffffffffffffffffffffffffffffffffffff16611d0d9092919063ffffffff16565b9050600081511115611bbf5780806020019051810190611b7f9190611f5a565b611bbe576040517f08c379a0000000000000000000000000000000000000000000000000000000008152600401611bb59061269f565b60405180910390fd5b5b505050565b6000808273ffffffffffffffffffffffffffffffffffffffff163b119050919050565b600060019054906101000a900460ff16611c36576040517f08c379a0000000000000000000000000000000000000000000000000000000008152600401611c2d9061267f565b60405180910390fd5b6000603360006101000a81548160ff021916908315150217905550565b600060019054906101000a900460ff16611ca2576040517f08c379a0000000000000000000000000000000000000000000000000000000008152600401611c999061267f565b60405180910390fd5b6001606581905550565b600060019054906101000a900460ff16611cfb576040517f08c379a0000000000000000000000000000000000000000000000000000000008152600401611cf29061267f565b60405180910390fd5b611d0b611d066110da565b61139d565b565b6060611d1c8484600085611d25565b90509392505050565b606082471015611d6a576040517f08c379a0000000000000000000000000000000000000000000000000000000008152600401611d619061257f565b60405180910390fd5b611d7385611e39565b611db2576040517f08c379a0000000000000000000000000000000000000000000000000000000008152600401611da99061265f565b60405180910390fd5b6000808673ffffffffffffffffffffffffffffffffffffffff168587604051611ddb91906123fe565b60006040518083038185875af1925050503d8060008114611e18576040519150601f19603f3d011682016040523d82523d6000602084013e611e1d565b606091505b5091509150611e2d828286611e4c565b92505050949350505050565b600080823b905060008111915050919050565b60608315611e5c57829050611eac565b600083511115611e6f5782518084602001fd5b816040517f08c379a0000000000000000000000000000000000000000000000000000000008152600401611ea391906124fd565b60405180910390fd5b9392505050565b600081359050611ec281612fca565b92915050565b600081519050611ed781612fe1565b92915050565b600081359050611eec81612ff8565b92915050565b600081359050611f018161300f565b92915050565b600081519050611f168161300f565b92915050565b600081359050611f2b81613026565b92915050565b600060208284031215611f4357600080fd5b6000611f5184828501611eb3565b91505092915050565b600060208284031215611f6c57600080fd5b6000611f7a84828501611ec8565b91505092915050565b600080600080600080600060e0888a031215611f9e57600080fd5b6000611fac8a828b01611edd565b9750506020611fbd8a828b01611eb3565b9650506040611fce8a828b01611ef2565b9550506060611fdf8a828b01611ef2565b9450506080611ff08a828b01611ef2565b93505060a06120018a828b01611ef2565b92505060c06120128a828b01611ef2565b91505092959891949750929550565b60006020828403121561203357600080fd5b600061204184828501611ef2565b91505092915050565b60006020828403121561205c57600080fd5b600061206a84828501611f07565b91505092915050565b6000806040838503121561208657600080fd5b600061209485828601611ef2565b92505060206120a585828601611ef2565b9150509250929050565b6000602082840312156120c157600080fd5b60006120cf84828501611f1c565b91505092915050565b6120e1816129c9565b82525050565b6120f081612962565b82525050565b6120ff81612950565b82525050565b61210e81612974565b82525050565b600061211f82612809565b612129818561281f565b9350612139818560208601612a35565b80840191505092915050565b61214e816129db565b82525050565b600061215f82612814565b612169818561282a565b9350612179818560208601612a35565b61218281612b79565b840191505092915050565b600061219a60148361282a565b91506121a582612b97565b602082019050919050565b60006121bd60248361282a565b91506121c882612bc0565b604082019050919050565b60006121e060268361282a565b91506121eb82612c0f565b604082019050919050565b600061220360268361282a565b915061220e82612c5e565b604082019050919050565b600061222660148361282a565b915061223182612cad565b602082019050919050565b6000612249601f8361282a565b915061225482612cd6565b602082019050919050565b600061226c60108361282a565b915061227782612cff565b602082019050919050565b600061228f602e8361282a565b915061229a82612d28565b604082019050919050565b60006122b260208361282a565b91506122bd82612d77565b602082019050919050565b60006122d560208361282a565b91506122e082612da0565b602082019050919050565b60006122f8601d8361282a565b915061230382612dc9565b602082019050919050565b600061231b602b8361282a565b915061232682612df2565b604082019050919050565b600061233e602a8361282a565b915061234982612e41565b604082019050919050565b600061236160188361282a565b915061236c82612e90565b602082019050919050565b6000612384601f8361282a565b915061238f82612eb9565b602082019050919050565b60006123a7600f8361282a565b91506123b282612ee2565b602082019050919050565b60006123ca60168361282a565b91506123d582612f0b565b602082019050919050565b6123e9816129b2565b82525050565b6123f881612a23565b82525050565b600061240a8284612114565b915081905092915050565b600060208201905061242a60008301846120f6565b92915050565b600060608201905061244560008301866120f6565b61245260208301856120d8565b61245f60408301846123e0565b949350505050565b600060608201905061247c60008301866120f6565b61248960208301856120f6565b61249660408301846123e0565b949350505050565b60006040820190506124b360008301856120f6565b6124c060208301846123e0565b9392505050565b60006020820190506124dc6000830184612105565b92915050565b60006020820190506124f76000830184612145565b92915050565b600060208201905081810360008301526125178184612154565b905092915050565b600060208201905081810360008301526125388161218d565b9050919050565b60006020820190508181036000830152612558816121b0565b9050919050565b60006020820190508181036000830152612578816121d3565b9050919050565b60006020820190508181036000830152612598816121f6565b9050919050565b600060208201905081810360008301526125b881612219565b9050919050565b600060208201905081810360008301526125d88161223c565b9050919050565b600060208201905081810360008301526125f88161225f565b9050919050565b6000602082019050818103600083015261261881612282565b9050919050565b60006020820190508181036000830152612638816122a5565b9050919050565b60006020820190508181036000830152612658816122c8565b9050919050565b60006020820190508181036000830152612678816122eb565b9050919050565b600060208201905081810360008301526126988161230e565b9050919050565b600060208201905081810360008301526126b881612331565b9050919050565b600060208201905081810360008301526126d881612354565b9050919050565b600060208201905081810360008301526126f881612377565b9050919050565b600060208201905081810360008301526127188161239a565b9050919050565b60006020820190508181036000830152612738816123bd565b9050919050565b600060208201905061275460008301846123e0565b92915050565b600060408201905061276f60008301856123e0565b61277c60208301846123e0565b9392505050565b600060c08201905061279860008301896123e0565b6127a560208301886123e0565b6127b260408301876123e0565b6127bf60608301866123e0565b6127cc60808301856120e7565b6127d960a0830184612105565b979650505050505050565b60006020820190506127f960008301846123ef565b92915050565b6000604051905090565b600081519050919050565b600081519050919050565b600081905092915050565b600082825260208201905092915050565b6000612846826129b2565b9150612851836129b2565b9250827fffffffffffffffffffffffffffffffffffffffffffffffffffffffffffffffff0382111561288657612885612aca565b5b828201905092915050565b600061289c826129b2565b91506128a7836129b2565b9250826128b7576128b6612af9565b5b828204905092915050565b60006128cd826129b2565b91506128d8836129b2565b9250817fffffffffffffffffffffffffffffffffffffffffffffffffffffffffffffffff048311821515161561291157612910612aca565b5b828202905092915050565b6000612927826129b2565b9150612932836129b2565b92508282101561294557612944612aca565b5b828203905092915050565b600061295b82612992565b9050919050565b600061296d82612992565b9050919050565b60008115159050919050565b600061298b82612950565b9050919050565b600073ffffffffffffffffffffffffffffffffffffffff82169050919050565b6000819050919050565b600060ff82169050919050565b60006129d4826129ff565b9050919050565b60006129e6826129ed565b9050919050565b60006129f882612992565b9050919050565b6000612a0a82612a11565b9050919050565b6000612a1c82612992565b9050919050565b6000612a2e826129bc565b9050919050565b60005b83811015612a53578082015181840152602081019050612a38565b83811115612a62576000848401525b50505050565b612a7182612b79565b810181811067ffffffffffffffff82111715612a9057612a8f612b28565b5b80604052505050565b6000612aa4826129b2565b9150612aaf836129b2565b925082612abf57612abe612af9565b5b828206905092915050565b7f4e487b7100000000000000000000000000000000000000000000000000000000600052601160045260246000fd5b7f4e487b7100000000000000000000000000000000000000000000000000000000600052601260045260246000fd5b7f4e487b7100000000000000000000000000000000000000000000000000000000600052604160045260246000fd5b600060033d1115612b765760046000803e612b73600051612b8a565b90505b90565b6000601f19601f8301169050919050565b60008160e01c9050919050565b7f5061757361626c653a206e6f7420706175736564000000000000000000000000600082015250565b7f4d75737420626964206d75737420626520696e2070726f70657220696e63726560008201527f6d656e7400000000000000000000000000000000000000000000000000000000602082015250565b7f4f776e61626c653a206e6577206f776e657220697320746865207a65726f206160008201527f6464726573730000000000000000000000000000000000000000000000000000602082015250565b7f416464726573733a20696e73756666696369656e742062616c616e636520666f60008201527f722063616c6c0000000000000000000000000000000000000000000000000000602082015250565b7f41756374696f6e206861736e277420626567756e000000000000000000000000600082015250565b7f4d7573742073656e64206174206c656173742072657365727665507269636500600082015250565b7f5061757361626c653a2070617573656400000000000000000000000000000000600082015250565b7f496e697469616c697a61626c653a20636f6e747261637420697320616c72656160008201527f647920696e697469616c697a6564000000000000000000000000000000000000602082015250565b7f4f776e61626c653a2063616c6c6572206973206e6f7420746865206f776e6572600082015250565b7f41756374696f6e2068617320616c7265616479206265656e20736574746c6564600082015250565b7f416464726573733a2063616c6c20746f206e6f6e2d636f6e7472616374000000600082015250565b7f496e697469616c697a61626c653a20636f6e7472616374206973206e6f74206960008201527f6e697469616c697a696e67000000000000000000000000000000000000000000602082015250565b7f5361666545524332303a204552433230206f7065726174696f6e20646964206e60008201527f6f74207375636365656400000000000000000000000000000000000000000000602082015250565b7f41756374696f6e206861736e277420636f6d706c657465640000000000000000600082015250565b7f5265656e7472616e637947756172643a207265656e7472616e742063616c6c00600082015250565b7f41756374696f6e20657870697265640000000000000000000000000000000000600082015250565b7f4e4654206e6f7420757020666f722061756374696f6e00000000000000000000600082015250565b600060443d1015612f4457612fc7565b612f4c6127ff565b60043d036004823e80513d602482011167ffffffffffffffff82111715612f74575050612fc7565b808201805167ffffffffffffffff811115612f925750505050612fc7565b80602083010160043d038501811115612faf575050505050612fc7565b612fbe82602001850186612a68565b82955050505050505b90565b612fd381612950565b8114612fde57600080fd5b50565b612fea81612974565b8114612ff557600080fd5b50565b61300181612980565b811461300c57600080fd5b50565b613018816129b2565b811461302357600080fd5b50565b61302f816129bc565b811461303a57600080fd5b5056fea2646970667358221220479185e8a1242534d281092750a85f846a0e41ed8573e647c03ef87b01e0fd2964736f6c63430008040033",
  "linkReferences": {},
  "deployedLinkReferences": {}
}