{
  "_format": "hh-sol-artifact-1",
  "contractName": "HoneyTestToken",
  "sourceName": "contracts/HoneyTestToken.sol",
  "abi": [
    {
      "inputs": [],
      "stateMutability": "nonpayable",
      "type": "constructor"
    },
    {
      "anonymous": false,
      "inputs": [
        {
          "indexed": true,
          "internalType": "address",
          "name": "owner",
          "type": "address"
        },
        {
          "indexed": true,
          "internalType": "address",
          "name": "spender",
          "type": "address"
        },
        {
          "indexed": false,
          "internalType": "uint256",
          "name": "value",
          "type": "uint256"
        }
      ],
      "name": "Approval",
      "type": "event"
    },
    {
      "anonymous": false,
      "inputs": [
        {
          "indexed": true,
          "internalType": "address",
          "name": "previousOwner",
          "type": "address"
        },
        {
          "indexed": true,
          "internalType": "address",
          "name": "newOwner",
          "type": "address"
        }
      ],
      "name": "OwnershipTransferred",
      "type": "event"
    },
    {
      "anonymous": false,
      "inputs": [
        {
          "indexed": true,
          "internalType": "address",
          "name": "from",
          "type": "address"
        },
        {
          "indexed": true,
          "internalType": "address",
          "name": "to",
          "type": "address"
        },
        {
          "indexed": false,
          "internalType": "uint256",
          "name": "value",
          "type": "uint256"
        }
      ],
      "name": "Transfer",
      "type": "event"
    },
    {
      "inputs": [
        {
          "internalType": "address",
          "name": "owner",
          "type": "address"
        },
        {
          "internalType": "address",
          "name": "spender",
          "type": "address"
        }
      ],
      "name": "allowance",
      "outputs": [
        {
          "internalType": "uint256",
          "name": "",
          "type": "uint256"
        }
      ],
      "stateMutability": "view",
      "type": "function"
    },
    {
      "inputs": [
        {
          "internalType": "address",
          "name": "spender",
          "type": "address"
        },
        {
          "internalType": "uint256",
          "name": "amount",
          "type": "uint256"
        }
      ],
      "name": "approve",
      "outputs": [
        {
          "internalType": "bool",
          "name": "",
          "type": "bool"
        }
      ],
      "stateMutability": "nonpayable",
      "type": "function"
    },
    {
      "inputs": [
        {
          "internalType": "address",
          "name": "account",
          "type": "address"
        }
      ],
      "name": "balanceOf",
      "outputs": [
        {
          "internalType": "uint256",
          "name": "",
          "type": "uint256"
        }
      ],
      "stateMutability": "view",
      "type": "function"
    },
    {
      "inputs": [
        {
          "internalType": "uint256",
          "name": "_amount",
          "type": "uint256"
        }
      ],
      "name": "createTokens",
      "outputs": [],
      "stateMutability": "nonpayable",
      "type": "function"
    },
    {
      "inputs": [],
      "name": "decimals",
      "outputs": [
        {
          "internalType": "uint8",
          "name": "",
          "type": "uint8"
        }
      ],
      "stateMutability": "view",
      "type": "function"
    },
    {
      "inputs": [
        {
          "internalType": "address",
          "name": "spender",
          "type": "address"
        },
        {
          "internalType": "uint256",
          "name": "subtractedValue",
          "type": "uint256"
        }
      ],
      "name": "decreaseAllowance",
      "outputs": [
        {
          "internalType": "bool",
          "name": "",
          "type": "bool"
        }
      ],
      "stateMutability": "nonpayable",
      "type": "function"
    },
    {
      "inputs": [
        {
          "internalType": "address",
          "name": "spender",
          "type": "address"
        },
        {
          "internalType": "uint256",
          "name": "addedValue",
          "type": "uint256"
        }
      ],
      "name": "increaseAllowance",
      "outputs": [
        {
          "internalType": "bool",
          "name": "",
          "type": "bool"
        }
      ],
      "stateMutability": "nonpayable",
      "type": "function"
    },
    {
      "inputs": [],
      "name": "name",
      "outputs": [
        {
          "internalType": "string",
          "name": "",
          "type": "string"
        }
      ],
      "stateMutability": "view",
      "type": "function"
    },
    {
      "inputs": [],
      "name": "owner",
      "outputs": [
        {
          "internalType": "address",
          "name": "",
          "type": "address"
        }
      ],
      "stateMutability": "view",
      "type": "function"
    },
    {
      "inputs": [],
      "name": "renounceOwnership",
      "outputs": [],
      "stateMutability": "nonpayable",
      "type": "function"
    },
    {
      "inputs": [],
      "name": "symbol",
      "outputs": [
        {
          "internalType": "string",
          "name": "",
          "type": "string"
        }
      ],
      "stateMutability": "view",
      "type": "function"
    },
    {
      "inputs": [],
      "name": "totalSupply",
      "outputs": [
        {
          "internalType": "uint256",
          "name": "",
          "type": "uint256"
        }
      ],
      "stateMutability": "view",
      "type": "function"
    },
    {
      "inputs": [
        {
          "internalType": "address",
          "name": "recipient",
          "type": "address"
        },
        {
          "internalType": "uint256",
          "name": "amount",
          "type": "uint256"
        }
      ],
      "name": "transfer",
      "outputs": [
        {
          "internalType": "bool",
          "name": "",
          "type": "bool"
        }
      ],
      "stateMutability": "nonpayable",
      "type": "function"
    },
    {
      "inputs": [
        {
          "internalType": "address",
          "name": "sender",
          "type": "address"
        },
        {
          "internalType": "address",
          "name": "recipient",
          "type": "address"
        },
        {
          "internalType": "uint256",
          "name": "amount",
          "type": "uint256"
        }
      ],
      "name": "transferFrom",
      "outputs": [
        {
          "internalType": "bool",
          "name": "",
          "type": "bool"
        }
      ],
      "stateMutability": "nonpayable",
      "type": "function"
    },
    {
      "inputs": [
        {
          "internalType": "address",
          "name": "newOwner",
          "type": "address"
        }
      ],
      "name": "transferOwnership",
      "outputs": [],
      "stateMutability": "nonpayable",
      "type": "function"
    }
  ],
  "bytecode": "0x60806040523480156200001157600080fd5b506040518060400160405280600581526020017f486f6e65790000000000000000000000000000000000000000000000000000008152506040518060400160405280600381526020017f484e5900000000000000000000000000000000000000000000000000000000008152506200009e62000092620000d860201b60201c565b620000e060201b60201c565b8160049080519060200190620000b6929190620001a4565b508060059080519060200190620000cf929190620001a4565b505050620002b9565b600033905090565b60008060009054906101000a900473ffffffffffffffffffffffffffffffffffffffff169050816000806101000a81548173ffffffffffffffffffffffffffffffffffffffff021916908373ffffffffffffffffffffffffffffffffffffffff1602179055508173ffffffffffffffffffffffffffffffffffffffff168173ffffffffffffffffffffffffffffffffffffffff167f8be0079c531659141344cd1fd0a4f28419497f9722a3daafe3b4186f6b6457e060405160405180910390a35050565b828054620001b29062000254565b90600052602060002090601f016020900481019282620001d6576000855562000222565b82601f10620001f157805160ff191683800117855562000222565b8280016001018555821562000222579182015b828111156200022157825182559160200191906001019062000204565b5b50905062000231919062000235565b5090565b5b808211156200025057600081600090555060010162000236565b5090565b600060028204905060018216806200026d57607f821691505b602082108114156200028457620002836200028a565b5b50919050565b7f4e487b7100000000000000000000000000000000000000000000000000000000600052602260045260246000fd5b6119dd80620002c96000396000f3fe608060405234801561001057600080fd5b50600436106100f55760003560e01c8063715018a611610097578063a457c2d711610066578063a457c2d714610276578063a9059cbb146102a6578063dd62ed3e146102d6578063f2fde38b14610306576100f5565b8063715018a6146102145780637e1f2bb81461021e5780638da5cb5b1461023a57806395d89b4114610258576100f5565b806323b872dd116100d357806323b872dd14610166578063313ce5671461019657806339509351146101b457806370a08231146101e4576100f5565b806306fdde03146100fa578063095ea7b31461011857806318160ddd14610148575b600080fd5b610102610322565b60405161010f919061137c565b60405180910390f35b610132600480360381019061012d919061110e565b6103b4565b60405161013f9190611361565b60405180910390f35b6101506103d2565b60405161015d91906114de565b60405180910390f35b610180600480360381019061017b91906110bf565b6103dc565b60405161018d9190611361565b60405180910390f35b61019e6104d4565b6040516101ab91906114f9565b60405180910390f35b6101ce60048036038101906101c9919061110e565b6104dd565b6040516101db9190611361565b60405180910390f35b6101fe60048036038101906101f9919061105a565b610589565b60405161020b91906114de565b60405180910390f35b61021c6105d2565b005b6102386004803603810190610233919061114a565b61065a565b005b610242610667565b60405161024f9190611346565b60405180910390f35b610260610690565b60405161026d919061137c565b60405180910390f35b610290600480360381019061028b919061110e565b610722565b60405161029d9190611361565b60405180910390f35b6102c060048036038101906102bb919061110e565b61080d565b6040516102cd9190611361565b60405180910390f35b6102f060048036038101906102eb9190611083565b61082b565b6040516102fd91906114de565b60405180910390f35b610320600480360381019061031b919061105a565b6108b2565b005b6060600480546103319061160e565b80601f016020809104026020016040519081016040528092919081815260200182805461035d9061160e565b80156103aa5780601f1061037f576101008083540402835291602001916103aa565b820191906000526020600020905b81548152906001019060200180831161038d57829003601f168201915b5050505050905090565b60006103c86103c16109aa565b84846109b2565b6001905092915050565b6000600354905090565b60006103e9848484610b7d565b6000600260008673ffffffffffffffffffffffffffffffffffffffff1673ffffffffffffffffffffffffffffffffffffffff16815260200190815260200160002060006104346109aa565b73ffffffffffffffffffffffffffffffffffffffff1673ffffffffffffffffffffffffffffffffffffffff168152602001908152602001600020549050828110156104b4576040517f08c379a00000000000000000000000000000000000000000000000000000000081526004016104ab9061141e565b60405180910390fd5b6104c8856104c06109aa565b8584036109b2565b60019150509392505050565b60006012905090565b600061057f6104ea6109aa565b8484600260006104f86109aa565b73ffffffffffffffffffffffffffffffffffffffff1673ffffffffffffffffffffffffffffffffffffffff16815260200190815260200160002060008873ffffffffffffffffffffffffffffffffffffffff1673ffffffffffffffffffffffffffffffffffffffff1681526020019081526020016000205461057a9190611530565b6109b2565b6001905092915050565b6000600160008373ffffffffffffffffffffffffffffffffffffffff1673ffffffffffffffffffffffffffffffffffffffff168152602001908152602001600020549050919050565b6105da6109aa565b73ffffffffffffffffffffffffffffffffffffffff166105f8610667565b73ffffffffffffffffffffffffffffffffffffffff161461064e576040517f08c379a00000000000000000000000000000000000000000000000000000000081526004016106459061143e565b60405180910390fd5b6106586000610e01565b565b6106643382610ec5565b50565b60008060009054906101000a900473ffffffffffffffffffffffffffffffffffffffff16905090565b60606005805461069f9061160e565b80601f01602080910402602001604051908101604052809291908181526020018280546106cb9061160e565b80156107185780601f106106ed57610100808354040283529160200191610718565b820191906000526020600020905b8154815290600101906020018083116106fb57829003601f168201915b5050505050905090565b600080600260006107316109aa565b73ffffffffffffffffffffffffffffffffffffffff1673ffffffffffffffffffffffffffffffffffffffff16815260200190815260200160002060008573ffffffffffffffffffffffffffffffffffffffff1673ffffffffffffffffffffffffffffffffffffffff168152602001908152602001600020549050828110156107ee576040517f08c379a00000000000000000000000000000000000000000000000000000000081526004016107e59061149e565b60405180910390fd5b6108026107f96109aa565b858584036109b2565b600191505092915050565b600061082161081a6109aa565b8484610b7d565b6001905092915050565b6000600260008473ffffffffffffffffffffffffffffffffffffffff1673ffffffffffffffffffffffffffffffffffffffff16815260200190815260200160002060008373ffffffffffffffffffffffffffffffffffffffff1673ffffffffffffffffffffffffffffffffffffffff16815260200190815260200160002054905092915050565b6108ba6109aa565b73ffffffffffffffffffffffffffffffffffffffff166108d8610667565b73ffffffffffffffffffffffffffffffffffffffff161461092e576040517f08c379a00000000000000000000000000000000000000000000000000000000081526004016109259061143e565b60405180910390fd5b600073ffffffffffffffffffffffffffffffffffffffff168173ffffffffffffffffffffffffffffffffffffffff16141561099e576040517f08c379a0000000000000000000000000000000000000000000000000000000008152600401610995906113be565b60405180910390fd5b6109a781610e01565b50565b600033905090565b600073ffffffffffffffffffffffffffffffffffffffff168373ffffffffffffffffffffffffffffffffffffffff161415610a22576040517f08c379a0000000000000000000000000000000000000000000000000000000008152600401610a199061147e565b60405180910390fd5b600073ffffffffffffffffffffffffffffffffffffffff168273ffffffffffffffffffffffffffffffffffffffff161415610a92576040517f08c379a0000000000000000000000000000000000000000000000000000000008152600401610a89906113de565b60405180910390fd5b80600260008573ffffffffffffffffffffffffffffffffffffffff1673ffffffffffffffffffffffffffffffffffffffff16815260200190815260200160002060008473ffffffffffffffffffffffffffffffffffffffff1673ffffffffffffffffffffffffffffffffffffffff168152602001908152602001600020819055508173ffffffffffffffffffffffffffffffffffffffff168373ffffffffffffffffffffffffffffffffffffffff167f8c5be1e5ebec7d5bd14f71427d1e84f3dd0314c0f7b2291e5b200ac8c7c3b92583604051610b7091906114de565b60405180910390a3505050565b600073ffffffffffffffffffffffffffffffffffffffff168373ffffffffffffffffffffffffffffffffffffffff161415610bed576040517f08c379a0000000000000000000000000000000000000000000000000000000008152600401610be49061145e565b60405180910390fd5b600073ffffffffffffffffffffffffffffffffffffffff168273ffffffffffffffffffffffffffffffffffffffff161415610c5d576040517f08c379a0000000000000000000000000000000000000000000000000000000008152600401610c549061139e565b60405180910390fd5b610c68838383611026565b6000600160008573ffffffffffffffffffffffffffffffffffffffff1673ffffffffffffffffffffffffffffffffffffffff16815260200190815260200160002054905081811015610cef576040517f08c379a0000000000000000000000000000000000000000000000000000000008152600401610ce6906113fe565b60405180910390fd5b818103600160008673ffffffffffffffffffffffffffffffffffffffff1673ffffffffffffffffffffffffffffffffffffffff1681526020019081526020016000208190555081600160008573ffffffffffffffffffffffffffffffffffffffff1673ffffffffffffffffffffffffffffffffffffffff1681526020019081526020016000206000828254610d849190611530565b925050819055508273ffffffffffffffffffffffffffffffffffffffff168473ffffffffffffffffffffffffffffffffffffffff167fddf252ad1be2c89b69c2b068fc378daa952ba7f163c4a11628f55a4df523b3ef84604051610de891906114de565b60405180910390a3610dfb84848461102b565b50505050565b60008060009054906101000a900473ffffffffffffffffffffffffffffffffffffffff169050816000806101000a81548173ffffffffffffffffffffffffffffffffffffffff021916908373ffffffffffffffffffffffffffffffffffffffff1602179055508173ffffffffffffffffffffffffffffffffffffffff168173ffffffffffffffffffffffffffffffffffffffff167f8be0079c531659141344cd1fd0a4f28419497f9722a3daafe3b4186f6b6457e060405160405180910390a35050565b600073ffffffffffffffffffffffffffffffffffffffff168273ffffffffffffffffffffffffffffffffffffffff161415610f35576040517f08c379a0000000000000000000000000000000000000000000000000000000008152600401610f2c906114be565b60405180910390fd5b610f4160008383611026565b8060036000828254610f539190611530565b9250508190555080600160008473ffffffffffffffffffffffffffffffffffffffff1673ffffffffffffffffffffffffffffffffffffffff1681526020019081526020016000206000828254610fa99190611530565b925050819055508173ffffffffffffffffffffffffffffffffffffffff16600073ffffffffffffffffffffffffffffffffffffffff167fddf252ad1be2c89b69c2b068fc378daa952ba7f163c4a11628f55a4df523b3ef8360405161100e91906114de565b60405180910390a36110226000838361102b565b5050565b505050565b505050565b60008135905061103f81611979565b92915050565b60008135905061105481611990565b92915050565b60006020828403121561106c57600080fd5b600061107a84828501611030565b91505092915050565b6000806040838503121561109657600080fd5b60006110a485828601611030565b92505060206110b585828601611030565b9150509250929050565b6000806000606084860312156110d457600080fd5b60006110e286828701611030565b93505060206110f386828701611030565b925050604061110486828701611045565b9150509250925092565b6000806040838503121561112157600080fd5b600061112f85828601611030565b925050602061114085828601611045565b9150509250929050565b60006020828403121561115c57600080fd5b600061116a84828501611045565b91505092915050565b61117c81611586565b82525050565b61118b81611598565b82525050565b600061119c82611514565b6111a6818561151f565b93506111b68185602086016115db565b6111bf8161169e565b840191505092915050565b60006111d760238361151f565b91506111e2826116af565b604082019050919050565b60006111fa60268361151f565b9150611205826116fe565b604082019050919050565b600061121d60228361151f565b91506112288261174d565b604082019050919050565b600061124060268361151f565b915061124b8261179c565b604082019050919050565b600061126360288361151f565b915061126e826117eb565b604082019050919050565b600061128660208361151f565b91506112918261183a565b602082019050919050565b60006112a960258361151f565b91506112b482611863565b604082019050919050565b60006112cc60248361151f565b91506112d7826118b2565b604082019050919050565b60006112ef60258361151f565b91506112fa82611901565b604082019050919050565b6000611312601f8361151f565b915061131d82611950565b602082019050919050565b611331816115c4565b82525050565b611340816115ce565b82525050565b600060208201905061135b6000830184611173565b92915050565b60006020820190506113766000830184611182565b92915050565b600060208201905081810360008301526113968184611191565b905092915050565b600060208201905081810360008301526113b7816111ca565b9050919050565b600060208201905081810360008301526113d7816111ed565b9050919050565b600060208201905081810360008301526113f781611210565b9050919050565b6000602082019050818103600083015261141781611233565b9050919050565b6000602082019050818103600083015261143781611256565b9050919050565b6000602082019050818103600083015261145781611279565b9050919050565b600060208201905081810360008301526114778161129c565b9050919050565b60006020820190508181036000830152611497816112bf565b9050919050565b600060208201905081810360008301526114b7816112e2565b9050919050565b600060208201905081810360008301526114d781611305565b9050919050565b60006020820190506114f36000830184611328565b92915050565b600060208201905061150e6000830184611337565b92915050565b600081519050919050565b600082825260208201905092915050565b600061153b826115c4565b9150611546836115c4565b9250827fffffffffffffffffffffffffffffffffffffffffffffffffffffffffffffffff0382111561157b5761157a611640565b5b828201905092915050565b6000611591826115a4565b9050919050565b60008115159050919050565b600073ffffffffffffffffffffffffffffffffffffffff82169050919050565b6000819050919050565b600060ff82169050919050565b60005b838110156115f95780820151818401526020810190506115de565b83811115611608576000848401525b50505050565b6000600282049050600182168061162657607f821691505b6020821081141561163a5761163961166f565b5b50919050565b7f4e487b7100000000000000000000000000000000000000000000000000000000600052601160045260246000fd5b7f4e487b7100000000000000000000000000000000000000000000000000000000600052602260045260246000fd5b6000601f19601f8301169050919050565b7f45524332303a207472616e7366657220746f20746865207a65726f206164647260008201527f6573730000000000000000000000000000000000000000000000000000000000602082015250565b7f4f776e61626c653a206e6577206f776e657220697320746865207a65726f206160008201527f6464726573730000000000000000000000000000000000000000000000000000602082015250565b7f45524332303a20617070726f766520746f20746865207a65726f20616464726560008201527f7373000000000000000000000000000000000000000000000000000000000000602082015250565b7f45524332303a207472616e7366657220616d6f756e742065786365656473206260008201527f616c616e63650000000000000000000000000000000000000000000000000000602082015250565b7f45524332303a207472616e7366657220616d6f756e742065786365656473206160008201527f6c6c6f77616e6365000000000000000000000000000000000000000000000000602082015250565b7f4f776e61626c653a2063616c6c6572206973206e6f7420746865206f776e6572600082015250565b7f45524332303a207472616e736665722066726f6d20746865207a65726f20616460008201527f6472657373000000000000000000000000000000000000000000000000000000602082015250565b7f45524332303a20617070726f76652066726f6d20746865207a65726f2061646460008201527f7265737300000000000000000000000000000000000000000000000000000000602082015250565b7f45524332303a2064656372656173656420616c6c6f77616e63652062656c6f7760008201527f207a65726f000000000000000000000000000000000000000000000000000000602082015250565b7f45524332303a206d696e7420746f20746865207a65726f206164647265737300600082015250565b61198281611586565b811461198d57600080fd5b50565b611999816115c4565b81146119a457600080fd5b5056fea26469706673582212200d3b722a1c549d7ef3896f202f64204c4a29856b85b02baaf043cee82eedf85964736f6c63430008040033",
  "linkReferences": {},
  "deployedLinkReferences": {}
}